{
	"contracts/Unisurance.sol": {
		"Unisurance": {
			"abi": [
				{
					"inputs": [
						{
							"internalType": "address",
							"name": "_stablecoin",
							"type": "address"
						},
						{
							"internalType": "address",
							"name": "_priceFeed",
							"type": "address"
						},
						{
							"internalType": "address",
							"name": "_yieldStrategy",
							"type": "address"
						},
						{
							"internalType": "address",
							"name": "_vrfCoordinator",
							"type": "address"
						},
						{
							"internalType": "uint64",
							"name": "_subscriptionId",
							"type": "uint64"
						},
						{
							"internalType": "bytes32",
							"name": "_keyHash",
							"type": "bytes32"
						}
					],
					"stateMutability": "nonpayable",
					"type": "constructor"
				},
				{
					"inputs": [],
					"name": "AccessControlBadConfirmation",
					"type": "error"
				},
				{
					"inputs": [
						{
							"internalType": "address",
							"name": "account",
							"type": "address"
						},
						{
							"internalType": "bytes32",
							"name": "neededRole",
							"type": "bytes32"
						}
					],
					"name": "AccessControlUnauthorizedAccount",
					"type": "error"
				},
				{
					"inputs": [
						{
							"internalType": "address",
							"name": "have",
							"type": "address"
						},
						{
							"internalType": "address",
							"name": "want",
							"type": "address"
						}
					],
					"name": "OnlyCoordinatorCanFulfill",
					"type": "error"
				},
				{
					"inputs": [
						{
							"internalType": "address",
							"name": "token",
							"type": "address"
						}
					],
					"name": "SafeERC20FailedOperation",
					"type": "error"
				},
				{
					"anonymous": false,
					"inputs": [
						{
							"indexed": true,
							"internalType": "address",
							"name": "user",
							"type": "address"
						},
						{
							"indexed": false,
							"internalType": "uint256",
							"name": "amount",
							"type": "uint256"
						}
					],
					"name": "ContributionMade",
					"type": "event"
				},
				{
					"anonymous": false,
					"inputs": [
						{
							"indexed": true,
							"internalType": "address",
							"name": "user",
							"type": "address"
						},
						{
							"indexed": false,
							"internalType": "uint256",
							"name": "bonusAmount",
							"type": "uint256"
						}
					],
					"name": "LotteryWon",
					"type": "event"
				},
				{
					"anonymous": false,
					"inputs": [
						{
							"indexed": true,
							"internalType": "address",
							"name": "user",
							"type": "address"
						},
						{
							"indexed": false,
							"internalType": "uint256",
							"name": "targetMonths",
							"type": "uint256"
						},
						{
							"indexed": false,
							"internalType": "uint256",
							"name": "monthlyContribution",
							"type": "uint256"
						}
					],
					"name": "PlanCreated",
					"type": "event"
				},
				{
					"anonymous": false,
					"inputs": [
						{
							"indexed": true,
							"internalType": "address",
							"name": "user",
							"type": "address"
						}
					],
					"name": "RetirementPhaseStarted",
					"type": "event"
				},
				{
					"anonymous": false,
					"inputs": [
						{
							"indexed": true,
							"internalType": "bytes32",
							"name": "role",
							"type": "bytes32"
						},
						{
							"indexed": true,
							"internalType": "bytes32",
							"name": "previousAdminRole",
							"type": "bytes32"
						},
						{
							"indexed": true,
							"internalType": "bytes32",
							"name": "newAdminRole",
							"type": "bytes32"
						}
					],
					"name": "RoleAdminChanged",
					"type": "event"
				},
				{
					"anonymous": false,
					"inputs": [
						{
							"indexed": true,
							"internalType": "bytes32",
							"name": "role",
							"type": "bytes32"
						},
						{
							"indexed": true,
							"internalType": "address",
							"name": "account",
							"type": "address"
						},
						{
							"indexed": true,
							"internalType": "address",
							"name": "sender",
							"type": "address"
						}
					],
					"name": "RoleGranted",
					"type": "event"
				},
				{
					"anonymous": false,
					"inputs": [
						{
							"indexed": true,
							"internalType": "bytes32",
							"name": "role",
							"type": "bytes32"
						},
						{
							"indexed": true,
							"internalType": "address",
							"name": "account",
							"type": "address"
						},
						{
							"indexed": true,
							"internalType": "address",
							"name": "sender",
							"type": "address"
						}
					],
					"name": "RoleRevoked",
					"type": "event"
				},
				{
					"anonymous": false,
					"inputs": [
						{
							"indexed": true,
							"internalType": "address",
							"name": "user",
							"type": "address"
						},
						{
							"indexed": false,
							"internalType": "uint256",
							"name": "requestId",
							"type": "uint256"
						}
					],
					"name": "VRFRequested",
					"type": "event"
				},
				{
					"anonymous": false,
					"inputs": [
						{
							"indexed": true,
							"internalType": "address",
							"name": "user",
							"type": "address"
						},
						{
							"indexed": false,
							"internalType": "uint256",
							"name": "amount",
							"type": "uint256"
						}
					],
					"name": "YieldWithdrawn",
					"type": "event"
				},
				{
					"inputs": [],
					"name": "ADMIN_ROLE",
					"outputs": [
						{
							"internalType": "bytes32",
							"name": "",
							"type": "bytes32"
						}
					],
					"stateMutability": "view",
					"type": "function"
				},
				{
					"inputs": [],
					"name": "COORDINATOR",
					"outputs": [
						{
							"internalType": "contract VRFCoordinatorV2Interface",
							"name": "",
							"type": "address"
						}
					],
					"stateMutability": "view",
					"type": "function"
				},
				{
					"inputs": [],
					"name": "DEFAULT_ADMIN_ROLE",
					"outputs": [
						{
							"internalType": "bytes32",
							"name": "",
							"type": "bytes32"
						}
					],
					"stateMutability": "view",
					"type": "function"
				},
				{
					"inputs": [],
					"name": "callbackGasLimit",
					"outputs": [
						{
							"internalType": "uint32",
							"name": "",
							"type": "uint32"
						}
					],
					"stateMutability": "view",
					"type": "function"
				},
				{
					"inputs": [
						{
							"internalType": "uint256",
							"name": "amount",
							"type": "uint256"
						}
					],
					"name": "contribute",
					"outputs": [],
					"stateMutability": "nonpayable",
					"type": "function"
				},
				{
					"inputs": [
						{
							"internalType": "uint256",
							"name": "targetMonths",
							"type": "uint256"
						},
						{
							"internalType": "uint256",
							"name": "monthlyContribution",
							"type": "uint256"
						}
					],
					"name": "createPlan",
					"outputs": [],
					"stateMutability": "nonpayable",
					"type": "function"
				},
				{
					"inputs": [
						{
							"internalType": "uint256",
							"name": "amount",
							"type": "uint256"
						}
					],
					"name": "emergencyWithdraw",
					"outputs": [],
					"stateMutability": "nonpayable",
					"type": "function"
				},
				{
					"inputs": [
						{
							"internalType": "address",
							"name": "user",
							"type": "address"
						}
					],
					"name": "getPlanStatus",
					"outputs": [
						{
							"internalType": "uint256",
							"name": "targetMonths",
							"type": "uint256"
						},
						{
							"internalType": "uint256",
							"name": "monthlyContribution",
							"type": "uint256"
						},
						{
							"internalType": "uint256",
							"name": "monthsContributed",
							"type": "uint256"
						},
						{
							"internalType": "uint256",
							"name": "totalContributed",
							"type": "uint256"
						},
						{
							"internalType": "bool",
							"name": "inRetirementPhase",
							"type": "bool"
						},
						{
							"internalType": "uint256",
							"name": "currentYield",
							"type": "uint256"
						},
						{
							"internalType": "uint256",
							"name": "projectedMonthlyIncome",
							"type": "uint256"
						}
					],
					"stateMutability": "view",
					"type": "function"
				},
				{
					"inputs": [
						{
							"internalType": "bytes32",
							"name": "role",
							"type": "bytes32"
						}
					],
					"name": "getRoleAdmin",
					"outputs": [
						{
							"internalType": "bytes32",
							"name": "",
							"type": "bytes32"
						}
					],
					"stateMutability": "view",
					"type": "function"
				},
				{
					"inputs": [
						{
							"internalType": "bytes32",
							"name": "role",
							"type": "bytes32"
						},
						{
							"internalType": "address",
							"name": "account",
							"type": "address"
						}
					],
					"name": "grantRole",
					"outputs": [],
					"stateMutability": "nonpayable",
					"type": "function"
				},
				{
					"inputs": [
						{
							"internalType": "bytes32",
							"name": "role",
							"type": "bytes32"
						},
						{
							"internalType": "address",
							"name": "account",
							"type": "address"
						}
					],
					"name": "hasRole",
					"outputs": [
						{
							"internalType": "bool",
							"name": "",
							"type": "bool"
						}
					],
					"stateMutability": "view",
					"type": "function"
				},
				{
					"inputs": [],
					"name": "keyHash",
					"outputs": [
						{
							"internalType": "bytes32",
							"name": "",
							"type": "bytes32"
						}
					],
					"stateMutability": "view",
					"type": "function"
				},
				{
					"inputs": [],
					"name": "lotteryBonus",
					"outputs": [
						{
							"internalType": "uint256",
							"name": "",
							"type": "uint256"
						}
					],
					"stateMutability": "view",
					"type": "function"
				},
				{
					"inputs": [],
					"name": "lotteryProbability",
					"outputs": [
						{
							"internalType": "uint256",
							"name": "",
							"type": "uint256"
						}
					],
					"stateMutability": "view",
					"type": "function"
				},
				{
					"inputs": [],
					"name": "minimumContribution",
					"outputs": [
						{
							"internalType": "uint256",
							"name": "",
							"type": "uint256"
						}
					],
					"stateMutability": "view",
					"type": "function"
				},
				{
					"inputs": [],
					"name": "numWords",
					"outputs": [
						{
							"internalType": "uint32",
							"name": "",
							"type": "uint32"
						}
					],
					"stateMutability": "view",
					"type": "function"
				},
				{
					"inputs": [],
					"name": "priceFeed",
					"outputs": [
						{
							"internalType": "contract AggregatorV3Interface",
							"name": "",
							"type": "address"
						}
					],
					"stateMutability": "view",
					"type": "function"
				},
				{
					"inputs": [
						{
							"internalType": "uint256",
							"name": "requestId",
							"type": "uint256"
						},
						{
							"internalType": "uint256[]",
							"name": "randomWords",
							"type": "uint256[]"
						}
					],
					"name": "rawFulfillRandomWords",
					"outputs": [],
					"stateMutability": "nonpayable",
					"type": "function"
				},
				{
					"inputs": [
						{
							"internalType": "bytes32",
							"name": "role",
							"type": "bytes32"
						},
						{
							"internalType": "address",
							"name": "callerConfirmation",
							"type": "address"
						}
					],
					"name": "renounceRole",
					"outputs": [],
					"stateMutability": "nonpayable",
					"type": "function"
				},
				{
					"inputs": [],
					"name": "requestConfirmations",
					"outputs": [
						{
							"internalType": "uint16",
							"name": "",
							"type": "uint16"
						}
					],
					"stateMutability": "view",
					"type": "function"
				},
				{
					"inputs": [
						{
							"internalType": "address",
							"name": "",
							"type": "address"
						}
					],
					"name": "retirementPlans",
					"outputs": [
						{
							"internalType": "uint256",
							"name": "targetMonths",
							"type": "uint256"
						},
						{
							"internalType": "uint256",
							"name": "monthlyContribution",
							"type": "uint256"
						},
						{
							"internalType": "uint256",
							"name": "startTime",
							"type": "uint256"
						},
						{
							"internalType": "uint256",
							"name": "lastContributionTime",
							"type": "uint256"
						},
						{
							"internalType": "uint256",
							"name": "totalContributed",
							"type": "uint256"
						},
						{
							"internalType": "uint256",
							"name": "monthsContributed",
							"type": "uint256"
						},
						{
							"internalType": "bool",
							"name": "inRetirementPhase",
							"type": "bool"
						},
						{
							"internalType": "uint256",
							"name": "lastWithdrawalTime",
							"type": "uint256"
						}
					],
					"stateMutability": "view",
					"type": "function"
				},
				{
					"inputs": [
						{
							"internalType": "bytes32",
							"name": "role",
							"type": "bytes32"
						},
						{
							"internalType": "address",
							"name": "account",
							"type": "address"
						}
					],
					"name": "revokeRole",
					"outputs": [],
					"stateMutability": "nonpayable",
					"type": "function"
				},
				{
					"inputs": [],
					"name": "stablecoin",
					"outputs": [
						{
							"internalType": "contract IERC20",
							"name": "",
							"type": "address"
						}
					],
					"stateMutability": "view",
					"type": "function"
				},
				{
					"inputs": [],
					"name": "subscriptionId",
					"outputs": [
						{
							"internalType": "uint64",
							"name": "",
							"type": "uint64"
						}
					],
					"stateMutability": "view",
					"type": "function"
				},
				{
					"inputs": [
						{
							"internalType": "bytes4",
							"name": "interfaceId",
							"type": "bytes4"
						}
					],
					"name": "supportsInterface",
					"outputs": [
						{
							"internalType": "bool",
							"name": "",
							"type": "bool"
						}
					],
					"stateMutability": "view",
					"type": "function"
				},
				{
					"inputs": [],
					"name": "tokenDecimals",
					"outputs": [
						{
							"internalType": "uint8",
							"name": "",
							"type": "uint8"
						}
					],
					"stateMutability": "view",
					"type": "function"
				},
				{
					"inputs": [
						{
							"internalType": "uint256",
							"name": "_minimumContribution",
							"type": "uint256"
						},
						{
							"internalType": "uint256",
							"name": "_yieldFee",
							"type": "uint256"
						},
						{
							"internalType": "uint256",
							"name": "_lotteryProbability",
							"type": "uint256"
						},
						{
							"internalType": "uint256",
							"name": "_lotteryBonus",
							"type": "uint256"
						}
					],
					"name": "updateSystemParameters",
					"outputs": [],
					"stateMutability": "nonpayable",
					"type": "function"
				},
				{
					"inputs": [
						{
							"internalType": "uint64",
							"name": "_subscriptionId",
							"type": "uint64"
						},
						{
							"internalType": "bytes32",
							"name": "_keyHash",
							"type": "bytes32"
						},
						{
							"internalType": "uint32",
							"name": "_callbackGasLimit",
							"type": "uint32"
						},
						{
							"internalType": "uint16",
							"name": "_requestConfirmations",
							"type": "uint16"
						}
					],
					"name": "updateVRFParameters",
					"outputs": [],
					"stateMutability": "nonpayable",
					"type": "function"
				},
				{
					"inputs": [
						{
							"internalType": "address",
							"name": "_yieldStrategy",
							"type": "address"
						}
					],
					"name": "updateYieldStrategy",
					"outputs": [],
					"stateMutability": "nonpayable",
					"type": "function"
				},
				{
					"inputs": [
						{
							"internalType": "uint256",
							"name": "",
							"type": "uint256"
						}
					],
					"name": "vrfRequests",
					"outputs": [
						{
							"internalType": "address",
							"name": "",
							"type": "address"
						}
					],
					"stateMutability": "view",
					"type": "function"
				},
				{
					"inputs": [
						{
							"internalType": "uint256",
							"name": "amount",
							"type": "uint256"
						}
					],
					"name": "withdrawPrincipal",
					"outputs": [],
					"stateMutability": "nonpayable",
					"type": "function"
				},
				{
					"inputs": [],
					"name": "withdrawYield",
					"outputs": [],
					"stateMutability": "nonpayable",
					"type": "function"
				},
				{
					"inputs": [],
					"name": "yieldFee",
					"outputs": [
						{
							"internalType": "uint256",
							"name": "",
							"type": "uint256"
						}
					],
					"stateMutability": "view",
					"type": "function"
				},
				{
					"inputs": [],
					"name": "yieldStrategy",
					"outputs": [
						{
							"internalType": "contract IYieldStrategy",
							"name": "",
							"type": "address"
						}
					],
					"stateMutability": "view",
					"type": "function"
				}
			],
			"devdoc": {
				"errors": {
					"AccessControlBadConfirmation()": [
						{
							"details": "The caller of a function is not the expected one. NOTE: Don't confuse with {AccessControlUnauthorizedAccount}."
						}
					],
					"AccessControlUnauthorizedAccount(address,bytes32)": [
						{
							"details": "The `account` is missing a role."
						}
					],
					"SafeERC20FailedOperation(address)": [
						{
							"details": "An operation with an ERC-20 token failed."
						}
					]
				},
				"events": {
					"RoleAdminChanged(bytes32,bytes32,bytes32)": {
						"details": "Emitted when `newAdminRole` is set as ``role``'s admin role, replacing `previousAdminRole` `DEFAULT_ADMIN_ROLE` is the starting admin for all roles, despite {RoleAdminChanged} not being emitted to signal this."
					},
					"RoleGranted(bytes32,address,address)": {
						"details": "Emitted when `account` is granted `role`. `sender` is the account that originated the contract call. This account bears the admin role (for the granted role). Expected in cases where the role was granted using the internal {AccessControl-_grantRole}."
					},
					"RoleRevoked(bytes32,address,address)": {
						"details": "Emitted when `account` is revoked `role`. `sender` is the account that originated the contract call:   - if using `revokeRole`, it is the admin role bearer   - if using `renounceRole`, it is the role bearer (i.e. `account`)"
					}
				},
				"kind": "dev",
				"methods": {
					"constructor": {
						"details": "Constructor sets the token, price feed, and VRF coordinator"
					},
					"contribute(uint256)": {
						"details": "Allows users to contribute to their retirement plan",
						"params": {
							"amount": "The amount of stablecoins to contribute"
						}
					},
					"createPlan(uint256,uint256)": {
						"details": "Creates a new retirement plan for the user",
						"params": {
							"monthlyContribution": "The amount the user plans to contribute monthly",
							"targetMonths": "The number of months the user plans to contribute"
						}
					},
					"emergencyWithdraw(uint256)": {
						"details": "Admin function to withdraw tokens in case of emergency"
					},
					"getPlanStatus(address)": {
						"details": "Gets the current retirement plan status for a user",
						"params": {
							"user": "The address of the user"
						},
						"returns": {
							"currentYield": "The current yield available",
							"inRetirementPhase": "Whether the user is in retirement phase",
							"monthlyContribution": "The monthly contribution amount",
							"monthsContributed": "The number of months contributed",
							"projectedMonthlyIncome": "The projected monthly income in retirement",
							"targetMonths": "The target months for contribution",
							"totalContributed": "The total amount contributed"
						}
					},
					"getRoleAdmin(bytes32)": {
						"details": "Returns the admin role that controls `role`. See {grantRole} and {revokeRole}. To change a role's admin, use {_setRoleAdmin}."
					},
					"grantRole(bytes32,address)": {
						"details": "Grants `role` to `account`. If `account` had not been already granted `role`, emits a {RoleGranted} event. Requirements: - the caller must have ``role``'s admin role. May emit a {RoleGranted} event."
					},
					"hasRole(bytes32,address)": {
						"details": "Returns `true` if `account` has been granted `role`."
					},
					"renounceRole(bytes32,address)": {
						"details": "Revokes `role` from the calling account. Roles are often managed via {grantRole} and {revokeRole}: this function's purpose is to provide a mechanism for accounts to lose their privileges if they are compromised (such as when a trusted device is misplaced). If the calling account had been revoked `role`, emits a {RoleRevoked} event. Requirements: - the caller must be `callerConfirmation`. May emit a {RoleRevoked} event."
					},
					"revokeRole(bytes32,address)": {
						"details": "Revokes `role` from `account`. If `account` had been granted `role`, emits a {RoleRevoked} event. Requirements: - the caller must have ``role``'s admin role. May emit a {RoleRevoked} event."
					},
					"supportsInterface(bytes4)": {
						"details": "See {IERC165-supportsInterface}."
					},
					"updateSystemParameters(uint256,uint256,uint256,uint256)": {
						"details": "Admin function to update system parameters"
					},
					"updateVRFParameters(uint64,bytes32,uint32,uint16)": {
						"details": "Admin function to update VRF parameters"
					},
					"updateYieldStrategy(address)": {
						"details": "Admin function to update yield strategy"
					},
					"withdrawPrincipal(uint256)": {
						"details": "Allows users to withdraw their principal after retirement phase",
						"params": {
							"amount": "The amount to withdraw"
						}
					},
					"withdrawYield()": {
						"details": "Allows users in retirement phase to withdraw yield"
					}
				},
				"version": 1
			},
			"evm": {
				"assembly": "    /* \"contracts/Unisurance.sol\":565:13525  contract Unisurance is ReentrancyGuard, AccessControl, VRFConsumerBaseV2 {... */\n  mstore(0x40, 0xa0)\n    /* \"contracts/Unisurance.sol\":1127:1133  100000 */\n  0x0186a0\n    /* \"contracts/Unisurance.sol\":1094:1133  uint32 public callbackGasLimit = 100000 */\n  0x07\n  exp(0x0100, 0x00)\n  dup2\n  sload\n  dup2\n  0xffffffff\n  mul\n  not\n  and\n  swap1\n  dup4\n  0xffffffff\n  and\n  mul\n  or\n  swap1\n  sstore\n  pop\n    /* \"contracts/Unisurance.sol\":1176:1177  3 */\n  0x03\n    /* \"contracts/Unisurance.sol\":1139:1177  uint16 public requestConfirmations = 3 */\n  0x07\n  exp(0x0100, 0x04)\n  dup2\n  sload\n  dup2\n  0xffff\n  mul\n  not\n  and\n  swap1\n  dup4\n  0xffff\n  and\n  mul\n  or\n  swap1\n  sstore\n  pop\n    /* \"contracts/Unisurance.sol\":1208:1209  1 */\n  0x01\n    /* \"contracts/Unisurance.sol\":1183:1209  uint32 public numWords = 1 */\n  0x07\n  exp(0x0100, 0x06)\n  dup2\n  sload\n  dup2\n  0xffffffff\n  mul\n  not\n  and\n  swap1\n  dup4\n  0xffffffff\n  and\n  mul\n  or\n  swap1\n  sstore\n  pop\n    /* \"contracts/Unisurance.sol\":1278:1288  10 * 10**6 */\n  0x989680\n    /* \"contracts/Unisurance.sol\":1241:1288  uint256 public minimumContribution = 10 * 10**6 */\n  0x08\n  sstore\n    /* \"contracts/Unisurance.sol\":1331:1334  500 */\n  0x01f4\n    /* \"contracts/Unisurance.sol\":1305:1334  uint256 public yieldFee = 500 */\n  0x09\n  sstore\n    /* \"contracts/Unisurance.sol\":1410:1414  1000 */\n  0x03e8\n    /* \"contracts/Unisurance.sol\":1374:1414  uint256 public lotteryProbability = 1000 */\n  0x0a\n  sstore\n    /* \"contracts/Unisurance.sol\":1479:1483  1000 */\n  0x03e8\n    /* \"contracts/Unisurance.sol\":1449:1483  uint256 public lotteryBonus = 1000 */\n  0x0b\n  sstore\n    /* \"contracts/Unisurance.sol\":2538:3457  constructor(... */\n  callvalue\n  dup1\n  iszero\n  tag_1\n  jumpi\n  revert(0x00, 0x00)\ntag_1:\n  pop\n  mload(0x40)\n  sub(codesize, bytecodeSize)\n  dup1\n  bytecodeSize\n  dup4\n  codecopy\n  dup2\n  dup2\n  add\n  0x40\n  mstore\n  dup2\n  add\n  swap1\n  tag_2\n  swap2\n  swap1\n  tag_3\n  jump\t// in\ntag_2:\n    /* \"contracts/Unisurance.sol\":2754:2769  _vrfCoordinator */\n  dup3\n    /* \"@openzeppelin/contracts/security/ReentrancyGuard.sol\":1716:1717  1 */\n  0x01\n    /* \"@openzeppelin/contracts/security/ReentrancyGuard.sol\":1821:1828  _status */\n  0x00\n    /* \"@openzeppelin/contracts/security/ReentrancyGuard.sol\":1821:1843  _status = _NOT_ENTERED */\n  dup2\n  swap1\n  sstore\n  pop\n    /* \"@chainlink/contracts/src/v0.8/VRFConsumerBaseV2.sol\":5616:5631  _vrfCoordinator */\n  dup1\n    /* \"@chainlink/contracts/src/v0.8/VRFConsumerBaseV2.sol\":5599:5631  vrfCoordinator = _vrfCoordinator */\n  0xffffffffffffffffffffffffffffffffffffffff\n  and\n  0x80\n  dup2\n  0xffffffffffffffffffffffffffffffffffffffff\n  and\n  dup2\n  mstore\n  pop\n  pop\n    /* \"@chainlink/contracts/src/v0.8/VRFConsumerBaseV2.sol\":5556:5636  constructor(address _vrfCoordinator) {... */\n  pop\n    /* \"contracts/Unisurance.sol\":2801:2812  _stablecoin */\n  dup6\n    /* \"contracts/Unisurance.sol\":2781:2791  stablecoin */\n  0x02\n  0x00\n    /* \"contracts/Unisurance.sol\":2781:2813  stablecoin = IERC20(_stablecoin) */\n  0x0100\n  exp\n  dup2\n  sload\n  dup2\n  0xffffffffffffffffffffffffffffffffffffffff\n  mul\n  not\n  and\n  swap1\n  dup4\n  0xffffffffffffffffffffffffffffffffffffffff\n  and\n  mul\n  or\n  swap1\n  sstore\n  pop\n    /* \"contracts/Unisurance.sol\":2857:2867  _priceFeed */\n  dup5\n    /* \"contracts/Unisurance.sol\":2823:2832  priceFeed */\n  0x03\n  0x00\n    /* \"contracts/Unisurance.sol\":2823:2868  priceFeed = AggregatorV3Interface(_priceFeed) */\n  0x0100\n  exp\n  dup2\n  sload\n  dup2\n  0xffffffffffffffffffffffffffffffffffffffff\n  mul\n  not\n  and\n  swap1\n  dup4\n  0xffffffffffffffffffffffffffffffffffffffff\n  and\n  mul\n  or\n  swap1\n  sstore\n  pop\n    /* \"contracts/Unisurance.sol\":2909:2923  _yieldStrategy */\n  dup4\n    /* \"contracts/Unisurance.sol\":2878:2891  yieldStrategy */\n  0x04\n  0x00\n    /* \"contracts/Unisurance.sol\":2878:2924  yieldStrategy = IYieldStrategy(_yieldStrategy) */\n  0x0100\n  exp\n  dup2\n  sload\n  dup2\n  0xffffffffffffffffffffffffffffffffffffffff\n  mul\n  not\n  and\n  swap1\n  dup4\n  0xffffffffffffffffffffffffffffffffffffffff\n  and\n  mul\n  or\n  swap1\n  sstore\n  pop\n    /* \"contracts/Unisurance.sol\":3005:3020  _vrfCoordinator */\n  dup3\n    /* \"contracts/Unisurance.sol\":2965:2976  COORDINATOR */\n  0x05\n  0x00\n    /* \"contracts/Unisurance.sol\":2965:3021  COORDINATOR = VRFCoordinatorV2Interface(_vrfCoordinator) */\n  0x0100\n  exp\n  dup2\n  sload\n  dup2\n  0xffffffffffffffffffffffffffffffffffffffff\n  mul\n  not\n  and\n  swap1\n  dup4\n  0xffffffffffffffffffffffffffffffffffffffff\n  and\n  mul\n  or\n  swap1\n  sstore\n  pop\n    /* \"contracts/Unisurance.sol\":3048:3063  _subscriptionId */\n  dup2\n    /* \"contracts/Unisurance.sol\":3031:3045  subscriptionId */\n  0x05\n  0x14\n    /* \"contracts/Unisurance.sol\":3031:3063  subscriptionId = _subscriptionId */\n  0x0100\n  exp\n  dup2\n  sload\n  dup2\n  0xffffffffffffffff\n  mul\n  not\n  and\n  swap1\n  dup4\n  0xffffffffffffffff\n  and\n  mul\n  or\n  swap1\n  sstore\n  pop\n    /* \"contracts/Unisurance.sol\":3083:3091  _keyHash */\n  dup1\n    /* \"contracts/Unisurance.sol\":3073:3080  keyHash */\n  0x06\n    /* \"contracts/Unisurance.sol\":3073:3091  keyHash = _keyHash */\n  dup2\n  swap1\n  sstore\n  pop\n    /* \"contracts/Unisurance.sol\":3151:3162  _stablecoin */\n  dup6\n    /* \"contracts/Unisurance.sol\":3136:3172  IERC20Metadata(_stablecoin).decimals */\n  0xffffffffffffffffffffffffffffffffffffffff\n  and\n  0x313ce567\n    /* \"contracts/Unisurance.sol\":3136:3174  IERC20Metadata(_stablecoin).decimals() */\n  mload(0x40)\n  dup2\n  0xffffffff\n  and\n  0xe0\n  shl\n  dup2\n  mstore\n  0x04\n  add\n  0x20\n  mload(0x40)\n  dup1\n  dup4\n  sub\n  dup2\n  dup7\n  gas\n  staticcall\n  swap3\n  pop\n  pop\n  pop\n  dup1\n  iszero\n  tag_10\n  jumpi\n  pop\n  mload(0x40)\n  returndatasize\n  not(0x1f)\n  0x1f\n  dup3\n  add\n  and\n  dup3\n  add\n  dup1\n  0x40\n  mstore\n  pop\n  dup2\n  add\n  swap1\n  tag_11\n  swap2\n  swap1\n  tag_12\n  jump\t// in\ntag_11:\n  0x01\ntag_10:\n    /* \"contracts/Unisurance.sol\":3132:3330  try IERC20Metadata(_stablecoin).decimals() returns (uint8 decimals) {... */\n  tag_13\n  jumpi\n    /* \"contracts/Unisurance.sol\":3286:3287  6 */\n  0x06\n    /* \"contracts/Unisurance.sol\":3270:3283  tokenDecimals */\n  0x04\n  0x14\n    /* \"contracts/Unisurance.sol\":3270:3287  tokenDecimals = 6 */\n  0x0100\n  exp\n  dup2\n  sload\n  dup2\n  0xff\n  mul\n  not\n  and\n  swap1\n  dup4\n  0xff\n  and\n  mul\n  or\n  swap1\n  sstore\n  pop\n    /* \"contracts/Unisurance.sol\":3132:3330  try IERC20Metadata(_stablecoin).decimals() returns (uint8 decimals) {... */\n  jump(tag_17)\ntag_13:\n    /* \"contracts/Unisurance.sol\":3230:3238  decimals */\n  dup1\n    /* \"contracts/Unisurance.sol\":3214:3227  tokenDecimals */\n  0x04\n  0x14\n    /* \"contracts/Unisurance.sol\":3214:3238  tokenDecimals = decimals */\n  0x0100\n  exp\n  dup2\n  sload\n  dup2\n  0xff\n  mul\n  not\n  and\n  swap1\n  dup4\n  0xff\n  and\n  mul\n  or\n  swap1\n  sstore\n  pop\n    /* \"contracts/Unisurance.sol\":3175:3249  returns (uint8 decimals) {... */\n  pop\n    /* \"contracts/Unisurance.sol\":3132:3330  try IERC20Metadata(_stablecoin).decimals() returns (uint8 decimals) {... */\ntag_17:\n    /* \"contracts/Unisurance.sol\":3364:3406  _grantRole(DEFAULT_ADMIN_ROLE, msg.sender) */\n  tag_18\n    /* \"@openzeppelin/contracts/access/AccessControl.sol\":2232:2236  0x00 */\n  0x00\n    /* \"contracts/Unisurance.sol\":3375:3393  DEFAULT_ADMIN_ROLE */\n  0x00\n  shl\n    /* \"contracts/Unisurance.sol\":3395:3405  msg.sender */\n  caller\n    /* \"contracts/Unisurance.sol\":3364:3374  _grantRole */\n  shl(0x20, tag_19)\n    /* \"contracts/Unisurance.sol\":3364:3406  _grantRole(DEFAULT_ADMIN_ROLE, msg.sender) */\n  0x20\n  shr\n  jump\t// in\ntag_18:\n  pop\n    /* \"contracts/Unisurance.sol\":3416:3450  _grantRole(ADMIN_ROLE, msg.sender) */\n  tag_20\n    /* \"contracts/Unisurance.sol\":727:750  keccak256(\"ADMIN_ROLE\") */\n  0xa49807205ce4d355092ef5a8a18f56e8913cf4a201fbe287825b095693c21775\n    /* \"contracts/Unisurance.sol\":3439:3449  msg.sender */\n  caller\n    /* \"contracts/Unisurance.sol\":3416:3426  _grantRole */\n  shl(0x20, tag_19)\n    /* \"contracts/Unisurance.sol\":3416:3450  _grantRole(ADMIN_ROLE, msg.sender) */\n  0x20\n  shr\n  jump\t// in\ntag_20:\n  pop\n    /* \"contracts/Unisurance.sol\":2538:3457  constructor(... */\n  pop\n  pop\n  pop\n  pop\n  pop\n  pop\n    /* \"contracts/Unisurance.sol\":565:13525  contract Unisurance is ReentrancyGuard, AccessControl, VRFConsumerBaseV2 {... */\n  jump(tag_21)\n    /* \"@openzeppelin/contracts/access/AccessControl.sol\":6179:6495  function _grantRole(bytes32 role, address account) internal virtual returns (bool) {... */\ntag_19:\n    /* \"@openzeppelin/contracts/access/AccessControl.sol\":6256:6260  bool */\n  0x00\n    /* \"@openzeppelin/contracts/access/AccessControl.sol\":6277:6299  hasRole(role, account) */\n  tag_23\n    /* \"@openzeppelin/contracts/access/AccessControl.sol\":6285:6289  role */\n  dup4\n    /* \"@openzeppelin/contracts/access/AccessControl.sol\":6291:6298  account */\n  dup4\n    /* \"@openzeppelin/contracts/access/AccessControl.sol\":6277:6284  hasRole */\n  shl(0x20, tag_24)\n    /* \"@openzeppelin/contracts/access/AccessControl.sol\":6277:6299  hasRole(role, account) */\n  0x20\n  shr\n  jump\t// in\ntag_23:\n    /* \"@openzeppelin/contracts/access/AccessControl.sol\":6272:6489  if (!hasRole(role, account)) {... */\n  tag_25\n  jumpi\n    /* \"@openzeppelin/contracts/access/AccessControl.sol\":6347:6351  true */\n  0x01\n    /* \"@openzeppelin/contracts/access/AccessControl.sol\":6315:6321  _roles */\n  dup1\n    /* \"@openzeppelin/contracts/access/AccessControl.sol\":6315:6327  _roles[role] */\n  0x00\n    /* \"@openzeppelin/contracts/access/AccessControl.sol\":6322:6326  role */\n  dup6\n    /* \"@openzeppelin/contracts/access/AccessControl.sol\":6315:6327  _roles[role] */\n  dup2\n  mstore\n  0x20\n  add\n  swap1\n  dup2\n  mstore\n  0x20\n  add\n  0x00\n  keccak256\n    /* \"@openzeppelin/contracts/access/AccessControl.sol\":6315:6335  _roles[role].hasRole */\n  0x00\n  add\n    /* \"@openzeppelin/contracts/access/AccessControl.sol\":6315:6344  _roles[role].hasRole[account] */\n  0x00\n    /* \"@openzeppelin/contracts/access/AccessControl.sol\":6336:6343  account */\n  dup5\n    /* \"@openzeppelin/contracts/access/AccessControl.sol\":6315:6344  _roles[role].hasRole[account] */\n  0xffffffffffffffffffffffffffffffffffffffff\n  and\n  0xffffffffffffffffffffffffffffffffffffffff\n  and\n  dup2\n  mstore\n  0x20\n  add\n  swap1\n  dup2\n  mstore\n  0x20\n  add\n  0x00\n  keccak256\n  0x00\n    /* \"@openzeppelin/contracts/access/AccessControl.sol\":6315:6351  _roles[role].hasRole[account] = true */\n  0x0100\n  exp\n  dup2\n  sload\n  dup2\n  0xff\n  mul\n  not\n  and\n  swap1\n  dup4\n  iszero\n  iszero\n  mul\n  or\n  swap1\n  sstore\n  pop\n    /* \"@openzeppelin/contracts/access/AccessControl.sol\":6397:6409  _msgSender() */\n  tag_26\n    /* \"@openzeppelin/contracts/access/AccessControl.sol\":6397:6407  _msgSender */\n  shl(0x20, tag_27)\n    /* \"@openzeppelin/contracts/access/AccessControl.sol\":6397:6409  _msgSender() */\n  0x20\n  shr\n  jump\t// in\ntag_26:\n    /* \"@openzeppelin/contracts/access/AccessControl.sol\":6370:6410  RoleGranted(role, account, _msgSender()) */\n  0xffffffffffffffffffffffffffffffffffffffff\n  and\n    /* \"@openzeppelin/contracts/access/AccessControl.sol\":6388:6395  account */\n  dup3\n    /* \"@openzeppelin/contracts/access/AccessControl.sol\":6370:6410  RoleGranted(role, account, _msgSender()) */\n  0xffffffffffffffffffffffffffffffffffffffff\n  and\n    /* \"@openzeppelin/contracts/access/AccessControl.sol\":6382:6386  role */\n  dup5\n    /* \"@openzeppelin/contracts/access/AccessControl.sol\":6370:6410  RoleGranted(role, account, _msgSender()) */\n  0x2f8788117e7eff1d82e926ec794901d17c78024a50270940304540a733656f0d\n  mload(0x40)\n  mload(0x40)\n  dup1\n  swap2\n  sub\n  swap1\n  log4\n    /* \"@openzeppelin/contracts/access/AccessControl.sol\":6431:6435  true */\n  0x01\n    /* \"@openzeppelin/contracts/access/AccessControl.sol\":6424:6435  return true */\n  swap1\n  pop\n  jump(tag_22)\n    /* \"@openzeppelin/contracts/access/AccessControl.sol\":6272:6489  if (!hasRole(role, account)) {... */\ntag_25:\n    /* \"@openzeppelin/contracts/access/AccessControl.sol\":6473:6478  false */\n  0x00\n    /* \"@openzeppelin/contracts/access/AccessControl.sol\":6466:6478  return false */\n  swap1\n  pop\n    /* \"@openzeppelin/contracts/access/AccessControl.sol\":6179:6495  function _grantRole(bytes32 role, address account) internal virtual returns (bool) {... */\ntag_22:\n  swap3\n  swap2\n  pop\n  pop\n  jump\t// out\n    /* \"@openzeppelin/contracts/access/AccessControl.sol\":2854:2990  function hasRole(bytes32 role, address account) public view virtual returns (bool) {... */\ntag_24:\n    /* \"@openzeppelin/contracts/access/AccessControl.sol\":2931:2935  bool */\n  0x00\n    /* \"@openzeppelin/contracts/access/AccessControl.sol\":2954:2960  _roles */\n  0x01\n    /* \"@openzeppelin/contracts/access/AccessControl.sol\":2954:2966  _roles[role] */\n  0x00\n    /* \"@openzeppelin/contracts/access/AccessControl.sol\":2961:2965  role */\n  dup5\n    /* \"@openzeppelin/contracts/access/AccessControl.sol\":2954:2966  _roles[role] */\n  dup2\n  mstore\n  0x20\n  add\n  swap1\n  dup2\n  mstore\n  0x20\n  add\n  0x00\n  keccak256\n    /* \"@openzeppelin/contracts/access/AccessControl.sol\":2954:2974  _roles[role].hasRole */\n  0x00\n  add\n    /* \"@openzeppelin/contracts/access/AccessControl.sol\":2954:2983  _roles[role].hasRole[account] */\n  0x00\n    /* \"@openzeppelin/contracts/access/AccessControl.sol\":2975:2982  account */\n  dup4\n    /* \"@openzeppelin/contracts/access/AccessControl.sol\":2954:2983  _roles[role].hasRole[account] */\n  0xffffffffffffffffffffffffffffffffffffffff\n  and\n  0xffffffffffffffffffffffffffffffffffffffff\n  and\n  dup2\n  mstore\n  0x20\n  add\n  swap1\n  dup2\n  mstore\n  0x20\n  add\n  0x00\n  keccak256\n  0x00\n  swap1\n  sload\n  swap1\n  0x0100\n  exp\n  swap1\n  div\n  0xff\n  and\n    /* \"@openzeppelin/contracts/access/AccessControl.sol\":2947:2983  return _roles[role].hasRole[account] */\n  swap1\n  pop\n    /* \"@openzeppelin/contracts/access/AccessControl.sol\":2854:2990  function hasRole(bytes32 role, address account) public view virtual returns (bool) {... */\n  swap3\n  swap2\n  pop\n  pop\n  jump\t// out\n    /* \"@openzeppelin/contracts/utils/Context.sol\":656:752  function _msgSender() internal view virtual returns (address) {... */\ntag_27:\n    /* \"@openzeppelin/contracts/utils/Context.sol\":709:716  address */\n  0x00\n    /* \"@openzeppelin/contracts/utils/Context.sol\":735:745  msg.sender */\n  caller\n    /* \"@openzeppelin/contracts/utils/Context.sol\":728:745  return msg.sender */\n  swap1\n  pop\n    /* \"@openzeppelin/contracts/utils/Context.sol\":656:752  function _msgSender() internal view virtual returns (address) {... */\n  swap1\n  jump\t// out\n    /* \"#utility.yul\":88:205   */\ntag_32:\n    /* \"#utility.yul\":197:198   */\n  0x00\n    /* \"#utility.yul\":194:195   */\n  0x00\n    /* \"#utility.yul\":187:199   */\n  revert\n    /* \"#utility.yul\":334:460   */\ntag_34:\n    /* \"#utility.yul\":371:378   */\n  0x00\n    /* \"#utility.yul\":411:453   */\n  0xffffffffffffffffffffffffffffffffffffffff\n    /* \"#utility.yul\":404:409   */\n  dup3\n    /* \"#utility.yul\":400:454   */\n  and\n    /* \"#utility.yul\":389:454   */\n  swap1\n  pop\n    /* \"#utility.yul\":334:460   */\n  swap2\n  swap1\n  pop\n  jump\t// out\n    /* \"#utility.yul\":466:562   */\ntag_35:\n    /* \"#utility.yul\":503:510   */\n  0x00\n    /* \"#utility.yul\":532:556   */\n  tag_53\n    /* \"#utility.yul\":550:555   */\n  dup3\n    /* \"#utility.yul\":532:556   */\n  tag_34\n  jump\t// in\ntag_53:\n    /* \"#utility.yul\":521:556   */\n  swap1\n  pop\n    /* \"#utility.yul\":466:562   */\n  swap2\n  swap1\n  pop\n  jump\t// out\n    /* \"#utility.yul\":568:690   */\ntag_36:\n    /* \"#utility.yul\":641:665   */\n  tag_55\n    /* \"#utility.yul\":659:664   */\n  dup2\n    /* \"#utility.yul\":641:665   */\n  tag_35\n  jump\t// in\ntag_55:\n    /* \"#utility.yul\":634:639   */\n  dup2\n    /* \"#utility.yul\":631:666   */\n  eq\n    /* \"#utility.yul\":621:684   */\n  tag_56\n  jumpi\n    /* \"#utility.yul\":680:681   */\n  0x00\n    /* \"#utility.yul\":677:678   */\n  0x00\n    /* \"#utility.yul\":670:682   */\n  revert\n    /* \"#utility.yul\":621:684   */\ntag_56:\n    /* \"#utility.yul\":568:690   */\n  pop\n  jump\t// out\n    /* \"#utility.yul\":696:839   */\ntag_37:\n    /* \"#utility.yul\":753:758   */\n  0x00\n    /* \"#utility.yul\":784:790   */\n  dup2\n    /* \"#utility.yul\":778:791   */\n  mload\n    /* \"#utility.yul\":769:791   */\n  swap1\n  pop\n    /* \"#utility.yul\":800:833   */\n  tag_58\n    /* \"#utility.yul\":827:832   */\n  dup2\n    /* \"#utility.yul\":800:833   */\n  tag_36\n  jump\t// in\ntag_58:\n    /* \"#utility.yul\":696:839   */\n  swap3\n  swap2\n  pop\n  pop\n  jump\t// out\n    /* \"#utility.yul\":845:946   */\ntag_38:\n    /* \"#utility.yul\":881:888   */\n  0x00\n    /* \"#utility.yul\":921:939   */\n  0xffffffffffffffff\n    /* \"#utility.yul\":914:919   */\n  dup3\n    /* \"#utility.yul\":910:940   */\n  and\n    /* \"#utility.yul\":899:940   */\n  swap1\n  pop\n    /* \"#utility.yul\":845:946   */\n  swap2\n  swap1\n  pop\n  jump\t// out\n    /* \"#utility.yul\":952:1072   */\ntag_39:\n    /* \"#utility.yul\":1024:1047   */\n  tag_61\n    /* \"#utility.yul\":1041:1046   */\n  dup2\n    /* \"#utility.yul\":1024:1047   */\n  tag_38\n  jump\t// in\ntag_61:\n    /* \"#utility.yul\":1017:1022   */\n  dup2\n    /* \"#utility.yul\":1014:1048   */\n  eq\n    /* \"#utility.yul\":1004:1066   */\n  tag_62\n  jumpi\n    /* \"#utility.yul\":1062:1063   */\n  0x00\n    /* \"#utility.yul\":1059:1060   */\n  0x00\n    /* \"#utility.yul\":1052:1064   */\n  revert\n    /* \"#utility.yul\":1004:1066   */\ntag_62:\n    /* \"#utility.yul\":952:1072   */\n  pop\n  jump\t// out\n    /* \"#utility.yul\":1078:1219   */\ntag_40:\n    /* \"#utility.yul\":1134:1139   */\n  0x00\n    /* \"#utility.yul\":1165:1171   */\n  dup2\n    /* \"#utility.yul\":1159:1172   */\n  mload\n    /* \"#utility.yul\":1150:1172   */\n  swap1\n  pop\n    /* \"#utility.yul\":1181:1213   */\n  tag_64\n    /* \"#utility.yul\":1207:1212   */\n  dup2\n    /* \"#utility.yul\":1181:1213   */\n  tag_39\n  jump\t// in\ntag_64:\n    /* \"#utility.yul\":1078:1219   */\n  swap3\n  swap2\n  pop\n  pop\n  jump\t// out\n    /* \"#utility.yul\":1225:1302   */\ntag_41:\n    /* \"#utility.yul\":1262:1269   */\n  0x00\n    /* \"#utility.yul\":1291:1296   */\n  dup2\n    /* \"#utility.yul\":1280:1296   */\n  swap1\n  pop\n    /* \"#utility.yul\":1225:1302   */\n  swap2\n  swap1\n  pop\n  jump\t// out\n    /* \"#utility.yul\":1308:1430   */\ntag_42:\n    /* \"#utility.yul\":1381:1405   */\n  tag_67\n    /* \"#utility.yul\":1399:1404   */\n  dup2\n    /* \"#utility.yul\":1381:1405   */\n  tag_41\n  jump\t// in\ntag_67:\n    /* \"#utility.yul\":1374:1379   */\n  dup2\n    /* \"#utility.yul\":1371:1406   */\n  eq\n    /* \"#utility.yul\":1361:1424   */\n  tag_68\n  jumpi\n    /* \"#utility.yul\":1420:1421   */\n  0x00\n    /* \"#utility.yul\":1417:1418   */\n  0x00\n    /* \"#utility.yul\":1410:1422   */\n  revert\n    /* \"#utility.yul\":1361:1424   */\ntag_68:\n    /* \"#utility.yul\":1308:1430   */\n  pop\n  jump\t// out\n    /* \"#utility.yul\":1436:1579   */\ntag_43:\n    /* \"#utility.yul\":1493:1498   */\n  0x00\n    /* \"#utility.yul\":1524:1530   */\n  dup2\n    /* \"#utility.yul\":1518:1531   */\n  mload\n    /* \"#utility.yul\":1509:1531   */\n  swap1\n  pop\n    /* \"#utility.yul\":1540:1573   */\n  tag_70\n    /* \"#utility.yul\":1567:1572   */\n  dup2\n    /* \"#utility.yul\":1540:1573   */\n  tag_42\n  jump\t// in\ntag_70:\n    /* \"#utility.yul\":1436:1579   */\n  swap3\n  swap2\n  pop\n  pop\n  jump\t// out\n    /* \"#utility.yul\":1585:2717   */\ntag_3:\n    /* \"#utility.yul\":1699:1705   */\n  0x00\n    /* \"#utility.yul\":1707:1713   */\n  0x00\n    /* \"#utility.yul\":1715:1721   */\n  0x00\n    /* \"#utility.yul\":1723:1729   */\n  0x00\n    /* \"#utility.yul\":1731:1737   */\n  0x00\n    /* \"#utility.yul\":1739:1745   */\n  0x00\n    /* \"#utility.yul\":1788:1791   */\n  0xc0\n    /* \"#utility.yul\":1776:1785   */\n  dup8\n    /* \"#utility.yul\":1767:1774   */\n  dup10\n    /* \"#utility.yul\":1763:1786   */\n  sub\n    /* \"#utility.yul\":1759:1792   */\n  slt\n    /* \"#utility.yul\":1756:1876   */\n  iszero\n  tag_72\n  jumpi\n    /* \"#utility.yul\":1795:1874   */\n  tag_73\n  tag_32\n  jump\t// in\ntag_73:\n    /* \"#utility.yul\":1756:1876   */\ntag_72:\n    /* \"#utility.yul\":1915:1916   */\n  0x00\n    /* \"#utility.yul\":1940:2004   */\n  tag_74\n    /* \"#utility.yul\":1996:2003   */\n  dup10\n    /* \"#utility.yul\":1987:1993   */\n  dup3\n    /* \"#utility.yul\":1976:1985   */\n  dup11\n    /* \"#utility.yul\":1972:1994   */\n  add\n    /* \"#utility.yul\":1940:2004   */\n  tag_37\n  jump\t// in\ntag_74:\n    /* \"#utility.yul\":1930:2004   */\n  swap7\n  pop\n    /* \"#utility.yul\":1886:2014   */\n  pop\n    /* \"#utility.yul\":2053:2055   */\n  0x20\n    /* \"#utility.yul\":2079:2143   */\n  tag_75\n    /* \"#utility.yul\":2135:2142   */\n  dup10\n    /* \"#utility.yul\":2126:2132   */\n  dup3\n    /* \"#utility.yul\":2115:2124   */\n  dup11\n    /* \"#utility.yul\":2111:2133   */\n  add\n    /* \"#utility.yul\":2079:2143   */\n  tag_37\n  jump\t// in\ntag_75:\n    /* \"#utility.yul\":2069:2143   */\n  swap6\n  pop\n    /* \"#utility.yul\":2024:2153   */\n  pop\n    /* \"#utility.yul\":2192:2194   */\n  0x40\n    /* \"#utility.yul\":2218:2282   */\n  tag_76\n    /* \"#utility.yul\":2274:2281   */\n  dup10\n    /* \"#utility.yul\":2265:2271   */\n  dup3\n    /* \"#utility.yul\":2254:2263   */\n  dup11\n    /* \"#utility.yul\":2250:2272   */\n  add\n    /* \"#utility.yul\":2218:2282   */\n  tag_37\n  jump\t// in\ntag_76:\n    /* \"#utility.yul\":2208:2282   */\n  swap5\n  pop\n    /* \"#utility.yul\":2163:2292   */\n  pop\n    /* \"#utility.yul\":2331:2333   */\n  0x60\n    /* \"#utility.yul\":2357:2421   */\n  tag_77\n    /* \"#utility.yul\":2413:2420   */\n  dup10\n    /* \"#utility.yul\":2404:2410   */\n  dup3\n    /* \"#utility.yul\":2393:2402   */\n  dup11\n    /* \"#utility.yul\":2389:2411   */\n  add\n    /* \"#utility.yul\":2357:2421   */\n  tag_37\n  jump\t// in\ntag_77:\n    /* \"#utility.yul\":2347:2421   */\n  swap4\n  pop\n    /* \"#utility.yul\":2302:2431   */\n  pop\n    /* \"#utility.yul\":2470:2473   */\n  0x80\n    /* \"#utility.yul\":2497:2560   */\n  tag_78\n    /* \"#utility.yul\":2552:2559   */\n  dup10\n    /* \"#utility.yul\":2543:2549   */\n  dup3\n    /* \"#utility.yul\":2532:2541   */\n  dup11\n    /* \"#utility.yul\":2528:2550   */\n  add\n    /* \"#utility.yul\":2497:2560   */\n  tag_40\n  jump\t// in\ntag_78:\n    /* \"#utility.yul\":2487:2560   */\n  swap3\n  pop\n    /* \"#utility.yul\":2441:2570   */\n  pop\n    /* \"#utility.yul\":2609:2612   */\n  0xa0\n    /* \"#utility.yul\":2636:2700   */\n  tag_79\n    /* \"#utility.yul\":2692:2699   */\n  dup10\n    /* \"#utility.yul\":2683:2689   */\n  dup3\n    /* \"#utility.yul\":2672:2681   */\n  dup11\n    /* \"#utility.yul\":2668:2690   */\n  add\n    /* \"#utility.yul\":2636:2700   */\n  tag_43\n  jump\t// in\ntag_79:\n    /* \"#utility.yul\":2626:2700   */\n  swap2\n  pop\n    /* \"#utility.yul\":2580:2710   */\n  pop\n    /* \"#utility.yul\":1585:2717   */\n  swap3\n  swap6\n  pop\n  swap3\n  swap6\n  pop\n  swap3\n  swap6\n  jump\t// out\n    /* \"#utility.yul\":2723:2809   */\ntag_44:\n    /* \"#utility.yul\":2758:2765   */\n  0x00\n    /* \"#utility.yul\":2798:2802   */\n  0xff\n    /* \"#utility.yul\":2791:2796   */\n  dup3\n    /* \"#utility.yul\":2787:2803   */\n  and\n    /* \"#utility.yul\":2776:2803   */\n  swap1\n  pop\n    /* \"#utility.yul\":2723:2809   */\n  swap2\n  swap1\n  pop\n  jump\t// out\n    /* \"#utility.yul\":2815:2933   */\ntag_45:\n    /* \"#utility.yul\":2886:2908   */\n  tag_82\n    /* \"#utility.yul\":2902:2907   */\n  dup2\n    /* \"#utility.yul\":2886:2908   */\n  tag_44\n  jump\t// in\ntag_82:\n    /* \"#utility.yul\":2879:2884   */\n  dup2\n    /* \"#utility.yul\":2876:2909   */\n  eq\n    /* \"#utility.yul\":2866:2927   */\n  tag_83\n  jumpi\n    /* \"#utility.yul\":2923:2924   */\n  0x00\n    /* \"#utility.yul\":2920:2921   */\n  0x00\n    /* \"#utility.yul\":2913:2925   */\n  revert\n    /* \"#utility.yul\":2866:2927   */\ntag_83:\n    /* \"#utility.yul\":2815:2933   */\n  pop\n  jump\t// out\n    /* \"#utility.yul\":2939:3078   */\ntag_46:\n    /* \"#utility.yul\":2994:2999   */\n  0x00\n    /* \"#utility.yul\":3025:3031   */\n  dup2\n    /* \"#utility.yul\":3019:3032   */\n  mload\n    /* \"#utility.yul\":3010:3032   */\n  swap1\n  pop\n    /* \"#utility.yul\":3041:3072   */\n  tag_85\n    /* \"#utility.yul\":3066:3071   */\n  dup2\n    /* \"#utility.yul\":3041:3072   */\n  tag_45\n  jump\t// in\ntag_85:\n    /* \"#utility.yul\":2939:3078   */\n  swap3\n  swap2\n  pop\n  pop\n  jump\t// out\n    /* \"#utility.yul\":3084:3431   */\ntag_12:\n    /* \"#utility.yul\":3152:3158   */\n  0x00\n    /* \"#utility.yul\":3201:3203   */\n  0x20\n    /* \"#utility.yul\":3189:3198   */\n  dup3\n    /* \"#utility.yul\":3180:3187   */\n  dup5\n    /* \"#utility.yul\":3176:3199   */\n  sub\n    /* \"#utility.yul\":3172:3204   */\n  slt\n    /* \"#utility.yul\":3169:3288   */\n  iszero\n  tag_87\n  jumpi\n    /* \"#utility.yul\":3207:3286   */\n  tag_88\n  tag_32\n  jump\t// in\ntag_88:\n    /* \"#utility.yul\":3169:3288   */\ntag_87:\n    /* \"#utility.yul\":3327:3328   */\n  0x00\n    /* \"#utility.yul\":3352:3414   */\n  tag_89\n    /* \"#utility.yul\":3406:3413   */\n  dup5\n    /* \"#utility.yul\":3397:3403   */\n  dup3\n    /* \"#utility.yul\":3386:3395   */\n  dup6\n    /* \"#utility.yul\":3382:3404   */\n  add\n    /* \"#utility.yul\":3352:3414   */\n  tag_46\n  jump\t// in\ntag_89:\n    /* \"#utility.yul\":3342:3414   */\n  swap2\n  pop\n    /* \"#utility.yul\":3298:3424   */\n  pop\n    /* \"#utility.yul\":3084:3431   */\n  swap3\n  swap2\n  pop\n  pop\n  jump\t// out\n    /* \"contracts/Unisurance.sol\":565:13525  contract Unisurance is ReentrancyGuard, AccessControl, VRFConsumerBaseV2 {... */\ntag_21:\n  mload(0x80)\n  codecopy(0x00, dataOffset(sub_0), dataSize(sub_0))\n  0x00\n  assignImmutable(\"0x1a192fabce13988b84994d4296e6cdc418d55e2f1d7f942188d4040b94fc57ac\")\n  return(0x00, dataSize(sub_0))\nstop\n\nsub_0: assembly {\n        /* \"contracts/Unisurance.sol\":565:13525  contract Unisurance is ReentrancyGuard, AccessControl, VRFConsumerBaseV2 {... */\n      mstore(0x40, 0x80)\n      callvalue\n      dup1\n      iszero\n      tag_1\n      jumpi\n      revert(0x00, 0x00)\n    tag_1:\n      pop\n      jumpi(tag_2, lt(calldatasize, 0x04))\n      shr(0xe0, calldataload(0x00))\n      dup1\n      0x741bef1a\n      gt\n      tag_37\n      jumpi\n      dup1\n      0xc1cbbca7\n      gt\n      tag_38\n      jumpi\n      dup1\n      0xe507a8a4\n      gt\n      tag_39\n      jumpi\n      dup1\n      0xe507a8a4\n      eq\n      tag_32\n      jumpi\n      dup1\n      0xe611d691\n      eq\n      tag_33\n      jumpi\n      dup1\n      0xe68b7757\n      eq\n      tag_34\n      jumpi\n      dup1\n      0xe9cbd822\n      eq\n      tag_35\n      jumpi\n      dup1\n      0xeb03924d\n      eq\n      tag_36\n      jumpi\n      jump(tag_2)\n    tag_39:\n      dup1\n      0xc1cbbca7\n      eq\n      tag_28\n      jumpi\n      dup1\n      0xd4be74ba\n      eq\n      tag_29\n      jumpi\n      dup1\n      0xd547741f\n      eq\n      tag_30\n      jumpi\n      dup1\n      0xd83adc35\n      eq\n      tag_31\n      jumpi\n      jump(tag_2)\n    tag_38:\n      dup1\n      0x937e09b1\n      gt\n      tag_40\n      jumpi\n      dup1\n      0x937e09b1\n      eq\n      tag_24\n      jumpi\n      dup1\n      0xa217fddf\n      eq\n      tag_25\n      jumpi\n      dup1\n      0xb0fb162f\n      eq\n      tag_26\n      jumpi\n      dup1\n      0xb197df54\n      eq\n      tag_27\n      jumpi\n      jump(tag_2)\n    tag_40:\n      dup1\n      0x741bef1a\n      eq\n      tag_20\n      jumpi\n      dup1\n      0x75b238fc\n      eq\n      tag_21\n      jumpi\n      dup1\n      0x7ccfd7fc\n      eq\n      tag_22\n      jumpi\n      dup1\n      0x91d14854\n      eq\n      tag_23\n      jumpi\n      jump(tag_2)\n    tag_37:\n      dup1\n      0x24f74697\n      gt\n      tag_41\n      jumpi\n      dup1\n      0x3b97e856\n      gt\n      tag_42\n      jumpi\n      dup1\n      0x3b97e856\n      eq\n      tag_15\n      jumpi\n      dup1\n      0x5312ea8e\n      eq\n      tag_16\n      jumpi\n      dup1\n      0x5f39e7f0\n      eq\n      tag_17\n      jumpi\n      dup1\n      0x61728f39\n      eq\n      tag_18\n      jumpi\n      dup1\n      0x658e28a4\n      eq\n      tag_19\n      jumpi\n      jump(tag_2)\n    tag_42:\n      dup1\n      0x24f74697\n      eq\n      tag_11\n      jumpi\n      dup1\n      0x2f2ff15d\n      eq\n      tag_12\n      jumpi\n      dup1\n      0x36568abe\n      eq\n      tag_13\n      jumpi\n      dup1\n      0x3b2bcbf1\n      eq\n      tag_14\n      jumpi\n      jump(tag_2)\n    tag_41:\n      dup1\n      0x163c67c2\n      gt\n      tag_43\n      jumpi\n      dup1\n      0x163c67c2\n      eq\n      tag_7\n      jumpi\n      dup1\n      0x1a1d9252\n      eq\n      tag_8\n      jumpi\n      dup1\n      0x1fe543e3\n      eq\n      tag_9\n      jumpi\n      dup1\n      0x248a9ca3\n      eq\n      tag_10\n      jumpi\n      jump(tag_2)\n    tag_43:\n      dup1\n      0x01ffc9a7\n      eq\n      tag_3\n      jumpi\n      dup1\n      0x034f4083\n      eq\n      tag_4\n      jumpi\n      dup1\n      0x09c1ba2e\n      eq\n      tag_5\n      jumpi\n      dup1\n      0x13f14fee\n      eq\n      tag_6\n      jumpi\n    tag_2:\n      revert(0x00, 0x00)\n        /* \"@openzeppelin/contracts/access/AccessControl.sol\":2565:2767  function supportsInterface(bytes4 interfaceId) public view virtual override returns (bool) {... */\n    tag_3:\n      tag_44\n      0x04\n      dup1\n      calldatasize\n      sub\n      dup2\n      add\n      swap1\n      tag_45\n      swap2\n      swap1\n      tag_46\n      jump\t// in\n    tag_45:\n      tag_47\n      jump\t// in\n    tag_44:\n      mload(0x40)\n      tag_48\n      swap2\n      swap1\n      tag_49\n      jump\t// in\n    tag_48:\n      mload(0x40)\n      dup1\n      swap2\n      sub\n      swap1\n      return\n        /* \"contracts/Unisurance.sol\":1305:1334  uint256 public yieldFee = 500 */\n    tag_4:\n      tag_50\n      tag_51\n      jump\t// in\n    tag_50:\n      mload(0x40)\n      tag_52\n      swap2\n      swap1\n      tag_53\n      jump\t// in\n    tag_52:\n      mload(0x40)\n      dup1\n      swap2\n      sub\n      swap1\n      return\n        /* \"contracts/Unisurance.sol\":1032:1060  uint64 public subscriptionId */\n    tag_5:\n      tag_54\n      tag_55\n      jump\t// in\n    tag_54:\n      mload(0x40)\n      tag_56\n      swap2\n      swap1\n      tag_57\n      jump\t// in\n    tag_56:\n      mload(0x40)\n      dup1\n      swap2\n      sub\n      swap1\n      return\n        /* \"contracts/Unisurance.sol\":873:908  IYieldStrategy public yieldStrategy */\n    tag_6:\n      tag_58\n      tag_59\n      jump\t// in\n    tag_58:\n      mload(0x40)\n      tag_60\n      swap2\n      swap1\n      tag_61\n      jump\t// in\n    tag_60:\n      mload(0x40)\n      dup1\n      swap2\n      sub\n      swap1\n      return\n        /* \"contracts/Unisurance.sol\":1449:1483  uint256 public lotteryBonus = 1000 */\n    tag_7:\n      tag_62\n      tag_63\n      jump\t// in\n    tag_62:\n      mload(0x40)\n      tag_64\n      swap2\n      swap1\n      tag_53\n      jump\t// in\n    tag_64:\n      mload(0x40)\n      dup1\n      swap2\n      sub\n      swap1\n      return\n        /* \"contracts/Unisurance.sol\":1970:2016  mapping(uint256 => address) public vrfRequests */\n    tag_8:\n      tag_65\n      0x04\n      dup1\n      calldatasize\n      sub\n      dup2\n      add\n      swap1\n      tag_66\n      swap2\n      swap1\n      tag_67\n      jump\t// in\n    tag_66:\n      tag_68\n      jump\t// in\n    tag_65:\n      mload(0x40)\n      tag_69\n      swap2\n      swap1\n      tag_70\n      jump\t// in\n    tag_69:\n      mload(0x40)\n      dup1\n      swap2\n      sub\n      swap1\n      return\n        /* \"@chainlink/contracts/src/v0.8/VRFConsumerBaseV2.sol\":6618:6874  function rawFulfillRandomWords(uint256 requestId, uint256[] memory randomWords) external {... */\n    tag_9:\n      tag_71\n      0x04\n      dup1\n      calldatasize\n      sub\n      dup2\n      add\n      swap1\n      tag_72\n      swap2\n      swap1\n      tag_73\n      jump\t// in\n    tag_72:\n      tag_74\n      jump\t// in\n    tag_71:\n      stop\n        /* \"@openzeppelin/contracts/access/AccessControl.sol\":3810:3930  function getRoleAdmin(bytes32 role) public view virtual returns (bytes32) {... */\n    tag_10:\n      tag_75\n      0x04\n      dup1\n      calldatasize\n      sub\n      dup2\n      add\n      swap1\n      tag_76\n      swap2\n      swap1\n      tag_77\n      jump\t// in\n    tag_76:\n      tag_78\n      jump\t// in\n    tag_75:\n      mload(0x40)\n      tag_79\n      swap2\n      swap1\n      tag_80\n      jump\t// in\n    tag_79:\n      mload(0x40)\n      dup1\n      swap2\n      sub\n      swap1\n      return\n        /* \"contracts/Unisurance.sol\":1094:1133  uint32 public callbackGasLimit = 100000 */\n    tag_11:\n      tag_81\n      tag_82\n      jump\t// in\n    tag_81:\n      mload(0x40)\n      tag_83\n      swap2\n      swap1\n      tag_84\n      jump\t// in\n    tag_83:\n      mload(0x40)\n      dup1\n      swap2\n      sub\n      swap1\n      return\n        /* \"@openzeppelin/contracts/access/AccessControl.sol\":4226:4362  function grantRole(bytes32 role, address account) public virtual onlyRole(getRoleAdmin(role)) {... */\n    tag_12:\n      tag_85\n      0x04\n      dup1\n      calldatasize\n      sub\n      dup2\n      add\n      swap1\n      tag_86\n      swap2\n      swap1\n      tag_87\n      jump\t// in\n    tag_86:\n      tag_88\n      jump\t// in\n    tag_85:\n      stop\n        /* \"@openzeppelin/contracts/access/AccessControl.sol\":5328:5573  function renounceRole(bytes32 role, address callerConfirmation) public virtual {... */\n    tag_13:\n      tag_89\n      0x04\n      dup1\n      calldatasize\n      sub\n      dup2\n      add\n      swap1\n      tag_90\n      swap2\n      swap1\n      tag_87\n      jump\t// in\n    tag_90:\n      tag_91\n      jump\t// in\n    tag_89:\n      stop\n        /* \"contracts/Unisurance.sol\":982:1026  VRFCoordinatorV2Interface public COORDINATOR */\n    tag_14:\n      tag_92\n      tag_93\n      jump\t// in\n    tag_92:\n      mload(0x40)\n      tag_94\n      swap2\n      swap1\n      tag_95\n      jump\t// in\n    tag_94:\n      mload(0x40)\n      dup1\n      swap2\n      sub\n      swap1\n      return\n        /* \"contracts/Unisurance.sol\":914:940  uint8 public tokenDecimals */\n    tag_15:\n      tag_96\n      tag_97\n      jump\t// in\n    tag_96:\n      mload(0x40)\n      tag_98\n      swap2\n      swap1\n      tag_99\n      jump\t// in\n    tag_98:\n      mload(0x40)\n      dup1\n      swap2\n      sub\n      swap1\n      return\n        /* \"contracts/Unisurance.sol\":13328:13523  function emergencyWithdraw(uint256 amount) external onlyRole(ADMIN_ROLE) {... */\n    tag_16:\n      tag_100\n      0x04\n      dup1\n      calldatasize\n      sub\n      dup2\n      add\n      swap1\n      tag_101\n      swap2\n      swap1\n      tag_67\n      jump\t// in\n    tag_101:\n      tag_102\n      jump\t// in\n    tag_100:\n      stop\n        /* \"contracts/Unisurance.sol\":1875:1932  mapping(address => RetirementPlan) public retirementPlans */\n    tag_17:\n      tag_103\n      0x04\n      dup1\n      calldatasize\n      sub\n      dup2\n      add\n      swap1\n      tag_104\n      swap2\n      swap1\n      tag_105\n      jump\t// in\n    tag_104:\n      tag_106\n      jump\t// in\n    tag_103:\n      mload(0x40)\n      tag_107\n      swap9\n      swap8\n      swap7\n      swap6\n      swap5\n      swap4\n      swap3\n      swap2\n      swap1\n      tag_108\n      jump\t// in\n    tag_107:\n      mload(0x40)\n      dup1\n      swap2\n      sub\n      swap1\n      return\n        /* \"contracts/Unisurance.sol\":1066:1088  bytes32 public keyHash */\n    tag_18:\n      tag_109\n      tag_110\n      jump\t// in\n    tag_109:\n      mload(0x40)\n      tag_111\n      swap2\n      swap1\n      tag_80\n      jump\t// in\n    tag_111:\n      mload(0x40)\n      dup1\n      swap2\n      sub\n      swap1\n      return\n        /* \"contracts/Unisurance.sol\":7435:8039  function withdrawPrincipal(uint256 amount) external nonReentrant {... */\n    tag_19:\n      tag_112\n      0x04\n      dup1\n      calldatasize\n      sub\n      dup2\n      add\n      swap1\n      tag_113\n      swap2\n      swap1\n      tag_67\n      jump\t// in\n    tag_113:\n      tag_114\n      jump\t// in\n    tag_112:\n      stop\n        /* \"contracts/Unisurance.sol\":829:867  AggregatorV3Interface public priceFeed */\n    tag_20:\n      tag_115\n      tag_116\n      jump\t// in\n    tag_115:\n      mload(0x40)\n      tag_117\n      swap2\n      swap1\n      tag_118\n      jump\t// in\n    tag_117:\n      mload(0x40)\n      dup1\n      swap2\n      sub\n      swap1\n      return\n        /* \"contracts/Unisurance.sol\":690:750  bytes32 public constant ADMIN_ROLE = keccak256(\"ADMIN_ROLE\") */\n    tag_21:\n      tag_119\n      tag_120\n      jump\t// in\n    tag_119:\n      mload(0x40)\n      tag_121\n      swap2\n      swap1\n      tag_80\n      jump\t// in\n    tag_121:\n      mload(0x40)\n      dup1\n      swap2\n      sub\n      swap1\n      return\n        /* \"contracts/Unisurance.sol\":1183:1209  uint32 public numWords = 1 */\n    tag_22:\n      tag_122\n      tag_123\n      jump\t// in\n    tag_122:\n      mload(0x40)\n      tag_124\n      swap2\n      swap1\n      tag_84\n      jump\t// in\n    tag_124:\n      mload(0x40)\n      dup1\n      swap2\n      sub\n      swap1\n      return\n        /* \"@openzeppelin/contracts/access/AccessControl.sol\":2854:2990  function hasRole(bytes32 role, address account) public view virtual returns (bool) {... */\n    tag_23:\n      tag_125\n      0x04\n      dup1\n      calldatasize\n      sub\n      dup2\n      add\n      swap1\n      tag_126\n      swap2\n      swap1\n      tag_87\n      jump\t// in\n    tag_126:\n      tag_127\n      jump\t// in\n    tag_125:\n      mload(0x40)\n      tag_128\n      swap2\n      swap1\n      tag_49\n      jump\t// in\n    tag_128:\n      mload(0x40)\n      dup1\n      swap2\n      sub\n      swap1\n      return\n        /* \"contracts/Unisurance.sol\":1241:1288  uint256 public minimumContribution = 10 * 10**6 */\n    tag_24:\n      tag_129\n      tag_130\n      jump\t// in\n    tag_129:\n      mload(0x40)\n      tag_131\n      swap2\n      swap1\n      tag_53\n      jump\t// in\n    tag_131:\n      mload(0x40)\n      dup1\n      swap2\n      sub\n      swap1\n      return\n        /* \"@openzeppelin/contracts/access/AccessControl.sol\":2187:2236  bytes32 public constant DEFAULT_ADMIN_ROLE = 0x00 */\n    tag_25:\n      tag_132\n      tag_133\n      jump\t// in\n    tag_132:\n      mload(0x40)\n      tag_134\n      swap2\n      swap1\n      tag_80\n      jump\t// in\n    tag_134:\n      mload(0x40)\n      dup1\n      swap2\n      sub\n      swap1\n      return\n        /* \"contracts/Unisurance.sol\":1139:1177  uint16 public requestConfirmations = 3 */\n    tag_26:\n      tag_135\n      tag_136\n      jump\t// in\n    tag_135:\n      mload(0x40)\n      tag_137\n      swap2\n      swap1\n      tag_138\n      jump\t// in\n    tag_137:\n      mload(0x40)\n      dup1\n      swap2\n      sub\n      swap1\n      return\n        /* \"contracts/Unisurance.sol\":3693:4482  function createPlan(uint256 targetMonths, uint256 monthlyContribution) external {... */\n    tag_27:\n      tag_139\n      0x04\n      dup1\n      calldatasize\n      sub\n      dup2\n      add\n      swap1\n      tag_140\n      swap2\n      swap1\n      tag_141\n      jump\t// in\n    tag_140:\n      tag_142\n      jump\t// in\n    tag_139:\n      stop\n        /* \"contracts/Unisurance.sol\":4629:6077  function contribute(uint256 amount) external nonReentrant {... */\n    tag_28:\n      tag_143\n      0x04\n      dup1\n      calldatasize\n      sub\n      dup2\n      add\n      swap1\n      tag_144\n      swap2\n      swap1\n      tag_67\n      jump\t// in\n    tag_144:\n      tag_145\n      jump\t// in\n    tag_143:\n      stop\n        /* \"contracts/Unisurance.sol\":1374:1414  uint256 public lotteryProbability = 1000 */\n    tag_29:\n      tag_146\n      tag_147\n      jump\t// in\n    tag_146:\n      mload(0x40)\n      tag_148\n      swap2\n      swap1\n      tag_53\n      jump\t// in\n    tag_148:\n      mload(0x40)\n      dup1\n      swap2\n      sub\n      swap1\n      return\n        /* \"@openzeppelin/contracts/access/AccessControl.sol\":4642:4780  function revokeRole(bytes32 role, address account) public virtual onlyRole(getRoleAdmin(role)) {... */\n    tag_30:\n      tag_149\n      0x04\n      dup1\n      calldatasize\n      sub\n      dup2\n      add\n      swap1\n      tag_150\n      swap2\n      swap1\n      tag_87\n      jump\t// in\n    tag_150:\n      tag_151\n      jump\t// in\n    tag_149:\n      stop\n        /* \"contracts/Unisurance.sol\":8634:9699  function getPlanStatus(address user) external view returns (... */\n    tag_31:\n      tag_152\n      0x04\n      dup1\n      calldatasize\n      sub\n      dup2\n      add\n      swap1\n      tag_153\n      swap2\n      swap1\n      tag_105\n      jump\t// in\n    tag_153:\n      tag_154\n      jump\t// in\n    tag_152:\n      mload(0x40)\n      tag_155\n      swap8\n      swap7\n      swap6\n      swap5\n      swap4\n      swap3\n      swap2\n      swap1\n      tag_156\n      jump\t// in\n    tag_155:\n      mload(0x40)\n      dup1\n      swap2\n      sub\n      swap1\n      return\n        /* \"contracts/Unisurance.sol\":6162:7293  function withdrawYield() external nonReentrant {... */\n    tag_32:\n      tag_157\n      tag_158\n      jump\t// in\n    tag_157:\n      stop\n        /* \"contracts/Unisurance.sol\":12647:13019  function updateVRFParameters(... */\n    tag_33:\n      tag_159\n      0x04\n      dup1\n      calldatasize\n      sub\n      dup2\n      add\n      swap1\n      tag_160\n      swap2\n      swap1\n      tag_161\n      jump\t// in\n    tag_160:\n      tag_162\n      jump\t// in\n    tag_159:\n      stop\n        /* \"contracts/Unisurance.sol\":13093:13239  function updateYieldStrategy(address _yieldStrategy) external onlyRole(ADMIN_ROLE) {... */\n    tag_34:\n      tag_163\n      0x04\n      dup1\n      calldatasize\n      sub\n      dup2\n      add\n      swap1\n      tag_164\n      swap2\n      swap1\n      tag_105\n      jump\t// in\n    tag_164:\n      tag_165\n      jump\t// in\n    tag_163:\n      stop\n        /* \"contracts/Unisurance.sol\":799:823  IERC20 public stablecoin */\n    tag_35:\n      tag_166\n      tag_167\n      jump\t// in\n    tag_166:\n      mload(0x40)\n      tag_168\n      swap2\n      swap1\n      tag_169\n      jump\t// in\n    tag_168:\n      mload(0x40)\n      dup1\n      swap2\n      sub\n      swap1\n      return\n        /* \"contracts/Unisurance.sol\":11973:12573  function updateSystemParameters(... */\n    tag_36:\n      tag_170\n      0x04\n      dup1\n      calldatasize\n      sub\n      dup2\n      add\n      swap1\n      tag_171\n      swap2\n      swap1\n      tag_172\n      jump\t// in\n    tag_171:\n      tag_173\n      jump\t// in\n    tag_170:\n      stop\n        /* \"@openzeppelin/contracts/access/AccessControl.sol\":2565:2767  function supportsInterface(bytes4 interfaceId) public view virtual override returns (bool) {... */\n    tag_47:\n        /* \"@openzeppelin/contracts/access/AccessControl.sol\":2650:2654  bool */\n      0x00\n        /* \"@openzeppelin/contracts/access/AccessControl.sol\":2688:2720  type(IAccessControl).interfaceId */\n      0x7965db0b00000000000000000000000000000000000000000000000000000000\n        /* \"@openzeppelin/contracts/access/AccessControl.sol\":2673:2720  interfaceId == type(IAccessControl).interfaceId */\n      not(0xffffffffffffffffffffffffffffffffffffffffffffffffffffffff)\n      and\n        /* \"@openzeppelin/contracts/access/AccessControl.sol\":2673:2684  interfaceId */\n      dup3\n        /* \"@openzeppelin/contracts/access/AccessControl.sol\":2673:2720  interfaceId == type(IAccessControl).interfaceId */\n      not(0xffffffffffffffffffffffffffffffffffffffffffffffffffffffff)\n      and\n      eq\n        /* \"@openzeppelin/contracts/access/AccessControl.sol\":2673:2760  interfaceId == type(IAccessControl).interfaceId || super.supportsInterface(interfaceId) */\n      dup1\n      tag_175\n      jumpi\n      pop\n        /* \"@openzeppelin/contracts/access/AccessControl.sol\":2724:2760  super.supportsInterface(interfaceId) */\n      tag_176\n        /* \"@openzeppelin/contracts/access/AccessControl.sol\":2748:2759  interfaceId */\n      dup3\n        /* \"@openzeppelin/contracts/access/AccessControl.sol\":2724:2747  super.supportsInterface */\n      tag_177\n        /* \"@openzeppelin/contracts/access/AccessControl.sol\":2724:2760  super.supportsInterface(interfaceId) */\n      jump\t// in\n    tag_176:\n        /* \"@openzeppelin/contracts/access/AccessControl.sol\":2673:2760  interfaceId == type(IAccessControl).interfaceId || super.supportsInterface(interfaceId) */\n    tag_175:\n        /* \"@openzeppelin/contracts/access/AccessControl.sol\":2666:2760  return interfaceId == type(IAccessControl).interfaceId || super.supportsInterface(interfaceId) */\n      swap1\n      pop\n        /* \"@openzeppelin/contracts/access/AccessControl.sol\":2565:2767  function supportsInterface(bytes4 interfaceId) public view virtual override returns (bool) {... */\n      swap2\n      swap1\n      pop\n      jump\t// out\n        /* \"contracts/Unisurance.sol\":1305:1334  uint256 public yieldFee = 500 */\n    tag_51:\n      sload(0x09)\n      dup2\n      jump\t// out\n        /* \"contracts/Unisurance.sol\":1032:1060  uint64 public subscriptionId */\n    tag_55:\n      0x05\n      0x14\n      swap1\n      sload\n      swap1\n      0x0100\n      exp\n      swap1\n      div\n      0xffffffffffffffff\n      and\n      dup2\n      jump\t// out\n        /* \"contracts/Unisurance.sol\":873:908  IYieldStrategy public yieldStrategy */\n    tag_59:\n      0x04\n      0x00\n      swap1\n      sload\n      swap1\n      0x0100\n      exp\n      swap1\n      div\n      0xffffffffffffffffffffffffffffffffffffffff\n      and\n      dup2\n      jump\t// out\n        /* \"contracts/Unisurance.sol\":1449:1483  uint256 public lotteryBonus = 1000 */\n    tag_63:\n      sload(0x0b)\n      dup2\n      jump\t// out\n        /* \"contracts/Unisurance.sol\":1970:2016  mapping(uint256 => address) public vrfRequests */\n    tag_68:\n      mstore(0x20, 0x0d)\n      dup1\n      0x00\n      mstore\n      keccak256(0x00, 0x40)\n      0x00\n      swap2\n      pop\n      sload\n      swap1\n      0x0100\n      exp\n      swap1\n      div\n      0xffffffffffffffffffffffffffffffffffffffff\n      and\n      dup2\n      jump\t// out\n        /* \"@chainlink/contracts/src/v0.8/VRFConsumerBaseV2.sol\":6618:6874  function rawFulfillRandomWords(uint256 requestId, uint256[] memory randomWords) external {... */\n    tag_74:\n        /* \"@chainlink/contracts/src/v0.8/VRFConsumerBaseV2.sol\":6731:6745  vrfCoordinator */\n      immutable(\"0x1a192fabce13988b84994d4296e6cdc418d55e2f1d7f942188d4040b94fc57ac\")\n        /* \"@chainlink/contracts/src/v0.8/VRFConsumerBaseV2.sol\":6717:6745  msg.sender != vrfCoordinator */\n      0xffffffffffffffffffffffffffffffffffffffff\n      and\n        /* \"@chainlink/contracts/src/v0.8/VRFConsumerBaseV2.sol\":6717:6727  msg.sender */\n      caller\n        /* \"@chainlink/contracts/src/v0.8/VRFConsumerBaseV2.sol\":6717:6745  msg.sender != vrfCoordinator */\n      0xffffffffffffffffffffffffffffffffffffffff\n      and\n      eq\n        /* \"@chainlink/contracts/src/v0.8/VRFConsumerBaseV2.sol\":6713:6822  if (msg.sender != vrfCoordinator) {... */\n      tag_179\n      jumpi\n        /* \"@chainlink/contracts/src/v0.8/VRFConsumerBaseV2.sol\":6788:6798  msg.sender */\n      caller\n        /* \"@chainlink/contracts/src/v0.8/VRFConsumerBaseV2.sol\":6800:6814  vrfCoordinator */\n      immutable(\"0x1a192fabce13988b84994d4296e6cdc418d55e2f1d7f942188d4040b94fc57ac\")\n        /* \"@chainlink/contracts/src/v0.8/VRFConsumerBaseV2.sol\":6762:6815  OnlyCoordinatorCanFulfill(msg.sender, vrfCoordinator) */\n      mload(0x40)\n      0x1cf993f400000000000000000000000000000000000000000000000000000000\n      dup2\n      mstore\n      0x04\n      add\n      tag_180\n      swap3\n      swap2\n      swap1\n      tag_181\n      jump\t// in\n    tag_180:\n      mload(0x40)\n      dup1\n      swap2\n      sub\n      swap1\n      revert\n        /* \"@chainlink/contracts/src/v0.8/VRFConsumerBaseV2.sol\":6713:6822  if (msg.sender != vrfCoordinator) {... */\n    tag_179:\n        /* \"@chainlink/contracts/src/v0.8/VRFConsumerBaseV2.sol\":6827:6869  fulfillRandomWords(requestId, randomWords) */\n      tag_182\n        /* \"@chainlink/contracts/src/v0.8/VRFConsumerBaseV2.sol\":6846:6855  requestId */\n      dup3\n        /* \"@chainlink/contracts/src/v0.8/VRFConsumerBaseV2.sol\":6857:6868  randomWords */\n      dup3\n        /* \"@chainlink/contracts/src/v0.8/VRFConsumerBaseV2.sol\":6827:6845  fulfillRandomWords */\n      tag_183\n        /* \"@chainlink/contracts/src/v0.8/VRFConsumerBaseV2.sol\":6827:6869  fulfillRandomWords(requestId, randomWords) */\n      jump\t// in\n    tag_182:\n        /* \"@chainlink/contracts/src/v0.8/VRFConsumerBaseV2.sol\":6618:6874  function rawFulfillRandomWords(uint256 requestId, uint256[] memory randomWords) external {... */\n      pop\n      pop\n      jump\t// out\n        /* \"@openzeppelin/contracts/access/AccessControl.sol\":3810:3930  function getRoleAdmin(bytes32 role) public view virtual returns (bytes32) {... */\n    tag_78:\n        /* \"@openzeppelin/contracts/access/AccessControl.sol\":3875:3882  bytes32 */\n      0x00\n        /* \"@openzeppelin/contracts/access/AccessControl.sol\":3901:3907  _roles */\n      0x01\n        /* \"@openzeppelin/contracts/access/AccessControl.sol\":3901:3913  _roles[role] */\n      0x00\n        /* \"@openzeppelin/contracts/access/AccessControl.sol\":3908:3912  role */\n      dup4\n        /* \"@openzeppelin/contracts/access/AccessControl.sol\":3901:3913  _roles[role] */\n      dup2\n      mstore\n      0x20\n      add\n      swap1\n      dup2\n      mstore\n      0x20\n      add\n      0x00\n      keccak256\n        /* \"@openzeppelin/contracts/access/AccessControl.sol\":3901:3923  _roles[role].adminRole */\n      0x01\n      add\n      sload\n        /* \"@openzeppelin/contracts/access/AccessControl.sol\":3894:3923  return _roles[role].adminRole */\n      swap1\n      pop\n        /* \"@openzeppelin/contracts/access/AccessControl.sol\":3810:3930  function getRoleAdmin(bytes32 role) public view virtual returns (bytes32) {... */\n      swap2\n      swap1\n      pop\n      jump\t// out\n        /* \"contracts/Unisurance.sol\":1094:1133  uint32 public callbackGasLimit = 100000 */\n    tag_82:\n      0x07\n      0x00\n      swap1\n      sload\n      swap1\n      0x0100\n      exp\n      swap1\n      div\n      0xffffffff\n      and\n      dup2\n      jump\t// out\n        /* \"@openzeppelin/contracts/access/AccessControl.sol\":4226:4362  function grantRole(bytes32 role, address account) public virtual onlyRole(getRoleAdmin(role)) {... */\n    tag_88:\n        /* \"@openzeppelin/contracts/access/AccessControl.sol\":4300:4318  getRoleAdmin(role) */\n      tag_185\n        /* \"@openzeppelin/contracts/access/AccessControl.sol\":4313:4317  role */\n      dup3\n        /* \"@openzeppelin/contracts/access/AccessControl.sol\":4300:4312  getRoleAdmin */\n      tag_78\n        /* \"@openzeppelin/contracts/access/AccessControl.sol\":4300:4318  getRoleAdmin(role) */\n      jump\t// in\n    tag_185:\n        /* \"@openzeppelin/contracts/access/AccessControl.sol\":2464:2480  _checkRole(role) */\n      tag_187\n        /* \"@openzeppelin/contracts/access/AccessControl.sol\":2475:2479  role */\n      dup2\n        /* \"@openzeppelin/contracts/access/AccessControl.sol\":2464:2474  _checkRole */\n      tag_188\n        /* \"@openzeppelin/contracts/access/AccessControl.sol\":2464:2480  _checkRole(role) */\n      jump\t// in\n    tag_187:\n        /* \"@openzeppelin/contracts/access/AccessControl.sol\":4330:4355  _grantRole(role, account) */\n      tag_190\n        /* \"@openzeppelin/contracts/access/AccessControl.sol\":4341:4345  role */\n      dup4\n        /* \"@openzeppelin/contracts/access/AccessControl.sol\":4347:4354  account */\n      dup4\n        /* \"@openzeppelin/contracts/access/AccessControl.sol\":4330:4340  _grantRole */\n      tag_191\n        /* \"@openzeppelin/contracts/access/AccessControl.sol\":4330:4355  _grantRole(role, account) */\n      jump\t// in\n    tag_190:\n      pop\n        /* \"@openzeppelin/contracts/access/AccessControl.sol\":4226:4362  function grantRole(bytes32 role, address account) public virtual onlyRole(getRoleAdmin(role)) {... */\n      pop\n      pop\n      pop\n      jump\t// out\n        /* \"@openzeppelin/contracts/access/AccessControl.sol\":5328:5573  function renounceRole(bytes32 role, address callerConfirmation) public virtual {... */\n    tag_91:\n        /* \"@openzeppelin/contracts/access/AccessControl.sol\":5443:5455  _msgSender() */\n      tag_193\n        /* \"@openzeppelin/contracts/access/AccessControl.sol\":5443:5453  _msgSender */\n      tag_194\n        /* \"@openzeppelin/contracts/access/AccessControl.sol\":5443:5455  _msgSender() */\n      jump\t// in\n    tag_193:\n        /* \"@openzeppelin/contracts/access/AccessControl.sol\":5421:5455  callerConfirmation != _msgSender() */\n      0xffffffffffffffffffffffffffffffffffffffff\n      and\n        /* \"@openzeppelin/contracts/access/AccessControl.sol\":5421:5439  callerConfirmation */\n      dup2\n        /* \"@openzeppelin/contracts/access/AccessControl.sol\":5421:5455  callerConfirmation != _msgSender() */\n      0xffffffffffffffffffffffffffffffffffffffff\n      and\n      eq\n        /* \"@openzeppelin/contracts/access/AccessControl.sol\":5417:5519  if (callerConfirmation != _msgSender()) {... */\n      tag_195\n      jumpi\n        /* \"@openzeppelin/contracts/access/AccessControl.sol\":5478:5508  AccessControlBadConfirmation() */\n      mload(0x40)\n      0x6697b23200000000000000000000000000000000000000000000000000000000\n      dup2\n      mstore\n      0x04\n      add\n      mload(0x40)\n      dup1\n      swap2\n      sub\n      swap1\n      revert\n        /* \"@openzeppelin/contracts/access/AccessControl.sol\":5417:5519  if (callerConfirmation != _msgSender()) {... */\n    tag_195:\n        /* \"@openzeppelin/contracts/access/AccessControl.sol\":5529:5566  _revokeRole(role, callerConfirmation) */\n      tag_196\n        /* \"@openzeppelin/contracts/access/AccessControl.sol\":5541:5545  role */\n      dup3\n        /* \"@openzeppelin/contracts/access/AccessControl.sol\":5547:5565  callerConfirmation */\n      dup3\n        /* \"@openzeppelin/contracts/access/AccessControl.sol\":5529:5540  _revokeRole */\n      tag_197\n        /* \"@openzeppelin/contracts/access/AccessControl.sol\":5529:5566  _revokeRole(role, callerConfirmation) */\n      jump\t// in\n    tag_196:\n      pop\n        /* \"@openzeppelin/contracts/access/AccessControl.sol\":5328:5573  function renounceRole(bytes32 role, address callerConfirmation) public virtual {... */\n      pop\n      pop\n      jump\t// out\n        /* \"contracts/Unisurance.sol\":982:1026  VRFCoordinatorV2Interface public COORDINATOR */\n    tag_93:\n      0x05\n      0x00\n      swap1\n      sload\n      swap1\n      0x0100\n      exp\n      swap1\n      div\n      0xffffffffffffffffffffffffffffffffffffffff\n      and\n      dup2\n      jump\t// out\n        /* \"contracts/Unisurance.sol\":914:940  uint8 public tokenDecimals */\n    tag_97:\n      0x04\n      0x14\n      swap1\n      sload\n      swap1\n      0x0100\n      exp\n      swap1\n      div\n      0xff\n      and\n      dup2\n      jump\t// out\n        /* \"contracts/Unisurance.sol\":13328:13523  function emergencyWithdraw(uint256 amount) external onlyRole(ADMIN_ROLE) {... */\n    tag_102:\n        /* \"contracts/Unisurance.sol\":727:750  keccak256(\"ADMIN_ROLE\") */\n      0xa49807205ce4d355092ef5a8a18f56e8913cf4a201fbe287825b095693c21775\n        /* \"@openzeppelin/contracts/access/AccessControl.sol\":2464:2480  _checkRole(role) */\n      tag_199\n        /* \"@openzeppelin/contracts/access/AccessControl.sol\":2475:2479  role */\n      dup2\n        /* \"@openzeppelin/contracts/access/AccessControl.sol\":2464:2474  _checkRole */\n      tag_188\n        /* \"@openzeppelin/contracts/access/AccessControl.sol\":2464:2480  _checkRole(role) */\n      jump\t// in\n    tag_199:\n        /* \"contracts/Unisurance.sol\":13428:13429  0 */\n      0x00\n        /* \"contracts/Unisurance.sol\":13419:13425  amount */\n      dup3\n        /* \"contracts/Unisurance.sol\":13419:13429  amount > 0 */\n      gt\n        /* \"contracts/Unisurance.sol\":13411:13463  require(amount > 0, \"Amount must be greater than 0\") */\n      tag_201\n      jumpi\n      mload(0x40)\n      0x08c379a000000000000000000000000000000000000000000000000000000000\n      dup2\n      mstore\n      0x04\n      add\n      tag_202\n      swap1\n      tag_203\n      jump\t// in\n    tag_202:\n      mload(0x40)\n      dup1\n      swap2\n      sub\n      swap1\n      revert\n    tag_201:\n        /* \"contracts/Unisurance.sol\":13473:13516  stablecoin.safeTransfer(msg.sender, amount) */\n      tag_204\n        /* \"contracts/Unisurance.sol\":13497:13507  msg.sender */\n      caller\n        /* \"contracts/Unisurance.sol\":13509:13515  amount */\n      dup4\n        /* \"contracts/Unisurance.sol\":13473:13483  stablecoin */\n      0x02\n      0x00\n      swap1\n      sload\n      swap1\n      0x0100\n      exp\n      swap1\n      div\n      0xffffffffffffffffffffffffffffffffffffffff\n      and\n        /* \"contracts/Unisurance.sol\":13473:13496  stablecoin.safeTransfer */\n      0xffffffffffffffffffffffffffffffffffffffff\n      and\n      tag_205\n      swap1\n        /* \"contracts/Unisurance.sol\":13473:13516  stablecoin.safeTransfer(msg.sender, amount) */\n      swap3\n      swap2\n      swap1\n      0xffffffff\n      and\n      jump\t// in\n    tag_204:\n        /* \"contracts/Unisurance.sol\":13328:13523  function emergencyWithdraw(uint256 amount) external onlyRole(ADMIN_ROLE) {... */\n      pop\n      pop\n      jump\t// out\n        /* \"contracts/Unisurance.sol\":1875:1932  mapping(address => RetirementPlan) public retirementPlans */\n    tag_106:\n      mstore(0x20, 0x0c)\n      dup1\n      0x00\n      mstore\n      keccak256(0x00, 0x40)\n      0x00\n      swap2\n      pop\n      swap1\n      pop\n      dup1\n      0x00\n      add\n      sload\n      swap1\n      dup1\n      0x01\n      add\n      sload\n      swap1\n      dup1\n      0x02\n      add\n      sload\n      swap1\n      dup1\n      0x03\n      add\n      sload\n      swap1\n      dup1\n      0x04\n      add\n      sload\n      swap1\n      dup1\n      0x05\n      add\n      sload\n      swap1\n      dup1\n      0x06\n      add\n      0x00\n      swap1\n      sload\n      swap1\n      0x0100\n      exp\n      swap1\n      div\n      0xff\n      and\n      swap1\n      dup1\n      0x07\n      add\n      sload\n      swap1\n      pop\n      dup9\n      jump\t// out\n        /* \"contracts/Unisurance.sol\":1066:1088  bytes32 public keyHash */\n    tag_110:\n      sload(0x06)\n      dup2\n      jump\t// out\n        /* \"contracts/Unisurance.sol\":7435:8039  function withdrawPrincipal(uint256 amount) external nonReentrant {... */\n    tag_114:\n        /* \"@openzeppelin/contracts/security/ReentrancyGuard.sol\":2261:2282  _nonReentrantBefore() */\n      tag_207\n        /* \"@openzeppelin/contracts/security/ReentrancyGuard.sol\":2261:2280  _nonReentrantBefore */\n      tag_208\n        /* \"@openzeppelin/contracts/security/ReentrancyGuard.sol\":2261:2282  _nonReentrantBefore() */\n      jump\t// in\n    tag_207:\n        /* \"contracts/Unisurance.sol\":7510:7537  RetirementPlan storage plan */\n      0x00\n        /* \"contracts/Unisurance.sol\":7540:7555  retirementPlans */\n      0x0c\n        /* \"contracts/Unisurance.sol\":7540:7567  retirementPlans[msg.sender] */\n      0x00\n        /* \"contracts/Unisurance.sol\":7556:7566  msg.sender */\n      caller\n        /* \"contracts/Unisurance.sol\":7540:7567  retirementPlans[msg.sender] */\n      0xffffffffffffffffffffffffffffffffffffffff\n      and\n      0xffffffffffffffffffffffffffffffffffffffff\n      and\n      dup2\n      mstore\n      0x20\n      add\n      swap1\n      dup2\n      mstore\n      0x20\n      add\n      0x00\n      keccak256\n        /* \"contracts/Unisurance.sol\":7510:7567  RetirementPlan storage plan = retirementPlans[msg.sender] */\n      swap1\n      pop\n        /* \"contracts/Unisurance.sol\":7585:7589  plan */\n      dup1\n        /* \"contracts/Unisurance.sol\":7585:7607  plan.inRetirementPhase */\n      0x06\n      add\n      0x00\n      swap1\n      sload\n      swap1\n      0x0100\n      exp\n      swap1\n      div\n      0xff\n      and\n        /* \"contracts/Unisurance.sol\":7577:7635  require(plan.inRetirementPhase, \"Not in retirement phase\") */\n      tag_210\n      jumpi\n      mload(0x40)\n      0x08c379a000000000000000000000000000000000000000000000000000000000\n      dup2\n      mstore\n      0x04\n      add\n      tag_211\n      swap1\n      tag_212\n      jump\t// in\n    tag_211:\n      mload(0x40)\n      dup1\n      swap2\n      sub\n      swap1\n      revert\n    tag_210:\n        /* \"contracts/Unisurance.sol\":7662:7663  0 */\n      0x00\n        /* \"contracts/Unisurance.sol\":7653:7659  amount */\n      dup3\n        /* \"contracts/Unisurance.sol\":7653:7663  amount > 0 */\n      gt\n        /* \"contracts/Unisurance.sol\":7645:7697  require(amount > 0, \"Amount must be greater than 0\") */\n      tag_213\n      jumpi\n      mload(0x40)\n      0x08c379a000000000000000000000000000000000000000000000000000000000\n      dup2\n      mstore\n      0x04\n      add\n      tag_214\n      swap1\n      tag_203\n      jump\t// in\n    tag_214:\n      mload(0x40)\n      dup1\n      swap2\n      sub\n      swap1\n      revert\n    tag_213:\n        /* \"contracts/Unisurance.sol\":7725:7729  plan */\n      dup1\n        /* \"contracts/Unisurance.sol\":7725:7746  plan.totalContributed */\n      0x04\n      add\n      sload\n        /* \"contracts/Unisurance.sol\":7715:7721  amount */\n      dup3\n        /* \"contracts/Unisurance.sol\":7715:7746  amount <= plan.totalContributed */\n      gt\n      iszero\n        /* \"contracts/Unisurance.sol\":7707:7784  require(amount <= plan.totalContributed, \"Amount exceeds total contribution\") */\n      tag_215\n      jumpi\n      mload(0x40)\n      0x08c379a000000000000000000000000000000000000000000000000000000000\n      dup2\n      mstore\n      0x04\n      add\n      tag_216\n      swap1\n      tag_217\n      jump\t// in\n    tag_216:\n      mload(0x40)\n      dup1\n      swap2\n      sub\n      swap1\n      revert\n    tag_215:\n        /* \"contracts/Unisurance.sol\":7835:7848  yieldStrategy */\n      0x04\n      0x00\n      swap1\n      sload\n      swap1\n      0x0100\n      exp\n      swap1\n      div\n      0xffffffffffffffffffffffffffffffffffffffff\n      and\n        /* \"contracts/Unisurance.sol\":7835:7857  yieldStrategy.withdraw */\n      0xffffffffffffffffffffffffffffffffffffffff\n      and\n      0x2e1a7d4d\n        /* \"contracts/Unisurance.sol\":7858:7864  amount */\n      dup4\n        /* \"contracts/Unisurance.sol\":7835:7865  yieldStrategy.withdraw(amount) */\n      mload(0x40)\n      dup3\n      0xffffffff\n      and\n      0xe0\n      shl\n      dup2\n      mstore\n      0x04\n      add\n      tag_218\n      swap2\n      swap1\n      tag_53\n      jump\t// in\n    tag_218:\n      0x20\n      mload(0x40)\n      dup1\n      dup4\n      sub\n      dup2\n      0x00\n      dup8\n      gas\n      call\n      iszero\n      dup1\n      iszero\n      tag_220\n      jumpi\n      returndatacopy(0x00, 0x00, returndatasize)\n      revert(0x00, returndatasize)\n    tag_220:\n      pop\n      pop\n      pop\n      pop\n      mload(0x40)\n      returndatasize\n      not(0x1f)\n      0x1f\n      dup3\n      add\n      and\n      dup3\n      add\n      dup1\n      0x40\n      mstore\n      pop\n      dup2\n      add\n      swap1\n      tag_221\n      swap2\n      swap1\n      tag_222\n      jump\t// in\n    tag_221:\n      pop\n        /* \"contracts/Unisurance.sol\":7944:7950  amount */\n      dup2\n        /* \"contracts/Unisurance.sol\":7919:7923  plan */\n      dup2\n        /* \"contracts/Unisurance.sol\":7919:7940  plan.totalContributed */\n      0x04\n      add\n      0x00\n        /* \"contracts/Unisurance.sol\":7919:7950  plan.totalContributed -= amount */\n      dup3\n      dup3\n      sload\n      tag_223\n      swap2\n      swap1\n      tag_224\n      jump\t// in\n    tag_223:\n      swap3\n      pop\n      pop\n      dup2\n      swap1\n      sstore\n      pop\n        /* \"contracts/Unisurance.sol\":7989:8032  stablecoin.safeTransfer(msg.sender, amount) */\n      tag_225\n        /* \"contracts/Unisurance.sol\":8013:8023  msg.sender */\n      caller\n        /* \"contracts/Unisurance.sol\":8025:8031  amount */\n      dup4\n        /* \"contracts/Unisurance.sol\":7989:7999  stablecoin */\n      0x02\n      0x00\n      swap1\n      sload\n      swap1\n      0x0100\n      exp\n      swap1\n      div\n      0xffffffffffffffffffffffffffffffffffffffff\n      and\n        /* \"contracts/Unisurance.sol\":7989:8012  stablecoin.safeTransfer */\n      0xffffffffffffffffffffffffffffffffffffffff\n      and\n      tag_205\n      swap1\n        /* \"contracts/Unisurance.sol\":7989:8032  stablecoin.safeTransfer(msg.sender, amount) */\n      swap3\n      swap2\n      swap1\n      0xffffffff\n      and\n      jump\t// in\n    tag_225:\n        /* \"contracts/Unisurance.sol\":7500:8039  {... */\n      pop\n        /* \"@openzeppelin/contracts/security/ReentrancyGuard.sol\":2303:2323  _nonReentrantAfter() */\n      tag_226\n        /* \"@openzeppelin/contracts/security/ReentrancyGuard.sol\":2303:2321  _nonReentrantAfter */\n      tag_227\n        /* \"@openzeppelin/contracts/security/ReentrancyGuard.sol\":2303:2323  _nonReentrantAfter() */\n      jump\t// in\n    tag_226:\n        /* \"contracts/Unisurance.sol\":7435:8039  function withdrawPrincipal(uint256 amount) external nonReentrant {... */\n      pop\n      jump\t// out\n        /* \"contracts/Unisurance.sol\":829:867  AggregatorV3Interface public priceFeed */\n    tag_116:\n      0x03\n      0x00\n      swap1\n      sload\n      swap1\n      0x0100\n      exp\n      swap1\n      div\n      0xffffffffffffffffffffffffffffffffffffffff\n      and\n      dup2\n      jump\t// out\n        /* \"contracts/Unisurance.sol\":690:750  bytes32 public constant ADMIN_ROLE = keccak256(\"ADMIN_ROLE\") */\n    tag_120:\n        /* \"contracts/Unisurance.sol\":727:750  keccak256(\"ADMIN_ROLE\") */\n      0xa49807205ce4d355092ef5a8a18f56e8913cf4a201fbe287825b095693c21775\n        /* \"contracts/Unisurance.sol\":690:750  bytes32 public constant ADMIN_ROLE = keccak256(\"ADMIN_ROLE\") */\n      dup2\n      jump\t// out\n        /* \"contracts/Unisurance.sol\":1183:1209  uint32 public numWords = 1 */\n    tag_123:\n      0x07\n      0x06\n      swap1\n      sload\n      swap1\n      0x0100\n      exp\n      swap1\n      div\n      0xffffffff\n      and\n      dup2\n      jump\t// out\n        /* \"@openzeppelin/contracts/access/AccessControl.sol\":2854:2990  function hasRole(bytes32 role, address account) public view virtual returns (bool) {... */\n    tag_127:\n        /* \"@openzeppelin/contracts/access/AccessControl.sol\":2931:2935  bool */\n      0x00\n        /* \"@openzeppelin/contracts/access/AccessControl.sol\":2954:2960  _roles */\n      0x01\n        /* \"@openzeppelin/contracts/access/AccessControl.sol\":2954:2966  _roles[role] */\n      0x00\n        /* \"@openzeppelin/contracts/access/AccessControl.sol\":2961:2965  role */\n      dup5\n        /* \"@openzeppelin/contracts/access/AccessControl.sol\":2954:2966  _roles[role] */\n      dup2\n      mstore\n      0x20\n      add\n      swap1\n      dup2\n      mstore\n      0x20\n      add\n      0x00\n      keccak256\n        /* \"@openzeppelin/contracts/access/AccessControl.sol\":2954:2974  _roles[role].hasRole */\n      0x00\n      add\n        /* \"@openzeppelin/contracts/access/AccessControl.sol\":2954:2983  _roles[role].hasRole[account] */\n      0x00\n        /* \"@openzeppelin/contracts/access/AccessControl.sol\":2975:2982  account */\n      dup4\n        /* \"@openzeppelin/contracts/access/AccessControl.sol\":2954:2983  _roles[role].hasRole[account] */\n      0xffffffffffffffffffffffffffffffffffffffff\n      and\n      0xffffffffffffffffffffffffffffffffffffffff\n      and\n      dup2\n      mstore\n      0x20\n      add\n      swap1\n      dup2\n      mstore\n      0x20\n      add\n      0x00\n      keccak256\n      0x00\n      swap1\n      sload\n      swap1\n      0x0100\n      exp\n      swap1\n      div\n      0xff\n      and\n        /* \"@openzeppelin/contracts/access/AccessControl.sol\":2947:2983  return _roles[role].hasRole[account] */\n      swap1\n      pop\n        /* \"@openzeppelin/contracts/access/AccessControl.sol\":2854:2990  function hasRole(bytes32 role, address account) public view virtual returns (bool) {... */\n      swap3\n      swap2\n      pop\n      pop\n      jump\t// out\n        /* \"contracts/Unisurance.sol\":1241:1288  uint256 public minimumContribution = 10 * 10**6 */\n    tag_130:\n      sload(0x08)\n      dup2\n      jump\t// out\n        /* \"@openzeppelin/contracts/access/AccessControl.sol\":2187:2236  bytes32 public constant DEFAULT_ADMIN_ROLE = 0x00 */\n    tag_133:\n        /* \"@openzeppelin/contracts/access/AccessControl.sol\":2232:2236  0x00 */\n      0x00\n        /* \"@openzeppelin/contracts/access/AccessControl.sol\":2187:2236  bytes32 public constant DEFAULT_ADMIN_ROLE = 0x00 */\n      0x00\n      shl\n      dup2\n      jump\t// out\n        /* \"contracts/Unisurance.sol\":1139:1177  uint16 public requestConfirmations = 3 */\n    tag_136:\n      0x07\n      0x04\n      swap1\n      sload\n      swap1\n      0x0100\n      exp\n      swap1\n      div\n      0xffff\n      and\n      dup2\n      jump\t// out\n        /* \"contracts/Unisurance.sol\":3693:4482  function createPlan(uint256 targetMonths, uint256 monthlyContribution) external {... */\n    tag_142:\n        /* \"contracts/Unisurance.sol\":3806:3807  0 */\n      0x00\n        /* \"contracts/Unisurance.sol\":3791:3803  targetMonths */\n      dup3\n        /* \"contracts/Unisurance.sol\":3791:3807  targetMonths > 0 */\n      gt\n        /* \"contracts/Unisurance.sol\":3783:3848  require(targetMonths > 0, \"Target months must be greater than 0\") */\n      tag_230\n      jumpi\n      mload(0x40)\n      0x08c379a000000000000000000000000000000000000000000000000000000000\n      dup2\n      mstore\n      0x04\n      add\n      tag_231\n      swap1\n      tag_232\n      jump\t// in\n    tag_231:\n      mload(0x40)\n      dup1\n      swap2\n      sub\n      swap1\n      revert\n    tag_230:\n        /* \"contracts/Unisurance.sol\":3889:3908  minimumContribution */\n      sload(0x08)\n        /* \"contracts/Unisurance.sol\":3866:3885  monthlyContribution */\n      dup2\n        /* \"contracts/Unisurance.sol\":3866:3908  monthlyContribution >= minimumContribution */\n      lt\n      iszero\n        /* \"contracts/Unisurance.sol\":3858:3939  require(monthlyContribution >= minimumContribution, \"Contribution below minimum\") */\n      tag_233\n      jumpi\n      mload(0x40)\n      0x08c379a000000000000000000000000000000000000000000000000000000000\n      dup2\n      mstore\n      0x04\n      add\n      tag_234\n      swap1\n      tag_235\n      jump\t// in\n    tag_234:\n      mload(0x40)\n      dup1\n      swap2\n      sub\n      swap1\n      revert\n    tag_233:\n        /* \"contracts/Unisurance.sol\":3998:3999  0 */\n      0x00\n        /* \"contracts/Unisurance.sol\":3957:3972  retirementPlans */\n      0x0c\n        /* \"contracts/Unisurance.sol\":3957:3984  retirementPlans[msg.sender] */\n      0x00\n        /* \"contracts/Unisurance.sol\":3973:3983  msg.sender */\n      caller\n        /* \"contracts/Unisurance.sol\":3957:3984  retirementPlans[msg.sender] */\n      0xffffffffffffffffffffffffffffffffffffffff\n      and\n      0xffffffffffffffffffffffffffffffffffffffff\n      and\n      dup2\n      mstore\n      0x20\n      add\n      swap1\n      dup2\n      mstore\n      0x20\n      add\n      0x00\n      keccak256\n        /* \"contracts/Unisurance.sol\":3957:3994  retirementPlans[msg.sender].startTime */\n      0x02\n      add\n      sload\n        /* \"contracts/Unisurance.sol\":3957:3999  retirementPlans[msg.sender].startTime == 0 */\n      eq\n        /* \"contracts/Unisurance.sol\":3949:4023  require(retirementPlans[msg.sender].startTime == 0, \"Plan already exists\") */\n      tag_236\n      jumpi\n      mload(0x40)\n      0x08c379a000000000000000000000000000000000000000000000000000000000\n      dup2\n      mstore\n      0x04\n      add\n      tag_237\n      swap1\n      tag_238\n      jump\t// in\n    tag_237:\n      mload(0x40)\n      dup1\n      swap2\n      sub\n      swap1\n      revert\n    tag_236:\n        /* \"contracts/Unisurance.sol\":4064:4401  RetirementPlan({... */\n      mload(0x40)\n      dup1\n      0x0100\n      add\n      0x40\n      mstore\n      dup1\n        /* \"contracts/Unisurance.sol\":4107:4119  targetMonths */\n      dup4\n        /* \"contracts/Unisurance.sol\":4064:4401  RetirementPlan({... */\n      dup2\n      mstore\n      0x20\n      add\n        /* \"contracts/Unisurance.sol\":4154:4173  monthlyContribution */\n      dup3\n        /* \"contracts/Unisurance.sol\":4064:4401  RetirementPlan({... */\n      dup2\n      mstore\n      0x20\n      add\n        /* \"contracts/Unisurance.sol\":4198:4213  block.timestamp */\n      timestamp\n        /* \"contracts/Unisurance.sol\":4064:4401  RetirementPlan({... */\n      dup2\n      mstore\n      0x20\n      add\n        /* \"contracts/Unisurance.sol\":4249:4250  0 */\n      0x00\n        /* \"contracts/Unisurance.sol\":4064:4401  RetirementPlan({... */\n      dup2\n      mstore\n      0x20\n      add\n        /* \"contracts/Unisurance.sol\":4282:4283  0 */\n      0x00\n        /* \"contracts/Unisurance.sol\":4064:4401  RetirementPlan({... */\n      dup2\n      mstore\n      0x20\n      add\n        /* \"contracts/Unisurance.sol\":4316:4317  0 */\n      0x00\n        /* \"contracts/Unisurance.sol\":4064:4401  RetirementPlan({... */\n      dup2\n      mstore\n      0x20\n      add\n        /* \"contracts/Unisurance.sol\":4350:4355  false */\n      0x00\n        /* \"contracts/Unisurance.sol\":4064:4401  RetirementPlan({... */\n      iszero\n      iszero\n      dup2\n      mstore\n      0x20\n      add\n        /* \"contracts/Unisurance.sol\":4389:4390  0 */\n      0x00\n        /* \"contracts/Unisurance.sol\":4064:4401  RetirementPlan({... */\n      dup2\n      mstore\n      pop\n        /* \"contracts/Unisurance.sol\":4034:4049  retirementPlans */\n      0x0c\n        /* \"contracts/Unisurance.sol\":4034:4061  retirementPlans[msg.sender] */\n      0x00\n        /* \"contracts/Unisurance.sol\":4050:4060  msg.sender */\n      caller\n        /* \"contracts/Unisurance.sol\":4034:4061  retirementPlans[msg.sender] */\n      0xffffffffffffffffffffffffffffffffffffffff\n      and\n      0xffffffffffffffffffffffffffffffffffffffff\n      and\n      dup2\n      mstore\n      0x20\n      add\n      swap1\n      dup2\n      mstore\n      0x20\n      add\n      0x00\n      keccak256\n        /* \"contracts/Unisurance.sol\":4034:4401  retirementPlans[msg.sender] = RetirementPlan({... */\n      0x00\n      dup3\n      add\n      mload\n      dup2\n      0x00\n      add\n      sstore\n      0x20\n      dup3\n      add\n      mload\n      dup2\n      0x01\n      add\n      sstore\n      0x40\n      dup3\n      add\n      mload\n      dup2\n      0x02\n      add\n      sstore\n      0x60\n      dup3\n      add\n      mload\n      dup2\n      0x03\n      add\n      sstore\n      0x80\n      dup3\n      add\n      mload\n      dup2\n      0x04\n      add\n      sstore\n      0xa0\n      dup3\n      add\n      mload\n      dup2\n      0x05\n      add\n      sstore\n      0xc0\n      dup3\n      add\n      mload\n      dup2\n      0x06\n      add\n      exp(0x0100, 0x00)\n      dup2\n      sload\n      dup2\n      0xff\n      mul\n      not\n      and\n      swap1\n      dup4\n      iszero\n      iszero\n      mul\n      or\n      swap1\n      sstore\n      pop\n      0xe0\n      dup3\n      add\n      mload\n      dup2\n      0x07\n      add\n      sstore\n      swap1\n      pop\n      pop\n        /* \"contracts/Unisurance.sol\":4429:4439  msg.sender */\n      caller\n        /* \"contracts/Unisurance.sol\":4417:4475  PlanCreated(msg.sender, targetMonths, monthlyContribution) */\n      0xffffffffffffffffffffffffffffffffffffffff\n      and\n      0x89d3f1cdfad4e5c26535ac23dc61cf9e975667801747518f01b1b653545d736a\n        /* \"contracts/Unisurance.sol\":4441:4453  targetMonths */\n      dup4\n        /* \"contracts/Unisurance.sol\":4455:4474  monthlyContribution */\n      dup4\n        /* \"contracts/Unisurance.sol\":4417:4475  PlanCreated(msg.sender, targetMonths, monthlyContribution) */\n      mload(0x40)\n      tag_239\n      swap3\n      swap2\n      swap1\n      tag_240\n      jump\t// in\n    tag_239:\n      mload(0x40)\n      dup1\n      swap2\n      sub\n      swap1\n      log2\n        /* \"contracts/Unisurance.sol\":3693:4482  function createPlan(uint256 targetMonths, uint256 monthlyContribution) external {... */\n      pop\n      pop\n      jump\t// out\n        /* \"contracts/Unisurance.sol\":4629:6077  function contribute(uint256 amount) external nonReentrant {... */\n    tag_145:\n        /* \"@openzeppelin/contracts/security/ReentrancyGuard.sol\":2261:2282  _nonReentrantBefore() */\n      tag_242\n        /* \"@openzeppelin/contracts/security/ReentrancyGuard.sol\":2261:2280  _nonReentrantBefore */\n      tag_208\n        /* \"@openzeppelin/contracts/security/ReentrancyGuard.sol\":2261:2282  _nonReentrantBefore() */\n      jump\t// in\n    tag_242:\n        /* \"contracts/Unisurance.sol\":4697:4724  RetirementPlan storage plan */\n      0x00\n        /* \"contracts/Unisurance.sol\":4727:4742  retirementPlans */\n      0x0c\n        /* \"contracts/Unisurance.sol\":4727:4754  retirementPlans[msg.sender] */\n      0x00\n        /* \"contracts/Unisurance.sol\":4743:4753  msg.sender */\n      caller\n        /* \"contracts/Unisurance.sol\":4727:4754  retirementPlans[msg.sender] */\n      0xffffffffffffffffffffffffffffffffffffffff\n      and\n      0xffffffffffffffffffffffffffffffffffffffff\n      and\n      dup2\n      mstore\n      0x20\n      add\n      swap1\n      dup2\n      mstore\n      0x20\n      add\n      0x00\n      keccak256\n        /* \"contracts/Unisurance.sol\":4697:4754  RetirementPlan storage plan = retirementPlans[msg.sender] */\n      swap1\n      pop\n        /* \"contracts/Unisurance.sol\":4789:4790  0 */\n      0x00\n        /* \"contracts/Unisurance.sol\":4772:4776  plan */\n      dup2\n        /* \"contracts/Unisurance.sol\":4772:4786  plan.startTime */\n      0x02\n      add\n      sload\n        /* \"contracts/Unisurance.sol\":4772:4790  plan.startTime > 0 */\n      gt\n        /* \"contracts/Unisurance.sol\":4764:4809  require(plan.startTime > 0, \"No plan exists\") */\n      tag_244\n      jumpi\n      mload(0x40)\n      0x08c379a000000000000000000000000000000000000000000000000000000000\n      dup2\n      mstore\n      0x04\n      add\n      tag_245\n      swap1\n      tag_246\n      jump\t// in\n    tag_245:\n      mload(0x40)\n      dup1\n      swap2\n      sub\n      swap1\n      revert\n    tag_244:\n        /* \"contracts/Unisurance.sol\":4828:4832  plan */\n      dup1\n        /* \"contracts/Unisurance.sol\":4828:4850  plan.inRetirementPhase */\n      0x06\n      add\n      0x00\n      swap1\n      sload\n      swap1\n      0x0100\n      exp\n      swap1\n      div\n      0xff\n      and\n        /* \"contracts/Unisurance.sol\":4827:4850  !plan.inRetirementPhase */\n      iszero\n        /* \"contracts/Unisurance.sol\":4819:4882  require(!plan.inRetirementPhase, \"Already in retirement phase\") */\n      tag_247\n      jumpi\n      mload(0x40)\n      0x08c379a000000000000000000000000000000000000000000000000000000000\n      dup2\n      mstore\n      0x04\n      add\n      tag_248\n      swap1\n      tag_249\n      jump\t// in\n    tag_248:\n      mload(0x40)\n      dup1\n      swap2\n      sub\n      swap1\n      revert\n    tag_247:\n        /* \"contracts/Unisurance.sol\":4910:4929  minimumContribution */\n      sload(0x08)\n        /* \"contracts/Unisurance.sol\":4900:4906  amount */\n      dup3\n        /* \"contracts/Unisurance.sol\":4900:4929  amount >= minimumContribution */\n      lt\n      iszero\n        /* \"contracts/Unisurance.sol\":4892:4960  require(amount >= minimumContribution, \"Contribution below minimum\") */\n      tag_250\n      jumpi\n      mload(0x40)\n      0x08c379a000000000000000000000000000000000000000000000000000000000\n      dup2\n      mstore\n      0x04\n      add\n      tag_251\n      swap1\n      tag_235\n      jump\t// in\n    tag_251:\n      mload(0x40)\n      dup1\n      swap2\n      sub\n      swap1\n      revert\n    tag_250:\n        /* \"contracts/Unisurance.sol\":5020:5082  stablecoin.safeTransferFrom(msg.sender, address(this), amount) */\n      tag_252\n        /* \"contracts/Unisurance.sol\":5048:5058  msg.sender */\n      caller\n        /* \"contracts/Unisurance.sol\":5068:5072  this */\n      address\n        /* \"contracts/Unisurance.sol\":5075:5081  amount */\n      dup5\n        /* \"contracts/Unisurance.sol\":5020:5030  stablecoin */\n      0x02\n      0x00\n      swap1\n      sload\n      swap1\n      0x0100\n      exp\n      swap1\n      div\n      0xffffffffffffffffffffffffffffffffffffffff\n      and\n        /* \"contracts/Unisurance.sol\":5020:5047  stablecoin.safeTransferFrom */\n      0xffffffffffffffffffffffffffffffffffffffff\n      and\n      tag_253\n      swap1\n        /* \"contracts/Unisurance.sol\":5020:5082  stablecoin.safeTransferFrom(msg.sender, address(this), amount) */\n      swap4\n      swap3\n      swap2\n      swap1\n      0xffffffff\n      and\n      jump\t// in\n    tag_252:\n        /* \"contracts/Unisurance.sol\":5146:5156  stablecoin */\n      0x02\n      0x00\n      swap1\n      sload\n      swap1\n      0x0100\n      exp\n      swap1\n      div\n      0xffffffffffffffffffffffffffffffffffffffff\n      and\n        /* \"contracts/Unisurance.sol\":5146:5164  stablecoin.approve */\n      0xffffffffffffffffffffffffffffffffffffffff\n      and\n      0x095ea7b3\n        /* \"contracts/Unisurance.sol\":5173:5186  yieldStrategy */\n      0x04\n      0x00\n      swap1\n      sload\n      swap1\n      0x0100\n      exp\n      swap1\n      div\n      0xffffffffffffffffffffffffffffffffffffffff\n      and\n        /* \"contracts/Unisurance.sol\":5189:5195  amount */\n      dup5\n        /* \"contracts/Unisurance.sol\":5146:5196  stablecoin.approve(address(yieldStrategy), amount) */\n      mload(0x40)\n      dup4\n      0xffffffff\n      and\n      0xe0\n      shl\n      dup2\n      mstore\n      0x04\n      add\n      tag_254\n      swap3\n      swap2\n      swap1\n      tag_255\n      jump\t// in\n    tag_254:\n      0x20\n      mload(0x40)\n      dup1\n      dup4\n      sub\n      dup2\n      0x00\n      dup8\n      gas\n      call\n      iszero\n      dup1\n      iszero\n      tag_257\n      jumpi\n      returndatacopy(0x00, 0x00, returndatasize)\n      revert(0x00, returndatasize)\n    tag_257:\n      pop\n      pop\n      pop\n      pop\n      mload(0x40)\n      returndatasize\n      not(0x1f)\n      0x1f\n      dup3\n      add\n      and\n      dup3\n      add\n      dup1\n      0x40\n      mstore\n      pop\n      dup2\n      add\n      swap1\n      tag_258\n      swap2\n      swap1\n      tag_259\n      jump\t// in\n    tag_258:\n      pop\n        /* \"contracts/Unisurance.sol\":5254:5267  yieldStrategy */\n      0x04\n      0x00\n      swap1\n      sload\n      swap1\n      0x0100\n      exp\n      swap1\n      div\n      0xffffffffffffffffffffffffffffffffffffffff\n      and\n        /* \"contracts/Unisurance.sol\":5254:5275  yieldStrategy.deposit */\n      0xffffffffffffffffffffffffffffffffffffffff\n      and\n      0xb6b55f25\n        /* \"contracts/Unisurance.sol\":5276:5282  amount */\n      dup4\n        /* \"contracts/Unisurance.sol\":5254:5283  yieldStrategy.deposit(amount) */\n      mload(0x40)\n      dup3\n      0xffffffff\n      and\n      0xe0\n      shl\n      dup2\n      mstore\n      0x04\n      add\n      tag_260\n      swap2\n      swap1\n      tag_53\n      jump\t// in\n    tag_260:\n      0x20\n      mload(0x40)\n      dup1\n      dup4\n      sub\n      dup2\n      0x00\n      dup8\n      gas\n      call\n      iszero\n      dup1\n      iszero\n      tag_262\n      jumpi\n      returndatacopy(0x00, 0x00, returndatasize)\n      revert(0x00, returndatasize)\n    tag_262:\n      pop\n      pop\n      pop\n      pop\n      mload(0x40)\n      returndatasize\n      not(0x1f)\n      0x1f\n      dup3\n      add\n      and\n      dup3\n      add\n      dup1\n      0x40\n      mstore\n      pop\n      dup2\n      add\n      swap1\n      tag_263\n      swap2\n      swap1\n      tag_259\n      jump\t// in\n    tag_263:\n      pop\n        /* \"contracts/Unisurance.sol\":5355:5361  amount */\n      dup2\n        /* \"contracts/Unisurance.sol\":5330:5334  plan */\n      dup2\n        /* \"contracts/Unisurance.sol\":5330:5351  plan.totalContributed */\n      0x04\n      add\n      0x00\n        /* \"contracts/Unisurance.sol\":5330:5361  plan.totalContributed += amount */\n      dup3\n      dup3\n      sload\n      tag_264\n      swap2\n      swap1\n      tag_265\n      jump\t// in\n    tag_264:\n      swap3\n      pop\n      pop\n      dup2\n      swap1\n      sstore\n      pop\n        /* \"contracts/Unisurance.sol\":5466:5467  0 */\n      0x00\n        /* \"contracts/Unisurance.sol\":5437:5441  plan */\n      dup2\n        /* \"contracts/Unisurance.sol\":5437:5462  plan.lastContributionTime */\n      0x03\n      add\n      sload\n        /* \"contracts/Unisurance.sol\":5437:5467  plan.lastContributionTime == 0 */\n      eq\n        /* \"contracts/Unisurance.sol\":5437:5553  plan.lastContributionTime == 0 || ... */\n      dup1\n      tag_266\n      jumpi\n      pop\n        /* \"contracts/Unisurance.sol\":5515:5553  _getMonthId(plan.lastContributionTime) */\n      tag_267\n        /* \"contracts/Unisurance.sol\":5527:5531  plan */\n      dup2\n        /* \"contracts/Unisurance.sol\":5527:5552  plan.lastContributionTime */\n      0x03\n      add\n      sload\n        /* \"contracts/Unisurance.sol\":5515:5526  _getMonthId */\n      tag_268\n        /* \"contracts/Unisurance.sol\":5515:5553  _getMonthId(plan.lastContributionTime) */\n      jump\t// in\n    tag_267:\n        /* \"contracts/Unisurance.sol\":5484:5512  _getMonthId(block.timestamp) */\n      tag_269\n        /* \"contracts/Unisurance.sol\":5496:5511  block.timestamp */\n      timestamp\n        /* \"contracts/Unisurance.sol\":5484:5495  _getMonthId */\n      tag_268\n        /* \"contracts/Unisurance.sol\":5484:5512  _getMonthId(block.timestamp) */\n      jump\t// in\n    tag_269:\n        /* \"contracts/Unisurance.sol\":5484:5553  _getMonthId(block.timestamp) > _getMonthId(plan.lastContributionTime) */\n      gt\n        /* \"contracts/Unisurance.sol\":5437:5553  plan.lastContributionTime == 0 || ... */\n    tag_266:\n        /* \"contracts/Unisurance.sol\":5433:5607  if (plan.lastContributionTime == 0 || ... */\n      iszero\n      tag_270\n      jumpi\n        /* \"contracts/Unisurance.sol\":5595:5596  1 */\n      0x01\n        /* \"contracts/Unisurance.sol\":5569:5573  plan */\n      dup2\n        /* \"contracts/Unisurance.sol\":5569:5591  plan.monthsContributed */\n      0x05\n      add\n      0x00\n        /* \"contracts/Unisurance.sol\":5569:5596  plan.monthsContributed += 1 */\n      dup3\n      dup3\n      sload\n      tag_271\n      swap2\n      swap1\n      tag_265\n      jump\t// in\n    tag_271:\n      swap3\n      pop\n      pop\n      dup2\n      swap1\n      sstore\n      pop\n        /* \"contracts/Unisurance.sol\":5433:5607  if (plan.lastContributionTime == 0 || ... */\n    tag_270:\n        /* \"contracts/Unisurance.sol\":5653:5668  block.timestamp */\n      timestamp\n        /* \"contracts/Unisurance.sol\":5625:5629  plan */\n      dup2\n        /* \"contracts/Unisurance.sol\":5625:5650  plan.lastContributionTime */\n      0x03\n      add\n        /* \"contracts/Unisurance.sol\":5625:5668  plan.lastContributionTime = block.timestamp */\n      dup2\n      swap1\n      sstore\n      pop\n        /* \"contracts/Unisurance.sol\":5701:5711  msg.sender */\n      caller\n        /* \"contracts/Unisurance.sol\":5684:5720  ContributionMade(msg.sender, amount) */\n      0xffffffffffffffffffffffffffffffffffffffff\n      and\n      0x6770260ea820d2f539364e7617e021543aaf6d192f2fd2a47c20db6bd99a4eb9\n        /* \"contracts/Unisurance.sol\":5713:5719  amount */\n      dup4\n        /* \"contracts/Unisurance.sol\":5684:5720  ContributionMade(msg.sender, amount) */\n      mload(0x40)\n      tag_272\n      swap2\n      swap1\n      tag_53\n      jump\t// in\n    tag_272:\n      mload(0x40)\n      dup1\n      swap2\n      sub\n      swap1\n      log2\n        /* \"contracts/Unisurance.sol\":5795:5813  lotteryProbability */\n      sload(0x0a)\n        /* \"contracts/Unisurance.sol\":5778:5792  _random(10000) */\n      tag_273\n        /* \"contracts/Unisurance.sol\":5786:5791  10000 */\n      0x2710\n        /* \"contracts/Unisurance.sol\":5778:5785  _random */\n      tag_274\n        /* \"contracts/Unisurance.sol\":5778:5792  _random(10000) */\n      jump\t// in\n    tag_273:\n        /* \"contracts/Unisurance.sol\":5778:5813  _random(10000) < lotteryProbability */\n      lt\n        /* \"contracts/Unisurance.sol\":5774:5860  if (_random(10000) < lotteryProbability) {... */\n      iszero\n      tag_275\n      jumpi\n        /* \"contracts/Unisurance.sol\":5829:5849  _requestRandomness() */\n      tag_276\n        /* \"contracts/Unisurance.sol\":5829:5847  _requestRandomness */\n      tag_277\n        /* \"contracts/Unisurance.sol\":5829:5849  _requestRandomness() */\n      jump\t// in\n    tag_276:\n        /* \"contracts/Unisurance.sol\":5774:5860  if (_random(10000) < lotteryProbability) {... */\n    tag_275:\n        /* \"contracts/Unisurance.sol\":5945:5949  plan */\n      dup1\n        /* \"contracts/Unisurance.sol\":5945:5962  plan.targetMonths */\n      0x00\n      add\n      sload\n        /* \"contracts/Unisurance.sol\":5919:5923  plan */\n      dup2\n        /* \"contracts/Unisurance.sol\":5919:5941  plan.monthsContributed */\n      0x05\n      add\n      sload\n        /* \"contracts/Unisurance.sol\":5919:5962  plan.monthsContributed >= plan.targetMonths */\n      lt\n        /* \"contracts/Unisurance.sol\":5915:6071  if (plan.monthsContributed >= plan.targetMonths) {... */\n      tag_278\n      jumpi\n        /* \"contracts/Unisurance.sol\":6003:6007  true */\n      0x01\n        /* \"contracts/Unisurance.sol\":5978:5982  plan */\n      dup2\n        /* \"contracts/Unisurance.sol\":5978:6000  plan.inRetirementPhase */\n      0x06\n      add\n      0x00\n        /* \"contracts/Unisurance.sol\":5978:6007  plan.inRetirementPhase = true */\n      0x0100\n      exp\n      dup2\n      sload\n      dup2\n      0xff\n      mul\n      not\n      and\n      swap1\n      dup4\n      iszero\n      iszero\n      mul\n      or\n      swap1\n      sstore\n      pop\n        /* \"contracts/Unisurance.sol\":6049:6059  msg.sender */\n      caller\n        /* \"contracts/Unisurance.sol\":6026:6060  RetirementPhaseStarted(msg.sender) */\n      0xffffffffffffffffffffffffffffffffffffffff\n      and\n      0xf686c0f42fac659a335d049e2831f235a2ec4fb12aca60d576f0296e7848868b\n      mload(0x40)\n      mload(0x40)\n      dup1\n      swap2\n      sub\n      swap1\n      log2\n        /* \"contracts/Unisurance.sol\":5915:6071  if (plan.monthsContributed >= plan.targetMonths) {... */\n    tag_278:\n        /* \"contracts/Unisurance.sol\":4687:6077  {... */\n      pop\n        /* \"@openzeppelin/contracts/security/ReentrancyGuard.sol\":2303:2323  _nonReentrantAfter() */\n      tag_279\n        /* \"@openzeppelin/contracts/security/ReentrancyGuard.sol\":2303:2321  _nonReentrantAfter */\n      tag_227\n        /* \"@openzeppelin/contracts/security/ReentrancyGuard.sol\":2303:2323  _nonReentrantAfter() */\n      jump\t// in\n    tag_279:\n        /* \"contracts/Unisurance.sol\":4629:6077  function contribute(uint256 amount) external nonReentrant {... */\n      pop\n      jump\t// out\n        /* \"contracts/Unisurance.sol\":1374:1414  uint256 public lotteryProbability = 1000 */\n    tag_147:\n      sload(0x0a)\n      dup2\n      jump\t// out\n        /* \"@openzeppelin/contracts/access/AccessControl.sol\":4642:4780  function revokeRole(bytes32 role, address account) public virtual onlyRole(getRoleAdmin(role)) {... */\n    tag_151:\n        /* \"@openzeppelin/contracts/access/AccessControl.sol\":4717:4735  getRoleAdmin(role) */\n      tag_280\n        /* \"@openzeppelin/contracts/access/AccessControl.sol\":4730:4734  role */\n      dup3\n        /* \"@openzeppelin/contracts/access/AccessControl.sol\":4717:4729  getRoleAdmin */\n      tag_78\n        /* \"@openzeppelin/contracts/access/AccessControl.sol\":4717:4735  getRoleAdmin(role) */\n      jump\t// in\n    tag_280:\n        /* \"@openzeppelin/contracts/access/AccessControl.sol\":2464:2480  _checkRole(role) */\n      tag_282\n        /* \"@openzeppelin/contracts/access/AccessControl.sol\":2475:2479  role */\n      dup2\n        /* \"@openzeppelin/contracts/access/AccessControl.sol\":2464:2474  _checkRole */\n      tag_188\n        /* \"@openzeppelin/contracts/access/AccessControl.sol\":2464:2480  _checkRole(role) */\n      jump\t// in\n    tag_282:\n        /* \"@openzeppelin/contracts/access/AccessControl.sol\":4747:4773  _revokeRole(role, account) */\n      tag_284\n        /* \"@openzeppelin/contracts/access/AccessControl.sol\":4759:4763  role */\n      dup4\n        /* \"@openzeppelin/contracts/access/AccessControl.sol\":4765:4772  account */\n      dup4\n        /* \"@openzeppelin/contracts/access/AccessControl.sol\":4747:4758  _revokeRole */\n      tag_197\n        /* \"@openzeppelin/contracts/access/AccessControl.sol\":4747:4773  _revokeRole(role, account) */\n      jump\t// in\n    tag_284:\n      pop\n        /* \"@openzeppelin/contracts/access/AccessControl.sol\":4642:4780  function revokeRole(bytes32 role, address account) public virtual onlyRole(getRoleAdmin(role)) {... */\n      pop\n      pop\n      pop\n      jump\t// out\n        /* \"contracts/Unisurance.sol\":8634:9699  function getPlanStatus(address user) external view returns (... */\n    tag_154:\n        /* \"contracts/Unisurance.sol\":8703:8723  uint256 targetMonths */\n      0x00\n        /* \"contracts/Unisurance.sol\":8733:8760  uint256 monthlyContribution */\n      0x00\n        /* \"contracts/Unisurance.sol\":8770:8795  uint256 monthsContributed */\n      0x00\n        /* \"contracts/Unisurance.sol\":8805:8829  uint256 totalContributed */\n      0x00\n        /* \"contracts/Unisurance.sol\":8839:8861  bool inRetirementPhase */\n      0x00\n        /* \"contracts/Unisurance.sol\":8871:8891  uint256 currentYield */\n      0x00\n        /* \"contracts/Unisurance.sol\":8901:8931  uint256 projectedMonthlyIncome */\n      0x00\n        /* \"contracts/Unisurance.sol\":8948:8975  RetirementPlan storage plan */\n      0x00\n        /* \"contracts/Unisurance.sol\":8978:8993  retirementPlans */\n      0x0c\n        /* \"contracts/Unisurance.sol\":8978:8999  retirementPlans[user] */\n      0x00\n        /* \"contracts/Unisurance.sol\":8994:8998  user */\n      dup11\n        /* \"contracts/Unisurance.sol\":8978:8999  retirementPlans[user] */\n      0xffffffffffffffffffffffffffffffffffffffff\n      and\n      0xffffffffffffffffffffffffffffffffffffffff\n      and\n      dup2\n      mstore\n      0x20\n      add\n      swap1\n      dup2\n      mstore\n      0x20\n      add\n      0x00\n      keccak256\n        /* \"contracts/Unisurance.sol\":8948:8999  RetirementPlan storage plan = retirementPlans[user] */\n      swap1\n      pop\n        /* \"contracts/Unisurance.sol\":9033:9037  plan */\n      dup1\n        /* \"contracts/Unisurance.sol\":9033:9050  plan.targetMonths */\n      0x00\n      add\n      sload\n        /* \"contracts/Unisurance.sol\":9018:9050  targetMonths = plan.targetMonths */\n      swap8\n      pop\n        /* \"contracts/Unisurance.sol\":9082:9086  plan */\n      dup1\n        /* \"contracts/Unisurance.sol\":9082:9106  plan.monthlyContribution */\n      0x01\n      add\n      sload\n        /* \"contracts/Unisurance.sol\":9060:9106  monthlyContribution = plan.monthlyContribution */\n      swap7\n      pop\n        /* \"contracts/Unisurance.sol\":9136:9140  plan */\n      dup1\n        /* \"contracts/Unisurance.sol\":9136:9158  plan.monthsContributed */\n      0x05\n      add\n      sload\n        /* \"contracts/Unisurance.sol\":9116:9158  monthsContributed = plan.monthsContributed */\n      swap6\n      pop\n        /* \"contracts/Unisurance.sol\":9187:9191  plan */\n      dup1\n        /* \"contracts/Unisurance.sol\":9187:9208  plan.totalContributed */\n      0x04\n      add\n      sload\n        /* \"contracts/Unisurance.sol\":9168:9208  totalContributed = plan.totalContributed */\n      swap5\n      pop\n        /* \"contracts/Unisurance.sol\":9238:9242  plan */\n      dup1\n        /* \"contracts/Unisurance.sol\":9238:9260  plan.inRetirementPhase */\n      0x06\n      add\n      0x00\n      swap1\n      sload\n      swap1\n      0x0100\n      exp\n      swap1\n      div\n      0xff\n      and\n        /* \"contracts/Unisurance.sol\":9218:9260  inRetirementPhase = plan.inRetirementPhase */\n      swap4\n      pop\n        /* \"contracts/Unisurance.sol\":9323:9336  yieldStrategy */\n      0x04\n      0x00\n      swap1\n      sload\n      swap1\n      0x0100\n      exp\n      swap1\n      div\n      0xffffffffffffffffffffffffffffffffffffffff\n      and\n        /* \"contracts/Unisurance.sol\":9323:9345  yieldStrategy.getYield */\n      0xffffffffffffffffffffffffffffffffffffffff\n      and\n      0x64c33977\n        /* \"contracts/Unisurance.sol\":9346:9350  user */\n      dup11\n        /* \"contracts/Unisurance.sol\":9323:9351  yieldStrategy.getYield(user) */\n      mload(0x40)\n      dup3\n      0xffffffff\n      and\n      0xe0\n      shl\n      dup2\n      mstore\n      0x04\n      add\n      tag_286\n      swap2\n      swap1\n      tag_70\n      jump\t// in\n    tag_286:\n      0x20\n      mload(0x40)\n      dup1\n      dup4\n      sub\n      dup2\n      dup7\n      gas\n      staticcall\n      iszero\n      dup1\n      iszero\n      tag_288\n      jumpi\n      returndatacopy(0x00, 0x00, returndatasize)\n      revert(0x00, returndatasize)\n    tag_288:\n      pop\n      pop\n      pop\n      pop\n      mload(0x40)\n      returndatasize\n      not(0x1f)\n      0x1f\n      dup3\n      add\n      and\n      dup3\n      add\n      dup1\n      0x40\n      mstore\n      pop\n      dup2\n      add\n      swap1\n      tag_289\n      swap2\n      swap1\n      tag_222\n      jump\t// in\n    tag_289:\n        /* \"contracts/Unisurance.sol\":9308:9351  currentYield = yieldStrategy.getYield(user) */\n      swap3\n      pop\n        /* \"contracts/Unisurance.sol\":9437:9448  uint256 apy */\n      0x00\n        /* \"contracts/Unisurance.sol\":9451:9464  yieldStrategy */\n      0x04\n      0x00\n      swap1\n      sload\n      swap1\n      0x0100\n      exp\n      swap1\n      div\n      0xffffffffffffffffffffffffffffffffffffffff\n      and\n        /* \"contracts/Unisurance.sol\":9451:9478  yieldStrategy.getCurrentAPY */\n      0xffffffffffffffffffffffffffffffffffffffff\n      and\n      0x962ca496\n        /* \"contracts/Unisurance.sol\":9451:9480  yieldStrategy.getCurrentAPY() */\n      mload(0x40)\n      dup2\n      0xffffffff\n      and\n      0xe0\n      shl\n      dup2\n      mstore\n      0x04\n      add\n      0x20\n      mload(0x40)\n      dup1\n      dup4\n      sub\n      dup2\n      dup7\n      gas\n      staticcall\n      iszero\n      dup1\n      iszero\n      tag_291\n      jumpi\n      returndatacopy(0x00, 0x00, returndatasize)\n      revert(0x00, returndatasize)\n    tag_291:\n      pop\n      pop\n      pop\n      pop\n      mload(0x40)\n      returndatasize\n      not(0x1f)\n      0x1f\n      dup3\n      add\n      and\n      dup3\n      add\n      dup1\n      0x40\n      mstore\n      pop\n      dup2\n      add\n      swap1\n      tag_292\n      swap2\n      swap1\n      tag_222\n      jump\t// in\n    tag_292:\n        /* \"contracts/Unisurance.sol\":9437:9480  uint256 apy = yieldStrategy.getCurrentAPY() */\n      swap1\n      pop\n        /* \"contracts/Unisurance.sol\":9543:9553  12 * 10000 */\n      0x01d4c0\n        /* \"contracts/Unisurance.sol\":9535:9538  apy */\n      dup2\n        /* \"contracts/Unisurance.sol\":9516:9532  totalContributed */\n      dup8\n        /* \"contracts/Unisurance.sol\":9516:9538  totalContributed * apy */\n      tag_293\n      swap2\n      swap1\n      tag_294\n      jump\t// in\n    tag_293:\n        /* \"contracts/Unisurance.sol\":9515:9554  (totalContributed * apy) / (12 * 10000) */\n      tag_295\n      swap2\n      swap1\n      tag_296\n      jump\t// in\n    tag_295:\n        /* \"contracts/Unisurance.sol\":9490:9554  projectedMonthlyIncome = (totalContributed * apy) / (12 * 10000) */\n      swap3\n      pop\n        /* \"contracts/Unisurance.sol\":9686:9691  10000 */\n      0x2710\n        /* \"contracts/Unisurance.sol\":9674:9682  yieldFee */\n      sload(0x09)\n        /* \"contracts/Unisurance.sol\":9649:9671  projectedMonthlyIncome */\n      dup5\n        /* \"contracts/Unisurance.sol\":9649:9682  projectedMonthlyIncome * yieldFee */\n      tag_297\n      swap2\n      swap1\n      tag_294\n      jump\t// in\n    tag_297:\n        /* \"contracts/Unisurance.sol\":9648:9691  (projectedMonthlyIncome * yieldFee) / 10000 */\n      tag_298\n      swap2\n      swap1\n      tag_296\n      jump\t// in\n    tag_298:\n        /* \"contracts/Unisurance.sol\":9622:9644  projectedMonthlyIncome */\n      dup4\n        /* \"contracts/Unisurance.sol\":9622:9692  projectedMonthlyIncome - ((projectedMonthlyIncome * yieldFee) / 10000) */\n      tag_299\n      swap2\n      swap1\n      tag_224\n      jump\t// in\n    tag_299:\n        /* \"contracts/Unisurance.sol\":9597:9692  projectedMonthlyIncome = projectedMonthlyIncome - ((projectedMonthlyIncome * yieldFee) / 10000) */\n      swap3\n      pop\n        /* \"contracts/Unisurance.sol\":8938:9699  {... */\n      pop\n      pop\n        /* \"contracts/Unisurance.sol\":8634:9699  function getPlanStatus(address user) external view returns (... */\n      swap2\n      swap4\n      swap6\n      swap8\n      swap1\n      swap3\n      swap5\n      swap7\n      pop\n      jump\t// out\n        /* \"contracts/Unisurance.sol\":6162:7293  function withdrawYield() external nonReentrant {... */\n    tag_158:\n        /* \"@openzeppelin/contracts/security/ReentrancyGuard.sol\":2261:2282  _nonReentrantBefore() */\n      tag_301\n        /* \"@openzeppelin/contracts/security/ReentrancyGuard.sol\":2261:2280  _nonReentrantBefore */\n      tag_208\n        /* \"@openzeppelin/contracts/security/ReentrancyGuard.sol\":2261:2282  _nonReentrantBefore() */\n      jump\t// in\n    tag_301:\n        /* \"contracts/Unisurance.sol\":6219:6246  RetirementPlan storage plan */\n      0x00\n        /* \"contracts/Unisurance.sol\":6249:6264  retirementPlans */\n      0x0c\n        /* \"contracts/Unisurance.sol\":6249:6276  retirementPlans[msg.sender] */\n      0x00\n        /* \"contracts/Unisurance.sol\":6265:6275  msg.sender */\n      caller\n        /* \"contracts/Unisurance.sol\":6249:6276  retirementPlans[msg.sender] */\n      0xffffffffffffffffffffffffffffffffffffffff\n      and\n      0xffffffffffffffffffffffffffffffffffffffff\n      and\n      dup2\n      mstore\n      0x20\n      add\n      swap1\n      dup2\n      mstore\n      0x20\n      add\n      0x00\n      keccak256\n        /* \"contracts/Unisurance.sol\":6219:6276  RetirementPlan storage plan = retirementPlans[msg.sender] */\n      swap1\n      pop\n        /* \"contracts/Unisurance.sol\":6294:6298  plan */\n      dup1\n        /* \"contracts/Unisurance.sol\":6294:6316  plan.inRetirementPhase */\n      0x06\n      add\n      0x00\n      swap1\n      sload\n      swap1\n      0x0100\n      exp\n      swap1\n      div\n      0xff\n      and\n        /* \"contracts/Unisurance.sol\":6286:6344  require(plan.inRetirementPhase, \"Not in retirement phase\") */\n      tag_303\n      jumpi\n      mload(0x40)\n      0x08c379a000000000000000000000000000000000000000000000000000000000\n      dup2\n      mstore\n      0x04\n      add\n      tag_304\n      swap1\n      tag_212\n      jump\t// in\n    tag_304:\n      mload(0x40)\n      dup1\n      swap2\n      sub\n      swap1\n      revert\n    tag_303:\n        /* \"contracts/Unisurance.sol\":6402:6403  0 */\n      0x00\n        /* \"contracts/Unisurance.sol\":6375:6379  plan */\n      dup2\n        /* \"contracts/Unisurance.sol\":6375:6398  plan.lastWithdrawalTime */\n      0x07\n      add\n      sload\n        /* \"contracts/Unisurance.sol\":6375:6403  plan.lastWithdrawalTime == 0 */\n      eq\n        /* \"contracts/Unisurance.sol\":6375:6472  plan.lastWithdrawalTime == 0 || ... */\n      dup1\n      tag_305\n      jumpi\n      pop\n        /* \"contracts/Unisurance.sol\":6465:6472  30 days */\n      0x278d00\n        /* \"contracts/Unisurance.sol\":6439:6443  plan */\n      dup2\n        /* \"contracts/Unisurance.sol\":6439:6462  plan.lastWithdrawalTime */\n      0x07\n      add\n      sload\n        /* \"contracts/Unisurance.sol\":6439:6472  plan.lastWithdrawalTime + 30 days */\n      tag_306\n      swap2\n      swap1\n      tag_265\n      jump\t// in\n    tag_306:\n        /* \"contracts/Unisurance.sol\":6420:6435  block.timestamp */\n      timestamp\n        /* \"contracts/Unisurance.sol\":6420:6472  block.timestamp >= plan.lastWithdrawalTime + 30 days */\n      lt\n      iszero\n        /* \"contracts/Unisurance.sol\":6375:6472  plan.lastWithdrawalTime == 0 || ... */\n    tag_305:\n        /* \"contracts/Unisurance.sol\":6354:6530  require(... */\n      tag_307\n      jumpi\n      mload(0x40)\n      0x08c379a000000000000000000000000000000000000000000000000000000000\n      dup2\n      mstore\n      0x04\n      add\n      tag_308\n      swap1\n      tag_309\n      jump\t// in\n    tag_308:\n      mload(0x40)\n      dup1\n      swap2\n      sub\n      swap1\n      revert\n    tag_307:\n        /* \"contracts/Unisurance.sol\":6578:6600  uint256 availableYield */\n      0x00\n        /* \"contracts/Unisurance.sol\":6603:6616  yieldStrategy */\n      0x04\n      0x00\n      swap1\n      sload\n      swap1\n      0x0100\n      exp\n      swap1\n      div\n      0xffffffffffffffffffffffffffffffffffffffff\n      and\n        /* \"contracts/Unisurance.sol\":6603:6625  yieldStrategy.getYield */\n      0xffffffffffffffffffffffffffffffffffffffff\n      and\n      0x64c33977\n        /* \"contracts/Unisurance.sol\":6626:6636  msg.sender */\n      caller\n        /* \"contracts/Unisurance.sol\":6603:6637  yieldStrategy.getYield(msg.sender) */\n      mload(0x40)\n      dup3\n      0xffffffff\n      and\n      0xe0\n      shl\n      dup2\n      mstore\n      0x04\n      add\n      tag_310\n      swap2\n      swap1\n      tag_70\n      jump\t// in\n    tag_310:\n      0x20\n      mload(0x40)\n      dup1\n      dup4\n      sub\n      dup2\n      dup7\n      gas\n      staticcall\n      iszero\n      dup1\n      iszero\n      tag_312\n      jumpi\n      returndatacopy(0x00, 0x00, returndatasize)\n      revert(0x00, returndatasize)\n    tag_312:\n      pop\n      pop\n      pop\n      pop\n      mload(0x40)\n      returndatasize\n      not(0x1f)\n      0x1f\n      dup3\n      add\n      and\n      dup3\n      add\n      dup1\n      0x40\n      mstore\n      pop\n      dup2\n      add\n      swap1\n      tag_313\n      swap2\n      swap1\n      tag_222\n      jump\t// in\n    tag_313:\n        /* \"contracts/Unisurance.sol\":6578:6637  uint256 availableYield = yieldStrategy.getYield(msg.sender) */\n      swap1\n      pop\n        /* \"contracts/Unisurance.sol\":6672:6673  0 */\n      0x00\n        /* \"contracts/Unisurance.sol\":6655:6669  availableYield */\n      dup2\n        /* \"contracts/Unisurance.sol\":6655:6673  availableYield > 0 */\n      gt\n        /* \"contracts/Unisurance.sol\":6647:6696  require(availableYield > 0, \"No yield available\") */\n      tag_314\n      jumpi\n      mload(0x40)\n      0x08c379a000000000000000000000000000000000000000000000000000000000\n      dup2\n      mstore\n      0x04\n      add\n      tag_315\n      swap1\n      tag_316\n      jump\t// in\n    tag_315:\n      mload(0x40)\n      dup1\n      swap2\n      sub\n      swap1\n      revert\n    tag_314:\n        /* \"contracts/Unisurance.sol\":6732:6743  uint256 fee */\n      0x00\n        /* \"contracts/Unisurance.sol\":6776:6781  10000 */\n      0x2710\n        /* \"contracts/Unisurance.sol\":6764:6772  yieldFee */\n      sload(0x09)\n        /* \"contracts/Unisurance.sol\":6747:6761  availableYield */\n      dup4\n        /* \"contracts/Unisurance.sol\":6747:6772  availableYield * yieldFee */\n      tag_317\n      swap2\n      swap1\n      tag_294\n      jump\t// in\n    tag_317:\n        /* \"contracts/Unisurance.sol\":6746:6781  (availableYield * yieldFee) / 10000 */\n      tag_318\n      swap2\n      swap1\n      tag_296\n      jump\t// in\n    tag_318:\n        /* \"contracts/Unisurance.sol\":6732:6781  uint256 fee = (availableYield * yieldFee) / 10000 */\n      swap1\n      pop\n        /* \"contracts/Unisurance.sol\":6791:6809  uint256 userAmount */\n      0x00\n        /* \"contracts/Unisurance.sol\":6829:6832  fee */\n      dup2\n        /* \"contracts/Unisurance.sol\":6812:6826  availableYield */\n      dup4\n        /* \"contracts/Unisurance.sol\":6812:6832  availableYield - fee */\n      tag_319\n      swap2\n      swap1\n      tag_224\n      jump\t// in\n    tag_319:\n        /* \"contracts/Unisurance.sol\":6791:6832  uint256 userAmount = availableYield - fee */\n      swap1\n      pop\n        /* \"contracts/Unisurance.sol\":6883:6896  yieldStrategy */\n      0x04\n      0x00\n      swap1\n      sload\n      swap1\n      0x0100\n      exp\n      swap1\n      div\n      0xffffffffffffffffffffffffffffffffffffffff\n      and\n        /* \"contracts/Unisurance.sol\":6883:6905  yieldStrategy.withdraw */\n      0xffffffffffffffffffffffffffffffffffffffff\n      and\n      0x2e1a7d4d\n        /* \"contracts/Unisurance.sol\":6906:6920  availableYield */\n      dup5\n        /* \"contracts/Unisurance.sol\":6883:6921  yieldStrategy.withdraw(availableYield) */\n      mload(0x40)\n      dup3\n      0xffffffff\n      and\n      0xe0\n      shl\n      dup2\n      mstore\n      0x04\n      add\n      tag_320\n      swap2\n      swap1\n      tag_53\n      jump\t// in\n    tag_320:\n      0x20\n      mload(0x40)\n      dup1\n      dup4\n      sub\n      dup2\n      0x00\n      dup8\n      gas\n      call\n      iszero\n      dup1\n      iszero\n      tag_322\n      jumpi\n      returndatacopy(0x00, 0x00, returndatasize)\n      revert(0x00, returndatasize)\n    tag_322:\n      pop\n      pop\n      pop\n      pop\n      mload(0x40)\n      returndatasize\n      not(0x1f)\n      0x1f\n      dup3\n      add\n      and\n      dup3\n      add\n      dup1\n      0x40\n      mstore\n      pop\n      dup2\n      add\n      swap1\n      tag_323\n      swap2\n      swap1\n      tag_222\n      jump\t// in\n    tag_323:\n      pop\n        /* \"contracts/Unisurance.sol\":6968:7015  stablecoin.safeTransfer(msg.sender, userAmount) */\n      tag_324\n        /* \"contracts/Unisurance.sol\":6992:7002  msg.sender */\n      caller\n        /* \"contracts/Unisurance.sol\":7004:7014  userAmount */\n      dup3\n        /* \"contracts/Unisurance.sol\":6968:6978  stablecoin */\n      0x02\n      0x00\n      swap1\n      sload\n      swap1\n      0x0100\n      exp\n      swap1\n      div\n      0xffffffffffffffffffffffffffffffffffffffff\n      and\n        /* \"contracts/Unisurance.sol\":6968:6991  stablecoin.safeTransfer */\n      0xffffffffffffffffffffffffffffffffffffffff\n      and\n      tag_205\n      swap1\n        /* \"contracts/Unisurance.sol\":6968:7015  stablecoin.safeTransfer(msg.sender, userAmount) */\n      swap3\n      swap2\n      swap1\n      0xffffffff\n      and\n      jump\t// in\n    tag_324:\n        /* \"contracts/Unisurance.sol\":7076:7077  0 */\n      0x00\n        /* \"contracts/Unisurance.sol\":7070:7073  fee */\n      dup3\n        /* \"contracts/Unisurance.sol\":7070:7077  fee > 0 */\n      gt\n        /* \"contracts/Unisurance.sol\":7066:7147  if (fee > 0) {... */\n      iszero\n      tag_325\n      jumpi\n        /* \"contracts/Unisurance.sol\":7093:7136  stablecoin.safeTransfer(address(this), fee) */\n      tag_326\n        /* \"contracts/Unisurance.sol\":7125:7129  this */\n      address\n        /* \"contracts/Unisurance.sol\":7132:7135  fee */\n      dup4\n        /* \"contracts/Unisurance.sol\":7093:7103  stablecoin */\n      0x02\n      0x00\n      swap1\n      sload\n      swap1\n      0x0100\n      exp\n      swap1\n      div\n      0xffffffffffffffffffffffffffffffffffffffff\n      and\n        /* \"contracts/Unisurance.sol\":7093:7116  stablecoin.safeTransfer */\n      0xffffffffffffffffffffffffffffffffffffffff\n      and\n      tag_205\n      swap1\n        /* \"contracts/Unisurance.sol\":7093:7136  stablecoin.safeTransfer(address(this), fee) */\n      swap3\n      swap2\n      swap1\n      0xffffffff\n      and\n      jump\t// in\n    tag_326:\n        /* \"contracts/Unisurance.sol\":7066:7147  if (fee > 0) {... */\n    tag_325:\n        /* \"contracts/Unisurance.sol\":7217:7232  block.timestamp */\n      timestamp\n        /* \"contracts/Unisurance.sol\":7191:7195  plan */\n      dup5\n        /* \"contracts/Unisurance.sol\":7191:7214  plan.lastWithdrawalTime */\n      0x07\n      add\n        /* \"contracts/Unisurance.sol\":7191:7232  plan.lastWithdrawalTime = block.timestamp */\n      dup2\n      swap1\n      sstore\n      pop\n        /* \"contracts/Unisurance.sol\":7263:7273  msg.sender */\n      caller\n        /* \"contracts/Unisurance.sol\":7248:7286  YieldWithdrawn(msg.sender, userAmount) */\n      0xffffffffffffffffffffffffffffffffffffffff\n      and\n      0xaed495d70193dd915b96156dc90595c95aa5cc4f6985a2cd79286232d96ae8e2\n        /* \"contracts/Unisurance.sol\":7275:7285  userAmount */\n      dup3\n        /* \"contracts/Unisurance.sol\":7248:7286  YieldWithdrawn(msg.sender, userAmount) */\n      mload(0x40)\n      tag_327\n      swap2\n      swap1\n      tag_53\n      jump\t// in\n    tag_327:\n      mload(0x40)\n      dup1\n      swap2\n      sub\n      swap1\n      log2\n        /* \"contracts/Unisurance.sol\":6209:7293  {... */\n      pop\n      pop\n      pop\n      pop\n        /* \"@openzeppelin/contracts/security/ReentrancyGuard.sol\":2303:2323  _nonReentrantAfter() */\n      tag_328\n        /* \"@openzeppelin/contracts/security/ReentrancyGuard.sol\":2303:2321  _nonReentrantAfter */\n      tag_227\n        /* \"@openzeppelin/contracts/security/ReentrancyGuard.sol\":2303:2323  _nonReentrantAfter() */\n      jump\t// in\n    tag_328:\n        /* \"contracts/Unisurance.sol\":6162:7293  function withdrawYield() external nonReentrant {... */\n      jump\t// out\n        /* \"contracts/Unisurance.sol\":12647:13019  function updateVRFParameters(... */\n    tag_162:\n        /* \"contracts/Unisurance.sol\":727:750  keccak256(\"ADMIN_ROLE\") */\n      0xa49807205ce4d355092ef5a8a18f56e8913cf4a201fbe287825b095693c21775\n        /* \"@openzeppelin/contracts/access/AccessControl.sol\":2464:2480  _checkRole(role) */\n      tag_330\n        /* \"@openzeppelin/contracts/access/AccessControl.sol\":2475:2479  role */\n      dup2\n        /* \"@openzeppelin/contracts/access/AccessControl.sol\":2464:2474  _checkRole */\n      tag_188\n        /* \"@openzeppelin/contracts/access/AccessControl.sol\":2464:2480  _checkRole(role) */\n      jump\t// in\n    tag_330:\n        /* \"contracts/Unisurance.sol\":12869:12884  _subscriptionId */\n      dup5\n        /* \"contracts/Unisurance.sol\":12852:12866  subscriptionId */\n      0x05\n      0x14\n        /* \"contracts/Unisurance.sol\":12852:12884  subscriptionId = _subscriptionId */\n      0x0100\n      exp\n      dup2\n      sload\n      dup2\n      0xffffffffffffffff\n      mul\n      not\n      and\n      swap1\n      dup4\n      0xffffffffffffffff\n      and\n      mul\n      or\n      swap1\n      sstore\n      pop\n        /* \"contracts/Unisurance.sol\":12904:12912  _keyHash */\n      dup4\n        /* \"contracts/Unisurance.sol\":12894:12901  keyHash */\n      0x06\n        /* \"contracts/Unisurance.sol\":12894:12912  keyHash = _keyHash */\n      dup2\n      swap1\n      sstore\n      pop\n        /* \"contracts/Unisurance.sol\":12941:12958  _callbackGasLimit */\n      dup3\n        /* \"contracts/Unisurance.sol\":12922:12938  callbackGasLimit */\n      0x07\n      0x00\n        /* \"contracts/Unisurance.sol\":12922:12958  callbackGasLimit = _callbackGasLimit */\n      0x0100\n      exp\n      dup2\n      sload\n      dup2\n      0xffffffff\n      mul\n      not\n      and\n      swap1\n      dup4\n      0xffffffff\n      and\n      mul\n      or\n      swap1\n      sstore\n      pop\n        /* \"contracts/Unisurance.sol\":12991:13012  _requestConfirmations */\n      dup2\n        /* \"contracts/Unisurance.sol\":12968:12988  requestConfirmations */\n      0x07\n      0x04\n        /* \"contracts/Unisurance.sol\":12968:13012  requestConfirmations = _requestConfirmations */\n      0x0100\n      exp\n      dup2\n      sload\n      dup2\n      0xffff\n      mul\n      not\n      and\n      swap1\n      dup4\n      0xffff\n      and\n      mul\n      or\n      swap1\n      sstore\n      pop\n        /* \"contracts/Unisurance.sol\":12647:13019  function updateVRFParameters(... */\n      pop\n      pop\n      pop\n      pop\n      pop\n      jump\t// out\n        /* \"contracts/Unisurance.sol\":13093:13239  function updateYieldStrategy(address _yieldStrategy) external onlyRole(ADMIN_ROLE) {... */\n    tag_165:\n        /* \"contracts/Unisurance.sol\":727:750  keccak256(\"ADMIN_ROLE\") */\n      0xa49807205ce4d355092ef5a8a18f56e8913cf4a201fbe287825b095693c21775\n        /* \"@openzeppelin/contracts/access/AccessControl.sol\":2464:2480  _checkRole(role) */\n      tag_333\n        /* \"@openzeppelin/contracts/access/AccessControl.sol\":2475:2479  role */\n      dup2\n        /* \"@openzeppelin/contracts/access/AccessControl.sol\":2464:2474  _checkRole */\n      tag_188\n        /* \"@openzeppelin/contracts/access/AccessControl.sol\":2464:2480  _checkRole(role) */\n      jump\t// in\n    tag_333:\n        /* \"contracts/Unisurance.sol\":13217:13231  _yieldStrategy */\n      dup2\n        /* \"contracts/Unisurance.sol\":13186:13199  yieldStrategy */\n      0x04\n      0x00\n        /* \"contracts/Unisurance.sol\":13186:13232  yieldStrategy = IYieldStrategy(_yieldStrategy) */\n      0x0100\n      exp\n      dup2\n      sload\n      dup2\n      0xffffffffffffffffffffffffffffffffffffffff\n      mul\n      not\n      and\n      swap1\n      dup4\n      0xffffffffffffffffffffffffffffffffffffffff\n      and\n      mul\n      or\n      swap1\n      sstore\n      pop\n        /* \"contracts/Unisurance.sol\":13093:13239  function updateYieldStrategy(address _yieldStrategy) external onlyRole(ADMIN_ROLE) {... */\n      pop\n      pop\n      jump\t// out\n        /* \"contracts/Unisurance.sol\":799:823  IERC20 public stablecoin */\n    tag_167:\n      0x02\n      0x00\n      swap1\n      sload\n      swap1\n      0x0100\n      exp\n      swap1\n      div\n      0xffffffffffffffffffffffffffffffffffffffff\n      and\n      dup2\n      jump\t// out\n        /* \"contracts/Unisurance.sol\":11973:12573  function updateSystemParameters(... */\n    tag_173:\n        /* \"contracts/Unisurance.sol\":727:750  keccak256(\"ADMIN_ROLE\") */\n      0xa49807205ce4d355092ef5a8a18f56e8913cf4a201fbe287825b095693c21775\n        /* \"@openzeppelin/contracts/access/AccessControl.sol\":2464:2480  _checkRole(role) */\n      tag_336\n        /* \"@openzeppelin/contracts/access/AccessControl.sol\":2475:2479  role */\n      dup2\n        /* \"@openzeppelin/contracts/access/AccessControl.sol\":2464:2474  _checkRole */\n      tag_188\n        /* \"@openzeppelin/contracts/access/AccessControl.sol\":2464:2480  _checkRole(role) */\n      jump\t// in\n    tag_336:\n        /* \"contracts/Unisurance.sol\":12205:12209  2000 */\n      0x07d0\n        /* \"contracts/Unisurance.sol\":12192:12201  _yieldFee */\n      dup5\n        /* \"contracts/Unisurance.sol\":12192:12209  _yieldFee <= 2000 */\n      gt\n      iszero\n        /* \"contracts/Unisurance.sol\":12184:12226  require(_yieldFee <= 2000, \"Fee too high\") */\n      tag_338\n      jumpi\n      mload(0x40)\n      0x08c379a000000000000000000000000000000000000000000000000000000000\n      dup2\n      mstore\n      0x04\n      add\n      tag_339\n      swap1\n      tag_340\n      jump\t// in\n    tag_339:\n      mload(0x40)\n      dup1\n      swap2\n      sub\n      swap1\n      revert\n    tag_338:\n        /* \"contracts/Unisurance.sol\":12278:12282  5000 */\n      0x1388\n        /* \"contracts/Unisurance.sol\":12255:12274  _lotteryProbability */\n      dup4\n        /* \"contracts/Unisurance.sol\":12255:12282  _lotteryProbability <= 5000 */\n      gt\n      iszero\n        /* \"contracts/Unisurance.sol\":12247:12307  require(_lotteryProbability <= 5000, \"Probability too high\") */\n      tag_341\n      jumpi\n      mload(0x40)\n      0x08c379a000000000000000000000000000000000000000000000000000000000\n      dup2\n      mstore\n      0x04\n      add\n      tag_342\n      swap1\n      tag_343\n      jump\t// in\n    tag_342:\n      mload(0x40)\n      dup1\n      swap2\n      sub\n      swap1\n      revert\n    tag_341:\n        /* \"contracts/Unisurance.sol\":12353:12357  5000 */\n      0x1388\n        /* \"contracts/Unisurance.sol\":12336:12349  _lotteryBonus */\n      dup3\n        /* \"contracts/Unisurance.sol\":12336:12357  _lotteryBonus <= 5000 */\n      gt\n      iszero\n        /* \"contracts/Unisurance.sol\":12328:12376  require(_lotteryBonus <= 5000, \"Bonus too high\") */\n      tag_344\n      jumpi\n      mload(0x40)\n      0x08c379a000000000000000000000000000000000000000000000000000000000\n      dup2\n      mstore\n      0x04\n      add\n      tag_345\n      swap1\n      tag_346\n      jump\t// in\n    tag_345:\n      mload(0x40)\n      dup1\n      swap2\n      sub\n      swap1\n      revert\n    tag_344:\n        /* \"contracts/Unisurance.sol\":12428:12448  _minimumContribution */\n      dup5\n        /* \"contracts/Unisurance.sol\":12406:12425  minimumContribution */\n      0x08\n        /* \"contracts/Unisurance.sol\":12406:12448  minimumContribution = _minimumContribution */\n      dup2\n      swap1\n      sstore\n      pop\n        /* \"contracts/Unisurance.sol\":12469:12478  _yieldFee */\n      dup4\n        /* \"contracts/Unisurance.sol\":12458:12466  yieldFee */\n      0x09\n        /* \"contracts/Unisurance.sol\":12458:12478  yieldFee = _yieldFee */\n      dup2\n      swap1\n      sstore\n      pop\n        /* \"contracts/Unisurance.sol\":12509:12528  _lotteryProbability */\n      dup3\n        /* \"contracts/Unisurance.sol\":12488:12506  lotteryProbability */\n      0x0a\n        /* \"contracts/Unisurance.sol\":12488:12528  lotteryProbability = _lotteryProbability */\n      dup2\n      swap1\n      sstore\n      pop\n        /* \"contracts/Unisurance.sol\":12553:12566  _lotteryBonus */\n      dup2\n        /* \"contracts/Unisurance.sol\":12538:12550  lotteryBonus */\n      0x0b\n        /* \"contracts/Unisurance.sol\":12538:12566  lotteryBonus = _lotteryBonus */\n      dup2\n      swap1\n      sstore\n      pop\n        /* \"contracts/Unisurance.sol\":11973:12573  function updateSystemParameters(... */\n      pop\n      pop\n      pop\n      pop\n      pop\n      jump\t// out\n        /* \"@openzeppelin/contracts/utils/introspection/ERC165.sol\":763:909  function supportsInterface(bytes4 interfaceId) public view virtual returns (bool) {... */\n    tag_177:\n        /* \"@openzeppelin/contracts/utils/introspection/ERC165.sol\":839:843  bool */\n      0x00\n        /* \"@openzeppelin/contracts/utils/introspection/ERC165.sol\":877:902  type(IERC165).interfaceId */\n      0x01ffc9a700000000000000000000000000000000000000000000000000000000\n        /* \"@openzeppelin/contracts/utils/introspection/ERC165.sol\":862:902  interfaceId == type(IERC165).interfaceId */\n      not(0xffffffffffffffffffffffffffffffffffffffffffffffffffffffff)\n      and\n        /* \"@openzeppelin/contracts/utils/introspection/ERC165.sol\":862:873  interfaceId */\n      dup3\n        /* \"@openzeppelin/contracts/utils/introspection/ERC165.sol\":862:902  interfaceId == type(IERC165).interfaceId */\n      not(0xffffffffffffffffffffffffffffffffffffffffffffffffffffffff)\n      and\n      eq\n        /* \"@openzeppelin/contracts/utils/introspection/ERC165.sol\":855:902  return interfaceId == type(IERC165).interfaceId */\n      swap1\n      pop\n        /* \"@openzeppelin/contracts/utils/introspection/ERC165.sol\":763:909  function supportsInterface(bytes4 interfaceId) public view virtual returns (bool) {... */\n      swap2\n      swap1\n      pop\n      jump\t// out\n        /* \"contracts/Unisurance.sol\":10203:11208  function fulfillRandomWords(uint256 requestId, uint256[] memory randomWords) internal override {... */\n    tag_183:\n        /* \"contracts/Unisurance.sol\":10308:10320  address user */\n      0x00\n        /* \"contracts/Unisurance.sol\":10323:10334  vrfRequests */\n      0x0d\n        /* \"contracts/Unisurance.sol\":10323:10345  vrfRequests[requestId] */\n      0x00\n        /* \"contracts/Unisurance.sol\":10335:10344  requestId */\n      dup5\n        /* \"contracts/Unisurance.sol\":10323:10345  vrfRequests[requestId] */\n      dup2\n      mstore\n      0x20\n      add\n      swap1\n      dup2\n      mstore\n      0x20\n      add\n      0x00\n      keccak256\n      0x00\n      swap1\n      sload\n      swap1\n      0x0100\n      exp\n      swap1\n      div\n      0xffffffffffffffffffffffffffffffffffffffff\n      and\n        /* \"contracts/Unisurance.sol\":10308:10345  address user = vrfRequests[requestId] */\n      swap1\n      pop\n        /* \"contracts/Unisurance.sol\":10379:10380  0 */\n      0x00\n        /* \"contracts/Unisurance.sol\":10363:10381  user != address(0) */\n      0xffffffffffffffffffffffffffffffffffffffff\n      and\n        /* \"contracts/Unisurance.sol\":10363:10367  user */\n      dup2\n        /* \"contracts/Unisurance.sol\":10363:10381  user != address(0) */\n      0xffffffffffffffffffffffffffffffffffffffff\n      and\n      sub\n        /* \"contracts/Unisurance.sol\":10355:10404  require(user != address(0), \"Unknown request ID\") */\n      tag_349\n      jumpi\n      mload(0x40)\n      0x08c379a000000000000000000000000000000000000000000000000000000000\n      dup2\n      mstore\n      0x04\n      add\n      tag_350\n      swap1\n      tag_351\n      jump\t// in\n    tag_350:\n      mload(0x40)\n      dup1\n      swap2\n      sub\n      swap1\n      revert\n    tag_349:\n        /* \"contracts/Unisurance.sol\":10510:10512  20 */\n      0x14\n        /* \"contracts/Unisurance.sol\":10504:10507  100 */\n      0x64\n        /* \"contracts/Unisurance.sol\":10487:10498  randomWords */\n      dup4\n        /* \"contracts/Unisurance.sol\":10499:10500  0 */\n      0x00\n        /* \"contracts/Unisurance.sol\":10487:10501  randomWords[0] */\n      dup2\n      mload\n      dup2\n      lt\n      tag_352\n      jumpi\n      tag_353\n      tag_354\n      jump\t// in\n    tag_353:\n    tag_352:\n      0x20\n      mul\n      0x20\n      add\n      add\n      mload\n        /* \"contracts/Unisurance.sol\":10487:10507  randomWords[0] % 100 */\n      tag_355\n      swap2\n      swap1\n      tag_356\n      jump\t// in\n    tag_355:\n        /* \"contracts/Unisurance.sol\":10487:10512  randomWords[0] % 100 < 20 */\n      lt\n        /* \"contracts/Unisurance.sol\":10483:11126  if (randomWords[0] % 100 < 20) { // 20% chance to win... */\n      iszero\n      tag_357\n      jumpi\n        /* \"contracts/Unisurance.sol\":10620:10647  RetirementPlan storage plan */\n      0x00\n        /* \"contracts/Unisurance.sol\":10650:10665  retirementPlans */\n      0x0c\n        /* \"contracts/Unisurance.sol\":10650:10671  retirementPlans[user] */\n      0x00\n        /* \"contracts/Unisurance.sol\":10666:10670  user */\n      dup4\n        /* \"contracts/Unisurance.sol\":10650:10671  retirementPlans[user] */\n      0xffffffffffffffffffffffffffffffffffffffff\n      and\n      0xffffffffffffffffffffffffffffffffffffffff\n      and\n      dup2\n      mstore\n      0x20\n      add\n      swap1\n      dup2\n      mstore\n      0x20\n      add\n      0x00\n      keccak256\n        /* \"contracts/Unisurance.sol\":10620:10671  RetirementPlan storage plan = retirementPlans[user] */\n      swap1\n      pop\n        /* \"contracts/Unisurance.sol\":10685:10704  uint256 bonusAmount */\n      0x00\n        /* \"contracts/Unisurance.sol\":10751:10756  10000 */\n      0x2710\n        /* \"contracts/Unisurance.sol\":10735:10747  lotteryBonus */\n      sload(0x0b)\n        /* \"contracts/Unisurance.sol\":10708:10712  plan */\n      dup4\n        /* \"contracts/Unisurance.sol\":10708:10732  plan.monthlyContribution */\n      0x01\n      add\n      sload\n        /* \"contracts/Unisurance.sol\":10708:10747  plan.monthlyContribution * lotteryBonus */\n      tag_358\n      swap2\n      swap1\n      tag_294\n      jump\t// in\n    tag_358:\n        /* \"contracts/Unisurance.sol\":10707:10756  (plan.monthlyContribution * lotteryBonus) / 10000 */\n      tag_359\n      swap2\n      swap1\n      tag_296\n      jump\t// in\n    tag_359:\n        /* \"contracts/Unisurance.sol\":10685:10756  uint256 bonusAmount = (plan.monthlyContribution * lotteryBonus) / 10000 */\n      swap1\n      pop\n        /* \"contracts/Unisurance.sol\":10836:10896  stablecoin.safeTransfer(address(yieldStrategy), bonusAmount) */\n      tag_360\n        /* \"contracts/Unisurance.sol\":10868:10881  yieldStrategy */\n      0x04\n      0x00\n      swap1\n      sload\n      swap1\n      0x0100\n      exp\n      swap1\n      div\n      0xffffffffffffffffffffffffffffffffffffffff\n      and\n        /* \"contracts/Unisurance.sol\":10884:10895  bonusAmount */\n      dup3\n        /* \"contracts/Unisurance.sol\":10836:10846  stablecoin */\n      0x02\n      0x00\n      swap1\n      sload\n      swap1\n      0x0100\n      exp\n      swap1\n      div\n      0xffffffffffffffffffffffffffffffffffffffff\n      and\n        /* \"contracts/Unisurance.sol\":10836:10859  stablecoin.safeTransfer */\n      0xffffffffffffffffffffffffffffffffffffffff\n      and\n      tag_205\n      swap1\n        /* \"contracts/Unisurance.sol\":10836:10896  stablecoin.safeTransfer(address(yieldStrategy), bonusAmount) */\n      swap3\n      swap2\n      swap1\n      0xffffffff\n      and\n      jump\t// in\n    tag_360:\n        /* \"contracts/Unisurance.sol\":10910:10923  yieldStrategy */\n      0x04\n      0x00\n      swap1\n      sload\n      swap1\n      0x0100\n      exp\n      swap1\n      div\n      0xffffffffffffffffffffffffffffffffffffffff\n      and\n        /* \"contracts/Unisurance.sol\":10910:10931  yieldStrategy.deposit */\n      0xffffffffffffffffffffffffffffffffffffffff\n      and\n      0xb6b55f25\n        /* \"contracts/Unisurance.sol\":10932:10943  bonusAmount */\n      dup3\n        /* \"contracts/Unisurance.sol\":10910:10944  yieldStrategy.deposit(bonusAmount) */\n      mload(0x40)\n      dup3\n      0xffffffff\n      and\n      0xe0\n      shl\n      dup2\n      mstore\n      0x04\n      add\n      tag_361\n      swap2\n      swap1\n      tag_53\n      jump\t// in\n    tag_361:\n      0x20\n      mload(0x40)\n      dup1\n      dup4\n      sub\n      dup2\n      0x00\n      dup8\n      gas\n      call\n      iszero\n      dup1\n      iszero\n      tag_363\n      jumpi\n      returndatacopy(0x00, 0x00, returndatasize)\n      revert(0x00, returndatasize)\n    tag_363:\n      pop\n      pop\n      pop\n      pop\n      mload(0x40)\n      returndatasize\n      not(0x1f)\n      0x1f\n      dup3\n      add\n      and\n      dup3\n      add\n      dup1\n      0x40\n      mstore\n      pop\n      dup2\n      add\n      swap1\n      tag_364\n      swap2\n      swap1\n      tag_259\n      jump\t// in\n    tag_364:\n      pop\n        /* \"contracts/Unisurance.sol\":11043:11054  bonusAmount */\n      dup1\n        /* \"contracts/Unisurance.sol\":11018:11022  plan */\n      dup3\n        /* \"contracts/Unisurance.sol\":11018:11039  plan.totalContributed */\n      0x04\n      add\n      0x00\n        /* \"contracts/Unisurance.sol\":11018:11054  plan.totalContributed += bonusAmount */\n      dup3\n      dup3\n      sload\n      tag_365\n      swap2\n      swap1\n      tag_265\n      jump\t// in\n    tag_365:\n      swap3\n      pop\n      pop\n      dup2\n      swap1\n      sstore\n      pop\n        /* \"contracts/Unisurance.sol\":11097:11101  user */\n      dup3\n        /* \"contracts/Unisurance.sol\":11086:11115  LotteryWon(user, bonusAmount) */\n      0xffffffffffffffffffffffffffffffffffffffff\n      and\n      0x2e798dd4337e515c79b64c40e1a93baa1aefbd9180ac7905e02508edd7971e50\n        /* \"contracts/Unisurance.sol\":11103:11114  bonusAmount */\n      dup3\n        /* \"contracts/Unisurance.sol\":11086:11115  LotteryWon(user, bonusAmount) */\n      mload(0x40)\n      tag_366\n      swap2\n      swap1\n      tag_53\n      jump\t// in\n    tag_366:\n      mload(0x40)\n      dup1\n      swap2\n      sub\n      swap1\n      log2\n        /* \"contracts/Unisurance.sol\":10514:11126  { // 20% chance to win... */\n      pop\n      pop\n        /* \"contracts/Unisurance.sol\":10483:11126  if (randomWords[0] % 100 < 20) { // 20% chance to win... */\n    tag_357:\n        /* \"contracts/Unisurance.sol\":11179:11190  vrfRequests */\n      0x0d\n        /* \"contracts/Unisurance.sol\":11179:11201  vrfRequests[requestId] */\n      0x00\n        /* \"contracts/Unisurance.sol\":11191:11200  requestId */\n      dup5\n        /* \"contracts/Unisurance.sol\":11179:11201  vrfRequests[requestId] */\n      dup2\n      mstore\n      0x20\n      add\n      swap1\n      dup2\n      mstore\n      0x20\n      add\n      0x00\n      keccak256\n      0x00\n        /* \"contracts/Unisurance.sol\":11172:11201  delete vrfRequests[requestId] */\n      0x0100\n      exp\n      dup2\n      sload\n      swap1\n      0xffffffffffffffffffffffffffffffffffffffff\n      mul\n      not\n      and\n      swap1\n      sstore\n        /* \"contracts/Unisurance.sol\":10298:11208  {... */\n      pop\n        /* \"contracts/Unisurance.sol\":10203:11208  function fulfillRandomWords(uint256 requestId, uint256[] memory randomWords) internal override {... */\n      pop\n      pop\n      jump\t// out\n        /* \"@openzeppelin/contracts/access/AccessControl.sol\":3199:3302  function _checkRole(bytes32 role) internal view virtual {... */\n    tag_188:\n        /* \"@openzeppelin/contracts/access/AccessControl.sol\":3265:3295  _checkRole(role, _msgSender()) */\n      tag_368\n        /* \"@openzeppelin/contracts/access/AccessControl.sol\":3276:3280  role */\n      dup2\n        /* \"@openzeppelin/contracts/access/AccessControl.sol\":3282:3294  _msgSender() */\n      tag_369\n        /* \"@openzeppelin/contracts/access/AccessControl.sol\":3282:3292  _msgSender */\n      tag_194\n        /* \"@openzeppelin/contracts/access/AccessControl.sol\":3282:3294  _msgSender() */\n      jump\t// in\n    tag_369:\n        /* \"@openzeppelin/contracts/access/AccessControl.sol\":3265:3275  _checkRole */\n      tag_370\n        /* \"@openzeppelin/contracts/access/AccessControl.sol\":3265:3295  _checkRole(role, _msgSender()) */\n      jump\t// in\n    tag_368:\n        /* \"@openzeppelin/contracts/access/AccessControl.sol\":3199:3302  function _checkRole(bytes32 role) internal view virtual {... */\n      pop\n      jump\t// out\n        /* \"@openzeppelin/contracts/access/AccessControl.sol\":6179:6495  function _grantRole(bytes32 role, address account) internal virtual returns (bool) {... */\n    tag_191:\n        /* \"@openzeppelin/contracts/access/AccessControl.sol\":6256:6260  bool */\n      0x00\n        /* \"@openzeppelin/contracts/access/AccessControl.sol\":6277:6299  hasRole(role, account) */\n      tag_372\n        /* \"@openzeppelin/contracts/access/AccessControl.sol\":6285:6289  role */\n      dup4\n        /* \"@openzeppelin/contracts/access/AccessControl.sol\":6291:6298  account */\n      dup4\n        /* \"@openzeppelin/contracts/access/AccessControl.sol\":6277:6284  hasRole */\n      tag_127\n        /* \"@openzeppelin/contracts/access/AccessControl.sol\":6277:6299  hasRole(role, account) */\n      jump\t// in\n    tag_372:\n        /* \"@openzeppelin/contracts/access/AccessControl.sol\":6272:6489  if (!hasRole(role, account)) {... */\n      tag_373\n      jumpi\n        /* \"@openzeppelin/contracts/access/AccessControl.sol\":6347:6351  true */\n      0x01\n        /* \"@openzeppelin/contracts/access/AccessControl.sol\":6315:6321  _roles */\n      dup1\n        /* \"@openzeppelin/contracts/access/AccessControl.sol\":6315:6327  _roles[role] */\n      0x00\n        /* \"@openzeppelin/contracts/access/AccessControl.sol\":6322:6326  role */\n      dup6\n        /* \"@openzeppelin/contracts/access/AccessControl.sol\":6315:6327  _roles[role] */\n      dup2\n      mstore\n      0x20\n      add\n      swap1\n      dup2\n      mstore\n      0x20\n      add\n      0x00\n      keccak256\n        /* \"@openzeppelin/contracts/access/AccessControl.sol\":6315:6335  _roles[role].hasRole */\n      0x00\n      add\n        /* \"@openzeppelin/contracts/access/AccessControl.sol\":6315:6344  _roles[role].hasRole[account] */\n      0x00\n        /* \"@openzeppelin/contracts/access/AccessControl.sol\":6336:6343  account */\n      dup5\n        /* \"@openzeppelin/contracts/access/AccessControl.sol\":6315:6344  _roles[role].hasRole[account] */\n      0xffffffffffffffffffffffffffffffffffffffff\n      and\n      0xffffffffffffffffffffffffffffffffffffffff\n      and\n      dup2\n      mstore\n      0x20\n      add\n      swap1\n      dup2\n      mstore\n      0x20\n      add\n      0x00\n      keccak256\n      0x00\n        /* \"@openzeppelin/contracts/access/AccessControl.sol\":6315:6351  _roles[role].hasRole[account] = true */\n      0x0100\n      exp\n      dup2\n      sload\n      dup2\n      0xff\n      mul\n      not\n      and\n      swap1\n      dup4\n      iszero\n      iszero\n      mul\n      or\n      swap1\n      sstore\n      pop\n        /* \"@openzeppelin/contracts/access/AccessControl.sol\":6397:6409  _msgSender() */\n      tag_374\n        /* \"@openzeppelin/contracts/access/AccessControl.sol\":6397:6407  _msgSender */\n      tag_194\n        /* \"@openzeppelin/contracts/access/AccessControl.sol\":6397:6409  _msgSender() */\n      jump\t// in\n    tag_374:\n        /* \"@openzeppelin/contracts/access/AccessControl.sol\":6370:6410  RoleGranted(role, account, _msgSender()) */\n      0xffffffffffffffffffffffffffffffffffffffff\n      and\n        /* \"@openzeppelin/contracts/access/AccessControl.sol\":6388:6395  account */\n      dup3\n        /* \"@openzeppelin/contracts/access/AccessControl.sol\":6370:6410  RoleGranted(role, account, _msgSender()) */\n      0xffffffffffffffffffffffffffffffffffffffff\n      and\n        /* \"@openzeppelin/contracts/access/AccessControl.sol\":6382:6386  role */\n      dup5\n        /* \"@openzeppelin/contracts/access/AccessControl.sol\":6370:6410  RoleGranted(role, account, _msgSender()) */\n      0x2f8788117e7eff1d82e926ec794901d17c78024a50270940304540a733656f0d\n      mload(0x40)\n      mload(0x40)\n      dup1\n      swap2\n      sub\n      swap1\n      log4\n        /* \"@openzeppelin/contracts/access/AccessControl.sol\":6431:6435  true */\n      0x01\n        /* \"@openzeppelin/contracts/access/AccessControl.sol\":6424:6435  return true */\n      swap1\n      pop\n      jump(tag_371)\n        /* \"@openzeppelin/contracts/access/AccessControl.sol\":6272:6489  if (!hasRole(role, account)) {... */\n    tag_373:\n        /* \"@openzeppelin/contracts/access/AccessControl.sol\":6473:6478  false */\n      0x00\n        /* \"@openzeppelin/contracts/access/AccessControl.sol\":6466:6478  return false */\n      swap1\n      pop\n        /* \"@openzeppelin/contracts/access/AccessControl.sol\":6179:6495  function _grantRole(bytes32 role, address account) internal virtual returns (bool) {... */\n    tag_371:\n      swap3\n      swap2\n      pop\n      pop\n      jump\t// out\n        /* \"@openzeppelin/contracts/utils/Context.sol\":656:752  function _msgSender() internal view virtual returns (address) {... */\n    tag_194:\n        /* \"@openzeppelin/contracts/utils/Context.sol\":709:716  address */\n      0x00\n        /* \"@openzeppelin/contracts/utils/Context.sol\":735:745  msg.sender */\n      caller\n        /* \"@openzeppelin/contracts/utils/Context.sol\":728:745  return msg.sender */\n      swap1\n      pop\n        /* \"@openzeppelin/contracts/utils/Context.sol\":656:752  function _msgSender() internal view virtual returns (address) {... */\n      swap1\n      jump\t// out\n        /* \"@openzeppelin/contracts/access/AccessControl.sol\":6732:7049  function _revokeRole(bytes32 role, address account) internal virtual returns (bool) {... */\n    tag_197:\n        /* \"@openzeppelin/contracts/access/AccessControl.sol\":6810:6814  bool */\n      0x00\n        /* \"@openzeppelin/contracts/access/AccessControl.sol\":6830:6852  hasRole(role, account) */\n      tag_378\n        /* \"@openzeppelin/contracts/access/AccessControl.sol\":6838:6842  role */\n      dup4\n        /* \"@openzeppelin/contracts/access/AccessControl.sol\":6844:6851  account */\n      dup4\n        /* \"@openzeppelin/contracts/access/AccessControl.sol\":6830:6837  hasRole */\n      tag_127\n        /* \"@openzeppelin/contracts/access/AccessControl.sol\":6830:6852  hasRole(role, account) */\n      jump\t// in\n    tag_378:\n        /* \"@openzeppelin/contracts/access/AccessControl.sol\":6826:7043  if (hasRole(role, account)) {... */\n      iszero\n      tag_379\n      jumpi\n        /* \"@openzeppelin/contracts/access/AccessControl.sol\":6900:6905  false */\n      0x00\n        /* \"@openzeppelin/contracts/access/AccessControl.sol\":6868:6874  _roles */\n      0x01\n        /* \"@openzeppelin/contracts/access/AccessControl.sol\":6868:6880  _roles[role] */\n      0x00\n        /* \"@openzeppelin/contracts/access/AccessControl.sol\":6875:6879  role */\n      dup6\n        /* \"@openzeppelin/contracts/access/AccessControl.sol\":6868:6880  _roles[role] */\n      dup2\n      mstore\n      0x20\n      add\n      swap1\n      dup2\n      mstore\n      0x20\n      add\n      0x00\n      keccak256\n        /* \"@openzeppelin/contracts/access/AccessControl.sol\":6868:6888  _roles[role].hasRole */\n      0x00\n      add\n        /* \"@openzeppelin/contracts/access/AccessControl.sol\":6868:6897  _roles[role].hasRole[account] */\n      0x00\n        /* \"@openzeppelin/contracts/access/AccessControl.sol\":6889:6896  account */\n      dup5\n        /* \"@openzeppelin/contracts/access/AccessControl.sol\":6868:6897  _roles[role].hasRole[account] */\n      0xffffffffffffffffffffffffffffffffffffffff\n      and\n      0xffffffffffffffffffffffffffffffffffffffff\n      and\n      dup2\n      mstore\n      0x20\n      add\n      swap1\n      dup2\n      mstore\n      0x20\n      add\n      0x00\n      keccak256\n      0x00\n        /* \"@openzeppelin/contracts/access/AccessControl.sol\":6868:6905  _roles[role].hasRole[account] = false */\n      0x0100\n      exp\n      dup2\n      sload\n      dup2\n      0xff\n      mul\n      not\n      and\n      swap1\n      dup4\n      iszero\n      iszero\n      mul\n      or\n      swap1\n      sstore\n      pop\n        /* \"@openzeppelin/contracts/access/AccessControl.sol\":6951:6963  _msgSender() */\n      tag_380\n        /* \"@openzeppelin/contracts/access/AccessControl.sol\":6951:6961  _msgSender */\n      tag_194\n        /* \"@openzeppelin/contracts/access/AccessControl.sol\":6951:6963  _msgSender() */\n      jump\t// in\n    tag_380:\n        /* \"@openzeppelin/contracts/access/AccessControl.sol\":6924:6964  RoleRevoked(role, account, _msgSender()) */\n      0xffffffffffffffffffffffffffffffffffffffff\n      and\n        /* \"@openzeppelin/contracts/access/AccessControl.sol\":6942:6949  account */\n      dup3\n        /* \"@openzeppelin/contracts/access/AccessControl.sol\":6924:6964  RoleRevoked(role, account, _msgSender()) */\n      0xffffffffffffffffffffffffffffffffffffffff\n      and\n        /* \"@openzeppelin/contracts/access/AccessControl.sol\":6936:6940  role */\n      dup5\n        /* \"@openzeppelin/contracts/access/AccessControl.sol\":6924:6964  RoleRevoked(role, account, _msgSender()) */\n      0xf6391f5c32d9c69d2a47ea670b442974b53935d1edc7fd64eb21e047a839171b\n      mload(0x40)\n      mload(0x40)\n      dup1\n      swap2\n      sub\n      swap1\n      log4\n        /* \"@openzeppelin/contracts/access/AccessControl.sol\":6985:6989  true */\n      0x01\n        /* \"@openzeppelin/contracts/access/AccessControl.sol\":6978:6989  return true */\n      swap1\n      pop\n      jump(tag_377)\n        /* \"@openzeppelin/contracts/access/AccessControl.sol\":6826:7043  if (hasRole(role, account)) {... */\n    tag_379:\n        /* \"@openzeppelin/contracts/access/AccessControl.sol\":7027:7032  false */\n      0x00\n        /* \"@openzeppelin/contracts/access/AccessControl.sol\":7020:7032  return false */\n      swap1\n      pop\n        /* \"@openzeppelin/contracts/access/AccessControl.sol\":6732:7049  function _revokeRole(bytes32 role, address account) internal virtual returns (bool) {... */\n    tag_377:\n      swap3\n      swap2\n      pop\n      pop\n      jump\t// out\n        /* \"@openzeppelin/contracts/token/ERC20/utils/SafeERC20.sol\":1219:1379  function safeTransfer(IERC20 token, address to, uint256 value) internal {... */\n    tag_205:\n        /* \"@openzeppelin/contracts/token/ERC20/utils/SafeERC20.sol\":1301:1372  _callOptionalReturn(token, abi.encodeCall(token.transfer, (to, value))) */\n      tag_383\n        /* \"@openzeppelin/contracts/token/ERC20/utils/SafeERC20.sol\":1321:1326  token */\n      dup4\n        /* \"@openzeppelin/contracts/token/ERC20/utils/SafeERC20.sol\":1343:1348  token */\n      dup5\n        /* \"@openzeppelin/contracts/token/ERC20/utils/SafeERC20.sol\":1343:1357  token.transfer */\n      0xffffffffffffffffffffffffffffffffffffffff\n      and\n      0xa9059cbb\n        /* \"@openzeppelin/contracts/token/ERC20/utils/SafeERC20.sol\":1360:1362  to */\n      dup6\n        /* \"@openzeppelin/contracts/token/ERC20/utils/SafeERC20.sol\":1364:1369  value */\n      dup6\n        /* \"@openzeppelin/contracts/token/ERC20/utils/SafeERC20.sol\":1328:1371  abi.encodeCall(token.transfer, (to, value)) */\n      add(0x24, mload(0x40))\n      tag_384\n      swap3\n      swap2\n      swap1\n      tag_255\n      jump\t// in\n    tag_384:\n      mload(0x40)\n      0x20\n      dup2\n      dup4\n      sub\n      sub\n      dup2\n      mstore\n      swap1\n      0x40\n      mstore\n      swap2\n      pop\n      0xe0\n      shl\n      0x20\n      dup3\n      add\n      dup1\n      mload\n      0xffffffffffffffffffffffffffffffffffffffffffffffffffffffff\n      dup4\n      dup2\n      dup4\n      and\n      or\n      dup4\n      mstore\n      pop\n      pop\n      pop\n      pop\n        /* \"@openzeppelin/contracts/token/ERC20/utils/SafeERC20.sol\":1301:1320  _callOptionalReturn */\n      tag_385\n        /* \"@openzeppelin/contracts/token/ERC20/utils/SafeERC20.sol\":1301:1372  _callOptionalReturn(token, abi.encodeCall(token.transfer, (to, value))) */\n      jump\t// in\n    tag_383:\n        /* \"@openzeppelin/contracts/token/ERC20/utils/SafeERC20.sol\":1219:1379  function safeTransfer(IERC20 token, address to, uint256 value) internal {... */\n      pop\n      pop\n      pop\n      jump\t// out\n        /* \"@openzeppelin/contracts/security/ReentrancyGuard.sol\":2336:2623  function _nonReentrantBefore() private {... */\n    tag_208:\n        /* \"@openzeppelin/contracts/security/ReentrancyGuard.sol\":1759:1760  2 */\n      0x02\n        /* \"@openzeppelin/contracts/security/ReentrancyGuard.sol\":2468:2475  _status */\n      sload(0x00)\n        /* \"@openzeppelin/contracts/security/ReentrancyGuard.sol\":2468:2487  _status != _ENTERED */\n      sub\n        /* \"@openzeppelin/contracts/security/ReentrancyGuard.sol\":2460:2523  require(_status != _ENTERED, \"ReentrancyGuard: reentrant call\") */\n      tag_387\n      jumpi\n      mload(0x40)\n      0x08c379a000000000000000000000000000000000000000000000000000000000\n      dup2\n      mstore\n      0x04\n      add\n      tag_388\n      swap1\n      tag_389\n      jump\t// in\n    tag_388:\n      mload(0x40)\n      dup1\n      swap2\n      sub\n      swap1\n      revert\n    tag_387:\n        /* \"@openzeppelin/contracts/security/ReentrancyGuard.sol\":1759:1760  2 */\n      0x02\n        /* \"@openzeppelin/contracts/security/ReentrancyGuard.sol\":2598:2605  _status */\n      0x00\n        /* \"@openzeppelin/contracts/security/ReentrancyGuard.sol\":2598:2616  _status = _ENTERED */\n      dup2\n      swap1\n      sstore\n      pop\n        /* \"@openzeppelin/contracts/security/ReentrancyGuard.sol\":2336:2623  function _nonReentrantBefore() private {... */\n      jump\t// out\n        /* \"@openzeppelin/contracts/security/ReentrancyGuard.sol\":2629:2838  function _nonReentrantAfter() private {... */\n    tag_227:\n        /* \"@openzeppelin/contracts/security/ReentrancyGuard.sol\":1716:1717  1 */\n      0x01\n        /* \"@openzeppelin/contracts/security/ReentrancyGuard.sol\":2809:2816  _status */\n      0x00\n        /* \"@openzeppelin/contracts/security/ReentrancyGuard.sol\":2809:2831  _status = _NOT_ENTERED */\n      dup2\n      swap1\n      sstore\n      pop\n        /* \"@openzeppelin/contracts/security/ReentrancyGuard.sol\":2629:2838  function _nonReentrantAfter() private {... */\n      jump\t// out\n        /* \"@openzeppelin/contracts/token/ERC20/utils/SafeERC20.sol\":1618:1806  function safeTransferFrom(IERC20 token, address from, address to, uint256 value) internal {... */\n    tag_253:\n        /* \"@openzeppelin/contracts/token/ERC20/utils/SafeERC20.sol\":1718:1799  _callOptionalReturn(token, abi.encodeCall(token.transferFrom, (from, to, value))) */\n      tag_392\n        /* \"@openzeppelin/contracts/token/ERC20/utils/SafeERC20.sol\":1738:1743  token */\n      dup5\n        /* \"@openzeppelin/contracts/token/ERC20/utils/SafeERC20.sol\":1760:1765  token */\n      dup6\n        /* \"@openzeppelin/contracts/token/ERC20/utils/SafeERC20.sol\":1760:1778  token.transferFrom */\n      0xffffffffffffffffffffffffffffffffffffffff\n      and\n      0x23b872dd\n        /* \"@openzeppelin/contracts/token/ERC20/utils/SafeERC20.sol\":1781:1785  from */\n      dup7\n        /* \"@openzeppelin/contracts/token/ERC20/utils/SafeERC20.sol\":1787:1789  to */\n      dup7\n        /* \"@openzeppelin/contracts/token/ERC20/utils/SafeERC20.sol\":1791:1796  value */\n      dup7\n        /* \"@openzeppelin/contracts/token/ERC20/utils/SafeERC20.sol\":1745:1798  abi.encodeCall(token.transferFrom, (from, to, value)) */\n      add(0x24, mload(0x40))\n      tag_393\n      swap4\n      swap3\n      swap2\n      swap1\n      tag_394\n      jump\t// in\n    tag_393:\n      mload(0x40)\n      0x20\n      dup2\n      dup4\n      sub\n      sub\n      dup2\n      mstore\n      swap1\n      0x40\n      mstore\n      swap2\n      pop\n      0xe0\n      shl\n      0x20\n      dup3\n      add\n      dup1\n      mload\n      0xffffffffffffffffffffffffffffffffffffffffffffffffffffffff\n      dup4\n      dup2\n      dup4\n      and\n      or\n      dup4\n      mstore\n      pop\n      pop\n      pop\n      pop\n        /* \"@openzeppelin/contracts/token/ERC20/utils/SafeERC20.sol\":1718:1737  _callOptionalReturn */\n      tag_385\n        /* \"@openzeppelin/contracts/token/ERC20/utils/SafeERC20.sol\":1718:1799  _callOptionalReturn(token, abi.encodeCall(token.transferFrom, (from, to, value))) */\n      jump\t// in\n    tag_392:\n        /* \"@openzeppelin/contracts/token/ERC20/utils/SafeERC20.sol\":1618:1806  function safeTransferFrom(IERC20 token, address from, address to, uint256 value) internal {... */\n      pop\n      pop\n      pop\n      pop\n      jump\t// out\n        /* \"contracts/Unisurance.sol\":11305:11515  function _getMonthId(uint256 timestamp) internal pure returns (uint256) {... */\n    tag_268:\n        /* \"contracts/Unisurance.sol\":11368:11375  uint256 */\n      0x00\n        /* \"contracts/Unisurance.sol\":11501:11508  30 days */\n      0x278d00\n        /* \"contracts/Unisurance.sol\":11489:11498  timestamp */\n      dup3\n        /* \"contracts/Unisurance.sol\":11489:11508  timestamp / 30 days */\n      tag_396\n      swap2\n      swap1\n      tag_296\n      jump\t// in\n    tag_396:\n        /* \"contracts/Unisurance.sol\":11482:11508  return timestamp / 30 days */\n      swap1\n      pop\n        /* \"contracts/Unisurance.sol\":11305:11515  function _getMonthId(uint256 timestamp) internal pure returns (uint256) {... */\n      swap2\n      swap1\n      pop\n      jump\t// out\n        /* \"contracts/Unisurance.sol\":11721:11896  function _random(uint256 max) internal view returns (uint256) {... */\n    tag_274:\n        /* \"contracts/Unisurance.sol\":11774:11781  uint256 */\n      0x00\n        /* \"contracts/Unisurance.sol\":11886:11889  max */\n      dup2\n        /* \"contracts/Unisurance.sol\":11835:11850  block.timestamp */\n      timestamp\n        /* \"contracts/Unisurance.sol\":11852:11868  block.prevrandao */\n      prevrandao\n        /* \"contracts/Unisurance.sol\":11870:11880  msg.sender */\n      caller\n        /* \"contracts/Unisurance.sol\":11818:11881  abi.encodePacked(block.timestamp, block.prevrandao, msg.sender) */\n      add(0x20, mload(0x40))\n      tag_398\n      swap4\n      swap3\n      swap2\n      swap1\n      tag_399\n      jump\t// in\n    tag_398:\n      mload(0x40)\n      0x20\n      dup2\n      dup4\n      sub\n      sub\n      dup2\n      mstore\n      swap1\n      0x40\n      mstore\n        /* \"contracts/Unisurance.sol\":11808:11882  keccak256(abi.encodePacked(block.timestamp, block.prevrandao, msg.sender)) */\n      dup1\n      mload\n      swap1\n      0x20\n      add\n      keccak256\n        /* \"contracts/Unisurance.sol\":11800:11883  uint256(keccak256(abi.encodePacked(block.timestamp, block.prevrandao, msg.sender))) */\n      0x00\n      shr\n        /* \"contracts/Unisurance.sol\":11800:11889  uint256(keccak256(abi.encodePacked(block.timestamp, block.prevrandao, msg.sender))) % max */\n      tag_400\n      swap2\n      swap1\n      tag_356\n      jump\t// in\n    tag_400:\n        /* \"contracts/Unisurance.sol\":11793:11889  return uint256(keccak256(abi.encodePacked(block.timestamp, block.prevrandao, msg.sender))) % max */\n      swap1\n      pop\n        /* \"contracts/Unisurance.sol\":11721:11896  function _random(uint256 max) internal view returns (uint256) {... */\n      swap2\n      swap1\n      pop\n      jump\t// out\n        /* \"contracts/Unisurance.sol\":9772:10127  function _requestRandomness() internal {... */\n    tag_277:\n        /* \"contracts/Unisurance.sol\":9821:9838  uint256 requestId */\n      0x00\n        /* \"contracts/Unisurance.sol\":9841:9852  COORDINATOR */\n      0x05\n      0x00\n      swap1\n      sload\n      swap1\n      0x0100\n      exp\n      swap1\n      div\n      0xffffffffffffffffffffffffffffffffffffffff\n      and\n        /* \"contracts/Unisurance.sol\":9841:9871  COORDINATOR.requestRandomWords */\n      0xffffffffffffffffffffffffffffffffffffffff\n      and\n      0x5d3b1d30\n        /* \"contracts/Unisurance.sol\":9885:9892  keyHash */\n      sload(0x06)\n        /* \"contracts/Unisurance.sol\":9906:9920  subscriptionId */\n      0x05\n      0x14\n      swap1\n      sload\n      swap1\n      0x0100\n      exp\n      swap1\n      div\n      0xffffffffffffffff\n      and\n        /* \"contracts/Unisurance.sol\":9934:9954  requestConfirmations */\n      0x07\n      0x04\n      swap1\n      sload\n      swap1\n      0x0100\n      exp\n      swap1\n      div\n      0xffff\n      and\n        /* \"contracts/Unisurance.sol\":9968:9984  callbackGasLimit */\n      0x07\n      0x00\n      swap1\n      sload\n      swap1\n      0x0100\n      exp\n      swap1\n      div\n      0xffffffff\n      and\n        /* \"contracts/Unisurance.sol\":9998:10006  numWords */\n      0x07\n      0x06\n      swap1\n      sload\n      swap1\n      0x0100\n      exp\n      swap1\n      div\n      0xffffffff\n      and\n        /* \"contracts/Unisurance.sol\":9841:10016  COORDINATOR.requestRandomWords(... */\n      mload(0x40)\n      dup7\n      0xffffffff\n      and\n      0xe0\n      shl\n      dup2\n      mstore\n      0x04\n      add\n      tag_402\n      swap6\n      swap5\n      swap4\n      swap3\n      swap2\n      swap1\n      tag_403\n      jump\t// in\n    tag_402:\n      0x20\n      mload(0x40)\n      dup1\n      dup4\n      sub\n      dup2\n      0x00\n      dup8\n      gas\n      call\n      iszero\n      dup1\n      iszero\n      tag_405\n      jumpi\n      returndatacopy(0x00, 0x00, returndatasize)\n      revert(0x00, returndatasize)\n    tag_405:\n      pop\n      pop\n      pop\n      pop\n      mload(0x40)\n      returndatasize\n      not(0x1f)\n      0x1f\n      dup3\n      add\n      and\n      dup3\n      add\n      dup1\n      0x40\n      mstore\n      pop\n      dup2\n      add\n      swap1\n      tag_406\n      swap2\n      swap1\n      tag_222\n      jump\t// in\n    tag_406:\n        /* \"contracts/Unisurance.sol\":9821:10016  uint256 requestId = COORDINATOR.requestRandomWords(... */\n      swap1\n      pop\n        /* \"contracts/Unisurance.sol\":10060:10070  msg.sender */\n      caller\n        /* \"contracts/Unisurance.sol\":10035:10046  vrfRequests */\n      0x0d\n        /* \"contracts/Unisurance.sol\":10035:10057  vrfRequests[requestId] */\n      0x00\n        /* \"contracts/Unisurance.sol\":10047:10056  requestId */\n      dup4\n        /* \"contracts/Unisurance.sol\":10035:10057  vrfRequests[requestId] */\n      dup2\n      mstore\n      0x20\n      add\n      swap1\n      dup2\n      mstore\n      0x20\n      add\n      0x00\n      keccak256\n      0x00\n        /* \"contracts/Unisurance.sol\":10035:10070  vrfRequests[requestId] = msg.sender */\n      0x0100\n      exp\n      dup2\n      sload\n      dup2\n      0xffffffffffffffffffffffffffffffffffffffff\n      mul\n      not\n      and\n      swap1\n      dup4\n      0xffffffffffffffffffffffffffffffffffffffff\n      and\n      mul\n      or\n      swap1\n      sstore\n      pop\n        /* \"contracts/Unisurance.sol\":10098:10108  msg.sender */\n      caller\n        /* \"contracts/Unisurance.sol\":10085:10120  VRFRequested(msg.sender, requestId) */\n      0xffffffffffffffffffffffffffffffffffffffff\n      and\n      0xec5728c504463ddfd82a13c3a3525fec41178a9e98ac507b599b20efb2d961da\n        /* \"contracts/Unisurance.sol\":10110:10119  requestId */\n      dup3\n        /* \"contracts/Unisurance.sol\":10085:10120  VRFRequested(msg.sender, requestId) */\n      mload(0x40)\n      tag_407\n      swap2\n      swap1\n      tag_53\n      jump\t// in\n    tag_407:\n      mload(0x40)\n      dup1\n      swap2\n      sub\n      swap1\n      log2\n        /* \"contracts/Unisurance.sol\":9811:10127  {... */\n      pop\n        /* \"contracts/Unisurance.sol\":9772:10127  function _requestRandomness() internal {... */\n      jump\t// out\n        /* \"@openzeppelin/contracts/access/AccessControl.sol\":3432:3629  function _checkRole(bytes32 role, address account) internal view virtual {... */\n    tag_370:\n        /* \"@openzeppelin/contracts/access/AccessControl.sol\":3520:3542  hasRole(role, account) */\n      tag_409\n        /* \"@openzeppelin/contracts/access/AccessControl.sol\":3528:3532  role */\n      dup3\n        /* \"@openzeppelin/contracts/access/AccessControl.sol\":3534:3541  account */\n      dup3\n        /* \"@openzeppelin/contracts/access/AccessControl.sol\":3520:3527  hasRole */\n      tag_127\n        /* \"@openzeppelin/contracts/access/AccessControl.sol\":3520:3542  hasRole(role, account) */\n      jump\t// in\n    tag_409:\n        /* \"@openzeppelin/contracts/access/AccessControl.sol\":3515:3623  if (!hasRole(role, account)) {... */\n      tag_410\n      jumpi\n        /* \"@openzeppelin/contracts/access/AccessControl.sol\":3598:3605  account */\n      dup1\n        /* \"@openzeppelin/contracts/access/AccessControl.sol\":3607:3611  role */\n      dup3\n        /* \"@openzeppelin/contracts/access/AccessControl.sol\":3565:3612  AccessControlUnauthorizedAccount(account, role) */\n      mload(0x40)\n      0xe2517d3f00000000000000000000000000000000000000000000000000000000\n      dup2\n      mstore\n      0x04\n      add\n      tag_411\n      swap3\n      swap2\n      swap1\n      tag_412\n      jump\t// in\n    tag_411:\n      mload(0x40)\n      dup1\n      swap2\n      sub\n      swap1\n      revert\n        /* \"@openzeppelin/contracts/access/AccessControl.sol\":3515:3623  if (!hasRole(role, account)) {... */\n    tag_410:\n        /* \"@openzeppelin/contracts/access/AccessControl.sol\":3432:3629  function _checkRole(bytes32 role, address account) internal view virtual {... */\n      pop\n      pop\n      jump\t// out\n        /* \"@openzeppelin/contracts/token/ERC20/utils/SafeERC20.sol\":7686:8406  function _callOptionalReturn(IERC20 token, bytes memory data) private {... */\n    tag_385:\n        /* \"@openzeppelin/contracts/token/ERC20/utils/SafeERC20.sol\":7766:7784  uint256 returnSize */\n      0x00\n        /* \"@openzeppelin/contracts/token/ERC20/utils/SafeERC20.sol\":7794:7813  uint256 returnValue */\n      0x00\n        /* \"@openzeppelin/contracts/token/ERC20/utils/SafeERC20.sol\":7932:7936  0x20 */\n      0x20\n        /* \"@openzeppelin/contracts/token/ERC20/utils/SafeERC20.sol\":7929:7930  0 */\n      0x00\n        /* \"@openzeppelin/contracts/token/ERC20/utils/SafeERC20.sol\":7922:7926  data */\n      dup5\n        /* \"@openzeppelin/contracts/token/ERC20/utils/SafeERC20.sol\":7916:7927  mload(data) */\n      mload\n        /* \"@openzeppelin/contracts/token/ERC20/utils/SafeERC20.sol\":7909:7913  0x20 */\n      0x20\n        /* \"@openzeppelin/contracts/token/ERC20/utils/SafeERC20.sol\":7903:7907  data */\n      dup7\n        /* \"@openzeppelin/contracts/token/ERC20/utils/SafeERC20.sol\":7899:7914  add(data, 0x20) */\n      add\n        /* \"@openzeppelin/contracts/token/ERC20/utils/SafeERC20.sol\":7896:7897  0 */\n      0x00\n        /* \"@openzeppelin/contracts/token/ERC20/utils/SafeERC20.sol\":7889:7894  token */\n      dup9\n        /* \"@openzeppelin/contracts/token/ERC20/utils/SafeERC20.sol\":7882:7887  gas() */\n      gas\n        /* \"@openzeppelin/contracts/token/ERC20/utils/SafeERC20.sol\":7877:7937  call(gas(), token, 0, add(data, 0x20), mload(data), 0, 0x20) */\n      call\n        /* \"@openzeppelin/contracts/token/ERC20/utils/SafeERC20.sol\":7989:7996  success */\n      dup1\n        /* \"@openzeppelin/contracts/token/ERC20/utils/SafeERC20.sol\":7979:8155  if iszero(success) {... */\n      tag_414\n      jumpi\n        /* \"@openzeppelin/contracts/token/ERC20/utils/SafeERC20.sol\":8033:8037  0x40 */\n      0x40\n        /* \"@openzeppelin/contracts/token/ERC20/utils/SafeERC20.sol\":8027:8038  mload(0x40) */\n      mload\n        /* \"@openzeppelin/contracts/token/ERC20/utils/SafeERC20.sol\":8078:8094  returndatasize() */\n      returndatasize\n        /* \"@openzeppelin/contracts/token/ERC20/utils/SafeERC20.sol\":8075:8076  0 */\n      0x00\n        /* \"@openzeppelin/contracts/token/ERC20/utils/SafeERC20.sol\":8070:8073  ptr */\n      dup3\n        /* \"@openzeppelin/contracts/token/ERC20/utils/SafeERC20.sol\":8055:8095  returndatacopy(ptr, 0, returndatasize()) */\n      returndatacopy\n        /* \"@openzeppelin/contracts/token/ERC20/utils/SafeERC20.sol\":8124:8140  returndatasize() */\n      returndatasize\n        /* \"@openzeppelin/contracts/token/ERC20/utils/SafeERC20.sol\":8119:8122  ptr */\n      dup2\n        /* \"@openzeppelin/contracts/token/ERC20/utils/SafeERC20.sol\":8112:8141  revert(ptr, returndatasize()) */\n      revert\n        /* \"@openzeppelin/contracts/token/ERC20/utils/SafeERC20.sol\":7979:8155  if iszero(success) {... */\n    tag_414:\n        /* \"@openzeppelin/contracts/token/ERC20/utils/SafeERC20.sol\":8182:8198  returndatasize() */\n      returndatasize\n        /* \"@openzeppelin/contracts/token/ERC20/utils/SafeERC20.sol\":8168:8198  returnSize := returndatasize() */\n      swap3\n      pop\n        /* \"@openzeppelin/contracts/token/ERC20/utils/SafeERC20.sol\":8232:8233  0 */\n      0x00\n        /* \"@openzeppelin/contracts/token/ERC20/utils/SafeERC20.sol\":8226:8234  mload(0) */\n      mload\n        /* \"@openzeppelin/contracts/token/ERC20/utils/SafeERC20.sol\":8211:8234  returnValue := mload(0) */\n      swap2\n      pop\n        /* \"@openzeppelin/contracts/token/ERC20/utils/SafeERC20.sol\":7848:8244  {... */\n      pop\n        /* \"@openzeppelin/contracts/token/ERC20/utils/SafeERC20.sol\":8272:8273  0 */\n      0x00\n        /* \"@openzeppelin/contracts/token/ERC20/utils/SafeERC20.sol\":8258:8268  returnSize */\n      dup3\n        /* \"@openzeppelin/contracts/token/ERC20/utils/SafeERC20.sol\":8258:8273  returnSize == 0 */\n      eq\n        /* \"@openzeppelin/contracts/token/ERC20/utils/SafeERC20.sol\":8258:8326  returnSize == 0 ? address(token).code.length == 0 : returnValue != 1 */\n      tag_415\n      jumpi\n        /* \"@openzeppelin/contracts/token/ERC20/utils/SafeERC20.sol\":8325:8326  1 */\n      0x01\n        /* \"@openzeppelin/contracts/token/ERC20/utils/SafeERC20.sol\":8310:8321  returnValue */\n      dup2\n        /* \"@openzeppelin/contracts/token/ERC20/utils/SafeERC20.sol\":8310:8326  returnValue != 1 */\n      eq\n      iszero\n        /* \"@openzeppelin/contracts/token/ERC20/utils/SafeERC20.sol\":8258:8326  returnSize == 0 ? address(token).code.length == 0 : returnValue != 1 */\n      jump(tag_416)\n    tag_415:\n        /* \"@openzeppelin/contracts/token/ERC20/utils/SafeERC20.sol\":8306:8307  0 */\n      0x00\n        /* \"@openzeppelin/contracts/token/ERC20/utils/SafeERC20.sol\":8284:8289  token */\n      dup5\n        /* \"@openzeppelin/contracts/token/ERC20/utils/SafeERC20.sol\":8276:8302  address(token).code.length */\n      0xffffffffffffffffffffffffffffffffffffffff\n      and\n      extcodesize\n        /* \"@openzeppelin/contracts/token/ERC20/utils/SafeERC20.sol\":8276:8307  address(token).code.length == 0 */\n      eq\n        /* \"@openzeppelin/contracts/token/ERC20/utils/SafeERC20.sol\":8258:8326  returnSize == 0 ? address(token).code.length == 0 : returnValue != 1 */\n    tag_416:\n        /* \"@openzeppelin/contracts/token/ERC20/utils/SafeERC20.sol\":8254:8400  if (returnSize == 0 ? address(token).code.length == 0 : returnValue != 1) {... */\n      iszero\n      tag_417\n      jumpi\n        /* \"@openzeppelin/contracts/token/ERC20/utils/SafeERC20.sol\":8382:8387  token */\n      dup4\n        /* \"@openzeppelin/contracts/token/ERC20/utils/SafeERC20.sol\":8349:8389  SafeERC20FailedOperation(address(token)) */\n      mload(0x40)\n      0x5274afe700000000000000000000000000000000000000000000000000000000\n      dup2\n      mstore\n      0x04\n      add\n      tag_418\n      swap2\n      swap1\n      tag_70\n      jump\t// in\n    tag_418:\n      mload(0x40)\n      dup1\n      swap2\n      sub\n      swap1\n      revert\n        /* \"@openzeppelin/contracts/token/ERC20/utils/SafeERC20.sol\":8254:8400  if (returnSize == 0 ? address(token).code.length == 0 : returnValue != 1) {... */\n    tag_417:\n        /* \"@openzeppelin/contracts/token/ERC20/utils/SafeERC20.sol\":7756:8406  {... */\n      pop\n      pop\n        /* \"@openzeppelin/contracts/token/ERC20/utils/SafeERC20.sol\":7686:8406  function _callOptionalReturn(IERC20 token, bytes memory data) private {... */\n      pop\n      pop\n      jump\t// out\n        /* \"#utility.yul\":7:82   */\n    tag_419:\n        /* \"#utility.yul\":40:46   */\n      0x00\n        /* \"#utility.yul\":73:75   */\n      0x40\n        /* \"#utility.yul\":67:76   */\n      mload\n        /* \"#utility.yul\":57:76   */\n      swap1\n      pop\n        /* \"#utility.yul\":7:82   */\n      swap1\n      jump\t// out\n        /* \"#utility.yul\":88:205   */\n    tag_420:\n        /* \"#utility.yul\":197:198   */\n      0x00\n        /* \"#utility.yul\":194:195   */\n      0x00\n        /* \"#utility.yul\":187:199   */\n      revert\n        /* \"#utility.yul\":211:328   */\n    tag_421:\n        /* \"#utility.yul\":320:321   */\n      0x00\n        /* \"#utility.yul\":317:318   */\n      0x00\n        /* \"#utility.yul\":310:322   */\n      revert\n        /* \"#utility.yul\":334:483   */\n    tag_422:\n        /* \"#utility.yul\":370:377   */\n      0x00\n        /* \"#utility.yul\":410:476   */\n      0xffffffff00000000000000000000000000000000000000000000000000000000\n        /* \"#utility.yul\":403:408   */\n      dup3\n        /* \"#utility.yul\":399:477   */\n      and\n        /* \"#utility.yul\":388:477   */\n      swap1\n      pop\n        /* \"#utility.yul\":334:483   */\n      swap2\n      swap1\n      pop\n      jump\t// out\n        /* \"#utility.yul\":489:609   */\n    tag_423:\n        /* \"#utility.yul\":561:584   */\n      tag_522\n        /* \"#utility.yul\":578:583   */\n      dup2\n        /* \"#utility.yul\":561:584   */\n      tag_422\n      jump\t// in\n    tag_522:\n        /* \"#utility.yul\":554:559   */\n      dup2\n        /* \"#utility.yul\":551:585   */\n      eq\n        /* \"#utility.yul\":541:603   */\n      tag_523\n      jumpi\n        /* \"#utility.yul\":599:600   */\n      0x00\n        /* \"#utility.yul\":596:597   */\n      0x00\n        /* \"#utility.yul\":589:601   */\n      revert\n        /* \"#utility.yul\":541:603   */\n    tag_523:\n        /* \"#utility.yul\":489:609   */\n      pop\n      jump\t// out\n        /* \"#utility.yul\":615:752   */\n    tag_424:\n        /* \"#utility.yul\":660:665   */\n      0x00\n        /* \"#utility.yul\":698:704   */\n      dup2\n        /* \"#utility.yul\":685:705   */\n      calldataload\n        /* \"#utility.yul\":676:705   */\n      swap1\n      pop\n        /* \"#utility.yul\":714:746   */\n      tag_525\n        /* \"#utility.yul\":740:745   */\n      dup2\n        /* \"#utility.yul\":714:746   */\n      tag_423\n      jump\t// in\n    tag_525:\n        /* \"#utility.yul\":615:752   */\n      swap3\n      swap2\n      pop\n      pop\n      jump\t// out\n        /* \"#utility.yul\":758:1085   */\n    tag_46:\n        /* \"#utility.yul\":816:822   */\n      0x00\n        /* \"#utility.yul\":865:867   */\n      0x20\n        /* \"#utility.yul\":853:862   */\n      dup3\n        /* \"#utility.yul\":844:851   */\n      dup5\n        /* \"#utility.yul\":840:863   */\n      sub\n        /* \"#utility.yul\":836:868   */\n      slt\n        /* \"#utility.yul\":833:952   */\n      iszero\n      tag_527\n      jumpi\n        /* \"#utility.yul\":871:950   */\n      tag_528\n      tag_420\n      jump\t// in\n    tag_528:\n        /* \"#utility.yul\":833:952   */\n    tag_527:\n        /* \"#utility.yul\":991:992   */\n      0x00\n        /* \"#utility.yul\":1016:1068   */\n      tag_529\n        /* \"#utility.yul\":1060:1067   */\n      dup5\n        /* \"#utility.yul\":1051:1057   */\n      dup3\n        /* \"#utility.yul\":1040:1049   */\n      dup6\n        /* \"#utility.yul\":1036:1058   */\n      add\n        /* \"#utility.yul\":1016:1068   */\n      tag_424\n      jump\t// in\n    tag_529:\n        /* \"#utility.yul\":1006:1068   */\n      swap2\n      pop\n        /* \"#utility.yul\":962:1078   */\n      pop\n        /* \"#utility.yul\":758:1085   */\n      swap3\n      swap2\n      pop\n      pop\n      jump\t// out\n        /* \"#utility.yul\":1091:1181   */\n    tag_425:\n        /* \"#utility.yul\":1125:1132   */\n      0x00\n        /* \"#utility.yul\":1168:1173   */\n      dup2\n        /* \"#utility.yul\":1161:1174   */\n      iszero\n        /* \"#utility.yul\":1154:1175   */\n      iszero\n        /* \"#utility.yul\":1143:1175   */\n      swap1\n      pop\n        /* \"#utility.yul\":1091:1181   */\n      swap2\n      swap1\n      pop\n      jump\t// out\n        /* \"#utility.yul\":1187:1296   */\n    tag_426:\n        /* \"#utility.yul\":1268:1289   */\n      tag_532\n        /* \"#utility.yul\":1283:1288   */\n      dup2\n        /* \"#utility.yul\":1268:1289   */\n      tag_425\n      jump\t// in\n    tag_532:\n        /* \"#utility.yul\":1263:1266   */\n      dup3\n        /* \"#utility.yul\":1256:1290   */\n      mstore\n        /* \"#utility.yul\":1187:1296   */\n      pop\n      pop\n      jump\t// out\n        /* \"#utility.yul\":1302:1512   */\n    tag_49:\n        /* \"#utility.yul\":1389:1393   */\n      0x00\n        /* \"#utility.yul\":1427:1429   */\n      0x20\n        /* \"#utility.yul\":1416:1425   */\n      dup3\n        /* \"#utility.yul\":1412:1430   */\n      add\n        /* \"#utility.yul\":1404:1430   */\n      swap1\n      pop\n        /* \"#utility.yul\":1440:1505   */\n      tag_534\n        /* \"#utility.yul\":1502:1503   */\n      0x00\n        /* \"#utility.yul\":1491:1500   */\n      dup4\n        /* \"#utility.yul\":1487:1504   */\n      add\n        /* \"#utility.yul\":1478:1484   */\n      dup5\n        /* \"#utility.yul\":1440:1505   */\n      tag_426\n      jump\t// in\n    tag_534:\n        /* \"#utility.yul\":1302:1512   */\n      swap3\n      swap2\n      pop\n      pop\n      jump\t// out\n        /* \"#utility.yul\":1518:1595   */\n    tag_427:\n        /* \"#utility.yul\":1555:1562   */\n      0x00\n        /* \"#utility.yul\":1584:1589   */\n      dup2\n        /* \"#utility.yul\":1573:1589   */\n      swap1\n      pop\n        /* \"#utility.yul\":1518:1595   */\n      swap2\n      swap1\n      pop\n      jump\t// out\n        /* \"#utility.yul\":1601:1719   */\n    tag_428:\n        /* \"#utility.yul\":1688:1712   */\n      tag_537\n        /* \"#utility.yul\":1706:1711   */\n      dup2\n        /* \"#utility.yul\":1688:1712   */\n      tag_427\n      jump\t// in\n    tag_537:\n        /* \"#utility.yul\":1683:1686   */\n      dup3\n        /* \"#utility.yul\":1676:1713   */\n      mstore\n        /* \"#utility.yul\":1601:1719   */\n      pop\n      pop\n      jump\t// out\n        /* \"#utility.yul\":1725:1947   */\n    tag_53:\n        /* \"#utility.yul\":1818:1822   */\n      0x00\n        /* \"#utility.yul\":1856:1858   */\n      0x20\n        /* \"#utility.yul\":1845:1854   */\n      dup3\n        /* \"#utility.yul\":1841:1859   */\n      add\n        /* \"#utility.yul\":1833:1859   */\n      swap1\n      pop\n        /* \"#utility.yul\":1869:1940   */\n      tag_539\n        /* \"#utility.yul\":1937:1938   */\n      0x00\n        /* \"#utility.yul\":1926:1935   */\n      dup4\n        /* \"#utility.yul\":1922:1939   */\n      add\n        /* \"#utility.yul\":1913:1919   */\n      dup5\n        /* \"#utility.yul\":1869:1940   */\n      tag_428\n      jump\t// in\n    tag_539:\n        /* \"#utility.yul\":1725:1947   */\n      swap3\n      swap2\n      pop\n      pop\n      jump\t// out\n        /* \"#utility.yul\":1953:2054   */\n    tag_429:\n        /* \"#utility.yul\":1989:1996   */\n      0x00\n        /* \"#utility.yul\":2029:2047   */\n      0xffffffffffffffff\n        /* \"#utility.yul\":2022:2027   */\n      dup3\n        /* \"#utility.yul\":2018:2048   */\n      and\n        /* \"#utility.yul\":2007:2048   */\n      swap1\n      pop\n        /* \"#utility.yul\":1953:2054   */\n      swap2\n      swap1\n      pop\n      jump\t// out\n        /* \"#utility.yul\":2060:2175   */\n    tag_430:\n        /* \"#utility.yul\":2145:2168   */\n      tag_542\n        /* \"#utility.yul\":2162:2167   */\n      dup2\n        /* \"#utility.yul\":2145:2168   */\n      tag_429\n      jump\t// in\n    tag_542:\n        /* \"#utility.yul\":2140:2143   */\n      dup3\n        /* \"#utility.yul\":2133:2169   */\n      mstore\n        /* \"#utility.yul\":2060:2175   */\n      pop\n      pop\n      jump\t// out\n        /* \"#utility.yul\":2181:2399   */\n    tag_57:\n        /* \"#utility.yul\":2272:2276   */\n      0x00\n        /* \"#utility.yul\":2310:2312   */\n      0x20\n        /* \"#utility.yul\":2299:2308   */\n      dup3\n        /* \"#utility.yul\":2295:2313   */\n      add\n        /* \"#utility.yul\":2287:2313   */\n      swap1\n      pop\n        /* \"#utility.yul\":2323:2392   */\n      tag_544\n        /* \"#utility.yul\":2389:2390   */\n      0x00\n        /* \"#utility.yul\":2378:2387   */\n      dup4\n        /* \"#utility.yul\":2374:2391   */\n      add\n        /* \"#utility.yul\":2365:2371   */\n      dup5\n        /* \"#utility.yul\":2323:2392   */\n      tag_430\n      jump\t// in\n    tag_544:\n        /* \"#utility.yul\":2181:2399   */\n      swap3\n      swap2\n      pop\n      pop\n      jump\t// out\n        /* \"#utility.yul\":2405:2531   */\n    tag_431:\n        /* \"#utility.yul\":2442:2449   */\n      0x00\n        /* \"#utility.yul\":2482:2524   */\n      0xffffffffffffffffffffffffffffffffffffffff\n        /* \"#utility.yul\":2475:2480   */\n      dup3\n        /* \"#utility.yul\":2471:2525   */\n      and\n        /* \"#utility.yul\":2460:2525   */\n      swap1\n      pop\n        /* \"#utility.yul\":2405:2531   */\n      swap2\n      swap1\n      pop\n      jump\t// out\n        /* \"#utility.yul\":2537:2597   */\n    tag_432:\n        /* \"#utility.yul\":2565:2568   */\n      0x00\n        /* \"#utility.yul\":2586:2591   */\n      dup2\n        /* \"#utility.yul\":2579:2591   */\n      swap1\n      pop\n        /* \"#utility.yul\":2537:2597   */\n      swap2\n      swap1\n      pop\n      jump\t// out\n        /* \"#utility.yul\":2603:2745   */\n    tag_433:\n        /* \"#utility.yul\":2653:2662   */\n      0x00\n        /* \"#utility.yul\":2686:2739   */\n      tag_548\n        /* \"#utility.yul\":2704:2738   */\n      tag_549\n        /* \"#utility.yul\":2713:2737   */\n      tag_550\n        /* \"#utility.yul\":2731:2736   */\n      dup5\n        /* \"#utility.yul\":2713:2737   */\n      tag_431\n      jump\t// in\n    tag_550:\n        /* \"#utility.yul\":2704:2738   */\n      tag_432\n      jump\t// in\n    tag_549:\n        /* \"#utility.yul\":2686:2739   */\n      tag_431\n      jump\t// in\n    tag_548:\n        /* \"#utility.yul\":2673:2739   */\n      swap1\n      pop\n        /* \"#utility.yul\":2603:2745   */\n      swap2\n      swap1\n      pop\n      jump\t// out\n        /* \"#utility.yul\":2751:2877   */\n    tag_434:\n        /* \"#utility.yul\":2801:2810   */\n      0x00\n        /* \"#utility.yul\":2834:2871   */\n      tag_552\n        /* \"#utility.yul\":2865:2870   */\n      dup3\n        /* \"#utility.yul\":2834:2871   */\n      tag_433\n      jump\t// in\n    tag_552:\n        /* \"#utility.yul\":2821:2871   */\n      swap1\n      pop\n        /* \"#utility.yul\":2751:2877   */\n      swap2\n      swap1\n      pop\n      jump\t// out\n        /* \"#utility.yul\":2883:3032   */\n    tag_435:\n        /* \"#utility.yul\":2956:2965   */\n      0x00\n        /* \"#utility.yul\":2989:3026   */\n      tag_554\n        /* \"#utility.yul\":3020:3025   */\n      dup3\n        /* \"#utility.yul\":2989:3026   */\n      tag_434\n      jump\t// in\n    tag_554:\n        /* \"#utility.yul\":2976:3026   */\n      swap1\n      pop\n        /* \"#utility.yul\":2883:3032   */\n      swap2\n      swap1\n      pop\n      jump\t// out\n        /* \"#utility.yul\":3038:3215   */\n    tag_436:\n        /* \"#utility.yul\":3148:3208   */\n      tag_556\n        /* \"#utility.yul\":3202:3207   */\n      dup2\n        /* \"#utility.yul\":3148:3208   */\n      tag_435\n      jump\t// in\n    tag_556:\n        /* \"#utility.yul\":3143:3146   */\n      dup3\n        /* \"#utility.yul\":3136:3209   */\n      mstore\n        /* \"#utility.yul\":3038:3215   */\n      pop\n      pop\n      jump\t// out\n        /* \"#utility.yul\":3221:3489   */\n    tag_61:\n        /* \"#utility.yul\":3337:3341   */\n      0x00\n        /* \"#utility.yul\":3375:3377   */\n      0x20\n        /* \"#utility.yul\":3364:3373   */\n      dup3\n        /* \"#utility.yul\":3360:3378   */\n      add\n        /* \"#utility.yul\":3352:3378   */\n      swap1\n      pop\n        /* \"#utility.yul\":3388:3482   */\n      tag_558\n        /* \"#utility.yul\":3479:3480   */\n      0x00\n        /* \"#utility.yul\":3468:3477   */\n      dup4\n        /* \"#utility.yul\":3464:3481   */\n      add\n        /* \"#utility.yul\":3455:3461   */\n      dup5\n        /* \"#utility.yul\":3388:3482   */\n      tag_436\n      jump\t// in\n    tag_558:\n        /* \"#utility.yul\":3221:3489   */\n      swap3\n      swap2\n      pop\n      pop\n      jump\t// out\n        /* \"#utility.yul\":3495:3617   */\n    tag_437:\n        /* \"#utility.yul\":3568:3592   */\n      tag_560\n        /* \"#utility.yul\":3586:3591   */\n      dup2\n        /* \"#utility.yul\":3568:3592   */\n      tag_427\n      jump\t// in\n    tag_560:\n        /* \"#utility.yul\":3561:3566   */\n      dup2\n        /* \"#utility.yul\":3558:3593   */\n      eq\n        /* \"#utility.yul\":3548:3611   */\n      tag_561\n      jumpi\n        /* \"#utility.yul\":3607:3608   */\n      0x00\n        /* \"#utility.yul\":3604:3605   */\n      0x00\n        /* \"#utility.yul\":3597:3609   */\n      revert\n        /* \"#utility.yul\":3548:3611   */\n    tag_561:\n        /* \"#utility.yul\":3495:3617   */\n      pop\n      jump\t// out\n        /* \"#utility.yul\":3623:3762   */\n    tag_438:\n        /* \"#utility.yul\":3669:3674   */\n      0x00\n        /* \"#utility.yul\":3707:3713   */\n      dup2\n        /* \"#utility.yul\":3694:3714   */\n      calldataload\n        /* \"#utility.yul\":3685:3714   */\n      swap1\n      pop\n        /* \"#utility.yul\":3723:3756   */\n      tag_563\n        /* \"#utility.yul\":3750:3755   */\n      dup2\n        /* \"#utility.yul\":3723:3756   */\n      tag_437\n      jump\t// in\n    tag_563:\n        /* \"#utility.yul\":3623:3762   */\n      swap3\n      swap2\n      pop\n      pop\n      jump\t// out\n        /* \"#utility.yul\":3768:4097   */\n    tag_67:\n        /* \"#utility.yul\":3827:3833   */\n      0x00\n        /* \"#utility.yul\":3876:3878   */\n      0x20\n        /* \"#utility.yul\":3864:3873   */\n      dup3\n        /* \"#utility.yul\":3855:3862   */\n      dup5\n        /* \"#utility.yul\":3851:3874   */\n      sub\n        /* \"#utility.yul\":3847:3879   */\n      slt\n        /* \"#utility.yul\":3844:3963   */\n      iszero\n      tag_565\n      jumpi\n        /* \"#utility.yul\":3882:3961   */\n      tag_566\n      tag_420\n      jump\t// in\n    tag_566:\n        /* \"#utility.yul\":3844:3963   */\n    tag_565:\n        /* \"#utility.yul\":4002:4003   */\n      0x00\n        /* \"#utility.yul\":4027:4080   */\n      tag_567\n        /* \"#utility.yul\":4072:4079   */\n      dup5\n        /* \"#utility.yul\":4063:4069   */\n      dup3\n        /* \"#utility.yul\":4052:4061   */\n      dup6\n        /* \"#utility.yul\":4048:4070   */\n      add\n        /* \"#utility.yul\":4027:4080   */\n      tag_438\n      jump\t// in\n    tag_567:\n        /* \"#utility.yul\":4017:4080   */\n      swap2\n      pop\n        /* \"#utility.yul\":3973:4090   */\n      pop\n        /* \"#utility.yul\":3768:4097   */\n      swap3\n      swap2\n      pop\n      pop\n      jump\t// out\n        /* \"#utility.yul\":4103:4199   */\n    tag_439:\n        /* \"#utility.yul\":4140:4147   */\n      0x00\n        /* \"#utility.yul\":4169:4193   */\n      tag_569\n        /* \"#utility.yul\":4187:4192   */\n      dup3\n        /* \"#utility.yul\":4169:4193   */\n      tag_431\n      jump\t// in\n    tag_569:\n        /* \"#utility.yul\":4158:4193   */\n      swap1\n      pop\n        /* \"#utility.yul\":4103:4199   */\n      swap2\n      swap1\n      pop\n      jump\t// out\n        /* \"#utility.yul\":4205:4323   */\n    tag_440:\n        /* \"#utility.yul\":4292:4316   */\n      tag_571\n        /* \"#utility.yul\":4310:4315   */\n      dup2\n        /* \"#utility.yul\":4292:4316   */\n      tag_439\n      jump\t// in\n    tag_571:\n        /* \"#utility.yul\":4287:4290   */\n      dup3\n        /* \"#utility.yul\":4280:4317   */\n      mstore\n        /* \"#utility.yul\":4205:4323   */\n      pop\n      pop\n      jump\t// out\n        /* \"#utility.yul\":4329:4551   */\n    tag_70:\n        /* \"#utility.yul\":4422:4426   */\n      0x00\n        /* \"#utility.yul\":4460:4462   */\n      0x20\n        /* \"#utility.yul\":4449:4458   */\n      dup3\n        /* \"#utility.yul\":4445:4463   */\n      add\n        /* \"#utility.yul\":4437:4463   */\n      swap1\n      pop\n        /* \"#utility.yul\":4473:4544   */\n      tag_573\n        /* \"#utility.yul\":4541:4542   */\n      0x00\n        /* \"#utility.yul\":4530:4539   */\n      dup4\n        /* \"#utility.yul\":4526:4543   */\n      add\n        /* \"#utility.yul\":4517:4523   */\n      dup5\n        /* \"#utility.yul\":4473:4544   */\n      tag_440\n      jump\t// in\n    tag_573:\n        /* \"#utility.yul\":4329:4551   */\n      swap3\n      swap2\n      pop\n      pop\n      jump\t// out\n        /* \"#utility.yul\":4557:4674   */\n    tag_441:\n        /* \"#utility.yul\":4666:4667   */\n      0x00\n        /* \"#utility.yul\":4663:4664   */\n      0x00\n        /* \"#utility.yul\":4656:4668   */\n      revert\n        /* \"#utility.yul\":4680:4782   */\n    tag_442:\n        /* \"#utility.yul\":4721:4727   */\n      0x00\n        /* \"#utility.yul\":4772:4774   */\n      0x1f\n        /* \"#utility.yul\":4768:4775   */\n      not\n        /* \"#utility.yul\":4763:4765   */\n      0x1f\n        /* \"#utility.yul\":4756:4761   */\n      dup4\n        /* \"#utility.yul\":4752:4766   */\n      add\n        /* \"#utility.yul\":4748:4776   */\n      and\n        /* \"#utility.yul\":4738:4776   */\n      swap1\n      pop\n        /* \"#utility.yul\":4680:4782   */\n      swap2\n      swap1\n      pop\n      jump\t// out\n        /* \"#utility.yul\":4788:4968   */\n    tag_443:\n        /* \"#utility.yul\":4836:4913   */\n      0x4e487b7100000000000000000000000000000000000000000000000000000000\n        /* \"#utility.yul\":4833:4834   */\n      0x00\n        /* \"#utility.yul\":4826:4914   */\n      mstore\n        /* \"#utility.yul\":4933:4937   */\n      0x41\n        /* \"#utility.yul\":4930:4931   */\n      0x04\n        /* \"#utility.yul\":4923:4938   */\n      mstore\n        /* \"#utility.yul\":4957:4961   */\n      0x24\n        /* \"#utility.yul\":4954:4955   */\n      0x00\n        /* \"#utility.yul\":4947:4962   */\n      revert\n        /* \"#utility.yul\":4974:5255   */\n    tag_444:\n        /* \"#utility.yul\":5057:5084   */\n      tag_578\n        /* \"#utility.yul\":5079:5083   */\n      dup3\n        /* \"#utility.yul\":5057:5084   */\n      tag_442\n      jump\t// in\n    tag_578:\n        /* \"#utility.yul\":5049:5055   */\n      dup2\n        /* \"#utility.yul\":5045:5085   */\n      add\n        /* \"#utility.yul\":5187:5193   */\n      dup2\n        /* \"#utility.yul\":5175:5185   */\n      dup2\n        /* \"#utility.yul\":5172:5194   */\n      lt\n        /* \"#utility.yul\":5151:5169   */\n      0xffffffffffffffff\n        /* \"#utility.yul\":5139:5149   */\n      dup3\n        /* \"#utility.yul\":5136:5170   */\n      gt\n        /* \"#utility.yul\":5133:5195   */\n      or\n        /* \"#utility.yul\":5130:5218   */\n      iszero\n      tag_579\n      jumpi\n        /* \"#utility.yul\":5198:5216   */\n      tag_580\n      tag_443\n      jump\t// in\n    tag_580:\n        /* \"#utility.yul\":5130:5218   */\n    tag_579:\n        /* \"#utility.yul\":5238:5248   */\n      dup1\n        /* \"#utility.yul\":5234:5236   */\n      0x40\n        /* \"#utility.yul\":5227:5249   */\n      mstore\n        /* \"#utility.yul\":5017:5255   */\n      pop\n        /* \"#utility.yul\":4974:5255   */\n      pop\n      pop\n      jump\t// out\n        /* \"#utility.yul\":5261:5390   */\n    tag_445:\n        /* \"#utility.yul\":5295:5301   */\n      0x00\n        /* \"#utility.yul\":5322:5342   */\n      tag_582\n      tag_419\n      jump\t// in\n    tag_582:\n        /* \"#utility.yul\":5312:5342   */\n      swap1\n      pop\n        /* \"#utility.yul\":5351:5384   */\n      tag_583\n        /* \"#utility.yul\":5379:5383   */\n      dup3\n        /* \"#utility.yul\":5371:5377   */\n      dup3\n        /* \"#utility.yul\":5351:5384   */\n      tag_444\n      jump\t// in\n    tag_583:\n        /* \"#utility.yul\":5261:5390   */\n      swap2\n      swap1\n      pop\n      jump\t// out\n        /* \"#utility.yul\":5396:5707   */\n    tag_446:\n        /* \"#utility.yul\":5473:5477   */\n      0x00\n        /* \"#utility.yul\":5563:5581   */\n      0xffffffffffffffff\n        /* \"#utility.yul\":5555:5561   */\n      dup3\n        /* \"#utility.yul\":5552:5582   */\n      gt\n        /* \"#utility.yul\":5549:5605   */\n      iszero\n      tag_585\n      jumpi\n        /* \"#utility.yul\":5585:5603   */\n      tag_586\n      tag_443\n      jump\t// in\n    tag_586:\n        /* \"#utility.yul\":5549:5605   */\n    tag_585:\n        /* \"#utility.yul\":5635:5639   */\n      0x20\n        /* \"#utility.yul\":5627:5633   */\n      dup3\n        /* \"#utility.yul\":5623:5640   */\n      mul\n        /* \"#utility.yul\":5615:5640   */\n      swap1\n      pop\n        /* \"#utility.yul\":5695:5699   */\n      0x20\n        /* \"#utility.yul\":5689:5693   */\n      dup2\n        /* \"#utility.yul\":5685:5700   */\n      add\n        /* \"#utility.yul\":5677:5700   */\n      swap1\n      pop\n        /* \"#utility.yul\":5396:5707   */\n      swap2\n      swap1\n      pop\n      jump\t// out\n        /* \"#utility.yul\":5713:5830   */\n    tag_447:\n        /* \"#utility.yul\":5822:5823   */\n      0x00\n        /* \"#utility.yul\":5819:5820   */\n      0x00\n        /* \"#utility.yul\":5812:5824   */\n      revert\n        /* \"#utility.yul\":5853:6563   */\n    tag_448:\n        /* \"#utility.yul\":5949:5954   */\n      0x00\n        /* \"#utility.yul\":5974:6055   */\n      tag_589\n        /* \"#utility.yul\":5990:6054   */\n      tag_590\n        /* \"#utility.yul\":6047:6053   */\n      dup5\n        /* \"#utility.yul\":5990:6054   */\n      tag_446\n      jump\t// in\n    tag_590:\n        /* \"#utility.yul\":5974:6055   */\n      tag_445\n      jump\t// in\n    tag_589:\n        /* \"#utility.yul\":5965:6055   */\n      swap1\n      pop\n        /* \"#utility.yul\":6075:6080   */\n      dup1\n        /* \"#utility.yul\":6104:6110   */\n      dup4\n        /* \"#utility.yul\":6097:6102   */\n      dup3\n        /* \"#utility.yul\":6090:6111   */\n      mstore\n        /* \"#utility.yul\":6138:6142   */\n      0x20\n        /* \"#utility.yul\":6131:6136   */\n      dup3\n        /* \"#utility.yul\":6127:6143   */\n      add\n        /* \"#utility.yul\":6120:6143   */\n      swap1\n      pop\n        /* \"#utility.yul\":6191:6195   */\n      0x20\n        /* \"#utility.yul\":6183:6189   */\n      dup5\n        /* \"#utility.yul\":6179:6196   */\n      mul\n        /* \"#utility.yul\":6171:6177   */\n      dup4\n        /* \"#utility.yul\":6167:6197   */\n      add\n        /* \"#utility.yul\":6220:6223   */\n      dup6\n        /* \"#utility.yul\":6212:6218   */\n      dup2\n        /* \"#utility.yul\":6209:6224   */\n      gt\n        /* \"#utility.yul\":6206:6328   */\n      iszero\n      tag_591\n      jumpi\n        /* \"#utility.yul\":6239:6318   */\n      tag_592\n      tag_447\n      jump\t// in\n    tag_592:\n        /* \"#utility.yul\":6206:6328   */\n    tag_591:\n        /* \"#utility.yul\":6354:6360   */\n      dup4\n        /* \"#utility.yul\":6337:6557   */\n    tag_593:\n        /* \"#utility.yul\":6371:6377   */\n      dup2\n        /* \"#utility.yul\":6366:6369   */\n      dup2\n        /* \"#utility.yul\":6363:6378   */\n      lt\n        /* \"#utility.yul\":6337:6557   */\n      iszero\n      tag_595\n      jumpi\n        /* \"#utility.yul\":6446:6449   */\n      dup1\n        /* \"#utility.yul\":6475:6512   */\n      tag_596\n        /* \"#utility.yul\":6508:6511   */\n      dup9\n        /* \"#utility.yul\":6496:6506   */\n      dup3\n        /* \"#utility.yul\":6475:6512   */\n      tag_438\n      jump\t// in\n    tag_596:\n        /* \"#utility.yul\":6470:6473   */\n      dup5\n        /* \"#utility.yul\":6463:6513   */\n      mstore\n        /* \"#utility.yul\":6542:6546   */\n      0x20\n        /* \"#utility.yul\":6537:6540   */\n      dup5\n        /* \"#utility.yul\":6533:6547   */\n      add\n        /* \"#utility.yul\":6526:6547   */\n      swap4\n      pop\n        /* \"#utility.yul\":6413:6557   */\n      pop\n        /* \"#utility.yul\":6397:6401   */\n      0x20\n        /* \"#utility.yul\":6392:6395   */\n      dup2\n        /* \"#utility.yul\":6388:6402   */\n      add\n        /* \"#utility.yul\":6381:6402   */\n      swap1\n      pop\n        /* \"#utility.yul\":6337:6557   */\n      jump(tag_593)\n    tag_595:\n        /* \"#utility.yul\":6341:6362   */\n      pop\n        /* \"#utility.yul\":5955:6563   */\n      pop\n      pop\n        /* \"#utility.yul\":5853:6563   */\n      swap4\n      swap3\n      pop\n      pop\n      pop\n      jump\t// out\n        /* \"#utility.yul\":6586:6956   */\n    tag_449:\n        /* \"#utility.yul\":6657:6662   */\n      0x00\n        /* \"#utility.yul\":6706:6709   */\n      dup3\n        /* \"#utility.yul\":6699:6703   */\n      0x1f\n        /* \"#utility.yul\":6691:6697   */\n      dup4\n        /* \"#utility.yul\":6687:6704   */\n      add\n        /* \"#utility.yul\":6683:6710   */\n      slt\n        /* \"#utility.yul\":6673:6795   */\n      tag_598\n      jumpi\n        /* \"#utility.yul\":6714:6793   */\n      tag_599\n      tag_441\n      jump\t// in\n    tag_599:\n        /* \"#utility.yul\":6673:6795   */\n    tag_598:\n        /* \"#utility.yul\":6831:6837   */\n      dup2\n        /* \"#utility.yul\":6818:6838   */\n      calldataload\n        /* \"#utility.yul\":6856:6950   */\n      tag_600\n        /* \"#utility.yul\":6946:6949   */\n      dup5\n        /* \"#utility.yul\":6938:6944   */\n      dup3\n        /* \"#utility.yul\":6931:6935   */\n      0x20\n        /* \"#utility.yul\":6923:6929   */\n      dup7\n        /* \"#utility.yul\":6919:6936   */\n      add\n        /* \"#utility.yul\":6856:6950   */\n      tag_448\n      jump\t// in\n    tag_600:\n        /* \"#utility.yul\":6847:6950   */\n      swap2\n      pop\n        /* \"#utility.yul\":6663:6956   */\n      pop\n        /* \"#utility.yul\":6586:6956   */\n      swap3\n      swap2\n      pop\n      pop\n      jump\t// out\n        /* \"#utility.yul\":6962:7646   */\n    tag_73:\n        /* \"#utility.yul\":7055:7061   */\n      0x00\n        /* \"#utility.yul\":7063:7069   */\n      0x00\n        /* \"#utility.yul\":7112:7114   */\n      0x40\n        /* \"#utility.yul\":7100:7109   */\n      dup4\n        /* \"#utility.yul\":7091:7098   */\n      dup6\n        /* \"#utility.yul\":7087:7110   */\n      sub\n        /* \"#utility.yul\":7083:7115   */\n      slt\n        /* \"#utility.yul\":7080:7199   */\n      iszero\n      tag_602\n      jumpi\n        /* \"#utility.yul\":7118:7197   */\n      tag_603\n      tag_420\n      jump\t// in\n    tag_603:\n        /* \"#utility.yul\":7080:7199   */\n    tag_602:\n        /* \"#utility.yul\":7238:7239   */\n      0x00\n        /* \"#utility.yul\":7263:7316   */\n      tag_604\n        /* \"#utility.yul\":7308:7315   */\n      dup6\n        /* \"#utility.yul\":7299:7305   */\n      dup3\n        /* \"#utility.yul\":7288:7297   */\n      dup7\n        /* \"#utility.yul\":7284:7306   */\n      add\n        /* \"#utility.yul\":7263:7316   */\n      tag_438\n      jump\t// in\n    tag_604:\n        /* \"#utility.yul\":7253:7316   */\n      swap3\n      pop\n        /* \"#utility.yul\":7209:7326   */\n      pop\n        /* \"#utility.yul\":7393:7395   */\n      0x20\n        /* \"#utility.yul\":7382:7391   */\n      dup4\n        /* \"#utility.yul\":7378:7396   */\n      add\n        /* \"#utility.yul\":7365:7397   */\n      calldataload\n        /* \"#utility.yul\":7424:7442   */\n      0xffffffffffffffff\n        /* \"#utility.yul\":7416:7422   */\n      dup2\n        /* \"#utility.yul\":7413:7443   */\n      gt\n        /* \"#utility.yul\":7410:7527   */\n      iszero\n      tag_605\n      jumpi\n        /* \"#utility.yul\":7446:7525   */\n      tag_606\n      tag_421\n      jump\t// in\n    tag_606:\n        /* \"#utility.yul\":7410:7527   */\n    tag_605:\n        /* \"#utility.yul\":7551:7629   */\n      tag_607\n        /* \"#utility.yul\":7621:7628   */\n      dup6\n        /* \"#utility.yul\":7612:7618   */\n      dup3\n        /* \"#utility.yul\":7601:7610   */\n      dup7\n        /* \"#utility.yul\":7597:7619   */\n      add\n        /* \"#utility.yul\":7551:7629   */\n      tag_449\n      jump\t// in\n    tag_607:\n        /* \"#utility.yul\":7541:7629   */\n      swap2\n      pop\n        /* \"#utility.yul\":7336:7639   */\n      pop\n        /* \"#utility.yul\":6962:7646   */\n      swap3\n      pop\n      swap3\n      swap1\n      pop\n      jump\t// out\n        /* \"#utility.yul\":7652:7729   */\n    tag_450:\n        /* \"#utility.yul\":7689:7696   */\n      0x00\n        /* \"#utility.yul\":7718:7723   */\n      dup2\n        /* \"#utility.yul\":7707:7723   */\n      swap1\n      pop\n        /* \"#utility.yul\":7652:7729   */\n      swap2\n      swap1\n      pop\n      jump\t// out\n        /* \"#utility.yul\":7735:7857   */\n    tag_451:\n        /* \"#utility.yul\":7808:7832   */\n      tag_610\n        /* \"#utility.yul\":7826:7831   */\n      dup2\n        /* \"#utility.yul\":7808:7832   */\n      tag_450\n      jump\t// in\n    tag_610:\n        /* \"#utility.yul\":7801:7806   */\n      dup2\n        /* \"#utility.yul\":7798:7833   */\n      eq\n        /* \"#utility.yul\":7788:7851   */\n      tag_611\n      jumpi\n        /* \"#utility.yul\":7847:7848   */\n      0x00\n        /* \"#utility.yul\":7844:7845   */\n      0x00\n        /* \"#utility.yul\":7837:7849   */\n      revert\n        /* \"#utility.yul\":7788:7851   */\n    tag_611:\n        /* \"#utility.yul\":7735:7857   */\n      pop\n      jump\t// out\n        /* \"#utility.yul\":7863:8002   */\n    tag_452:\n        /* \"#utility.yul\":7909:7914   */\n      0x00\n        /* \"#utility.yul\":7947:7953   */\n      dup2\n        /* \"#utility.yul\":7934:7954   */\n      calldataload\n        /* \"#utility.yul\":7925:7954   */\n      swap1\n      pop\n        /* \"#utility.yul\":7963:7996   */\n      tag_613\n        /* \"#utility.yul\":7990:7995   */\n      dup2\n        /* \"#utility.yul\":7963:7996   */\n      tag_451\n      jump\t// in\n    tag_613:\n        /* \"#utility.yul\":7863:8002   */\n      swap3\n      swap2\n      pop\n      pop\n      jump\t// out\n        /* \"#utility.yul\":8008:8337   */\n    tag_77:\n        /* \"#utility.yul\":8067:8073   */\n      0x00\n        /* \"#utility.yul\":8116:8118   */\n      0x20\n        /* \"#utility.yul\":8104:8113   */\n      dup3\n        /* \"#utility.yul\":8095:8102   */\n      dup5\n        /* \"#utility.yul\":8091:8114   */\n      sub\n        /* \"#utility.yul\":8087:8119   */\n      slt\n        /* \"#utility.yul\":8084:8203   */\n      iszero\n      tag_615\n      jumpi\n        /* \"#utility.yul\":8122:8201   */\n      tag_616\n      tag_420\n      jump\t// in\n    tag_616:\n        /* \"#utility.yul\":8084:8203   */\n    tag_615:\n        /* \"#utility.yul\":8242:8243   */\n      0x00\n        /* \"#utility.yul\":8267:8320   */\n      tag_617\n        /* \"#utility.yul\":8312:8319   */\n      dup5\n        /* \"#utility.yul\":8303:8309   */\n      dup3\n        /* \"#utility.yul\":8292:8301   */\n      dup6\n        /* \"#utility.yul\":8288:8310   */\n      add\n        /* \"#utility.yul\":8267:8320   */\n      tag_452\n      jump\t// in\n    tag_617:\n        /* \"#utility.yul\":8257:8320   */\n      swap2\n      pop\n        /* \"#utility.yul\":8213:8330   */\n      pop\n        /* \"#utility.yul\":8008:8337   */\n      swap3\n      swap2\n      pop\n      pop\n      jump\t// out\n        /* \"#utility.yul\":8343:8461   */\n    tag_453:\n        /* \"#utility.yul\":8430:8454   */\n      tag_619\n        /* \"#utility.yul\":8448:8453   */\n      dup2\n        /* \"#utility.yul\":8430:8454   */\n      tag_450\n      jump\t// in\n    tag_619:\n        /* \"#utility.yul\":8425:8428   */\n      dup3\n        /* \"#utility.yul\":8418:8455   */\n      mstore\n        /* \"#utility.yul\":8343:8461   */\n      pop\n      pop\n      jump\t// out\n        /* \"#utility.yul\":8467:8689   */\n    tag_80:\n        /* \"#utility.yul\":8560:8564   */\n      0x00\n        /* \"#utility.yul\":8598:8600   */\n      0x20\n        /* \"#utility.yul\":8587:8596   */\n      dup3\n        /* \"#utility.yul\":8583:8601   */\n      add\n        /* \"#utility.yul\":8575:8601   */\n      swap1\n      pop\n        /* \"#utility.yul\":8611:8682   */\n      tag_621\n        /* \"#utility.yul\":8679:8680   */\n      0x00\n        /* \"#utility.yul\":8668:8677   */\n      dup4\n        /* \"#utility.yul\":8664:8681   */\n      add\n        /* \"#utility.yul\":8655:8661   */\n      dup5\n        /* \"#utility.yul\":8611:8682   */\n      tag_453\n      jump\t// in\n    tag_621:\n        /* \"#utility.yul\":8467:8689   */\n      swap3\n      swap2\n      pop\n      pop\n      jump\t// out\n        /* \"#utility.yul\":8695:8788   */\n    tag_454:\n        /* \"#utility.yul\":8731:8738   */\n      0x00\n        /* \"#utility.yul\":8771:8781   */\n      0xffffffff\n        /* \"#utility.yul\":8764:8769   */\n      dup3\n        /* \"#utility.yul\":8760:8782   */\n      and\n        /* \"#utility.yul\":8749:8782   */\n      swap1\n      pop\n        /* \"#utility.yul\":8695:8788   */\n      swap2\n      swap1\n      pop\n      jump\t// out\n        /* \"#utility.yul\":8794:8909   */\n    tag_455:\n        /* \"#utility.yul\":8879:8902   */\n      tag_624\n        /* \"#utility.yul\":8896:8901   */\n      dup2\n        /* \"#utility.yul\":8879:8902   */\n      tag_454\n      jump\t// in\n    tag_624:\n        /* \"#utility.yul\":8874:8877   */\n      dup3\n        /* \"#utility.yul\":8867:8903   */\n      mstore\n        /* \"#utility.yul\":8794:8909   */\n      pop\n      pop\n      jump\t// out\n        /* \"#utility.yul\":8915:9133   */\n    tag_84:\n        /* \"#utility.yul\":9006:9010   */\n      0x00\n        /* \"#utility.yul\":9044:9046   */\n      0x20\n        /* \"#utility.yul\":9033:9042   */\n      dup3\n        /* \"#utility.yul\":9029:9047   */\n      add\n        /* \"#utility.yul\":9021:9047   */\n      swap1\n      pop\n        /* \"#utility.yul\":9057:9126   */\n      tag_626\n        /* \"#utility.yul\":9123:9124   */\n      0x00\n        /* \"#utility.yul\":9112:9121   */\n      dup4\n        /* \"#utility.yul\":9108:9125   */\n      add\n        /* \"#utility.yul\":9099:9105   */\n      dup5\n        /* \"#utility.yul\":9057:9126   */\n      tag_455\n      jump\t// in\n    tag_626:\n        /* \"#utility.yul\":8915:9133   */\n      swap3\n      swap2\n      pop\n      pop\n      jump\t// out\n        /* \"#utility.yul\":9139:9261   */\n    tag_456:\n        /* \"#utility.yul\":9212:9236   */\n      tag_628\n        /* \"#utility.yul\":9230:9235   */\n      dup2\n        /* \"#utility.yul\":9212:9236   */\n      tag_439\n      jump\t// in\n    tag_628:\n        /* \"#utility.yul\":9205:9210   */\n      dup2\n        /* \"#utility.yul\":9202:9237   */\n      eq\n        /* \"#utility.yul\":9192:9255   */\n      tag_629\n      jumpi\n        /* \"#utility.yul\":9251:9252   */\n      0x00\n        /* \"#utility.yul\":9248:9249   */\n      0x00\n        /* \"#utility.yul\":9241:9253   */\n      revert\n        /* \"#utility.yul\":9192:9255   */\n    tag_629:\n        /* \"#utility.yul\":9139:9261   */\n      pop\n      jump\t// out\n        /* \"#utility.yul\":9267:9406   */\n    tag_457:\n        /* \"#utility.yul\":9313:9318   */\n      0x00\n        /* \"#utility.yul\":9351:9357   */\n      dup2\n        /* \"#utility.yul\":9338:9358   */\n      calldataload\n        /* \"#utility.yul\":9329:9358   */\n      swap1\n      pop\n        /* \"#utility.yul\":9367:9400   */\n      tag_631\n        /* \"#utility.yul\":9394:9399   */\n      dup2\n        /* \"#utility.yul\":9367:9400   */\n      tag_456\n      jump\t// in\n    tag_631:\n        /* \"#utility.yul\":9267:9406   */\n      swap3\n      swap2\n      pop\n      pop\n      jump\t// out\n        /* \"#utility.yul\":9412:9886   */\n    tag_87:\n        /* \"#utility.yul\":9480:9486   */\n      0x00\n        /* \"#utility.yul\":9488:9494   */\n      0x00\n        /* \"#utility.yul\":9537:9539   */\n      0x40\n        /* \"#utility.yul\":9525:9534   */\n      dup4\n        /* \"#utility.yul\":9516:9523   */\n      dup6\n        /* \"#utility.yul\":9512:9535   */\n      sub\n        /* \"#utility.yul\":9508:9540   */\n      slt\n        /* \"#utility.yul\":9505:9624   */\n      iszero\n      tag_633\n      jumpi\n        /* \"#utility.yul\":9543:9622   */\n      tag_634\n      tag_420\n      jump\t// in\n    tag_634:\n        /* \"#utility.yul\":9505:9624   */\n    tag_633:\n        /* \"#utility.yul\":9663:9664   */\n      0x00\n        /* \"#utility.yul\":9688:9741   */\n      tag_635\n        /* \"#utility.yul\":9733:9740   */\n      dup6\n        /* \"#utility.yul\":9724:9730   */\n      dup3\n        /* \"#utility.yul\":9713:9722   */\n      dup7\n        /* \"#utility.yul\":9709:9731   */\n      add\n        /* \"#utility.yul\":9688:9741   */\n      tag_452\n      jump\t// in\n    tag_635:\n        /* \"#utility.yul\":9678:9741   */\n      swap3\n      pop\n        /* \"#utility.yul\":9634:9751   */\n      pop\n        /* \"#utility.yul\":9790:9792   */\n      0x20\n        /* \"#utility.yul\":9816:9869   */\n      tag_636\n        /* \"#utility.yul\":9861:9868   */\n      dup6\n        /* \"#utility.yul\":9852:9858   */\n      dup3\n        /* \"#utility.yul\":9841:9850   */\n      dup7\n        /* \"#utility.yul\":9837:9859   */\n      add\n        /* \"#utility.yul\":9816:9869   */\n      tag_457\n      jump\t// in\n    tag_636:\n        /* \"#utility.yul\":9806:9869   */\n      swap2\n      pop\n        /* \"#utility.yul\":9761:9879   */\n      pop\n        /* \"#utility.yul\":9412:9886   */\n      swap3\n      pop\n      swap3\n      swap1\n      pop\n      jump\t// out\n        /* \"#utility.yul\":9892:10051   */\n    tag_458:\n        /* \"#utility.yul\":9975:9984   */\n      0x00\n        /* \"#utility.yul\":10008:10045   */\n      tag_638\n        /* \"#utility.yul\":10039:10044   */\n      dup3\n        /* \"#utility.yul\":10008:10045   */\n      tag_434\n      jump\t// in\n    tag_638:\n        /* \"#utility.yul\":9995:10045   */\n      swap1\n      pop\n        /* \"#utility.yul\":9892:10051   */\n      swap2\n      swap1\n      pop\n      jump\t// out\n        /* \"#utility.yul\":10057:10254   */\n    tag_459:\n        /* \"#utility.yul\":10177:10247   */\n      tag_640\n        /* \"#utility.yul\":10241:10246   */\n      dup2\n        /* \"#utility.yul\":10177:10247   */\n      tag_458\n      jump\t// in\n    tag_640:\n        /* \"#utility.yul\":10172:10175   */\n      dup3\n        /* \"#utility.yul\":10165:10248   */\n      mstore\n        /* \"#utility.yul\":10057:10254   */\n      pop\n      pop\n      jump\t// out\n        /* \"#utility.yul\":10260:10548   */\n    tag_95:\n        /* \"#utility.yul\":10386:10390   */\n      0x00\n        /* \"#utility.yul\":10424:10426   */\n      0x20\n        /* \"#utility.yul\":10413:10422   */\n      dup3\n        /* \"#utility.yul\":10409:10427   */\n      add\n        /* \"#utility.yul\":10401:10427   */\n      swap1\n      pop\n        /* \"#utility.yul\":10437:10541   */\n      tag_642\n        /* \"#utility.yul\":10538:10539   */\n      0x00\n        /* \"#utility.yul\":10527:10536   */\n      dup4\n        /* \"#utility.yul\":10523:10540   */\n      add\n        /* \"#utility.yul\":10514:10520   */\n      dup5\n        /* \"#utility.yul\":10437:10541   */\n      tag_459\n      jump\t// in\n    tag_642:\n        /* \"#utility.yul\":10260:10548   */\n      swap3\n      swap2\n      pop\n      pop\n      jump\t// out\n        /* \"#utility.yul\":10554:10640   */\n    tag_460:\n        /* \"#utility.yul\":10589:10596   */\n      0x00\n        /* \"#utility.yul\":10629:10633   */\n      0xff\n        /* \"#utility.yul\":10622:10627   */\n      dup3\n        /* \"#utility.yul\":10618:10634   */\n      and\n        /* \"#utility.yul\":10607:10634   */\n      swap1\n      pop\n        /* \"#utility.yul\":10554:10640   */\n      swap2\n      swap1\n      pop\n      jump\t// out\n        /* \"#utility.yul\":10646:10758   */\n    tag_461:\n        /* \"#utility.yul\":10729:10751   */\n      tag_645\n        /* \"#utility.yul\":10745:10750   */\n      dup2\n        /* \"#utility.yul\":10729:10751   */\n      tag_460\n      jump\t// in\n    tag_645:\n        /* \"#utility.yul\":10724:10727   */\n      dup3\n        /* \"#utility.yul\":10717:10752   */\n      mstore\n        /* \"#utility.yul\":10646:10758   */\n      pop\n      pop\n      jump\t// out\n        /* \"#utility.yul\":10764:10978   */\n    tag_99:\n        /* \"#utility.yul\":10853:10857   */\n      0x00\n        /* \"#utility.yul\":10891:10893   */\n      0x20\n        /* \"#utility.yul\":10880:10889   */\n      dup3\n        /* \"#utility.yul\":10876:10894   */\n      add\n        /* \"#utility.yul\":10868:10894   */\n      swap1\n      pop\n        /* \"#utility.yul\":10904:10971   */\n      tag_647\n        /* \"#utility.yul\":10968:10969   */\n      0x00\n        /* \"#utility.yul\":10957:10966   */\n      dup4\n        /* \"#utility.yul\":10953:10970   */\n      add\n        /* \"#utility.yul\":10944:10950   */\n      dup5\n        /* \"#utility.yul\":10904:10971   */\n      tag_461\n      jump\t// in\n    tag_647:\n        /* \"#utility.yul\":10764:10978   */\n      swap3\n      swap2\n      pop\n      pop\n      jump\t// out\n        /* \"#utility.yul\":10984:11313   */\n    tag_105:\n        /* \"#utility.yul\":11043:11049   */\n      0x00\n        /* \"#utility.yul\":11092:11094   */\n      0x20\n        /* \"#utility.yul\":11080:11089   */\n      dup3\n        /* \"#utility.yul\":11071:11078   */\n      dup5\n        /* \"#utility.yul\":11067:11090   */\n      sub\n        /* \"#utility.yul\":11063:11095   */\n      slt\n        /* \"#utility.yul\":11060:11179   */\n      iszero\n      tag_649\n      jumpi\n        /* \"#utility.yul\":11098:11177   */\n      tag_650\n      tag_420\n      jump\t// in\n    tag_650:\n        /* \"#utility.yul\":11060:11179   */\n    tag_649:\n        /* \"#utility.yul\":11218:11219   */\n      0x00\n        /* \"#utility.yul\":11243:11296   */\n      tag_651\n        /* \"#utility.yul\":11288:11295   */\n      dup5\n        /* \"#utility.yul\":11279:11285   */\n      dup3\n        /* \"#utility.yul\":11268:11277   */\n      dup6\n        /* \"#utility.yul\":11264:11286   */\n      add\n        /* \"#utility.yul\":11243:11296   */\n      tag_457\n      jump\t// in\n    tag_651:\n        /* \"#utility.yul\":11233:11296   */\n      swap2\n      pop\n        /* \"#utility.yul\":11189:11306   */\n      pop\n        /* \"#utility.yul\":10984:11313   */\n      swap3\n      swap2\n      pop\n      pop\n      jump\t// out\n        /* \"#utility.yul\":11319:12304   */\n    tag_108:\n        /* \"#utility.yul\":11602:11606   */\n      0x00\n        /* \"#utility.yul\":11640:11643   */\n      0x0100\n        /* \"#utility.yul\":11629:11638   */\n      dup3\n        /* \"#utility.yul\":11625:11644   */\n      add\n        /* \"#utility.yul\":11617:11644   */\n      swap1\n      pop\n        /* \"#utility.yul\":11654:11725   */\n      tag_653\n        /* \"#utility.yul\":11722:11723   */\n      0x00\n        /* \"#utility.yul\":11711:11720   */\n      dup4\n        /* \"#utility.yul\":11707:11724   */\n      add\n        /* \"#utility.yul\":11698:11704   */\n      dup12\n        /* \"#utility.yul\":11654:11725   */\n      tag_428\n      jump\t// in\n    tag_653:\n        /* \"#utility.yul\":11735:11807   */\n      tag_654\n        /* \"#utility.yul\":11803:11805   */\n      0x20\n        /* \"#utility.yul\":11792:11801   */\n      dup4\n        /* \"#utility.yul\":11788:11806   */\n      add\n        /* \"#utility.yul\":11779:11785   */\n      dup11\n        /* \"#utility.yul\":11735:11807   */\n      tag_428\n      jump\t// in\n    tag_654:\n        /* \"#utility.yul\":11817:11889   */\n      tag_655\n        /* \"#utility.yul\":11885:11887   */\n      0x40\n        /* \"#utility.yul\":11874:11883   */\n      dup4\n        /* \"#utility.yul\":11870:11888   */\n      add\n        /* \"#utility.yul\":11861:11867   */\n      dup10\n        /* \"#utility.yul\":11817:11889   */\n      tag_428\n      jump\t// in\n    tag_655:\n        /* \"#utility.yul\":11899:11971   */\n      tag_656\n        /* \"#utility.yul\":11967:11969   */\n      0x60\n        /* \"#utility.yul\":11956:11965   */\n      dup4\n        /* \"#utility.yul\":11952:11970   */\n      add\n        /* \"#utility.yul\":11943:11949   */\n      dup9\n        /* \"#utility.yul\":11899:11971   */\n      tag_428\n      jump\t// in\n    tag_656:\n        /* \"#utility.yul\":11981:12054   */\n      tag_657\n        /* \"#utility.yul\":12049:12052   */\n      0x80\n        /* \"#utility.yul\":12038:12047   */\n      dup4\n        /* \"#utility.yul\":12034:12053   */\n      add\n        /* \"#utility.yul\":12025:12031   */\n      dup8\n        /* \"#utility.yul\":11981:12054   */\n      tag_428\n      jump\t// in\n    tag_657:\n        /* \"#utility.yul\":12064:12137   */\n      tag_658\n        /* \"#utility.yul\":12132:12135   */\n      0xa0\n        /* \"#utility.yul\":12121:12130   */\n      dup4\n        /* \"#utility.yul\":12117:12136   */\n      add\n        /* \"#utility.yul\":12108:12114   */\n      dup7\n        /* \"#utility.yul\":12064:12137   */\n      tag_428\n      jump\t// in\n    tag_658:\n        /* \"#utility.yul\":12147:12214   */\n      tag_659\n        /* \"#utility.yul\":12209:12212   */\n      0xc0\n        /* \"#utility.yul\":12198:12207   */\n      dup4\n        /* \"#utility.yul\":12194:12213   */\n      add\n        /* \"#utility.yul\":12185:12191   */\n      dup6\n        /* \"#utility.yul\":12147:12214   */\n      tag_426\n      jump\t// in\n    tag_659:\n        /* \"#utility.yul\":12224:12297   */\n      tag_660\n        /* \"#utility.yul\":12292:12295   */\n      0xe0\n        /* \"#utility.yul\":12281:12290   */\n      dup4\n        /* \"#utility.yul\":12277:12296   */\n      add\n        /* \"#utility.yul\":12268:12274   */\n      dup5\n        /* \"#utility.yul\":12224:12297   */\n      tag_428\n      jump\t// in\n    tag_660:\n        /* \"#utility.yul\":11319:12304   */\n      swap10\n      swap9\n      pop\n      pop\n      pop\n      pop\n      pop\n      pop\n      pop\n      pop\n      pop\n      jump\t// out\n        /* \"#utility.yul\":12310:12465   */\n    tag_462:\n        /* \"#utility.yul\":12389:12398   */\n      0x00\n        /* \"#utility.yul\":12422:12459   */\n      tag_662\n        /* \"#utility.yul\":12453:12458   */\n      dup3\n        /* \"#utility.yul\":12422:12459   */\n      tag_434\n      jump\t// in\n    tag_662:\n        /* \"#utility.yul\":12409:12459   */\n      swap1\n      pop\n        /* \"#utility.yul\":12310:12465   */\n      swap2\n      swap1\n      pop\n      jump\t// out\n        /* \"#utility.yul\":12471:12660   */\n    tag_463:\n        /* \"#utility.yul\":12587:12653   */\n      tag_664\n        /* \"#utility.yul\":12647:12652   */\n      dup2\n        /* \"#utility.yul\":12587:12653   */\n      tag_462\n      jump\t// in\n    tag_664:\n        /* \"#utility.yul\":12582:12585   */\n      dup3\n        /* \"#utility.yul\":12575:12654   */\n      mstore\n        /* \"#utility.yul\":12471:12660   */\n      pop\n      pop\n      jump\t// out\n        /* \"#utility.yul\":12666:12946   */\n    tag_118:\n        /* \"#utility.yul\":12788:12792   */\n      0x00\n        /* \"#utility.yul\":12826:12828   */\n      0x20\n        /* \"#utility.yul\":12815:12824   */\n      dup3\n        /* \"#utility.yul\":12811:12829   */\n      add\n        /* \"#utility.yul\":12803:12829   */\n      swap1\n      pop\n        /* \"#utility.yul\":12839:12939   */\n      tag_666\n        /* \"#utility.yul\":12936:12937   */\n      0x00\n        /* \"#utility.yul\":12925:12934   */\n      dup4\n        /* \"#utility.yul\":12921:12938   */\n      add\n        /* \"#utility.yul\":12912:12918   */\n      dup5\n        /* \"#utility.yul\":12839:12939   */\n      tag_463\n      jump\t// in\n    tag_666:\n        /* \"#utility.yul\":12666:12946   */\n      swap3\n      swap2\n      pop\n      pop\n      jump\t// out\n        /* \"#utility.yul\":12952:13041   */\n    tag_464:\n        /* \"#utility.yul\":12988:12995   */\n      0x00\n        /* \"#utility.yul\":13028:13034   */\n      0xffff\n        /* \"#utility.yul\":13021:13026   */\n      dup3\n        /* \"#utility.yul\":13017:13035   */\n      and\n        /* \"#utility.yul\":13006:13035   */\n      swap1\n      pop\n        /* \"#utility.yul\":12952:13041   */\n      swap2\n      swap1\n      pop\n      jump\t// out\n        /* \"#utility.yul\":13047:13162   */\n    tag_465:\n        /* \"#utility.yul\":13132:13155   */\n      tag_669\n        /* \"#utility.yul\":13149:13154   */\n      dup2\n        /* \"#utility.yul\":13132:13155   */\n      tag_464\n      jump\t// in\n    tag_669:\n        /* \"#utility.yul\":13127:13130   */\n      dup3\n        /* \"#utility.yul\":13120:13156   */\n      mstore\n        /* \"#utility.yul\":13047:13162   */\n      pop\n      pop\n      jump\t// out\n        /* \"#utility.yul\":13168:13386   */\n    tag_138:\n        /* \"#utility.yul\":13259:13263   */\n      0x00\n        /* \"#utility.yul\":13297:13299   */\n      0x20\n        /* \"#utility.yul\":13286:13295   */\n      dup3\n        /* \"#utility.yul\":13282:13300   */\n      add\n        /* \"#utility.yul\":13274:13300   */\n      swap1\n      pop\n        /* \"#utility.yul\":13310:13379   */\n      tag_671\n        /* \"#utility.yul\":13376:13377   */\n      0x00\n        /* \"#utility.yul\":13365:13374   */\n      dup4\n        /* \"#utility.yul\":13361:13378   */\n      add\n        /* \"#utility.yul\":13352:13358   */\n      dup5\n        /* \"#utility.yul\":13310:13379   */\n      tag_465\n      jump\t// in\n    tag_671:\n        /* \"#utility.yul\":13168:13386   */\n      swap3\n      swap2\n      pop\n      pop\n      jump\t// out\n        /* \"#utility.yul\":13392:13866   */\n    tag_141:\n        /* \"#utility.yul\":13460:13466   */\n      0x00\n        /* \"#utility.yul\":13468:13474   */\n      0x00\n        /* \"#utility.yul\":13517:13519   */\n      0x40\n        /* \"#utility.yul\":13505:13514   */\n      dup4\n        /* \"#utility.yul\":13496:13503   */\n      dup6\n        /* \"#utility.yul\":13492:13515   */\n      sub\n        /* \"#utility.yul\":13488:13520   */\n      slt\n        /* \"#utility.yul\":13485:13604   */\n      iszero\n      tag_673\n      jumpi\n        /* \"#utility.yul\":13523:13602   */\n      tag_674\n      tag_420\n      jump\t// in\n    tag_674:\n        /* \"#utility.yul\":13485:13604   */\n    tag_673:\n        /* \"#utility.yul\":13643:13644   */\n      0x00\n        /* \"#utility.yul\":13668:13721   */\n      tag_675\n        /* \"#utility.yul\":13713:13720   */\n      dup6\n        /* \"#utility.yul\":13704:13710   */\n      dup3\n        /* \"#utility.yul\":13693:13702   */\n      dup7\n        /* \"#utility.yul\":13689:13711   */\n      add\n        /* \"#utility.yul\":13668:13721   */\n      tag_438\n      jump\t// in\n    tag_675:\n        /* \"#utility.yul\":13658:13721   */\n      swap3\n      pop\n        /* \"#utility.yul\":13614:13731   */\n      pop\n        /* \"#utility.yul\":13770:13772   */\n      0x20\n        /* \"#utility.yul\":13796:13849   */\n      tag_676\n        /* \"#utility.yul\":13841:13848   */\n      dup6\n        /* \"#utility.yul\":13832:13838   */\n      dup3\n        /* \"#utility.yul\":13821:13830   */\n      dup7\n        /* \"#utility.yul\":13817:13839   */\n      add\n        /* \"#utility.yul\":13796:13849   */\n      tag_438\n      jump\t// in\n    tag_676:\n        /* \"#utility.yul\":13786:13849   */\n      swap2\n      pop\n        /* \"#utility.yul\":13741:13859   */\n      pop\n        /* \"#utility.yul\":13392:13866   */\n      swap3\n      pop\n      swap3\n      swap1\n      pop\n      jump\t// out\n        /* \"#utility.yul\":13872:14746   */\n    tag_156:\n        /* \"#utility.yul\":14127:14131   */\n      0x00\n        /* \"#utility.yul\":14165:14168   */\n      0xe0\n        /* \"#utility.yul\":14154:14163   */\n      dup3\n        /* \"#utility.yul\":14150:14169   */\n      add\n        /* \"#utility.yul\":14142:14169   */\n      swap1\n      pop\n        /* \"#utility.yul\":14179:14250   */\n      tag_678\n        /* \"#utility.yul\":14247:14248   */\n      0x00\n        /* \"#utility.yul\":14236:14245   */\n      dup4\n        /* \"#utility.yul\":14232:14249   */\n      add\n        /* \"#utility.yul\":14223:14229   */\n      dup11\n        /* \"#utility.yul\":14179:14250   */\n      tag_428\n      jump\t// in\n    tag_678:\n        /* \"#utility.yul\":14260:14332   */\n      tag_679\n        /* \"#utility.yul\":14328:14330   */\n      0x20\n        /* \"#utility.yul\":14317:14326   */\n      dup4\n        /* \"#utility.yul\":14313:14331   */\n      add\n        /* \"#utility.yul\":14304:14310   */\n      dup10\n        /* \"#utility.yul\":14260:14332   */\n      tag_428\n      jump\t// in\n    tag_679:\n        /* \"#utility.yul\":14342:14414   */\n      tag_680\n        /* \"#utility.yul\":14410:14412   */\n      0x40\n        /* \"#utility.yul\":14399:14408   */\n      dup4\n        /* \"#utility.yul\":14395:14413   */\n      add\n        /* \"#utility.yul\":14386:14392   */\n      dup9\n        /* \"#utility.yul\":14342:14414   */\n      tag_428\n      jump\t// in\n    tag_680:\n        /* \"#utility.yul\":14424:14496   */\n      tag_681\n        /* \"#utility.yul\":14492:14494   */\n      0x60\n        /* \"#utility.yul\":14481:14490   */\n      dup4\n        /* \"#utility.yul\":14477:14495   */\n      add\n        /* \"#utility.yul\":14468:14474   */\n      dup8\n        /* \"#utility.yul\":14424:14496   */\n      tag_428\n      jump\t// in\n    tag_681:\n        /* \"#utility.yul\":14506:14573   */\n      tag_682\n        /* \"#utility.yul\":14568:14571   */\n      0x80\n        /* \"#utility.yul\":14557:14566   */\n      dup4\n        /* \"#utility.yul\":14553:14572   */\n      add\n        /* \"#utility.yul\":14544:14550   */\n      dup7\n        /* \"#utility.yul\":14506:14573   */\n      tag_426\n      jump\t// in\n    tag_682:\n        /* \"#utility.yul\":14583:14656   */\n      tag_683\n        /* \"#utility.yul\":14651:14654   */\n      0xa0\n        /* \"#utility.yul\":14640:14649   */\n      dup4\n        /* \"#utility.yul\":14636:14655   */\n      add\n        /* \"#utility.yul\":14627:14633   */\n      dup6\n        /* \"#utility.yul\":14583:14656   */\n      tag_428\n      jump\t// in\n    tag_683:\n        /* \"#utility.yul\":14666:14739   */\n      tag_684\n        /* \"#utility.yul\":14734:14737   */\n      0xc0\n        /* \"#utility.yul\":14723:14732   */\n      dup4\n        /* \"#utility.yul\":14719:14738   */\n      add\n        /* \"#utility.yul\":14710:14716   */\n      dup5\n        /* \"#utility.yul\":14666:14739   */\n      tag_428\n      jump\t// in\n    tag_684:\n        /* \"#utility.yul\":13872:14746   */\n      swap9\n      swap8\n      pop\n      pop\n      pop\n      pop\n      pop\n      pop\n      pop\n      pop\n      jump\t// out\n        /* \"#utility.yul\":14752:14872   */\n    tag_466:\n        /* \"#utility.yul\":14824:14847   */\n      tag_686\n        /* \"#utility.yul\":14841:14846   */\n      dup2\n        /* \"#utility.yul\":14824:14847   */\n      tag_429\n      jump\t// in\n    tag_686:\n        /* \"#utility.yul\":14817:14822   */\n      dup2\n        /* \"#utility.yul\":14814:14848   */\n      eq\n        /* \"#utility.yul\":14804:14866   */\n      tag_687\n      jumpi\n        /* \"#utility.yul\":14862:14863   */\n      0x00\n        /* \"#utility.yul\":14859:14860   */\n      0x00\n        /* \"#utility.yul\":14852:14864   */\n      revert\n        /* \"#utility.yul\":14804:14866   */\n    tag_687:\n        /* \"#utility.yul\":14752:14872   */\n      pop\n      jump\t// out\n        /* \"#utility.yul\":14878:15015   */\n    tag_467:\n        /* \"#utility.yul\":14923:14928   */\n      0x00\n        /* \"#utility.yul\":14961:14967   */\n      dup2\n        /* \"#utility.yul\":14948:14968   */\n      calldataload\n        /* \"#utility.yul\":14939:14968   */\n      swap1\n      pop\n        /* \"#utility.yul\":14977:15009   */\n      tag_689\n        /* \"#utility.yul\":15003:15008   */\n      dup2\n        /* \"#utility.yul\":14977:15009   */\n      tag_466\n      jump\t// in\n    tag_689:\n        /* \"#utility.yul\":14878:15015   */\n      swap3\n      swap2\n      pop\n      pop\n      jump\t// out\n        /* \"#utility.yul\":15021:15141   */\n    tag_468:\n        /* \"#utility.yul\":15093:15116   */\n      tag_691\n        /* \"#utility.yul\":15110:15115   */\n      dup2\n        /* \"#utility.yul\":15093:15116   */\n      tag_454\n      jump\t// in\n    tag_691:\n        /* \"#utility.yul\":15086:15091   */\n      dup2\n        /* \"#utility.yul\":15083:15117   */\n      eq\n        /* \"#utility.yul\":15073:15135   */\n      tag_692\n      jumpi\n        /* \"#utility.yul\":15131:15132   */\n      0x00\n        /* \"#utility.yul\":15128:15129   */\n      0x00\n        /* \"#utility.yul\":15121:15133   */\n      revert\n        /* \"#utility.yul\":15073:15135   */\n    tag_692:\n        /* \"#utility.yul\":15021:15141   */\n      pop\n      jump\t// out\n        /* \"#utility.yul\":15147:15284   */\n    tag_469:\n        /* \"#utility.yul\":15192:15197   */\n      0x00\n        /* \"#utility.yul\":15230:15236   */\n      dup2\n        /* \"#utility.yul\":15217:15237   */\n      calldataload\n        /* \"#utility.yul\":15208:15237   */\n      swap1\n      pop\n        /* \"#utility.yul\":15246:15278   */\n      tag_694\n        /* \"#utility.yul\":15272:15277   */\n      dup2\n        /* \"#utility.yul\":15246:15278   */\n      tag_468\n      jump\t// in\n    tag_694:\n        /* \"#utility.yul\":15147:15284   */\n      swap3\n      swap2\n      pop\n      pop\n      jump\t// out\n        /* \"#utility.yul\":15290:15410   */\n    tag_470:\n        /* \"#utility.yul\":15362:15385   */\n      tag_696\n        /* \"#utility.yul\":15379:15384   */\n      dup2\n        /* \"#utility.yul\":15362:15385   */\n      tag_464\n      jump\t// in\n    tag_696:\n        /* \"#utility.yul\":15355:15360   */\n      dup2\n        /* \"#utility.yul\":15352:15386   */\n      eq\n        /* \"#utility.yul\":15342:15404   */\n      tag_697\n      jumpi\n        /* \"#utility.yul\":15400:15401   */\n      0x00\n        /* \"#utility.yul\":15397:15398   */\n      0x00\n        /* \"#utility.yul\":15390:15402   */\n      revert\n        /* \"#utility.yul\":15342:15404   */\n    tag_697:\n        /* \"#utility.yul\":15290:15410   */\n      pop\n      jump\t// out\n        /* \"#utility.yul\":15416:15553   */\n    tag_471:\n        /* \"#utility.yul\":15461:15466   */\n      0x00\n        /* \"#utility.yul\":15499:15505   */\n      dup2\n        /* \"#utility.yul\":15486:15506   */\n      calldataload\n        /* \"#utility.yul\":15477:15506   */\n      swap1\n      pop\n        /* \"#utility.yul\":15515:15547   */\n      tag_699\n        /* \"#utility.yul\":15541:15546   */\n      dup2\n        /* \"#utility.yul\":15515:15547   */\n      tag_470\n      jump\t// in\n    tag_699:\n        /* \"#utility.yul\":15416:15553   */\n      swap3\n      swap2\n      pop\n      pop\n      jump\t// out\n        /* \"#utility.yul\":15559:16318   */\n    tag_161:\n        /* \"#utility.yul\":15642:15648   */\n      0x00\n        /* \"#utility.yul\":15650:15656   */\n      0x00\n        /* \"#utility.yul\":15658:15664   */\n      0x00\n        /* \"#utility.yul\":15666:15672   */\n      0x00\n        /* \"#utility.yul\":15715:15718   */\n      0x80\n        /* \"#utility.yul\":15703:15712   */\n      dup6\n        /* \"#utility.yul\":15694:15701   */\n      dup8\n        /* \"#utility.yul\":15690:15713   */\n      sub\n        /* \"#utility.yul\":15686:15719   */\n      slt\n        /* \"#utility.yul\":15683:15803   */\n      iszero\n      tag_701\n      jumpi\n        /* \"#utility.yul\":15722:15801   */\n      tag_702\n      tag_420\n      jump\t// in\n    tag_702:\n        /* \"#utility.yul\":15683:15803   */\n    tag_701:\n        /* \"#utility.yul\":15842:15843   */\n      0x00\n        /* \"#utility.yul\":15867:15919   */\n      tag_703\n        /* \"#utility.yul\":15911:15918   */\n      dup8\n        /* \"#utility.yul\":15902:15908   */\n      dup3\n        /* \"#utility.yul\":15891:15900   */\n      dup9\n        /* \"#utility.yul\":15887:15909   */\n      add\n        /* \"#utility.yul\":15867:15919   */\n      tag_467\n      jump\t// in\n    tag_703:\n        /* \"#utility.yul\":15857:15919   */\n      swap5\n      pop\n        /* \"#utility.yul\":15813:15929   */\n      pop\n        /* \"#utility.yul\":15968:15970   */\n      0x20\n        /* \"#utility.yul\":15994:16047   */\n      tag_704\n        /* \"#utility.yul\":16039:16046   */\n      dup8\n        /* \"#utility.yul\":16030:16036   */\n      dup3\n        /* \"#utility.yul\":16019:16028   */\n      dup9\n        /* \"#utility.yul\":16015:16037   */\n      add\n        /* \"#utility.yul\":15994:16047   */\n      tag_452\n      jump\t// in\n    tag_704:\n        /* \"#utility.yul\":15984:16047   */\n      swap4\n      pop\n        /* \"#utility.yul\":15939:16057   */\n      pop\n        /* \"#utility.yul\":16096:16098   */\n      0x40\n        /* \"#utility.yul\":16122:16174   */\n      tag_705\n        /* \"#utility.yul\":16166:16173   */\n      dup8\n        /* \"#utility.yul\":16157:16163   */\n      dup3\n        /* \"#utility.yul\":16146:16155   */\n      dup9\n        /* \"#utility.yul\":16142:16164   */\n      add\n        /* \"#utility.yul\":16122:16174   */\n      tag_469\n      jump\t// in\n    tag_705:\n        /* \"#utility.yul\":16112:16174   */\n      swap3\n      pop\n        /* \"#utility.yul\":16067:16184   */\n      pop\n        /* \"#utility.yul\":16223:16225   */\n      0x60\n        /* \"#utility.yul\":16249:16301   */\n      tag_706\n        /* \"#utility.yul\":16293:16300   */\n      dup8\n        /* \"#utility.yul\":16284:16290   */\n      dup3\n        /* \"#utility.yul\":16273:16282   */\n      dup9\n        /* \"#utility.yul\":16269:16291   */\n      add\n        /* \"#utility.yul\":16249:16301   */\n      tag_471\n      jump\t// in\n    tag_706:\n        /* \"#utility.yul\":16239:16301   */\n      swap2\n      pop\n        /* \"#utility.yul\":16194:16311   */\n      pop\n        /* \"#utility.yul\":15559:16318   */\n      swap3\n      swap6\n      swap2\n      swap5\n      pop\n      swap3\n      pop\n      jump\t// out\n        /* \"#utility.yul\":16324:16464   */\n    tag_472:\n        /* \"#utility.yul\":16388:16397   */\n      0x00\n        /* \"#utility.yul\":16421:16458   */\n      tag_708\n        /* \"#utility.yul\":16452:16457   */\n      dup3\n        /* \"#utility.yul\":16421:16458   */\n      tag_434\n      jump\t// in\n    tag_708:\n        /* \"#utility.yul\":16408:16458   */\n      swap1\n      pop\n        /* \"#utility.yul\":16324:16464   */\n      swap2\n      swap1\n      pop\n      jump\t// out\n        /* \"#utility.yul\":16470:16629   */\n    tag_473:\n        /* \"#utility.yul\":16571:16622   */\n      tag_710\n        /* \"#utility.yul\":16616:16621   */\n      dup2\n        /* \"#utility.yul\":16571:16622   */\n      tag_472\n      jump\t// in\n    tag_710:\n        /* \"#utility.yul\":16566:16569   */\n      dup3\n        /* \"#utility.yul\":16559:16623   */\n      mstore\n        /* \"#utility.yul\":16470:16629   */\n      pop\n      pop\n      jump\t// out\n        /* \"#utility.yul\":16635:16885   */\n    tag_169:\n        /* \"#utility.yul\":16742:16746   */\n      0x00\n        /* \"#utility.yul\":16780:16782   */\n      0x20\n        /* \"#utility.yul\":16769:16778   */\n      dup3\n        /* \"#utility.yul\":16765:16783   */\n      add\n        /* \"#utility.yul\":16757:16783   */\n      swap1\n      pop\n        /* \"#utility.yul\":16793:16878   */\n      tag_712\n        /* \"#utility.yul\":16875:16876   */\n      0x00\n        /* \"#utility.yul\":16864:16873   */\n      dup4\n        /* \"#utility.yul\":16860:16877   */\n      add\n        /* \"#utility.yul\":16851:16857   */\n      dup5\n        /* \"#utility.yul\":16793:16878   */\n      tag_473\n      jump\t// in\n    tag_712:\n        /* \"#utility.yul\":16635:16885   */\n      swap3\n      swap2\n      pop\n      pop\n      jump\t// out\n        /* \"#utility.yul\":16891:17656   */\n    tag_172:\n        /* \"#utility.yul\":16977:16983   */\n      0x00\n        /* \"#utility.yul\":16985:16991   */\n      0x00\n        /* \"#utility.yul\":16993:16999   */\n      0x00\n        /* \"#utility.yul\":17001:17007   */\n      0x00\n        /* \"#utility.yul\":17050:17053   */\n      0x80\n        /* \"#utility.yul\":17038:17047   */\n      dup6\n        /* \"#utility.yul\":17029:17036   */\n      dup8\n        /* \"#utility.yul\":17025:17048   */\n      sub\n        /* \"#utility.yul\":17021:17054   */\n      slt\n        /* \"#utility.yul\":17018:17138   */\n      iszero\n      tag_714\n      jumpi\n        /* \"#utility.yul\":17057:17136   */\n      tag_715\n      tag_420\n      jump\t// in\n    tag_715:\n        /* \"#utility.yul\":17018:17138   */\n    tag_714:\n        /* \"#utility.yul\":17177:17178   */\n      0x00\n        /* \"#utility.yul\":17202:17255   */\n      tag_716\n        /* \"#utility.yul\":17247:17254   */\n      dup8\n        /* \"#utility.yul\":17238:17244   */\n      dup3\n        /* \"#utility.yul\":17227:17236   */\n      dup9\n        /* \"#utility.yul\":17223:17245   */\n      add\n        /* \"#utility.yul\":17202:17255   */\n      tag_438\n      jump\t// in\n    tag_716:\n        /* \"#utility.yul\":17192:17255   */\n      swap5\n      pop\n        /* \"#utility.yul\":17148:17265   */\n      pop\n        /* \"#utility.yul\":17304:17306   */\n      0x20\n        /* \"#utility.yul\":17330:17383   */\n      tag_717\n        /* \"#utility.yul\":17375:17382   */\n      dup8\n        /* \"#utility.yul\":17366:17372   */\n      dup3\n        /* \"#utility.yul\":17355:17364   */\n      dup9\n        /* \"#utility.yul\":17351:17373   */\n      add\n        /* \"#utility.yul\":17330:17383   */\n      tag_438\n      jump\t// in\n    tag_717:\n        /* \"#utility.yul\":17320:17383   */\n      swap4\n      pop\n        /* \"#utility.yul\":17275:17393   */\n      pop\n        /* \"#utility.yul\":17432:17434   */\n      0x40\n        /* \"#utility.yul\":17458:17511   */\n      tag_718\n        /* \"#utility.yul\":17503:17510   */\n      dup8\n        /* \"#utility.yul\":17494:17500   */\n      dup3\n        /* \"#utility.yul\":17483:17492   */\n      dup9\n        /* \"#utility.yul\":17479:17501   */\n      add\n        /* \"#utility.yul\":17458:17511   */\n      tag_438\n      jump\t// in\n    tag_718:\n        /* \"#utility.yul\":17448:17511   */\n      swap3\n      pop\n        /* \"#utility.yul\":17403:17521   */\n      pop\n        /* \"#utility.yul\":17560:17562   */\n      0x60\n        /* \"#utility.yul\":17586:17639   */\n      tag_719\n        /* \"#utility.yul\":17631:17638   */\n      dup8\n        /* \"#utility.yul\":17622:17628   */\n      dup3\n        /* \"#utility.yul\":17611:17620   */\n      dup9\n        /* \"#utility.yul\":17607:17629   */\n      add\n        /* \"#utility.yul\":17586:17639   */\n      tag_438\n      jump\t// in\n    tag_719:\n        /* \"#utility.yul\":17576:17639   */\n      swap2\n      pop\n        /* \"#utility.yul\":17531:17649   */\n      pop\n        /* \"#utility.yul\":16891:17656   */\n      swap3\n      swap6\n      swap2\n      swap5\n      pop\n      swap3\n      pop\n      jump\t// out\n        /* \"#utility.yul\":17662:17994   */\n    tag_181:\n        /* \"#utility.yul\":17783:17787   */\n      0x00\n        /* \"#utility.yul\":17821:17823   */\n      0x40\n        /* \"#utility.yul\":17810:17819   */\n      dup3\n        /* \"#utility.yul\":17806:17824   */\n      add\n        /* \"#utility.yul\":17798:17824   */\n      swap1\n      pop\n        /* \"#utility.yul\":17834:17905   */\n      tag_721\n        /* \"#utility.yul\":17902:17903   */\n      0x00\n        /* \"#utility.yul\":17891:17900   */\n      dup4\n        /* \"#utility.yul\":17887:17904   */\n      add\n        /* \"#utility.yul\":17878:17884   */\n      dup6\n        /* \"#utility.yul\":17834:17905   */\n      tag_440\n      jump\t// in\n    tag_721:\n        /* \"#utility.yul\":17915:17987   */\n      tag_722\n        /* \"#utility.yul\":17983:17985   */\n      0x20\n        /* \"#utility.yul\":17972:17981   */\n      dup4\n        /* \"#utility.yul\":17968:17986   */\n      add\n        /* \"#utility.yul\":17959:17965   */\n      dup5\n        /* \"#utility.yul\":17915:17987   */\n      tag_440\n      jump\t// in\n    tag_722:\n        /* \"#utility.yul\":17662:17994   */\n      swap4\n      swap3\n      pop\n      pop\n      pop\n      jump\t// out\n        /* \"#utility.yul\":18000:18169   */\n    tag_474:\n        /* \"#utility.yul\":18084:18095   */\n      0x00\n        /* \"#utility.yul\":18118:18124   */\n      dup3\n        /* \"#utility.yul\":18113:18116   */\n      dup3\n        /* \"#utility.yul\":18106:18125   */\n      mstore\n        /* \"#utility.yul\":18158:18162   */\n      0x20\n        /* \"#utility.yul\":18153:18156   */\n      dup3\n        /* \"#utility.yul\":18149:18163   */\n      add\n        /* \"#utility.yul\":18134:18163   */\n      swap1\n      pop\n        /* \"#utility.yul\":18000:18169   */\n      swap3\n      swap2\n      pop\n      pop\n      jump\t// out\n        /* \"#utility.yul\":18175:18354   */\n    tag_475:\n        /* \"#utility.yul\":18315:18346   */\n      0x416d6f756e74206d7573742062652067726561746572207468616e2030000000\n        /* \"#utility.yul\":18311:18312   */\n      0x00\n        /* \"#utility.yul\":18303:18309   */\n      dup3\n        /* \"#utility.yul\":18299:18313   */\n      add\n        /* \"#utility.yul\":18292:18347   */\n      mstore\n        /* \"#utility.yul\":18175:18354   */\n      pop\n      jump\t// out\n        /* \"#utility.yul\":18360:18726   */\n    tag_476:\n        /* \"#utility.yul\":18502:18505   */\n      0x00\n        /* \"#utility.yul\":18523:18590   */\n      tag_726\n        /* \"#utility.yul\":18587:18589   */\n      0x1d\n        /* \"#utility.yul\":18582:18585   */\n      dup4\n        /* \"#utility.yul\":18523:18590   */\n      tag_474\n      jump\t// in\n    tag_726:\n        /* \"#utility.yul\":18516:18590   */\n      swap2\n      pop\n        /* \"#utility.yul\":18599:18692   */\n      tag_727\n        /* \"#utility.yul\":18688:18691   */\n      dup3\n        /* \"#utility.yul\":18599:18692   */\n      tag_475\n      jump\t// in\n    tag_727:\n        /* \"#utility.yul\":18717:18719   */\n      0x20\n        /* \"#utility.yul\":18712:18715   */\n      dup3\n        /* \"#utility.yul\":18708:18720   */\n      add\n        /* \"#utility.yul\":18701:18720   */\n      swap1\n      pop\n        /* \"#utility.yul\":18360:18726   */\n      swap2\n      swap1\n      pop\n      jump\t// out\n        /* \"#utility.yul\":18732:19151   */\n    tag_203:\n        /* \"#utility.yul\":18898:18902   */\n      0x00\n        /* \"#utility.yul\":18936:18938   */\n      0x20\n        /* \"#utility.yul\":18925:18934   */\n      dup3\n        /* \"#utility.yul\":18921:18939   */\n      add\n        /* \"#utility.yul\":18913:18939   */\n      swap1\n      pop\n        /* \"#utility.yul\":18985:18994   */\n      dup2\n        /* \"#utility.yul\":18979:18983   */\n      dup2\n        /* \"#utility.yul\":18975:18995   */\n      sub\n        /* \"#utility.yul\":18971:18972   */\n      0x00\n        /* \"#utility.yul\":18960:18969   */\n      dup4\n        /* \"#utility.yul\":18956:18973   */\n      add\n        /* \"#utility.yul\":18949:18996   */\n      mstore\n        /* \"#utility.yul\":19013:19144   */\n      tag_729\n        /* \"#utility.yul\":19139:19143   */\n      dup2\n        /* \"#utility.yul\":19013:19144   */\n      tag_476\n      jump\t// in\n    tag_729:\n        /* \"#utility.yul\":19005:19144   */\n      swap1\n      pop\n        /* \"#utility.yul\":18732:19151   */\n      swap2\n      swap1\n      pop\n      jump\t// out\n        /* \"#utility.yul\":19157:19330   */\n    tag_477:\n        /* \"#utility.yul\":19297:19322   */\n      0x4e6f7420696e207265746972656d656e74207068617365000000000000000000\n        /* \"#utility.yul\":19293:19294   */\n      0x00\n        /* \"#utility.yul\":19285:19291   */\n      dup3\n        /* \"#utility.yul\":19281:19295   */\n      add\n        /* \"#utility.yul\":19274:19323   */\n      mstore\n        /* \"#utility.yul\":19157:19330   */\n      pop\n      jump\t// out\n        /* \"#utility.yul\":19336:19702   */\n    tag_478:\n        /* \"#utility.yul\":19478:19481   */\n      0x00\n        /* \"#utility.yul\":19499:19566   */\n      tag_732\n        /* \"#utility.yul\":19563:19565   */\n      0x17\n        /* \"#utility.yul\":19558:19561   */\n      dup4\n        /* \"#utility.yul\":19499:19566   */\n      tag_474\n      jump\t// in\n    tag_732:\n        /* \"#utility.yul\":19492:19566   */\n      swap2\n      pop\n        /* \"#utility.yul\":19575:19668   */\n      tag_733\n        /* \"#utility.yul\":19664:19667   */\n      dup3\n        /* \"#utility.yul\":19575:19668   */\n      tag_477\n      jump\t// in\n    tag_733:\n        /* \"#utility.yul\":19693:19695   */\n      0x20\n        /* \"#utility.yul\":19688:19691   */\n      dup3\n        /* \"#utility.yul\":19684:19696   */\n      add\n        /* \"#utility.yul\":19677:19696   */\n      swap1\n      pop\n        /* \"#utility.yul\":19336:19702   */\n      swap2\n      swap1\n      pop\n      jump\t// out\n        /* \"#utility.yul\":19708:20127   */\n    tag_212:\n        /* \"#utility.yul\":19874:19878   */\n      0x00\n        /* \"#utility.yul\":19912:19914   */\n      0x20\n        /* \"#utility.yul\":19901:19910   */\n      dup3\n        /* \"#utility.yul\":19897:19915   */\n      add\n        /* \"#utility.yul\":19889:19915   */\n      swap1\n      pop\n        /* \"#utility.yul\":19961:19970   */\n      dup2\n        /* \"#utility.yul\":19955:19959   */\n      dup2\n        /* \"#utility.yul\":19951:19971   */\n      sub\n        /* \"#utility.yul\":19947:19948   */\n      0x00\n        /* \"#utility.yul\":19936:19945   */\n      dup4\n        /* \"#utility.yul\":19932:19949   */\n      add\n        /* \"#utility.yul\":19925:19972   */\n      mstore\n        /* \"#utility.yul\":19989:20120   */\n      tag_735\n        /* \"#utility.yul\":20115:20119   */\n      dup2\n        /* \"#utility.yul\":19989:20120   */\n      tag_478\n      jump\t// in\n    tag_735:\n        /* \"#utility.yul\":19981:20120   */\n      swap1\n      pop\n        /* \"#utility.yul\":19708:20127   */\n      swap2\n      swap1\n      pop\n      jump\t// out\n        /* \"#utility.yul\":20133:20353   */\n    tag_479:\n        /* \"#utility.yul\":20273:20307   */\n      0x416d6f756e74206578636565647320746f74616c20636f6e747269627574696f\n        /* \"#utility.yul\":20269:20270   */\n      0x00\n        /* \"#utility.yul\":20261:20267   */\n      dup3\n        /* \"#utility.yul\":20257:20271   */\n      add\n        /* \"#utility.yul\":20250:20308   */\n      mstore\n        /* \"#utility.yul\":20342:20345   */\n      0x6e00000000000000000000000000000000000000000000000000000000000000\n        /* \"#utility.yul\":20337:20339   */\n      0x20\n        /* \"#utility.yul\":20329:20335   */\n      dup3\n        /* \"#utility.yul\":20325:20340   */\n      add\n        /* \"#utility.yul\":20318:20346   */\n      mstore\n        /* \"#utility.yul\":20133:20353   */\n      pop\n      jump\t// out\n        /* \"#utility.yul\":20359:20725   */\n    tag_480:\n        /* \"#utility.yul\":20501:20504   */\n      0x00\n        /* \"#utility.yul\":20522:20589   */\n      tag_738\n        /* \"#utility.yul\":20586:20588   */\n      0x21\n        /* \"#utility.yul\":20581:20584   */\n      dup4\n        /* \"#utility.yul\":20522:20589   */\n      tag_474\n      jump\t// in\n    tag_738:\n        /* \"#utility.yul\":20515:20589   */\n      swap2\n      pop\n        /* \"#utility.yul\":20598:20691   */\n      tag_739\n        /* \"#utility.yul\":20687:20690   */\n      dup3\n        /* \"#utility.yul\":20598:20691   */\n      tag_479\n      jump\t// in\n    tag_739:\n        /* \"#utility.yul\":20716:20718   */\n      0x40\n        /* \"#utility.yul\":20711:20714   */\n      dup3\n        /* \"#utility.yul\":20707:20719   */\n      add\n        /* \"#utility.yul\":20700:20719   */\n      swap1\n      pop\n        /* \"#utility.yul\":20359:20725   */\n      swap2\n      swap1\n      pop\n      jump\t// out\n        /* \"#utility.yul\":20731:21150   */\n    tag_217:\n        /* \"#utility.yul\":20897:20901   */\n      0x00\n        /* \"#utility.yul\":20935:20937   */\n      0x20\n        /* \"#utility.yul\":20924:20933   */\n      dup3\n        /* \"#utility.yul\":20920:20938   */\n      add\n        /* \"#utility.yul\":20912:20938   */\n      swap1\n      pop\n        /* \"#utility.yul\":20984:20993   */\n      dup2\n        /* \"#utility.yul\":20978:20982   */\n      dup2\n        /* \"#utility.yul\":20974:20994   */\n      sub\n        /* \"#utility.yul\":20970:20971   */\n      0x00\n        /* \"#utility.yul\":20959:20968   */\n      dup4\n        /* \"#utility.yul\":20955:20972   */\n      add\n        /* \"#utility.yul\":20948:20995   */\n      mstore\n        /* \"#utility.yul\":21012:21143   */\n      tag_741\n        /* \"#utility.yul\":21138:21142   */\n      dup2\n        /* \"#utility.yul\":21012:21143   */\n      tag_480\n      jump\t// in\n    tag_741:\n        /* \"#utility.yul\":21004:21143   */\n      swap1\n      pop\n        /* \"#utility.yul\":20731:21150   */\n      swap2\n      swap1\n      pop\n      jump\t// out\n        /* \"#utility.yul\":21156:21299   */\n    tag_481:\n        /* \"#utility.yul\":21213:21218   */\n      0x00\n        /* \"#utility.yul\":21244:21250   */\n      dup2\n        /* \"#utility.yul\":21238:21251   */\n      mload\n        /* \"#utility.yul\":21229:21251   */\n      swap1\n      pop\n        /* \"#utility.yul\":21260:21293   */\n      tag_743\n        /* \"#utility.yul\":21287:21292   */\n      dup2\n        /* \"#utility.yul\":21260:21293   */\n      tag_437\n      jump\t// in\n    tag_743:\n        /* \"#utility.yul\":21156:21299   */\n      swap3\n      swap2\n      pop\n      pop\n      jump\t// out\n        /* \"#utility.yul\":21305:21656   */\n    tag_222:\n        /* \"#utility.yul\":21375:21381   */\n      0x00\n        /* \"#utility.yul\":21424:21426   */\n      0x20\n        /* \"#utility.yul\":21412:21421   */\n      dup3\n        /* \"#utility.yul\":21403:21410   */\n      dup5\n        /* \"#utility.yul\":21399:21422   */\n      sub\n        /* \"#utility.yul\":21395:21427   */\n      slt\n        /* \"#utility.yul\":21392:21511   */\n      iszero\n      tag_745\n      jumpi\n        /* \"#utility.yul\":21430:21509   */\n      tag_746\n      tag_420\n      jump\t// in\n    tag_746:\n        /* \"#utility.yul\":21392:21511   */\n    tag_745:\n        /* \"#utility.yul\":21550:21551   */\n      0x00\n        /* \"#utility.yul\":21575:21639   */\n      tag_747\n        /* \"#utility.yul\":21631:21638   */\n      dup5\n        /* \"#utility.yul\":21622:21628   */\n      dup3\n        /* \"#utility.yul\":21611:21620   */\n      dup6\n        /* \"#utility.yul\":21607:21629   */\n      add\n        /* \"#utility.yul\":21575:21639   */\n      tag_481\n      jump\t// in\n    tag_747:\n        /* \"#utility.yul\":21565:21639   */\n      swap2\n      pop\n        /* \"#utility.yul\":21521:21649   */\n      pop\n        /* \"#utility.yul\":21305:21656   */\n      swap3\n      swap2\n      pop\n      pop\n      jump\t// out\n        /* \"#utility.yul\":21662:21842   */\n    tag_482:\n        /* \"#utility.yul\":21710:21787   */\n      0x4e487b7100000000000000000000000000000000000000000000000000000000\n        /* \"#utility.yul\":21707:21708   */\n      0x00\n        /* \"#utility.yul\":21700:21788   */\n      mstore\n        /* \"#utility.yul\":21807:21811   */\n      0x11\n        /* \"#utility.yul\":21804:21805   */\n      0x04\n        /* \"#utility.yul\":21797:21812   */\n      mstore\n        /* \"#utility.yul\":21831:21835   */\n      0x24\n        /* \"#utility.yul\":21828:21829   */\n      0x00\n        /* \"#utility.yul\":21821:21836   */\n      revert\n        /* \"#utility.yul\":21848:22042   */\n    tag_224:\n        /* \"#utility.yul\":21888:21892   */\n      0x00\n        /* \"#utility.yul\":21908:21928   */\n      tag_750\n        /* \"#utility.yul\":21926:21927   */\n      dup3\n        /* \"#utility.yul\":21908:21928   */\n      tag_427\n      jump\t// in\n    tag_750:\n        /* \"#utility.yul\":21903:21928   */\n      swap2\n      pop\n        /* \"#utility.yul\":21942:21962   */\n      tag_751\n        /* \"#utility.yul\":21960:21961   */\n      dup4\n        /* \"#utility.yul\":21942:21962   */\n      tag_427\n      jump\t// in\n    tag_751:\n        /* \"#utility.yul\":21937:21962   */\n      swap3\n      pop\n        /* \"#utility.yul\":21986:21987   */\n      dup3\n        /* \"#utility.yul\":21983:21984   */\n      dup3\n        /* \"#utility.yul\":21979:21988   */\n      sub\n        /* \"#utility.yul\":21971:21988   */\n      swap1\n      pop\n        /* \"#utility.yul\":22010:22011   */\n      dup2\n        /* \"#utility.yul\":22004:22008   */\n      dup2\n        /* \"#utility.yul\":22001:22012   */\n      gt\n        /* \"#utility.yul\":21998:22035   */\n      iszero\n      tag_752\n      jumpi\n        /* \"#utility.yul\":22015:22033   */\n      tag_753\n      tag_482\n      jump\t// in\n    tag_753:\n        /* \"#utility.yul\":21998:22035   */\n    tag_752:\n        /* \"#utility.yul\":21848:22042   */\n      swap3\n      swap2\n      pop\n      pop\n      jump\t// out\n        /* \"#utility.yul\":22048:22271   */\n    tag_483:\n        /* \"#utility.yul\":22188:22222   */\n      0x546172676574206d6f6e746873206d7573742062652067726561746572207468\n        /* \"#utility.yul\":22184:22185   */\n      0x00\n        /* \"#utility.yul\":22176:22182   */\n      dup3\n        /* \"#utility.yul\":22172:22186   */\n      add\n        /* \"#utility.yul\":22165:22223   */\n      mstore\n        /* \"#utility.yul\":22257:22263   */\n      0x616e203000000000000000000000000000000000000000000000000000000000\n        /* \"#utility.yul\":22252:22254   */\n      0x20\n        /* \"#utility.yul\":22244:22250   */\n      dup3\n        /* \"#utility.yul\":22240:22255   */\n      add\n        /* \"#utility.yul\":22233:22264   */\n      mstore\n        /* \"#utility.yul\":22048:22271   */\n      pop\n      jump\t// out\n        /* \"#utility.yul\":22277:22643   */\n    tag_484:\n        /* \"#utility.yul\":22419:22422   */\n      0x00\n        /* \"#utility.yul\":22440:22507   */\n      tag_756\n        /* \"#utility.yul\":22504:22506   */\n      0x24\n        /* \"#utility.yul\":22499:22502   */\n      dup4\n        /* \"#utility.yul\":22440:22507   */\n      tag_474\n      jump\t// in\n    tag_756:\n        /* \"#utility.yul\":22433:22507   */\n      swap2\n      pop\n        /* \"#utility.yul\":22516:22609   */\n      tag_757\n        /* \"#utility.yul\":22605:22608   */\n      dup3\n        /* \"#utility.yul\":22516:22609   */\n      tag_483\n      jump\t// in\n    tag_757:\n        /* \"#utility.yul\":22634:22636   */\n      0x40\n        /* \"#utility.yul\":22629:22632   */\n      dup3\n        /* \"#utility.yul\":22625:22637   */\n      add\n        /* \"#utility.yul\":22618:22637   */\n      swap1\n      pop\n        /* \"#utility.yul\":22277:22643   */\n      swap2\n      swap1\n      pop\n      jump\t// out\n        /* \"#utility.yul\":22649:23068   */\n    tag_232:\n        /* \"#utility.yul\":22815:22819   */\n      0x00\n        /* \"#utility.yul\":22853:22855   */\n      0x20\n        /* \"#utility.yul\":22842:22851   */\n      dup3\n        /* \"#utility.yul\":22838:22856   */\n      add\n        /* \"#utility.yul\":22830:22856   */\n      swap1\n      pop\n        /* \"#utility.yul\":22902:22911   */\n      dup2\n        /* \"#utility.yul\":22896:22900   */\n      dup2\n        /* \"#utility.yul\":22892:22912   */\n      sub\n        /* \"#utility.yul\":22888:22889   */\n      0x00\n        /* \"#utility.yul\":22877:22886   */\n      dup4\n        /* \"#utility.yul\":22873:22890   */\n      add\n        /* \"#utility.yul\":22866:22913   */\n      mstore\n        /* \"#utility.yul\":22930:23061   */\n      tag_759\n        /* \"#utility.yul\":23056:23060   */\n      dup2\n        /* \"#utility.yul\":22930:23061   */\n      tag_484\n      jump\t// in\n    tag_759:\n        /* \"#utility.yul\":22922:23061   */\n      swap1\n      pop\n        /* \"#utility.yul\":22649:23068   */\n      swap2\n      swap1\n      pop\n      jump\t// out\n        /* \"#utility.yul\":23074:23250   */\n    tag_485:\n        /* \"#utility.yul\":23214:23242   */\n      0x436f6e747269627574696f6e2062656c6f77206d696e696d756d000000000000\n        /* \"#utility.yul\":23210:23211   */\n      0x00\n        /* \"#utility.yul\":23202:23208   */\n      dup3\n        /* \"#utility.yul\":23198:23212   */\n      add\n        /* \"#utility.yul\":23191:23243   */\n      mstore\n        /* \"#utility.yul\":23074:23250   */\n      pop\n      jump\t// out\n        /* \"#utility.yul\":23256:23622   */\n    tag_486:\n        /* \"#utility.yul\":23398:23401   */\n      0x00\n        /* \"#utility.yul\":23419:23486   */\n      tag_762\n        /* \"#utility.yul\":23483:23485   */\n      0x1a\n        /* \"#utility.yul\":23478:23481   */\n      dup4\n        /* \"#utility.yul\":23419:23486   */\n      tag_474\n      jump\t// in\n    tag_762:\n        /* \"#utility.yul\":23412:23486   */\n      swap2\n      pop\n        /* \"#utility.yul\":23495:23588   */\n      tag_763\n        /* \"#utility.yul\":23584:23587   */\n      dup3\n        /* \"#utility.yul\":23495:23588   */\n      tag_485\n      jump\t// in\n    tag_763:\n        /* \"#utility.yul\":23613:23615   */\n      0x20\n        /* \"#utility.yul\":23608:23611   */\n      dup3\n        /* \"#utility.yul\":23604:23616   */\n      add\n        /* \"#utility.yul\":23597:23616   */\n      swap1\n      pop\n        /* \"#utility.yul\":23256:23622   */\n      swap2\n      swap1\n      pop\n      jump\t// out\n        /* \"#utility.yul\":23628:24047   */\n    tag_235:\n        /* \"#utility.yul\":23794:23798   */\n      0x00\n        /* \"#utility.yul\":23832:23834   */\n      0x20\n        /* \"#utility.yul\":23821:23830   */\n      dup3\n        /* \"#utility.yul\":23817:23835   */\n      add\n        /* \"#utility.yul\":23809:23835   */\n      swap1\n      pop\n        /* \"#utility.yul\":23881:23890   */\n      dup2\n        /* \"#utility.yul\":23875:23879   */\n      dup2\n        /* \"#utility.yul\":23871:23891   */\n      sub\n        /* \"#utility.yul\":23867:23868   */\n      0x00\n        /* \"#utility.yul\":23856:23865   */\n      dup4\n        /* \"#utility.yul\":23852:23869   */\n      add\n        /* \"#utility.yul\":23845:23892   */\n      mstore\n        /* \"#utility.yul\":23909:24040   */\n      tag_765\n        /* \"#utility.yul\":24035:24039   */\n      dup2\n        /* \"#utility.yul\":23909:24040   */\n      tag_486\n      jump\t// in\n    tag_765:\n        /* \"#utility.yul\":23901:24040   */\n      swap1\n      pop\n        /* \"#utility.yul\":23628:24047   */\n      swap2\n      swap1\n      pop\n      jump\t// out\n        /* \"#utility.yul\":24053:24222   */\n    tag_487:\n        /* \"#utility.yul\":24193:24214   */\n      0x506c616e20616c72656164792065786973747300000000000000000000000000\n        /* \"#utility.yul\":24189:24190   */\n      0x00\n        /* \"#utility.yul\":24181:24187   */\n      dup3\n        /* \"#utility.yul\":24177:24191   */\n      add\n        /* \"#utility.yul\":24170:24215   */\n      mstore\n        /* \"#utility.yul\":24053:24222   */\n      pop\n      jump\t// out\n        /* \"#utility.yul\":24228:24594   */\n    tag_488:\n        /* \"#utility.yul\":24370:24373   */\n      0x00\n        /* \"#utility.yul\":24391:24458   */\n      tag_768\n        /* \"#utility.yul\":24455:24457   */\n      0x13\n        /* \"#utility.yul\":24450:24453   */\n      dup4\n        /* \"#utility.yul\":24391:24458   */\n      tag_474\n      jump\t// in\n    tag_768:\n        /* \"#utility.yul\":24384:24458   */\n      swap2\n      pop\n        /* \"#utility.yul\":24467:24560   */\n      tag_769\n        /* \"#utility.yul\":24556:24559   */\n      dup3\n        /* \"#utility.yul\":24467:24560   */\n      tag_487\n      jump\t// in\n    tag_769:\n        /* \"#utility.yul\":24585:24587   */\n      0x20\n        /* \"#utility.yul\":24580:24583   */\n      dup3\n        /* \"#utility.yul\":24576:24588   */\n      add\n        /* \"#utility.yul\":24569:24588   */\n      swap1\n      pop\n        /* \"#utility.yul\":24228:24594   */\n      swap2\n      swap1\n      pop\n      jump\t// out\n        /* \"#utility.yul\":24600:25019   */\n    tag_238:\n        /* \"#utility.yul\":24766:24770   */\n      0x00\n        /* \"#utility.yul\":24804:24806   */\n      0x20\n        /* \"#utility.yul\":24793:24802   */\n      dup3\n        /* \"#utility.yul\":24789:24807   */\n      add\n        /* \"#utility.yul\":24781:24807   */\n      swap1\n      pop\n        /* \"#utility.yul\":24853:24862   */\n      dup2\n        /* \"#utility.yul\":24847:24851   */\n      dup2\n        /* \"#utility.yul\":24843:24863   */\n      sub\n        /* \"#utility.yul\":24839:24840   */\n      0x00\n        /* \"#utility.yul\":24828:24837   */\n      dup4\n        /* \"#utility.yul\":24824:24841   */\n      add\n        /* \"#utility.yul\":24817:24864   */\n      mstore\n        /* \"#utility.yul\":24881:25012   */\n      tag_771\n        /* \"#utility.yul\":25007:25011   */\n      dup2\n        /* \"#utility.yul\":24881:25012   */\n      tag_488\n      jump\t// in\n    tag_771:\n        /* \"#utility.yul\":24873:25012   */\n      swap1\n      pop\n        /* \"#utility.yul\":24600:25019   */\n      swap2\n      swap1\n      pop\n      jump\t// out\n        /* \"#utility.yul\":25025:25357   */\n    tag_240:\n        /* \"#utility.yul\":25146:25150   */\n      0x00\n        /* \"#utility.yul\":25184:25186   */\n      0x40\n        /* \"#utility.yul\":25173:25182   */\n      dup3\n        /* \"#utility.yul\":25169:25187   */\n      add\n        /* \"#utility.yul\":25161:25187   */\n      swap1\n      pop\n        /* \"#utility.yul\":25197:25268   */\n      tag_773\n        /* \"#utility.yul\":25265:25266   */\n      0x00\n        /* \"#utility.yul\":25254:25263   */\n      dup4\n        /* \"#utility.yul\":25250:25267   */\n      add\n        /* \"#utility.yul\":25241:25247   */\n      dup6\n        /* \"#utility.yul\":25197:25268   */\n      tag_428\n      jump\t// in\n    tag_773:\n        /* \"#utility.yul\":25278:25350   */\n      tag_774\n        /* \"#utility.yul\":25346:25348   */\n      0x20\n        /* \"#utility.yul\":25335:25344   */\n      dup4\n        /* \"#utility.yul\":25331:25349   */\n      add\n        /* \"#utility.yul\":25322:25328   */\n      dup5\n        /* \"#utility.yul\":25278:25350   */\n      tag_428\n      jump\t// in\n    tag_774:\n        /* \"#utility.yul\":25025:25357   */\n      swap4\n      swap3\n      pop\n      pop\n      pop\n      jump\t// out\n        /* \"#utility.yul\":25363:25527   */\n    tag_489:\n        /* \"#utility.yul\":25503:25519   */\n      0x4e6f20706c616e20657869737473000000000000000000000000000000000000\n        /* \"#utility.yul\":25499:25500   */\n      0x00\n        /* \"#utility.yul\":25491:25497   */\n      dup3\n        /* \"#utility.yul\":25487:25501   */\n      add\n        /* \"#utility.yul\":25480:25520   */\n      mstore\n        /* \"#utility.yul\":25363:25527   */\n      pop\n      jump\t// out\n        /* \"#utility.yul\":25533:25899   */\n    tag_490:\n        /* \"#utility.yul\":25675:25678   */\n      0x00\n        /* \"#utility.yul\":25696:25763   */\n      tag_777\n        /* \"#utility.yul\":25760:25762   */\n      0x0e\n        /* \"#utility.yul\":25755:25758   */\n      dup4\n        /* \"#utility.yul\":25696:25763   */\n      tag_474\n      jump\t// in\n    tag_777:\n        /* \"#utility.yul\":25689:25763   */\n      swap2\n      pop\n        /* \"#utility.yul\":25772:25865   */\n      tag_778\n        /* \"#utility.yul\":25861:25864   */\n      dup3\n        /* \"#utility.yul\":25772:25865   */\n      tag_489\n      jump\t// in\n    tag_778:\n        /* \"#utility.yul\":25890:25892   */\n      0x20\n        /* \"#utility.yul\":25885:25888   */\n      dup3\n        /* \"#utility.yul\":25881:25893   */\n      add\n        /* \"#utility.yul\":25874:25893   */\n      swap1\n      pop\n        /* \"#utility.yul\":25533:25899   */\n      swap2\n      swap1\n      pop\n      jump\t// out\n        /* \"#utility.yul\":25905:26324   */\n    tag_246:\n        /* \"#utility.yul\":26071:26075   */\n      0x00\n        /* \"#utility.yul\":26109:26111   */\n      0x20\n        /* \"#utility.yul\":26098:26107   */\n      dup3\n        /* \"#utility.yul\":26094:26112   */\n      add\n        /* \"#utility.yul\":26086:26112   */\n      swap1\n      pop\n        /* \"#utility.yul\":26158:26167   */\n      dup2\n        /* \"#utility.yul\":26152:26156   */\n      dup2\n        /* \"#utility.yul\":26148:26168   */\n      sub\n        /* \"#utility.yul\":26144:26145   */\n      0x00\n        /* \"#utility.yul\":26133:26142   */\n      dup4\n        /* \"#utility.yul\":26129:26146   */\n      add\n        /* \"#utility.yul\":26122:26169   */\n      mstore\n        /* \"#utility.yul\":26186:26317   */\n      tag_780\n        /* \"#utility.yul\":26312:26316   */\n      dup2\n        /* \"#utility.yul\":26186:26317   */\n      tag_490\n      jump\t// in\n    tag_780:\n        /* \"#utility.yul\":26178:26317   */\n      swap1\n      pop\n        /* \"#utility.yul\":25905:26324   */\n      swap2\n      swap1\n      pop\n      jump\t// out\n        /* \"#utility.yul\":26330:26507   */\n    tag_491:\n        /* \"#utility.yul\":26470:26499   */\n      0x416c726561647920696e207265746972656d656e742070686173650000000000\n        /* \"#utility.yul\":26466:26467   */\n      0x00\n        /* \"#utility.yul\":26458:26464   */\n      dup3\n        /* \"#utility.yul\":26454:26468   */\n      add\n        /* \"#utility.yul\":26447:26500   */\n      mstore\n        /* \"#utility.yul\":26330:26507   */\n      pop\n      jump\t// out\n        /* \"#utility.yul\":26513:26879   */\n    tag_492:\n        /* \"#utility.yul\":26655:26658   */\n      0x00\n        /* \"#utility.yul\":26676:26743   */\n      tag_783\n        /* \"#utility.yul\":26740:26742   */\n      0x1b\n        /* \"#utility.yul\":26735:26738   */\n      dup4\n        /* \"#utility.yul\":26676:26743   */\n      tag_474\n      jump\t// in\n    tag_783:\n        /* \"#utility.yul\":26669:26743   */\n      swap2\n      pop\n        /* \"#utility.yul\":26752:26845   */\n      tag_784\n        /* \"#utility.yul\":26841:26844   */\n      dup3\n        /* \"#utility.yul\":26752:26845   */\n      tag_491\n      jump\t// in\n    tag_784:\n        /* \"#utility.yul\":26870:26872   */\n      0x20\n        /* \"#utility.yul\":26865:26868   */\n      dup3\n        /* \"#utility.yul\":26861:26873   */\n      add\n        /* \"#utility.yul\":26854:26873   */\n      swap1\n      pop\n        /* \"#utility.yul\":26513:26879   */\n      swap2\n      swap1\n      pop\n      jump\t// out\n        /* \"#utility.yul\":26885:27304   */\n    tag_249:\n        /* \"#utility.yul\":27051:27055   */\n      0x00\n        /* \"#utility.yul\":27089:27091   */\n      0x20\n        /* \"#utility.yul\":27078:27087   */\n      dup3\n        /* \"#utility.yul\":27074:27092   */\n      add\n        /* \"#utility.yul\":27066:27092   */\n      swap1\n      pop\n        /* \"#utility.yul\":27138:27147   */\n      dup2\n        /* \"#utility.yul\":27132:27136   */\n      dup2\n        /* \"#utility.yul\":27128:27148   */\n      sub\n        /* \"#utility.yul\":27124:27125   */\n      0x00\n        /* \"#utility.yul\":27113:27122   */\n      dup4\n        /* \"#utility.yul\":27109:27126   */\n      add\n        /* \"#utility.yul\":27102:27149   */\n      mstore\n        /* \"#utility.yul\":27166:27297   */\n      tag_786\n        /* \"#utility.yul\":27292:27296   */\n      dup2\n        /* \"#utility.yul\":27166:27297   */\n      tag_492\n      jump\t// in\n    tag_786:\n        /* \"#utility.yul\":27158:27297   */\n      swap1\n      pop\n        /* \"#utility.yul\":26885:27304   */\n      swap2\n      swap1\n      pop\n      jump\t// out\n        /* \"#utility.yul\":27310:27642   */\n    tag_255:\n        /* \"#utility.yul\":27431:27435   */\n      0x00\n        /* \"#utility.yul\":27469:27471   */\n      0x40\n        /* \"#utility.yul\":27458:27467   */\n      dup3\n        /* \"#utility.yul\":27454:27472   */\n      add\n        /* \"#utility.yul\":27446:27472   */\n      swap1\n      pop\n        /* \"#utility.yul\":27482:27553   */\n      tag_788\n        /* \"#utility.yul\":27550:27551   */\n      0x00\n        /* \"#utility.yul\":27539:27548   */\n      dup4\n        /* \"#utility.yul\":27535:27552   */\n      add\n        /* \"#utility.yul\":27526:27532   */\n      dup6\n        /* \"#utility.yul\":27482:27553   */\n      tag_440\n      jump\t// in\n    tag_788:\n        /* \"#utility.yul\":27563:27635   */\n      tag_789\n        /* \"#utility.yul\":27631:27633   */\n      0x20\n        /* \"#utility.yul\":27620:27629   */\n      dup4\n        /* \"#utility.yul\":27616:27634   */\n      add\n        /* \"#utility.yul\":27607:27613   */\n      dup5\n        /* \"#utility.yul\":27563:27635   */\n      tag_428\n      jump\t// in\n    tag_789:\n        /* \"#utility.yul\":27310:27642   */\n      swap4\n      swap3\n      pop\n      pop\n      pop\n      jump\t// out\n        /* \"#utility.yul\":27648:27764   */\n    tag_493:\n        /* \"#utility.yul\":27718:27739   */\n      tag_791\n        /* \"#utility.yul\":27733:27738   */\n      dup2\n        /* \"#utility.yul\":27718:27739   */\n      tag_425\n      jump\t// in\n    tag_791:\n        /* \"#utility.yul\":27711:27716   */\n      dup2\n        /* \"#utility.yul\":27708:27740   */\n      eq\n        /* \"#utility.yul\":27698:27758   */\n      tag_792\n      jumpi\n        /* \"#utility.yul\":27754:27755   */\n      0x00\n        /* \"#utility.yul\":27751:27752   */\n      0x00\n        /* \"#utility.yul\":27744:27756   */\n      revert\n        /* \"#utility.yul\":27698:27758   */\n    tag_792:\n        /* \"#utility.yul\":27648:27764   */\n      pop\n      jump\t// out\n        /* \"#utility.yul\":27770:27907   */\n    tag_494:\n        /* \"#utility.yul\":27824:27829   */\n      0x00\n        /* \"#utility.yul\":27855:27861   */\n      dup2\n        /* \"#utility.yul\":27849:27862   */\n      mload\n        /* \"#utility.yul\":27840:27862   */\n      swap1\n      pop\n        /* \"#utility.yul\":27871:27901   */\n      tag_794\n        /* \"#utility.yul\":27895:27900   */\n      dup2\n        /* \"#utility.yul\":27871:27901   */\n      tag_493\n      jump\t// in\n    tag_794:\n        /* \"#utility.yul\":27770:27907   */\n      swap3\n      swap2\n      pop\n      pop\n      jump\t// out\n        /* \"#utility.yul\":27913:28258   */\n    tag_259:\n        /* \"#utility.yul\":27980:27986   */\n      0x00\n        /* \"#utility.yul\":28029:28031   */\n      0x20\n        /* \"#utility.yul\":28017:28026   */\n      dup3\n        /* \"#utility.yul\":28008:28015   */\n      dup5\n        /* \"#utility.yul\":28004:28027   */\n      sub\n        /* \"#utility.yul\":28000:28032   */\n      slt\n        /* \"#utility.yul\":27997:28116   */\n      iszero\n      tag_796\n      jumpi\n        /* \"#utility.yul\":28035:28114   */\n      tag_797\n      tag_420\n      jump\t// in\n    tag_797:\n        /* \"#utility.yul\":27997:28116   */\n    tag_796:\n        /* \"#utility.yul\":28155:28156   */\n      0x00\n        /* \"#utility.yul\":28180:28241   */\n      tag_798\n        /* \"#utility.yul\":28233:28240   */\n      dup5\n        /* \"#utility.yul\":28224:28230   */\n      dup3\n        /* \"#utility.yul\":28213:28222   */\n      dup6\n        /* \"#utility.yul\":28209:28231   */\n      add\n        /* \"#utility.yul\":28180:28241   */\n      tag_494\n      jump\t// in\n    tag_798:\n        /* \"#utility.yul\":28170:28241   */\n      swap2\n      pop\n        /* \"#utility.yul\":28126:28251   */\n      pop\n        /* \"#utility.yul\":27913:28258   */\n      swap3\n      swap2\n      pop\n      pop\n      jump\t// out\n        /* \"#utility.yul\":28264:28455   */\n    tag_265:\n        /* \"#utility.yul\":28304:28307   */\n      0x00\n        /* \"#utility.yul\":28323:28343   */\n      tag_800\n        /* \"#utility.yul\":28341:28342   */\n      dup3\n        /* \"#utility.yul\":28323:28343   */\n      tag_427\n      jump\t// in\n    tag_800:\n        /* \"#utility.yul\":28318:28343   */\n      swap2\n      pop\n        /* \"#utility.yul\":28357:28377   */\n      tag_801\n        /* \"#utility.yul\":28375:28376   */\n      dup4\n        /* \"#utility.yul\":28357:28377   */\n      tag_427\n      jump\t// in\n    tag_801:\n        /* \"#utility.yul\":28352:28377   */\n      swap3\n      pop\n        /* \"#utility.yul\":28400:28401   */\n      dup3\n        /* \"#utility.yul\":28397:28398   */\n      dup3\n        /* \"#utility.yul\":28393:28402   */\n      add\n        /* \"#utility.yul\":28386:28402   */\n      swap1\n      pop\n        /* \"#utility.yul\":28421:28424   */\n      dup1\n        /* \"#utility.yul\":28418:28419   */\n      dup3\n        /* \"#utility.yul\":28415:28425   */\n      gt\n        /* \"#utility.yul\":28412:28448   */\n      iszero\n      tag_802\n      jumpi\n        /* \"#utility.yul\":28428:28446   */\n      tag_803\n      tag_482\n      jump\t// in\n    tag_803:\n        /* \"#utility.yul\":28412:28448   */\n    tag_802:\n        /* \"#utility.yul\":28264:28455   */\n      swap3\n      swap2\n      pop\n      pop\n      jump\t// out\n        /* \"#utility.yul\":28461:28871   */\n    tag_294:\n        /* \"#utility.yul\":28501:28508   */\n      0x00\n        /* \"#utility.yul\":28524:28544   */\n      tag_805\n        /* \"#utility.yul\":28542:28543   */\n      dup3\n        /* \"#utility.yul\":28524:28544   */\n      tag_427\n      jump\t// in\n    tag_805:\n        /* \"#utility.yul\":28519:28544   */\n      swap2\n      pop\n        /* \"#utility.yul\":28558:28578   */\n      tag_806\n        /* \"#utility.yul\":28576:28577   */\n      dup4\n        /* \"#utility.yul\":28558:28578   */\n      tag_427\n      jump\t// in\n    tag_806:\n        /* \"#utility.yul\":28553:28578   */\n      swap3\n      pop\n        /* \"#utility.yul\":28613:28614   */\n      dup3\n        /* \"#utility.yul\":28610:28611   */\n      dup3\n        /* \"#utility.yul\":28606:28615   */\n      mul\n        /* \"#utility.yul\":28635:28665   */\n      tag_807\n        /* \"#utility.yul\":28653:28664   */\n      dup2\n        /* \"#utility.yul\":28635:28665   */\n      tag_427\n      jump\t// in\n    tag_807:\n        /* \"#utility.yul\":28624:28665   */\n      swap2\n      pop\n        /* \"#utility.yul\":28814:28815   */\n      dup3\n        /* \"#utility.yul\":28805:28812   */\n      dup3\n        /* \"#utility.yul\":28801:28816   */\n      div\n        /* \"#utility.yul\":28798:28799   */\n      dup5\n        /* \"#utility.yul\":28795:28817   */\n      eq\n        /* \"#utility.yul\":28775:28776   */\n      dup4\n        /* \"#utility.yul\":28768:28777   */\n      iszero\n        /* \"#utility.yul\":28748:28831   */\n      or\n        /* \"#utility.yul\":28725:28864   */\n      tag_808\n      jumpi\n        /* \"#utility.yul\":28844:28862   */\n      tag_809\n      tag_482\n      jump\t// in\n    tag_809:\n        /* \"#utility.yul\":28725:28864   */\n    tag_808:\n        /* \"#utility.yul\":28509:28871   */\n      pop\n        /* \"#utility.yul\":28461:28871   */\n      swap3\n      swap2\n      pop\n      pop\n      jump\t// out\n        /* \"#utility.yul\":28877:29057   */\n    tag_495:\n        /* \"#utility.yul\":28925:29002   */\n      0x4e487b7100000000000000000000000000000000000000000000000000000000\n        /* \"#utility.yul\":28922:28923   */\n      0x00\n        /* \"#utility.yul\":28915:29003   */\n      mstore\n        /* \"#utility.yul\":29022:29026   */\n      0x12\n        /* \"#utility.yul\":29019:29020   */\n      0x04\n        /* \"#utility.yul\":29012:29027   */\n      mstore\n        /* \"#utility.yul\":29046:29050   */\n      0x24\n        /* \"#utility.yul\":29043:29044   */\n      0x00\n        /* \"#utility.yul\":29036:29051   */\n      revert\n        /* \"#utility.yul\":29063:29248   */\n    tag_296:\n        /* \"#utility.yul\":29103:29104   */\n      0x00\n        /* \"#utility.yul\":29120:29140   */\n      tag_812\n        /* \"#utility.yul\":29138:29139   */\n      dup3\n        /* \"#utility.yul\":29120:29140   */\n      tag_427\n      jump\t// in\n    tag_812:\n        /* \"#utility.yul\":29115:29140   */\n      swap2\n      pop\n        /* \"#utility.yul\":29154:29174   */\n      tag_813\n        /* \"#utility.yul\":29172:29173   */\n      dup4\n        /* \"#utility.yul\":29154:29174   */\n      tag_427\n      jump\t// in\n    tag_813:\n        /* \"#utility.yul\":29149:29174   */\n      swap3\n      pop\n        /* \"#utility.yul\":29193:29194   */\n      dup3\n        /* \"#utility.yul\":29183:29218   */\n      tag_814\n      jumpi\n        /* \"#utility.yul\":29198:29216   */\n      tag_815\n      tag_495\n      jump\t// in\n    tag_815:\n        /* \"#utility.yul\":29183:29218   */\n    tag_814:\n        /* \"#utility.yul\":29240:29241   */\n      dup3\n        /* \"#utility.yul\":29237:29238   */\n      dup3\n        /* \"#utility.yul\":29233:29242   */\n      div\n        /* \"#utility.yul\":29228:29242   */\n      swap1\n      pop\n        /* \"#utility.yul\":29063:29248   */\n      swap3\n      swap2\n      pop\n      pop\n      jump\t// out\n        /* \"#utility.yul\":29254:29436   */\n    tag_496:\n        /* \"#utility.yul\":29394:29428   */\n      0x43616e206f6e6c79207769746864726177206f6e636520706572206d6f6e7468\n        /* \"#utility.yul\":29390:29391   */\n      0x00\n        /* \"#utility.yul\":29382:29388   */\n      dup3\n        /* \"#utility.yul\":29378:29392   */\n      add\n        /* \"#utility.yul\":29371:29429   */\n      mstore\n        /* \"#utility.yul\":29254:29436   */\n      pop\n      jump\t// out\n        /* \"#utility.yul\":29442:29808   */\n    tag_497:\n        /* \"#utility.yul\":29584:29587   */\n      0x00\n        /* \"#utility.yul\":29605:29672   */\n      tag_818\n        /* \"#utility.yul\":29669:29671   */\n      0x20\n        /* \"#utility.yul\":29664:29667   */\n      dup4\n        /* \"#utility.yul\":29605:29672   */\n      tag_474\n      jump\t// in\n    tag_818:\n        /* \"#utility.yul\":29598:29672   */\n      swap2\n      pop\n        /* \"#utility.yul\":29681:29774   */\n      tag_819\n        /* \"#utility.yul\":29770:29773   */\n      dup3\n        /* \"#utility.yul\":29681:29774   */\n      tag_496\n      jump\t// in\n    tag_819:\n        /* \"#utility.yul\":29799:29801   */\n      0x20\n        /* \"#utility.yul\":29794:29797   */\n      dup3\n        /* \"#utility.yul\":29790:29802   */\n      add\n        /* \"#utility.yul\":29783:29802   */\n      swap1\n      pop\n        /* \"#utility.yul\":29442:29808   */\n      swap2\n      swap1\n      pop\n      jump\t// out\n        /* \"#utility.yul\":29814:30233   */\n    tag_309:\n        /* \"#utility.yul\":29980:29984   */\n      0x00\n        /* \"#utility.yul\":30018:30020   */\n      0x20\n        /* \"#utility.yul\":30007:30016   */\n      dup3\n        /* \"#utility.yul\":30003:30021   */\n      add\n        /* \"#utility.yul\":29995:30021   */\n      swap1\n      pop\n        /* \"#utility.yul\":30067:30076   */\n      dup2\n        /* \"#utility.yul\":30061:30065   */\n      dup2\n        /* \"#utility.yul\":30057:30077   */\n      sub\n        /* \"#utility.yul\":30053:30054   */\n      0x00\n        /* \"#utility.yul\":30042:30051   */\n      dup4\n        /* \"#utility.yul\":30038:30055   */\n      add\n        /* \"#utility.yul\":30031:30078   */\n      mstore\n        /* \"#utility.yul\":30095:30226   */\n      tag_821\n        /* \"#utility.yul\":30221:30225   */\n      dup2\n        /* \"#utility.yul\":30095:30226   */\n      tag_497\n      jump\t// in\n    tag_821:\n        /* \"#utility.yul\":30087:30226   */\n      swap1\n      pop\n        /* \"#utility.yul\":29814:30233   */\n      swap2\n      swap1\n      pop\n      jump\t// out\n        /* \"#utility.yul\":30239:30407   */\n    tag_498:\n        /* \"#utility.yul\":30379:30399   */\n      0x4e6f207969656c6420617661696c61626c650000000000000000000000000000\n        /* \"#utility.yul\":30375:30376   */\n      0x00\n        /* \"#utility.yul\":30367:30373   */\n      dup3\n        /* \"#utility.yul\":30363:30377   */\n      add\n        /* \"#utility.yul\":30356:30400   */\n      mstore\n        /* \"#utility.yul\":30239:30407   */\n      pop\n      jump\t// out\n        /* \"#utility.yul\":30413:30779   */\n    tag_499:\n        /* \"#utility.yul\":30555:30558   */\n      0x00\n        /* \"#utility.yul\":30576:30643   */\n      tag_824\n        /* \"#utility.yul\":30640:30642   */\n      0x12\n        /* \"#utility.yul\":30635:30638   */\n      dup4\n        /* \"#utility.yul\":30576:30643   */\n      tag_474\n      jump\t// in\n    tag_824:\n        /* \"#utility.yul\":30569:30643   */\n      swap2\n      pop\n        /* \"#utility.yul\":30652:30745   */\n      tag_825\n        /* \"#utility.yul\":30741:30744   */\n      dup3\n        /* \"#utility.yul\":30652:30745   */\n      tag_498\n      jump\t// in\n    tag_825:\n        /* \"#utility.yul\":30770:30772   */\n      0x20\n        /* \"#utility.yul\":30765:30768   */\n      dup3\n        /* \"#utility.yul\":30761:30773   */\n      add\n        /* \"#utility.yul\":30754:30773   */\n      swap1\n      pop\n        /* \"#utility.yul\":30413:30779   */\n      swap2\n      swap1\n      pop\n      jump\t// out\n        /* \"#utility.yul\":30785:31204   */\n    tag_316:\n        /* \"#utility.yul\":30951:30955   */\n      0x00\n        /* \"#utility.yul\":30989:30991   */\n      0x20\n        /* \"#utility.yul\":30978:30987   */\n      dup3\n        /* \"#utility.yul\":30974:30992   */\n      add\n        /* \"#utility.yul\":30966:30992   */\n      swap1\n      pop\n        /* \"#utility.yul\":31038:31047   */\n      dup2\n        /* \"#utility.yul\":31032:31036   */\n      dup2\n        /* \"#utility.yul\":31028:31048   */\n      sub\n        /* \"#utility.yul\":31024:31025   */\n      0x00\n        /* \"#utility.yul\":31013:31022   */\n      dup4\n        /* \"#utility.yul\":31009:31026   */\n      add\n        /* \"#utility.yul\":31002:31049   */\n      mstore\n        /* \"#utility.yul\":31066:31197   */\n      tag_827\n        /* \"#utility.yul\":31192:31196   */\n      dup2\n        /* \"#utility.yul\":31066:31197   */\n      tag_499\n      jump\t// in\n    tag_827:\n        /* \"#utility.yul\":31058:31197   */\n      swap1\n      pop\n        /* \"#utility.yul\":30785:31204   */\n      swap2\n      swap1\n      pop\n      jump\t// out\n        /* \"#utility.yul\":31210:31372   */\n    tag_500:\n        /* \"#utility.yul\":31350:31364   */\n      0x46656520746f6f20686967680000000000000000000000000000000000000000\n        /* \"#utility.yul\":31346:31347   */\n      0x00\n        /* \"#utility.yul\":31338:31344   */\n      dup3\n        /* \"#utility.yul\":31334:31348   */\n      add\n        /* \"#utility.yul\":31327:31365   */\n      mstore\n        /* \"#utility.yul\":31210:31372   */\n      pop\n      jump\t// out\n        /* \"#utility.yul\":31378:31744   */\n    tag_501:\n        /* \"#utility.yul\":31520:31523   */\n      0x00\n        /* \"#utility.yul\":31541:31608   */\n      tag_830\n        /* \"#utility.yul\":31605:31607   */\n      0x0c\n        /* \"#utility.yul\":31600:31603   */\n      dup4\n        /* \"#utility.yul\":31541:31608   */\n      tag_474\n      jump\t// in\n    tag_830:\n        /* \"#utility.yul\":31534:31608   */\n      swap2\n      pop\n        /* \"#utility.yul\":31617:31710   */\n      tag_831\n        /* \"#utility.yul\":31706:31709   */\n      dup3\n        /* \"#utility.yul\":31617:31710   */\n      tag_500\n      jump\t// in\n    tag_831:\n        /* \"#utility.yul\":31735:31737   */\n      0x20\n        /* \"#utility.yul\":31730:31733   */\n      dup3\n        /* \"#utility.yul\":31726:31738   */\n      add\n        /* \"#utility.yul\":31719:31738   */\n      swap1\n      pop\n        /* \"#utility.yul\":31378:31744   */\n      swap2\n      swap1\n      pop\n      jump\t// out\n        /* \"#utility.yul\":31750:32169   */\n    tag_340:\n        /* \"#utility.yul\":31916:31920   */\n      0x00\n        /* \"#utility.yul\":31954:31956   */\n      0x20\n        /* \"#utility.yul\":31943:31952   */\n      dup3\n        /* \"#utility.yul\":31939:31957   */\n      add\n        /* \"#utility.yul\":31931:31957   */\n      swap1\n      pop\n        /* \"#utility.yul\":32003:32012   */\n      dup2\n        /* \"#utility.yul\":31997:32001   */\n      dup2\n        /* \"#utility.yul\":31993:32013   */\n      sub\n        /* \"#utility.yul\":31989:31990   */\n      0x00\n        /* \"#utility.yul\":31978:31987   */\n      dup4\n        /* \"#utility.yul\":31974:31991   */\n      add\n        /* \"#utility.yul\":31967:32014   */\n      mstore\n        /* \"#utility.yul\":32031:32162   */\n      tag_833\n        /* \"#utility.yul\":32157:32161   */\n      dup2\n        /* \"#utility.yul\":32031:32162   */\n      tag_501\n      jump\t// in\n    tag_833:\n        /* \"#utility.yul\":32023:32162   */\n      swap1\n      pop\n        /* \"#utility.yul\":31750:32169   */\n      swap2\n      swap1\n      pop\n      jump\t// out\n        /* \"#utility.yul\":32175:32345   */\n    tag_502:\n        /* \"#utility.yul\":32315:32337   */\n      0x50726f626162696c69747920746f6f2068696768000000000000000000000000\n        /* \"#utility.yul\":32311:32312   */\n      0x00\n        /* \"#utility.yul\":32303:32309   */\n      dup3\n        /* \"#utility.yul\":32299:32313   */\n      add\n        /* \"#utility.yul\":32292:32338   */\n      mstore\n        /* \"#utility.yul\":32175:32345   */\n      pop\n      jump\t// out\n        /* \"#utility.yul\":32351:32717   */\n    tag_503:\n        /* \"#utility.yul\":32493:32496   */\n      0x00\n        /* \"#utility.yul\":32514:32581   */\n      tag_836\n        /* \"#utility.yul\":32578:32580   */\n      0x14\n        /* \"#utility.yul\":32573:32576   */\n      dup4\n        /* \"#utility.yul\":32514:32581   */\n      tag_474\n      jump\t// in\n    tag_836:\n        /* \"#utility.yul\":32507:32581   */\n      swap2\n      pop\n        /* \"#utility.yul\":32590:32683   */\n      tag_837\n        /* \"#utility.yul\":32679:32682   */\n      dup3\n        /* \"#utility.yul\":32590:32683   */\n      tag_502\n      jump\t// in\n    tag_837:\n        /* \"#utility.yul\":32708:32710   */\n      0x20\n        /* \"#utility.yul\":32703:32706   */\n      dup3\n        /* \"#utility.yul\":32699:32711   */\n      add\n        /* \"#utility.yul\":32692:32711   */\n      swap1\n      pop\n        /* \"#utility.yul\":32351:32717   */\n      swap2\n      swap1\n      pop\n      jump\t// out\n        /* \"#utility.yul\":32723:33142   */\n    tag_343:\n        /* \"#utility.yul\":32889:32893   */\n      0x00\n        /* \"#utility.yul\":32927:32929   */\n      0x20\n        /* \"#utility.yul\":32916:32925   */\n      dup3\n        /* \"#utility.yul\":32912:32930   */\n      add\n        /* \"#utility.yul\":32904:32930   */\n      swap1\n      pop\n        /* \"#utility.yul\":32976:32985   */\n      dup2\n        /* \"#utility.yul\":32970:32974   */\n      dup2\n        /* \"#utility.yul\":32966:32986   */\n      sub\n        /* \"#utility.yul\":32962:32963   */\n      0x00\n        /* \"#utility.yul\":32951:32960   */\n      dup4\n        /* \"#utility.yul\":32947:32964   */\n      add\n        /* \"#utility.yul\":32940:32987   */\n      mstore\n        /* \"#utility.yul\":33004:33135   */\n      tag_839\n        /* \"#utility.yul\":33130:33134   */\n      dup2\n        /* \"#utility.yul\":33004:33135   */\n      tag_503\n      jump\t// in\n    tag_839:\n        /* \"#utility.yul\":32996:33135   */\n      swap1\n      pop\n        /* \"#utility.yul\":32723:33142   */\n      swap2\n      swap1\n      pop\n      jump\t// out\n        /* \"#utility.yul\":33148:33312   */\n    tag_504:\n        /* \"#utility.yul\":33288:33304   */\n      0x426f6e757320746f6f2068696768000000000000000000000000000000000000\n        /* \"#utility.yul\":33284:33285   */\n      0x00\n        /* \"#utility.yul\":33276:33282   */\n      dup3\n        /* \"#utility.yul\":33272:33286   */\n      add\n        /* \"#utility.yul\":33265:33305   */\n      mstore\n        /* \"#utility.yul\":33148:33312   */\n      pop\n      jump\t// out\n        /* \"#utility.yul\":33318:33684   */\n    tag_505:\n        /* \"#utility.yul\":33460:33463   */\n      0x00\n        /* \"#utility.yul\":33481:33548   */\n      tag_842\n        /* \"#utility.yul\":33545:33547   */\n      0x0e\n        /* \"#utility.yul\":33540:33543   */\n      dup4\n        /* \"#utility.yul\":33481:33548   */\n      tag_474\n      jump\t// in\n    tag_842:\n        /* \"#utility.yul\":33474:33548   */\n      swap2\n      pop\n        /* \"#utility.yul\":33557:33650   */\n      tag_843\n        /* \"#utility.yul\":33646:33649   */\n      dup3\n        /* \"#utility.yul\":33557:33650   */\n      tag_504\n      jump\t// in\n    tag_843:\n        /* \"#utility.yul\":33675:33677   */\n      0x20\n        /* \"#utility.yul\":33670:33673   */\n      dup3\n        /* \"#utility.yul\":33666:33678   */\n      add\n        /* \"#utility.yul\":33659:33678   */\n      swap1\n      pop\n        /* \"#utility.yul\":33318:33684   */\n      swap2\n      swap1\n      pop\n      jump\t// out\n        /* \"#utility.yul\":33690:34109   */\n    tag_346:\n        /* \"#utility.yul\":33856:33860   */\n      0x00\n        /* \"#utility.yul\":33894:33896   */\n      0x20\n        /* \"#utility.yul\":33883:33892   */\n      dup3\n        /* \"#utility.yul\":33879:33897   */\n      add\n        /* \"#utility.yul\":33871:33897   */\n      swap1\n      pop\n        /* \"#utility.yul\":33943:33952   */\n      dup2\n        /* \"#utility.yul\":33937:33941   */\n      dup2\n        /* \"#utility.yul\":33933:33953   */\n      sub\n        /* \"#utility.yul\":33929:33930   */\n      0x00\n        /* \"#utility.yul\":33918:33927   */\n      dup4\n        /* \"#utility.yul\":33914:33931   */\n      add\n        /* \"#utility.yul\":33907:33954   */\n      mstore\n        /* \"#utility.yul\":33971:34102   */\n      tag_845\n        /* \"#utility.yul\":34097:34101   */\n      dup2\n        /* \"#utility.yul\":33971:34102   */\n      tag_505\n      jump\t// in\n    tag_845:\n        /* \"#utility.yul\":33963:34102   */\n      swap1\n      pop\n        /* \"#utility.yul\":33690:34109   */\n      swap2\n      swap1\n      pop\n      jump\t// out\n        /* \"#utility.yul\":34115:34283   */\n    tag_506:\n        /* \"#utility.yul\":34255:34275   */\n      0x556e6b6e6f776e20726571756573742049440000000000000000000000000000\n        /* \"#utility.yul\":34251:34252   */\n      0x00\n        /* \"#utility.yul\":34243:34249   */\n      dup3\n        /* \"#utility.yul\":34239:34253   */\n      add\n        /* \"#utility.yul\":34232:34276   */\n      mstore\n        /* \"#utility.yul\":34115:34283   */\n      pop\n      jump\t// out\n        /* \"#utility.yul\":34289:34655   */\n    tag_507:\n        /* \"#utility.yul\":34431:34434   */\n      0x00\n        /* \"#utility.yul\":34452:34519   */\n      tag_848\n        /* \"#utility.yul\":34516:34518   */\n      0x12\n        /* \"#utility.yul\":34511:34514   */\n      dup4\n        /* \"#utility.yul\":34452:34519   */\n      tag_474\n      jump\t// in\n    tag_848:\n        /* \"#utility.yul\":34445:34519   */\n      swap2\n      pop\n        /* \"#utility.yul\":34528:34621   */\n      tag_849\n        /* \"#utility.yul\":34617:34620   */\n      dup3\n        /* \"#utility.yul\":34528:34621   */\n      tag_506\n      jump\t// in\n    tag_849:\n        /* \"#utility.yul\":34646:34648   */\n      0x20\n        /* \"#utility.yul\":34641:34644   */\n      dup3\n        /* \"#utility.yul\":34637:34649   */\n      add\n        /* \"#utility.yul\":34630:34649   */\n      swap1\n      pop\n        /* \"#utility.yul\":34289:34655   */\n      swap2\n      swap1\n      pop\n      jump\t// out\n        /* \"#utility.yul\":34661:35080   */\n    tag_351:\n        /* \"#utility.yul\":34827:34831   */\n      0x00\n        /* \"#utility.yul\":34865:34867   */\n      0x20\n        /* \"#utility.yul\":34854:34863   */\n      dup3\n        /* \"#utility.yul\":34850:34868   */\n      add\n        /* \"#utility.yul\":34842:34868   */\n      swap1\n      pop\n        /* \"#utility.yul\":34914:34923   */\n      dup2\n        /* \"#utility.yul\":34908:34912   */\n      dup2\n        /* \"#utility.yul\":34904:34924   */\n      sub\n        /* \"#utility.yul\":34900:34901   */\n      0x00\n        /* \"#utility.yul\":34889:34898   */\n      dup4\n        /* \"#utility.yul\":34885:34902   */\n      add\n        /* \"#utility.yul\":34878:34925   */\n      mstore\n        /* \"#utility.yul\":34942:35073   */\n      tag_851\n        /* \"#utility.yul\":35068:35072   */\n      dup2\n        /* \"#utility.yul\":34942:35073   */\n      tag_507\n      jump\t// in\n    tag_851:\n        /* \"#utility.yul\":34934:35073   */\n      swap1\n      pop\n        /* \"#utility.yul\":34661:35080   */\n      swap2\n      swap1\n      pop\n      jump\t// out\n        /* \"#utility.yul\":35086:35266   */\n    tag_354:\n        /* \"#utility.yul\":35134:35211   */\n      0x4e487b7100000000000000000000000000000000000000000000000000000000\n        /* \"#utility.yul\":35131:35132   */\n      0x00\n        /* \"#utility.yul\":35124:35212   */\n      mstore\n        /* \"#utility.yul\":35231:35235   */\n      0x32\n        /* \"#utility.yul\":35228:35229   */\n      0x04\n        /* \"#utility.yul\":35221:35236   */\n      mstore\n        /* \"#utility.yul\":35255:35259   */\n      0x24\n        /* \"#utility.yul\":35252:35253   */\n      0x00\n        /* \"#utility.yul\":35245:35260   */\n      revert\n        /* \"#utility.yul\":35272:35448   */\n    tag_356:\n        /* \"#utility.yul\":35304:35305   */\n      0x00\n        /* \"#utility.yul\":35321:35341   */\n      tag_854\n        /* \"#utility.yul\":35339:35340   */\n      dup3\n        /* \"#utility.yul\":35321:35341   */\n      tag_427\n      jump\t// in\n    tag_854:\n        /* \"#utility.yul\":35316:35341   */\n      swap2\n      pop\n        /* \"#utility.yul\":35355:35375   */\n      tag_855\n        /* \"#utility.yul\":35373:35374   */\n      dup4\n        /* \"#utility.yul\":35355:35375   */\n      tag_427\n      jump\t// in\n    tag_855:\n        /* \"#utility.yul\":35350:35375   */\n      swap3\n      pop\n        /* \"#utility.yul\":35394:35395   */\n      dup3\n        /* \"#utility.yul\":35384:35419   */\n      tag_856\n      jumpi\n        /* \"#utility.yul\":35399:35417   */\n      tag_857\n      tag_495\n      jump\t// in\n    tag_857:\n        /* \"#utility.yul\":35384:35419   */\n    tag_856:\n        /* \"#utility.yul\":35440:35441   */\n      dup3\n        /* \"#utility.yul\":35437:35438   */\n      dup3\n        /* \"#utility.yul\":35433:35442   */\n      mod\n        /* \"#utility.yul\":35428:35442   */\n      swap1\n      pop\n        /* \"#utility.yul\":35272:35448   */\n      swap3\n      swap2\n      pop\n      pop\n      jump\t// out\n        /* \"#utility.yul\":35454:35635   */\n    tag_508:\n        /* \"#utility.yul\":35594:35627   */\n      0x5265656e7472616e637947756172643a207265656e7472616e742063616c6c00\n        /* \"#utility.yul\":35590:35591   */\n      0x00\n        /* \"#utility.yul\":35582:35588   */\n      dup3\n        /* \"#utility.yul\":35578:35592   */\n      add\n        /* \"#utility.yul\":35571:35628   */\n      mstore\n        /* \"#utility.yul\":35454:35635   */\n      pop\n      jump\t// out\n        /* \"#utility.yul\":35641:36007   */\n    tag_509:\n        /* \"#utility.yul\":35783:35786   */\n      0x00\n        /* \"#utility.yul\":35804:35871   */\n      tag_860\n        /* \"#utility.yul\":35868:35870   */\n      0x1f\n        /* \"#utility.yul\":35863:35866   */\n      dup4\n        /* \"#utility.yul\":35804:35871   */\n      tag_474\n      jump\t// in\n    tag_860:\n        /* \"#utility.yul\":35797:35871   */\n      swap2\n      pop\n        /* \"#utility.yul\":35880:35973   */\n      tag_861\n        /* \"#utility.yul\":35969:35972   */\n      dup3\n        /* \"#utility.yul\":35880:35973   */\n      tag_508\n      jump\t// in\n    tag_861:\n        /* \"#utility.yul\":35998:36000   */\n      0x20\n        /* \"#utility.yul\":35993:35996   */\n      dup3\n        /* \"#utility.yul\":35989:36001   */\n      add\n        /* \"#utility.yul\":35982:36001   */\n      swap1\n      pop\n        /* \"#utility.yul\":35641:36007   */\n      swap2\n      swap1\n      pop\n      jump\t// out\n        /* \"#utility.yul\":36013:36432   */\n    tag_389:\n        /* \"#utility.yul\":36179:36183   */\n      0x00\n        /* \"#utility.yul\":36217:36219   */\n      0x20\n        /* \"#utility.yul\":36206:36215   */\n      dup3\n        /* \"#utility.yul\":36202:36220   */\n      add\n        /* \"#utility.yul\":36194:36220   */\n      swap1\n      pop\n        /* \"#utility.yul\":36266:36275   */\n      dup2\n        /* \"#utility.yul\":36260:36264   */\n      dup2\n        /* \"#utility.yul\":36256:36276   */\n      sub\n        /* \"#utility.yul\":36252:36253   */\n      0x00\n        /* \"#utility.yul\":36241:36250   */\n      dup4\n        /* \"#utility.yul\":36237:36254   */\n      add\n        /* \"#utility.yul\":36230:36277   */\n      mstore\n        /* \"#utility.yul\":36294:36425   */\n      tag_863\n        /* \"#utility.yul\":36420:36424   */\n      dup2\n        /* \"#utility.yul\":36294:36425   */\n      tag_509\n      jump\t// in\n    tag_863:\n        /* \"#utility.yul\":36286:36425   */\n      swap1\n      pop\n        /* \"#utility.yul\":36013:36432   */\n      swap2\n      swap1\n      pop\n      jump\t// out\n        /* \"#utility.yul\":36438:36880   */\n    tag_394:\n        /* \"#utility.yul\":36587:36591   */\n      0x00\n        /* \"#utility.yul\":36625:36627   */\n      0x60\n        /* \"#utility.yul\":36614:36623   */\n      dup3\n        /* \"#utility.yul\":36610:36628   */\n      add\n        /* \"#utility.yul\":36602:36628   */\n      swap1\n      pop\n        /* \"#utility.yul\":36638:36709   */\n      tag_865\n        /* \"#utility.yul\":36706:36707   */\n      0x00\n        /* \"#utility.yul\":36695:36704   */\n      dup4\n        /* \"#utility.yul\":36691:36708   */\n      add\n        /* \"#utility.yul\":36682:36688   */\n      dup7\n        /* \"#utility.yul\":36638:36709   */\n      tag_440\n      jump\t// in\n    tag_865:\n        /* \"#utility.yul\":36719:36791   */\n      tag_866\n        /* \"#utility.yul\":36787:36789   */\n      0x20\n        /* \"#utility.yul\":36776:36785   */\n      dup4\n        /* \"#utility.yul\":36772:36790   */\n      add\n        /* \"#utility.yul\":36763:36769   */\n      dup6\n        /* \"#utility.yul\":36719:36791   */\n      tag_440\n      jump\t// in\n    tag_866:\n        /* \"#utility.yul\":36801:36873   */\n      tag_867\n        /* \"#utility.yul\":36869:36871   */\n      0x40\n        /* \"#utility.yul\":36858:36867   */\n      dup4\n        /* \"#utility.yul\":36854:36872   */\n      add\n        /* \"#utility.yul\":36845:36851   */\n      dup5\n        /* \"#utility.yul\":36801:36873   */\n      tag_428\n      jump\t// in\n    tag_867:\n        /* \"#utility.yul\":36438:36880   */\n      swap5\n      swap4\n      pop\n      pop\n      pop\n      pop\n      jump\t// out\n        /* \"#utility.yul\":36886:36965   */\n    tag_510:\n        /* \"#utility.yul\":36925:36932   */\n      0x00\n        /* \"#utility.yul\":36954:36959   */\n      dup2\n        /* \"#utility.yul\":36943:36959   */\n      swap1\n      pop\n        /* \"#utility.yul\":36886:36965   */\n      swap2\n      swap1\n      pop\n      jump\t// out\n        /* \"#utility.yul\":36971:37128   */\n    tag_511:\n        /* \"#utility.yul\":37076:37121   */\n      tag_870\n        /* \"#utility.yul\":37096:37120   */\n      tag_871\n        /* \"#utility.yul\":37114:37119   */\n      dup3\n        /* \"#utility.yul\":37096:37120   */\n      tag_427\n      jump\t// in\n    tag_871:\n        /* \"#utility.yul\":37076:37121   */\n      tag_510\n      jump\t// in\n    tag_870:\n        /* \"#utility.yul\":37071:37074   */\n      dup3\n        /* \"#utility.yul\":37064:37122   */\n      mstore\n        /* \"#utility.yul\":36971:37128   */\n      pop\n      pop\n      jump\t// out\n        /* \"#utility.yul\":37134:37228   */\n    tag_512:\n        /* \"#utility.yul\":37167:37175   */\n      0x00\n        /* \"#utility.yul\":37215:37220   */\n      dup2\n        /* \"#utility.yul\":37211:37213   */\n      0x60\n        /* \"#utility.yul\":37207:37221   */\n      shl\n        /* \"#utility.yul\":37186:37221   */\n      swap1\n      pop\n        /* \"#utility.yul\":37134:37228   */\n      swap2\n      swap1\n      pop\n      jump\t// out\n        /* \"#utility.yul\":37234:37328   */\n    tag_513:\n        /* \"#utility.yul\":37273:37280   */\n      0x00\n        /* \"#utility.yul\":37302:37322   */\n      tag_874\n        /* \"#utility.yul\":37316:37321   */\n      dup3\n        /* \"#utility.yul\":37302:37322   */\n      tag_512\n      jump\t// in\n    tag_874:\n        /* \"#utility.yul\":37291:37322   */\n      swap1\n      pop\n        /* \"#utility.yul\":37234:37328   */\n      swap2\n      swap1\n      pop\n      jump\t// out\n        /* \"#utility.yul\":37334:37434   */\n    tag_514:\n        /* \"#utility.yul\":37373:37380   */\n      0x00\n        /* \"#utility.yul\":37402:37428   */\n      tag_876\n        /* \"#utility.yul\":37422:37427   */\n      dup3\n        /* \"#utility.yul\":37402:37428   */\n      tag_513\n      jump\t// in\n    tag_876:\n        /* \"#utility.yul\":37391:37428   */\n      swap1\n      pop\n        /* \"#utility.yul\":37334:37434   */\n      swap2\n      swap1\n      pop\n      jump\t// out\n        /* \"#utility.yul\":37440:37597   */\n    tag_515:\n        /* \"#utility.yul\":37545:37590   */\n      tag_878\n        /* \"#utility.yul\":37565:37589   */\n      tag_879\n        /* \"#utility.yul\":37583:37588   */\n      dup3\n        /* \"#utility.yul\":37565:37589   */\n      tag_439\n      jump\t// in\n    tag_879:\n        /* \"#utility.yul\":37545:37590   */\n      tag_514\n      jump\t// in\n    tag_878:\n        /* \"#utility.yul\":37540:37543   */\n      dup3\n        /* \"#utility.yul\":37533:37591   */\n      mstore\n        /* \"#utility.yul\":37440:37597   */\n      pop\n      pop\n      jump\t// out\n        /* \"#utility.yul\":37603:38141   */\n    tag_399:\n        /* \"#utility.yul\":37771:37774   */\n      0x00\n        /* \"#utility.yul\":37786:37861   */\n      tag_881\n        /* \"#utility.yul\":37857:37860   */\n      dup3\n        /* \"#utility.yul\":37848:37854   */\n      dup7\n        /* \"#utility.yul\":37786:37861   */\n      tag_511\n      jump\t// in\n    tag_881:\n        /* \"#utility.yul\":37886:37888   */\n      0x20\n        /* \"#utility.yul\":37881:37884   */\n      dup3\n        /* \"#utility.yul\":37877:37889   */\n      add\n        /* \"#utility.yul\":37870:37889   */\n      swap2\n      pop\n        /* \"#utility.yul\":37899:37974   */\n      tag_882\n        /* \"#utility.yul\":37970:37973   */\n      dup3\n        /* \"#utility.yul\":37961:37967   */\n      dup6\n        /* \"#utility.yul\":37899:37974   */\n      tag_511\n      jump\t// in\n    tag_882:\n        /* \"#utility.yul\":37999:38001   */\n      0x20\n        /* \"#utility.yul\":37994:37997   */\n      dup3\n        /* \"#utility.yul\":37990:38002   */\n      add\n        /* \"#utility.yul\":37983:38002   */\n      swap2\n      pop\n        /* \"#utility.yul\":38012:38087   */\n      tag_883\n        /* \"#utility.yul\":38083:38086   */\n      dup3\n        /* \"#utility.yul\":38074:38080   */\n      dup5\n        /* \"#utility.yul\":38012:38087   */\n      tag_515\n      jump\t// in\n    tag_883:\n        /* \"#utility.yul\":38112:38114   */\n      0x14\n        /* \"#utility.yul\":38107:38110   */\n      dup3\n        /* \"#utility.yul\":38103:38115   */\n      add\n        /* \"#utility.yul\":38096:38115   */\n      swap2\n      pop\n        /* \"#utility.yul\":38132:38135   */\n      dup2\n        /* \"#utility.yul\":38125:38135   */\n      swap1\n      pop\n        /* \"#utility.yul\":37603:38141   */\n      swap5\n      swap4\n      pop\n      pop\n      pop\n      pop\n      jump\t// out\n        /* \"#utility.yul\":38147:38795   */\n    tag_403:\n        /* \"#utility.yul\":38344:38348   */\n      0x00\n        /* \"#utility.yul\":38382:38385   */\n      0xa0\n        /* \"#utility.yul\":38371:38380   */\n      dup3\n        /* \"#utility.yul\":38367:38386   */\n      add\n        /* \"#utility.yul\":38359:38386   */\n      swap1\n      pop\n        /* \"#utility.yul\":38396:38467   */\n      tag_885\n        /* \"#utility.yul\":38464:38465   */\n      0x00\n        /* \"#utility.yul\":38453:38462   */\n      dup4\n        /* \"#utility.yul\":38449:38466   */\n      add\n        /* \"#utility.yul\":38440:38446   */\n      dup9\n        /* \"#utility.yul\":38396:38467   */\n      tag_453\n      jump\t// in\n    tag_885:\n        /* \"#utility.yul\":38477:38547   */\n      tag_886\n        /* \"#utility.yul\":38543:38545   */\n      0x20\n        /* \"#utility.yul\":38532:38541   */\n      dup4\n        /* \"#utility.yul\":38528:38546   */\n      add\n        /* \"#utility.yul\":38519:38525   */\n      dup8\n        /* \"#utility.yul\":38477:38547   */\n      tag_430\n      jump\t// in\n    tag_886:\n        /* \"#utility.yul\":38557:38627   */\n      tag_887\n        /* \"#utility.yul\":38623:38625   */\n      0x40\n        /* \"#utility.yul\":38612:38621   */\n      dup4\n        /* \"#utility.yul\":38608:38626   */\n      add\n        /* \"#utility.yul\":38599:38605   */\n      dup7\n        /* \"#utility.yul\":38557:38627   */\n      tag_465\n      jump\t// in\n    tag_887:\n        /* \"#utility.yul\":38637:38707   */\n      tag_888\n        /* \"#utility.yul\":38703:38705   */\n      0x60\n        /* \"#utility.yul\":38692:38701   */\n      dup4\n        /* \"#utility.yul\":38688:38706   */\n      add\n        /* \"#utility.yul\":38679:38685   */\n      dup6\n        /* \"#utility.yul\":38637:38707   */\n      tag_455\n      jump\t// in\n    tag_888:\n        /* \"#utility.yul\":38717:38788   */\n      tag_889\n        /* \"#utility.yul\":38783:38786   */\n      0x80\n        /* \"#utility.yul\":38772:38781   */\n      dup4\n        /* \"#utility.yul\":38768:38787   */\n      add\n        /* \"#utility.yul\":38759:38765   */\n      dup5\n        /* \"#utility.yul\":38717:38788   */\n      tag_455\n      jump\t// in\n    tag_889:\n        /* \"#utility.yul\":38147:38795   */\n      swap7\n      swap6\n      pop\n      pop\n      pop\n      pop\n      pop\n      pop\n      jump\t// out\n        /* \"#utility.yul\":38801:39133   */\n    tag_412:\n        /* \"#utility.yul\":38922:38926   */\n      0x00\n        /* \"#utility.yul\":38960:38962   */\n      0x40\n        /* \"#utility.yul\":38949:38958   */\n      dup3\n        /* \"#utility.yul\":38945:38963   */\n      add\n        /* \"#utility.yul\":38937:38963   */\n      swap1\n      pop\n        /* \"#utility.yul\":38973:39044   */\n      tag_891\n        /* \"#utility.yul\":39041:39042   */\n      0x00\n        /* \"#utility.yul\":39030:39039   */\n      dup4\n        /* \"#utility.yul\":39026:39043   */\n      add\n        /* \"#utility.yul\":39017:39023   */\n      dup6\n        /* \"#utility.yul\":38973:39044   */\n      tag_440\n      jump\t// in\n    tag_891:\n        /* \"#utility.yul\":39054:39126   */\n      tag_892\n        /* \"#utility.yul\":39122:39124   */\n      0x20\n        /* \"#utility.yul\":39111:39120   */\n      dup4\n        /* \"#utility.yul\":39107:39125   */\n      add\n        /* \"#utility.yul\":39098:39104   */\n      dup5\n        /* \"#utility.yul\":39054:39126   */\n      tag_453\n      jump\t// in\n    tag_892:\n        /* \"#utility.yul\":38801:39133   */\n      swap4\n      swap3\n      pop\n      pop\n      pop\n      jump\t// out\n\n    auxdata: 0xa2646970667358221220bb3ecac2bcf5724ec0434d843da10eac2c204afae2fb1ffcada8eee73732c74664736f6c634300081e0033\n}\n",
				"bytecode": {
					"linkReferences": {},
					"object": "60a0604052620186a060075f6101000a81548163ffffffff021916908363ffffffff1602179055506003600760046101000a81548161ffff021916908361ffff1602179055506001600760066101000a81548163ffffffff021916908363ffffffff160217905550629896806008556101f46009556103e8600a556103e8600b5534801561008b575f5ffd5b50604051613e98380380613e9883398181016040528101906100ad9190610541565b8260015f819055508073ffffffffffffffffffffffffffffffffffffffff1660808173ffffffffffffffffffffffffffffffffffffffff1681525050508560025f6101000a81548173ffffffffffffffffffffffffffffffffffffffff021916908373ffffffffffffffffffffffffffffffffffffffff1602179055508460035f6101000a81548173ffffffffffffffffffffffffffffffffffffffff021916908373ffffffffffffffffffffffffffffffffffffffff1602179055508360045f6101000a81548173ffffffffffffffffffffffffffffffffffffffff021916908373ffffffffffffffffffffffffffffffffffffffff1602179055508260055f6101000a81548173ffffffffffffffffffffffffffffffffffffffff021916908373ffffffffffffffffffffffffffffffffffffffff16021790555081600560146101000a81548167ffffffffffffffff021916908367ffffffffffffffff160217905550806006819055508573ffffffffffffffffffffffffffffffffffffffff1663313ce5676040518163ffffffff1660e01b8152600401602060405180830381865afa92505050801561028257506040513d601f19601f8201168201806040525081019061027f9190610600565b60015b6102a7576006600460146101000a81548160ff021916908360ff1602179055506102c4565b80600460146101000a81548160ff021916908360ff160217905550505b6102d65f5f1b3361031360201b60201c565b506103077fa49807205ce4d355092ef5a8a18f56e8913cf4a201fbe287825b095693c217753361031360201b60201c565b5050505050505061062b565b5f610324838361040860201b60201c565b6103fe576001805f8581526020019081526020015f205f015f8473ffffffffffffffffffffffffffffffffffffffff1673ffffffffffffffffffffffffffffffffffffffff1681526020019081526020015f205f6101000a81548160ff02191690831515021790555061039b61046c60201b60201c565b73ffffffffffffffffffffffffffffffffffffffff168273ffffffffffffffffffffffffffffffffffffffff16847f2f8788117e7eff1d82e926ec794901d17c78024a50270940304540a733656f0d60405160405180910390a460019050610402565b5f90505b92915050565b5f60015f8481526020019081526020015f205f015f8373ffffffffffffffffffffffffffffffffffffffff1673ffffffffffffffffffffffffffffffffffffffff1681526020019081526020015f205f9054906101000a900460ff16905092915050565b5f33905090565b5f5ffd5b5f73ffffffffffffffffffffffffffffffffffffffff82169050919050565b5f6104a082610477565b9050919050565b6104b081610496565b81146104ba575f5ffd5b50565b5f815190506104cb816104a7565b92915050565b5f67ffffffffffffffff82169050919050565b6104ed816104d1565b81146104f7575f5ffd5b50565b5f81519050610508816104e4565b92915050565b5f819050919050565b6105208161050e565b811461052a575f5ffd5b50565b5f8151905061053b81610517565b92915050565b5f5f5f5f5f5f60c0878903121561055b5761055a610473565b5b5f61056889828a016104bd565b965050602061057989828a016104bd565b955050604061058a89828a016104bd565b945050606061059b89828a016104bd565b93505060806105ac89828a016104fa565b92505060a06105bd89828a0161052d565b9150509295509295509295565b5f60ff82169050919050565b6105df816105ca565b81146105e9575f5ffd5b50565b5f815190506105fa816105d6565b92915050565b5f6020828403121561061557610614610473565b5b5f610622848285016105ec565b91505092915050565b60805161384e61064a5f395f8181610749015261079d015261384e5ff3fe608060405234801561000f575f5ffd5b5060043610610204575f3560e01c8063741bef1a11610118578063c1cbbca7116100ab578063e507a8a41161007a578063e507a8a4146105d7578063e611d691146105e1578063e68b7757146105fd578063e9cbd82214610619578063eb03924d1461063757610204565b8063c1cbbca71461054b578063d4be74ba14610567578063d547741f14610585578063d83adc35146105a157610204565b8063937e09b1116100e7578063937e09b1146104d5578063a217fddf146104f3578063b0fb162f14610511578063b197df541461052f57610204565b8063741bef1a1461044b57806375b238fc146104695780637ccfd7fc1461048757806391d14854146104a557610204565b806324f746971161019b5780633b97e8561161016a5780633b97e856146103a05780635312ea8e146103be5780635f39e7f0146103da57806361728f3914610411578063658e28a41461042f57610204565b806324f746971461032c5780632f2ff15d1461034a57806336568abe146103665780633b2bcbf11461038257610204565b8063163c67c2116101d7578063163c67c2146102925780631a1d9252146102b05780631fe543e3146102e0578063248a9ca3146102fc57610204565b806301ffc9a714610208578063034f40831461023857806309c1ba2e1461025657806313f14fee14610274575b5f5ffd5b610222600480360381019061021d9190612559565b610653565b60405161022f919061259e565b60405180910390f35b6102406106cc565b60405161024d91906125cf565b60405180910390f35b61025e6106d2565b60405161026b919061260a565b60405180910390f35b61027c6106ec565b604051610289919061269d565b60405180910390f35b61029a610711565b6040516102a791906125cf565b60405180910390f35b6102ca60048036038101906102c591906126e0565b610717565b6040516102d7919061272b565b60405180910390f35b6102fa60048036038101906102f59190612894565b610747565b005b61031660048036038101906103119190612921565b610807565b604051610323919061295b565b60405180910390f35b610334610824565b6040516103419190612992565b60405180910390f35b610364600480360381019061035f91906129d5565b610839565b005b610380600480360381019061037b91906129d5565b61085b565b005b61038a6108d6565b6040516103979190612a33565b60405180910390f35b6103a86108fb565b6040516103b59190612a67565b60405180910390f35b6103d860048036038101906103d391906126e0565b61090e565b005b6103f460048036038101906103ef9190612a80565b6109ca565b604051610408989796959493929190612aab565b60405180910390f35b610419610a1a565b604051610426919061295b565b60405180910390f35b610449600480360381019061044491906126e0565b610a20565b005b610453610c4e565b6040516104609190612b47565b60405180910390f35b610471610c73565b60405161047e919061295b565b60405180910390f35b61048f610c97565b60405161049c9190612992565b60405180910390f35b6104bf60048036038101906104ba91906129d5565b610cad565b6040516104cc919061259e565b60405180910390f35b6104dd610d11565b6040516104ea91906125cf565b60405180910390f35b6104fb610d17565b604051610508919061295b565b60405180910390f35b610519610d1d565b6040516105269190612b7c565b60405180910390f35b61054960048036038101906105449190612b95565b610d31565b005b610565600480360381019061056091906126e0565b610f6d565b005b61056f611386565b60405161057c91906125cf565b60405180910390f35b61059f600480360381019061059a91906129d5565b61138c565b005b6105bb60048036038101906105b69190612a80565b6113ae565b6040516105ce9796959493929190612bd3565b60405180910390f35b6105df6115a0565b005b6105fb60048036038101906105f69190612cbe565b611947565b005b61061760048036038101906106129190612a80565b6119e5565b005b610621611a53565b60405161062e9190612d42565b60405180910390f35b610651600480360381019061064c9190612d5b565b611a78565b005b5f7f7965db0b000000000000000000000000000000000000000000000000000000007bffffffffffffffffffffffffffffffffffffffffffffffffffffffff1916827bffffffffffffffffffffffffffffffffffffffffffffffffffffffff191614806106c557506106c482611b94565b5b9050919050565b60095481565b600560149054906101000a900467ffffffffffffffff1681565b60045f9054906101000a900473ffffffffffffffffffffffffffffffffffffffff1681565b600b5481565b600d602052805f5260405f205f915054906101000a900473ffffffffffffffffffffffffffffffffffffffff1681565b7f000000000000000000000000000000000000000000000000000000000000000073ffffffffffffffffffffffffffffffffffffffff163373ffffffffffffffffffffffffffffffffffffffff16146107f957337f00000000000000000000000000000000000000000000000000000000000000006040517f1cf993f40000000000000000000000000000000000000000000000000000000081526004016107f0929190612dbf565b60405180910390fd5b6108038282611bfd565b5050565b5f60015f8381526020019081526020015f20600101549050919050565b60075f9054906101000a900463ffffffff1681565b61084282610807565b61084b81611edb565b6108558383611eef565b50505050565b610863611fd8565b73ffffffffffffffffffffffffffffffffffffffff168173ffffffffffffffffffffffffffffffffffffffff16146108c7576040517f6697b23200000000000000000000000000000000000000000000000000000000815260040160405180910390fd5b6108d18282611fdf565b505050565b60055f9054906101000a900473ffffffffffffffffffffffffffffffffffffffff1681565b600460149054906101000a900460ff1681565b7fa49807205ce4d355092ef5a8a18f56e8913cf4a201fbe287825b095693c2177561093881611edb565b5f821161097a576040517f08c379a000000000000000000000000000000000000000000000000000000000815260040161097190612e40565b60405180910390fd5b6109c6338360025f9054906101000a900473ffffffffffffffffffffffffffffffffffffffff1673ffffffffffffffffffffffffffffffffffffffff166120c99092919063ffffffff16565b5050565b600c602052805f5260405f205f91509050805f015490806001015490806002015490806003015490806004015490806005015490806006015f9054906101000a900460ff16908060070154905088565b60065481565b610a28612148565b5f600c5f3373ffffffffffffffffffffffffffffffffffffffff1673ffffffffffffffffffffffffffffffffffffffff1681526020019081526020015f209050806006015f9054906101000a900460ff16610ab8576040517f08c379a0000000000000000000000000000000000000000000000000000000008152600401610aaf90612ea8565b60405180910390fd5b5f8211610afa576040517f08c379a0000000000000000000000000000000000000000000000000000000008152600401610af190612e40565b60405180910390fd5b8060040154821115610b41576040517f08c379a0000000000000000000000000000000000000000000000000000000008152600401610b3890612f36565b60405180910390fd5b60045f9054906101000a900473ffffffffffffffffffffffffffffffffffffffff1673ffffffffffffffffffffffffffffffffffffffff16632e1a7d4d836040518263ffffffff1660e01b8152600401610b9b91906125cf565b6020604051808303815f875af1158015610bb7573d5f5f3e3d5ffd5b505050506040513d601f19601f82011682018060405250810190610bdb9190612f68565b5081816004015f828254610bef9190612fc0565b92505081905550610c42338360025f9054906101000a900473ffffffffffffffffffffffffffffffffffffffff1673ffffffffffffffffffffffffffffffffffffffff166120c99092919063ffffffff16565b50610c4b612195565b50565b60035f9054906101000a900473ffffffffffffffffffffffffffffffffffffffff1681565b7fa49807205ce4d355092ef5a8a18f56e8913cf4a201fbe287825b095693c2177581565b600760069054906101000a900463ffffffff1681565b5f60015f8481526020019081526020015f205f015f8373ffffffffffffffffffffffffffffffffffffffff1673ffffffffffffffffffffffffffffffffffffffff1681526020019081526020015f205f9054906101000a900460ff16905092915050565b60085481565b5f5f1b81565b600760049054906101000a900461ffff1681565b5f8211610d73576040517f08c379a0000000000000000000000000000000000000000000000000000000008152600401610d6a90613063565b60405180910390fd5b600854811015610db8576040517f08c379a0000000000000000000000000000000000000000000000000000000008152600401610daf906130cb565b60405180910390fd5b5f600c5f3373ffffffffffffffffffffffffffffffffffffffff1673ffffffffffffffffffffffffffffffffffffffff1681526020019081526020015f206002015414610e3a576040517f08c379a0000000000000000000000000000000000000000000000000000000008152600401610e3190613133565b60405180910390fd5b6040518061010001604052808381526020018281526020014281526020015f81526020015f81526020015f81526020015f151581526020015f815250600c5f3373ffffffffffffffffffffffffffffffffffffffff1673ffffffffffffffffffffffffffffffffffffffff1681526020019081526020015f205f820151815f01556020820151816001015560408201518160020155606082015181600301556080820151816004015560a0820151816005015560c0820151816006015f6101000a81548160ff02191690831515021790555060e082015181600701559050503373ffffffffffffffffffffffffffffffffffffffff167f89d3f1cdfad4e5c26535ac23dc61cf9e975667801747518f01b1b653545d736a8383604051610f61929190613151565b60405180910390a25050565b610f75612148565b5f600c5f3373ffffffffffffffffffffffffffffffffffffffff1673ffffffffffffffffffffffffffffffffffffffff1681526020019081526020015f2090505f816002015411610ffb576040517f08c379a0000000000000000000000000000000000000000000000000000000008152600401610ff2906131c2565b60405180910390fd5b806006015f9054906101000a900460ff161561104c576040517f08c379a00000000000000000000000000000000000000000000000000000000081526004016110439061322a565b60405180910390fd5b600854821015611091576040517f08c379a0000000000000000000000000000000000000000000000000000000008152600401611088906130cb565b60405180910390fd5b6110df33308460025f9054906101000a900473ffffffffffffffffffffffffffffffffffffffff1673ffffffffffffffffffffffffffffffffffffffff1661219e909392919063ffffffff16565b60025f9054906101000a900473ffffffffffffffffffffffffffffffffffffffff1673ffffffffffffffffffffffffffffffffffffffff1663095ea7b360045f9054906101000a900473ffffffffffffffffffffffffffffffffffffffff16846040518363ffffffff1660e01b815260040161115c929190613248565b6020604051808303815f875af1158015611178573d5f5f3e3d5ffd5b505050506040513d601f19601f8201168201806040525081019061119c9190613299565b5060045f9054906101000a900473ffffffffffffffffffffffffffffffffffffffff1673ffffffffffffffffffffffffffffffffffffffff1663b6b55f25836040518263ffffffff1660e01b81526004016111f791906125cf565b6020604051808303815f875af1158015611213573d5f5f3e3d5ffd5b505050506040513d601f19601f820116820180604052508101906112379190613299565b5081816004015f82825461124b91906132c4565b925050819055505f81600301541480611277575061126c8160030154612220565b61127542612220565b115b15611298576001816005015f82825461129091906132c4565b925050819055505b4281600301819055503373ffffffffffffffffffffffffffffffffffffffff167f6770260ea820d2f539364e7617e021543aaf6d192f2fd2a47c20db6bd99a4eb9836040516112e791906125cf565b60405180910390a2600a546112fd612710612237565b101561130c5761130b612277565b5b805f015481600501541061137a576001816006015f6101000a81548160ff0219169083151502179055503373ffffffffffffffffffffffffffffffffffffffff167ff686c0f42fac659a335d049e2831f235a2ec4fb12aca60d576f0296e7848868b60405160405180910390a25b50611383612195565b50565b600a5481565b61139582610807565b61139e81611edb565b6113a88383611fdf565b50505050565b5f5f5f5f5f5f5f5f600c5f8a73ffffffffffffffffffffffffffffffffffffffff1673ffffffffffffffffffffffffffffffffffffffff1681526020019081526020015f209050805f01549750806001015496508060050154955080600401549450806006015f9054906101000a900460ff16935060045f9054906101000a900473ffffffffffffffffffffffffffffffffffffffff1673ffffffffffffffffffffffffffffffffffffffff166364c339778a6040518263ffffffff1660e01b815260040161147d919061272b565b602060405180830381865afa158015611498573d5f5f3e3d5ffd5b505050506040513d601f19601f820116820180604052508101906114bc9190612f68565b92505f60045f9054906101000a900473ffffffffffffffffffffffffffffffffffffffff1673ffffffffffffffffffffffffffffffffffffffff1663962ca4966040518163ffffffff1660e01b8152600401602060405180830381865afa158015611529573d5f5f3e3d5ffd5b505050506040513d601f19601f8201168201806040525081019061154d9190612f68565b90506201d4c0818761155f91906132f7565b6115699190613365565b92506127106009548461157c91906132f7565b6115869190613365565b836115919190612fc0565b92505050919395979092949650565b6115a8612148565b5f600c5f3373ffffffffffffffffffffffffffffffffffffffff1673ffffffffffffffffffffffffffffffffffffffff1681526020019081526020015f209050806006015f9054906101000a900460ff16611638576040517f08c379a000000000000000000000000000000000000000000000000000000000815260040161162f90612ea8565b60405180910390fd5b5f8160070154148061165c575062278d00816007015461165891906132c4565b4210155b61169b576040517f08c379a0000000000000000000000000000000000000000000000000000000008152600401611692906133df565b60405180910390fd5b5f60045f9054906101000a900473ffffffffffffffffffffffffffffffffffffffff1673ffffffffffffffffffffffffffffffffffffffff166364c33977336040518263ffffffff1660e01b81526004016116f6919061272b565b602060405180830381865afa158015611711573d5f5f3e3d5ffd5b505050506040513d601f19601f820116820180604052508101906117359190612f68565b90505f8111611779576040517f08c379a000000000000000000000000000000000000000000000000000000000815260040161177090613447565b60405180910390fd5b5f6127106009548361178b91906132f7565b6117959190613365565b90505f81836117a49190612fc0565b905060045f9054906101000a900473ffffffffffffffffffffffffffffffffffffffff1673ffffffffffffffffffffffffffffffffffffffff16632e1a7d4d846040518263ffffffff1660e01b815260040161180091906125cf565b6020604051808303815f875af115801561181c573d5f5f3e3d5ffd5b505050506040513d601f19601f820116820180604052508101906118409190612f68565b5061188d338260025f9054906101000a900473ffffffffffffffffffffffffffffffffffffffff1673ffffffffffffffffffffffffffffffffffffffff166120c99092919063ffffffff16565b5f8211156118e2576118e1308360025f9054906101000a900473ffffffffffffffffffffffffffffffffffffffff1673ffffffffffffffffffffffffffffffffffffffff166120c99092919063ffffffff16565b5b4284600701819055503373ffffffffffffffffffffffffffffffffffffffff167faed495d70193dd915b96156dc90595c95aa5cc4f6985a2cd79286232d96ae8e28260405161193191906125cf565b60405180910390a250505050611945612195565b565b7fa49807205ce4d355092ef5a8a18f56e8913cf4a201fbe287825b095693c2177561197181611edb565b84600560146101000a81548167ffffffffffffffff021916908367ffffffffffffffff160217905550836006819055508260075f6101000a81548163ffffffff021916908363ffffffff16021790555081600760046101000a81548161ffff021916908361ffff1602179055505050505050565b7fa49807205ce4d355092ef5a8a18f56e8913cf4a201fbe287825b095693c21775611a0f81611edb565b8160045f6101000a81548173ffffffffffffffffffffffffffffffffffffffff021916908373ffffffffffffffffffffffffffffffffffffffff1602179055505050565b60025f9054906101000a900473ffffffffffffffffffffffffffffffffffffffff1681565b7fa49807205ce4d355092ef5a8a18f56e8913cf4a201fbe287825b095693c21775611aa281611edb565b6107d0841115611ae7576040517f08c379a0000000000000000000000000000000000000000000000000000000008152600401611ade906134af565b60405180910390fd5b611388831115611b2c576040517f08c379a0000000000000000000000000000000000000000000000000000000008152600401611b2390613517565b60405180910390fd5b611388821115611b71576040517f08c379a0000000000000000000000000000000000000000000000000000000008152600401611b689061357f565b60405180910390fd5b846008819055508360098190555082600a8190555081600b819055505050505050565b5f7f01ffc9a7000000000000000000000000000000000000000000000000000000007bffffffffffffffffffffffffffffffffffffffffffffffffffffffff1916827bffffffffffffffffffffffffffffffffffffffffffffffffffffffff1916149050919050565b5f600d5f8481526020019081526020015f205f9054906101000a900473ffffffffffffffffffffffffffffffffffffffff1690505f73ffffffffffffffffffffffffffffffffffffffff168173ffffffffffffffffffffffffffffffffffffffff1603611c9f576040517f08c379a0000000000000000000000000000000000000000000000000000000008152600401611c96906135e7565b60405180910390fd5b60146064835f81518110611cb657611cb5613605565b5b6020026020010151611cc89190613632565b1015611ea3575f600c5f8373ffffffffffffffffffffffffffffffffffffffff1673ffffffffffffffffffffffffffffffffffffffff1681526020019081526020015f2090505f612710600b548360010154611d2491906132f7565b611d2e9190613365565b9050611d9d60045f9054906101000a900473ffffffffffffffffffffffffffffffffffffffff168260025f9054906101000a900473ffffffffffffffffffffffffffffffffffffffff1673ffffffffffffffffffffffffffffffffffffffff166120c99092919063ffffffff16565b60045f9054906101000a900473ffffffffffffffffffffffffffffffffffffffff1673ffffffffffffffffffffffffffffffffffffffff1663b6b55f25826040518263ffffffff1660e01b8152600401611df791906125cf565b6020604051808303815f875af1158015611e13573d5f5f3e3d5ffd5b505050506040513d601f19601f82011682018060405250810190611e379190613299565b5080826004015f828254611e4b91906132c4565b925050819055508273ffffffffffffffffffffffffffffffffffffffff167f2e798dd4337e515c79b64c40e1a93baa1aefbd9180ac7905e02508edd7971e5082604051611e9891906125cf565b60405180910390a250505b600d5f8481526020019081526020015f205f6101000a81549073ffffffffffffffffffffffffffffffffffffffff0219169055505050565b611eec81611ee7611fd8565b612407565b50565b5f611efa8383610cad565b611fce576001805f8581526020019081526020015f205f015f8473ffffffffffffffffffffffffffffffffffffffff1673ffffffffffffffffffffffffffffffffffffffff1681526020019081526020015f205f6101000a81548160ff021916908315150217905550611f6b611fd8565b73ffffffffffffffffffffffffffffffffffffffff168273ffffffffffffffffffffffffffffffffffffffff16847f2f8788117e7eff1d82e926ec794901d17c78024a50270940304540a733656f0d60405160405180910390a460019050611fd2565b5f90505b92915050565b5f33905090565b5f611fea8383610cad565b156120bf575f60015f8581526020019081526020015f205f015f8473ffffffffffffffffffffffffffffffffffffffff1673ffffffffffffffffffffffffffffffffffffffff1681526020019081526020015f205f6101000a81548160ff02191690831515021790555061205c611fd8565b73ffffffffffffffffffffffffffffffffffffffff168273ffffffffffffffffffffffffffffffffffffffff16847ff6391f5c32d9c69d2a47ea670b442974b53935d1edc7fd64eb21e047a839171b60405160405180910390a4600190506120c3565b5f90505b92915050565b612143838473ffffffffffffffffffffffffffffffffffffffff1663a9059cbb85856040516024016120fc929190613248565b604051602081830303815290604052915060e01b6020820180517bffffffffffffffffffffffffffffffffffffffffffffffffffffffff8381831617835250505050612458565b505050565b60025f540361218c576040517f08c379a0000000000000000000000000000000000000000000000000000000008152600401612183906136ac565b60405180910390fd5b60025f81905550565b60015f81905550565b61221a848573ffffffffffffffffffffffffffffffffffffffff166323b872dd8686866040516024016121d3939291906136ca565b604051602081830303815290604052915060e01b6020820180517bffffffffffffffffffffffffffffffffffffffffffffffffffffffff8381831617835250505050612458565b50505050565b5f62278d00826122309190613365565b9050919050565b5f8142443360405160200161224e93929190613764565b604051602081830303815290604052805190602001205f1c6122709190613632565b9050919050565b5f60055f9054906101000a900473ffffffffffffffffffffffffffffffffffffffff1673ffffffffffffffffffffffffffffffffffffffff16635d3b1d30600654600560149054906101000a900467ffffffffffffffff16600760049054906101000a900461ffff1660075f9054906101000a900463ffffffff16600760069054906101000a900463ffffffff166040518663ffffffff1660e01b81526004016123259594939291906137a0565b6020604051808303815f875af1158015612341573d5f5f3e3d5ffd5b505050506040513d601f19601f820116820180604052508101906123659190612f68565b905033600d5f8381526020019081526020015f205f6101000a81548173ffffffffffffffffffffffffffffffffffffffff021916908373ffffffffffffffffffffffffffffffffffffffff1602179055503373ffffffffffffffffffffffffffffffffffffffff167fec5728c504463ddfd82a13c3a3525fec41178a9e98ac507b599b20efb2d961da826040516123fc91906125cf565b60405180910390a250565b6124118282610cad565b6124545780826040517fe2517d3f00000000000000000000000000000000000000000000000000000000815260040161244b9291906137f1565b60405180910390fd5b5050565b5f5f60205f8451602086015f885af180612477576040513d5f823e3d81fd5b3d92505f519150505f82146124905760018114156124ab565b5f8473ffffffffffffffffffffffffffffffffffffffff163b145b156124ed57836040517f5274afe70000000000000000000000000000000000000000000000000000000081526004016124e4919061272b565b60405180910390fd5b50505050565b5f604051905090565b5f5ffd5b5f5ffd5b5f7fffffffff0000000000000000000000000000000000000000000000000000000082169050919050565b61253881612504565b8114612542575f5ffd5b50565b5f813590506125538161252f565b92915050565b5f6020828403121561256e5761256d6124fc565b5b5f61257b84828501612545565b91505092915050565b5f8115159050919050565b61259881612584565b82525050565b5f6020820190506125b15f83018461258f565b92915050565b5f819050919050565b6125c9816125b7565b82525050565b5f6020820190506125e25f8301846125c0565b92915050565b5f67ffffffffffffffff82169050919050565b612604816125e8565b82525050565b5f60208201905061261d5f8301846125fb565b92915050565b5f73ffffffffffffffffffffffffffffffffffffffff82169050919050565b5f819050919050565b5f61266561266061265b84612623565b612642565b612623565b9050919050565b5f6126768261264b565b9050919050565b5f6126878261266c565b9050919050565b6126978161267d565b82525050565b5f6020820190506126b05f83018461268e565b92915050565b6126bf816125b7565b81146126c9575f5ffd5b50565b5f813590506126da816126b6565b92915050565b5f602082840312156126f5576126f46124fc565b5b5f612702848285016126cc565b91505092915050565b5f61271582612623565b9050919050565b6127258161270b565b82525050565b5f60208201905061273e5f83018461271c565b92915050565b5f5ffd5b5f601f19601f8301169050919050565b7f4e487b71000000000000000000000000000000000000000000000000000000005f52604160045260245ffd5b61278e82612748565b810181811067ffffffffffffffff821117156127ad576127ac612758565b5b80604052505050565b5f6127bf6124f3565b90506127cb8282612785565b919050565b5f67ffffffffffffffff8211156127ea576127e9612758565b5b602082029050602081019050919050565b5f5ffd5b5f61281161280c846127d0565b6127b6565b90508083825260208201905060208402830185811115612834576128336127fb565b5b835b8181101561285d578061284988826126cc565b845260208401935050602081019050612836565b5050509392505050565b5f82601f83011261287b5761287a612744565b5b813561288b8482602086016127ff565b91505092915050565b5f5f604083850312156128aa576128a96124fc565b5b5f6128b7858286016126cc565b925050602083013567ffffffffffffffff8111156128d8576128d7612500565b5b6128e485828601612867565b9150509250929050565b5f819050919050565b612900816128ee565b811461290a575f5ffd5b50565b5f8135905061291b816128f7565b92915050565b5f60208284031215612936576129356124fc565b5b5f6129438482850161290d565b91505092915050565b612955816128ee565b82525050565b5f60208201905061296e5f83018461294c565b92915050565b5f63ffffffff82169050919050565b61298c81612974565b82525050565b5f6020820190506129a55f830184612983565b92915050565b6129b48161270b565b81146129be575f5ffd5b50565b5f813590506129cf816129ab565b92915050565b5f5f604083850312156129eb576129ea6124fc565b5b5f6129f88582860161290d565b9250506020612a09858286016129c1565b9150509250929050565b5f612a1d8261266c565b9050919050565b612a2d81612a13565b82525050565b5f602082019050612a465f830184612a24565b92915050565b5f60ff82169050919050565b612a6181612a4c565b82525050565b5f602082019050612a7a5f830184612a58565b92915050565b5f60208284031215612a9557612a946124fc565b5b5f612aa2848285016129c1565b91505092915050565b5f61010082019050612abf5f83018b6125c0565b612acc602083018a6125c0565b612ad960408301896125c0565b612ae660608301886125c0565b612af360808301876125c0565b612b0060a08301866125c0565b612b0d60c083018561258f565b612b1a60e08301846125c0565b9998505050505050505050565b5f612b318261266c565b9050919050565b612b4181612b27565b82525050565b5f602082019050612b5a5f830184612b38565b92915050565b5f61ffff82169050919050565b612b7681612b60565b82525050565b5f602082019050612b8f5f830184612b6d565b92915050565b5f5f60408385031215612bab57612baa6124fc565b5b5f612bb8858286016126cc565b9250506020612bc9858286016126cc565b9150509250929050565b5f60e082019050612be65f83018a6125c0565b612bf360208301896125c0565b612c0060408301886125c0565b612c0d60608301876125c0565b612c1a608083018661258f565b612c2760a08301856125c0565b612c3460c08301846125c0565b98975050505050505050565b612c49816125e8565b8114612c53575f5ffd5b50565b5f81359050612c6481612c40565b92915050565b612c7381612974565b8114612c7d575f5ffd5b50565b5f81359050612c8e81612c6a565b92915050565b612c9d81612b60565b8114612ca7575f5ffd5b50565b5f81359050612cb881612c94565b92915050565b5f5f5f5f60808587031215612cd657612cd56124fc565b5b5f612ce387828801612c56565b9450506020612cf48782880161290d565b9350506040612d0587828801612c80565b9250506060612d1687828801612caa565b91505092959194509250565b5f612d2c8261266c565b9050919050565b612d3c81612d22565b82525050565b5f602082019050612d555f830184612d33565b92915050565b5f5f5f5f60808587031215612d7357612d726124fc565b5b5f612d80878288016126cc565b9450506020612d91878288016126cc565b9350506040612da2878288016126cc565b9250506060612db3878288016126cc565b91505092959194509250565b5f604082019050612dd25f83018561271c565b612ddf602083018461271c565b9392505050565b5f82825260208201905092915050565b7f416d6f756e74206d7573742062652067726561746572207468616e20300000005f82015250565b5f612e2a601d83612de6565b9150612e3582612df6565b602082019050919050565b5f6020820190508181035f830152612e5781612e1e565b9050919050565b7f4e6f7420696e207265746972656d656e742070686173650000000000000000005f82015250565b5f612e92601783612de6565b9150612e9d82612e5e565b602082019050919050565b5f6020820190508181035f830152612ebf81612e86565b9050919050565b7f416d6f756e74206578636565647320746f74616c20636f6e747269627574696f5f8201527f6e00000000000000000000000000000000000000000000000000000000000000602082015250565b5f612f20602183612de6565b9150612f2b82612ec6565b604082019050919050565b5f6020820190508181035f830152612f4d81612f14565b9050919050565b5f81519050612f62816126b6565b92915050565b5f60208284031215612f7d57612f7c6124fc565b5b5f612f8a84828501612f54565b91505092915050565b7f4e487b71000000000000000000000000000000000000000000000000000000005f52601160045260245ffd5b5f612fca826125b7565b9150612fd5836125b7565b9250828203905081811115612fed57612fec612f93565b5b92915050565b7f546172676574206d6f6e746873206d75737420626520677265617465722074685f8201527f616e203000000000000000000000000000000000000000000000000000000000602082015250565b5f61304d602483612de6565b915061305882612ff3565b604082019050919050565b5f6020820190508181035f83015261307a81613041565b9050919050565b7f436f6e747269627574696f6e2062656c6f77206d696e696d756d0000000000005f82015250565b5f6130b5601a83612de6565b91506130c082613081565b602082019050919050565b5f6020820190508181035f8301526130e2816130a9565b9050919050565b7f506c616e20616c726561647920657869737473000000000000000000000000005f82015250565b5f61311d601383612de6565b9150613128826130e9565b602082019050919050565b5f6020820190508181035f83015261314a81613111565b9050919050565b5f6040820190506131645f8301856125c0565b61317160208301846125c0565b9392505050565b7f4e6f20706c616e206578697374730000000000000000000000000000000000005f82015250565b5f6131ac600e83612de6565b91506131b782613178565b602082019050919050565b5f6020820190508181035f8301526131d9816131a0565b9050919050565b7f416c726561647920696e207265746972656d656e7420706861736500000000005f82015250565b5f613214601b83612de6565b915061321f826131e0565b602082019050919050565b5f6020820190508181035f83015261324181613208565b9050919050565b5f60408201905061325b5f83018561271c565b61326860208301846125c0565b9392505050565b61327881612584565b8114613282575f5ffd5b50565b5f815190506132938161326f565b92915050565b5f602082840312156132ae576132ad6124fc565b5b5f6132bb84828501613285565b91505092915050565b5f6132ce826125b7565b91506132d9836125b7565b92508282019050808211156132f1576132f0612f93565b5b92915050565b5f613301826125b7565b915061330c836125b7565b925082820261331a816125b7565b9150828204841483151761333157613330612f93565b5b5092915050565b7f4e487b71000000000000000000000000000000000000000000000000000000005f52601260045260245ffd5b5f61336f826125b7565b915061337a836125b7565b92508261338a57613389613338565b5b828204905092915050565b7f43616e206f6e6c79207769746864726177206f6e636520706572206d6f6e74685f82015250565b5f6133c9602083612de6565b91506133d482613395565b602082019050919050565b5f6020820190508181035f8301526133f6816133bd565b9050919050565b7f4e6f207969656c6420617661696c61626c6500000000000000000000000000005f82015250565b5f613431601283612de6565b915061343c826133fd565b602082019050919050565b5f6020820190508181035f83015261345e81613425565b9050919050565b7f46656520746f6f206869676800000000000000000000000000000000000000005f82015250565b5f613499600c83612de6565b91506134a482613465565b602082019050919050565b5f6020820190508181035f8301526134c68161348d565b9050919050565b7f50726f626162696c69747920746f6f20686967680000000000000000000000005f82015250565b5f613501601483612de6565b915061350c826134cd565b602082019050919050565b5f6020820190508181035f83015261352e816134f5565b9050919050565b7f426f6e757320746f6f20686967680000000000000000000000000000000000005f82015250565b5f613569600e83612de6565b915061357482613535565b602082019050919050565b5f6020820190508181035f8301526135968161355d565b9050919050565b7f556e6b6e6f776e207265717565737420494400000000000000000000000000005f82015250565b5f6135d1601283612de6565b91506135dc8261359d565b602082019050919050565b5f6020820190508181035f8301526135fe816135c5565b9050919050565b7f4e487b71000000000000000000000000000000000000000000000000000000005f52603260045260245ffd5b5f61363c826125b7565b9150613647836125b7565b92508261365757613656613338565b5b828206905092915050565b7f5265656e7472616e637947756172643a207265656e7472616e742063616c6c005f82015250565b5f613696601f83612de6565b91506136a182613662565b602082019050919050565b5f6020820190508181035f8301526136c38161368a565b9050919050565b5f6060820190506136dd5f83018661271c565b6136ea602083018561271c565b6136f760408301846125c0565b949350505050565b5f819050919050565b613719613714826125b7565b6136ff565b82525050565b5f8160601b9050919050565b5f6137358261371f565b9050919050565b5f6137468261372b565b9050919050565b61375e6137598261270b565b61373c565b82525050565b5f61376f8286613708565b60208201915061377f8285613708565b60208201915061378f828461374d565b601482019150819050949350505050565b5f60a0820190506137b35f83018861294c565b6137c060208301876125fb565b6137cd6040830186612b6d565b6137da6060830185612983565b6137e76080830184612983565b9695505050505050565b5f6040820190506138045f83018561271c565b613811602083018461294c565b939250505056fea2646970667358221220bb3ecac2bcf5724ec0434d843da10eac2c204afae2fb1ffcada8eee73732c74664736f6c634300081e0033",
					"opcodes": "PUSH1 0xA0 PUSH1 0x40 MSTORE PUSH3 0x186A0 PUSH1 0x7 PUSH0 PUSH2 0x100 EXP DUP2 SLOAD DUP2 PUSH4 0xFFFFFFFF MUL NOT AND SWAP1 DUP4 PUSH4 0xFFFFFFFF AND MUL OR SWAP1 SSTORE POP PUSH1 0x3 PUSH1 0x7 PUSH1 0x4 PUSH2 0x100 EXP DUP2 SLOAD DUP2 PUSH2 0xFFFF MUL NOT AND SWAP1 DUP4 PUSH2 0xFFFF AND MUL OR SWAP1 SSTORE POP PUSH1 0x1 PUSH1 0x7 PUSH1 0x6 PUSH2 0x100 EXP DUP2 SLOAD DUP2 PUSH4 0xFFFFFFFF MUL NOT AND SWAP1 DUP4 PUSH4 0xFFFFFFFF AND MUL OR SWAP1 SSTORE POP PUSH3 0x989680 PUSH1 0x8 SSTORE PUSH2 0x1F4 PUSH1 0x9 SSTORE PUSH2 0x3E8 PUSH1 0xA SSTORE PUSH2 0x3E8 PUSH1 0xB SSTORE CALLVALUE DUP1 ISZERO PUSH2 0x8B JUMPI PUSH0 PUSH0 REVERT JUMPDEST POP PUSH1 0x40 MLOAD PUSH2 0x3E98 CODESIZE SUB DUP1 PUSH2 0x3E98 DUP4 CODECOPY DUP2 DUP2 ADD PUSH1 0x40 MSTORE DUP2 ADD SWAP1 PUSH2 0xAD SWAP2 SWAP1 PUSH2 0x541 JUMP JUMPDEST DUP3 PUSH1 0x1 PUSH0 DUP2 SWAP1 SSTORE POP DUP1 PUSH20 0xFFFFFFFFFFFFFFFFFFFFFFFFFFFFFFFFFFFFFFFF AND PUSH1 0x80 DUP2 PUSH20 0xFFFFFFFFFFFFFFFFFFFFFFFFFFFFFFFFFFFFFFFF AND DUP2 MSTORE POP POP POP DUP6 PUSH1 0x2 PUSH0 PUSH2 0x100 EXP DUP2 SLOAD DUP2 PUSH20 0xFFFFFFFFFFFFFFFFFFFFFFFFFFFFFFFFFFFFFFFF MUL NOT AND SWAP1 DUP4 PUSH20 0xFFFFFFFFFFFFFFFFFFFFFFFFFFFFFFFFFFFFFFFF AND MUL OR SWAP1 SSTORE POP DUP5 PUSH1 0x3 PUSH0 PUSH2 0x100 EXP DUP2 SLOAD DUP2 PUSH20 0xFFFFFFFFFFFFFFFFFFFFFFFFFFFFFFFFFFFFFFFF MUL NOT AND SWAP1 DUP4 PUSH20 0xFFFFFFFFFFFFFFFFFFFFFFFFFFFFFFFFFFFFFFFF AND MUL OR SWAP1 SSTORE POP DUP4 PUSH1 0x4 PUSH0 PUSH2 0x100 EXP DUP2 SLOAD DUP2 PUSH20 0xFFFFFFFFFFFFFFFFFFFFFFFFFFFFFFFFFFFFFFFF MUL NOT AND SWAP1 DUP4 PUSH20 0xFFFFFFFFFFFFFFFFFFFFFFFFFFFFFFFFFFFFFFFF AND MUL OR SWAP1 SSTORE POP DUP3 PUSH1 0x5 PUSH0 PUSH2 0x100 EXP DUP2 SLOAD DUP2 PUSH20 0xFFFFFFFFFFFFFFFFFFFFFFFFFFFFFFFFFFFFFFFF MUL NOT AND SWAP1 DUP4 PUSH20 0xFFFFFFFFFFFFFFFFFFFFFFFFFFFFFFFFFFFFFFFF AND MUL OR SWAP1 SSTORE POP DUP2 PUSH1 0x5 PUSH1 0x14 PUSH2 0x100 EXP DUP2 SLOAD DUP2 PUSH8 0xFFFFFFFFFFFFFFFF MUL NOT AND SWAP1 DUP4 PUSH8 0xFFFFFFFFFFFFFFFF AND MUL OR SWAP1 SSTORE POP DUP1 PUSH1 0x6 DUP2 SWAP1 SSTORE POP DUP6 PUSH20 0xFFFFFFFFFFFFFFFFFFFFFFFFFFFFFFFFFFFFFFFF AND PUSH4 0x313CE567 PUSH1 0x40 MLOAD DUP2 PUSH4 0xFFFFFFFF AND PUSH1 0xE0 SHL DUP2 MSTORE PUSH1 0x4 ADD PUSH1 0x20 PUSH1 0x40 MLOAD DUP1 DUP4 SUB DUP2 DUP7 GAS STATICCALL SWAP3 POP POP POP DUP1 ISZERO PUSH2 0x282 JUMPI POP PUSH1 0x40 MLOAD RETURNDATASIZE PUSH1 0x1F NOT PUSH1 0x1F DUP3 ADD AND DUP3 ADD DUP1 PUSH1 0x40 MSTORE POP DUP2 ADD SWAP1 PUSH2 0x27F SWAP2 SWAP1 PUSH2 0x600 JUMP JUMPDEST PUSH1 0x1 JUMPDEST PUSH2 0x2A7 JUMPI PUSH1 0x6 PUSH1 0x4 PUSH1 0x14 PUSH2 0x100 EXP DUP2 SLOAD DUP2 PUSH1 0xFF MUL NOT AND SWAP1 DUP4 PUSH1 0xFF AND MUL OR SWAP1 SSTORE POP PUSH2 0x2C4 JUMP JUMPDEST DUP1 PUSH1 0x4 PUSH1 0x14 PUSH2 0x100 EXP DUP2 SLOAD DUP2 PUSH1 0xFF MUL NOT AND SWAP1 DUP4 PUSH1 0xFF AND MUL OR SWAP1 SSTORE POP POP JUMPDEST PUSH2 0x2D6 PUSH0 PUSH0 SHL CALLER PUSH2 0x313 PUSH1 0x20 SHL PUSH1 0x20 SHR JUMP JUMPDEST POP PUSH2 0x307 PUSH32 0xA49807205CE4D355092EF5A8A18F56E8913CF4A201FBE287825B095693C21775 CALLER PUSH2 0x313 PUSH1 0x20 SHL PUSH1 0x20 SHR JUMP JUMPDEST POP POP POP POP POP POP POP PUSH2 0x62B JUMP JUMPDEST PUSH0 PUSH2 0x324 DUP4 DUP4 PUSH2 0x408 PUSH1 0x20 SHL PUSH1 0x20 SHR JUMP JUMPDEST PUSH2 0x3FE JUMPI PUSH1 0x1 DUP1 PUSH0 DUP6 DUP2 MSTORE PUSH1 0x20 ADD SWAP1 DUP2 MSTORE PUSH1 0x20 ADD PUSH0 KECCAK256 PUSH0 ADD PUSH0 DUP5 PUSH20 0xFFFFFFFFFFFFFFFFFFFFFFFFFFFFFFFFFFFFFFFF AND PUSH20 0xFFFFFFFFFFFFFFFFFFFFFFFFFFFFFFFFFFFFFFFF AND DUP2 MSTORE PUSH1 0x20 ADD SWAP1 DUP2 MSTORE PUSH1 0x20 ADD PUSH0 KECCAK256 PUSH0 PUSH2 0x100 EXP DUP2 SLOAD DUP2 PUSH1 0xFF MUL NOT AND SWAP1 DUP4 ISZERO ISZERO MUL OR SWAP1 SSTORE POP PUSH2 0x39B PUSH2 0x46C PUSH1 0x20 SHL PUSH1 0x20 SHR JUMP JUMPDEST PUSH20 0xFFFFFFFFFFFFFFFFFFFFFFFFFFFFFFFFFFFFFFFF AND DUP3 PUSH20 0xFFFFFFFFFFFFFFFFFFFFFFFFFFFFFFFFFFFFFFFF AND DUP5 PUSH32 0x2F8788117E7EFF1D82E926EC794901D17C78024A50270940304540A733656F0D PUSH1 0x40 MLOAD PUSH1 0x40 MLOAD DUP1 SWAP2 SUB SWAP1 LOG4 PUSH1 0x1 SWAP1 POP PUSH2 0x402 JUMP JUMPDEST PUSH0 SWAP1 POP JUMPDEST SWAP3 SWAP2 POP POP JUMP JUMPDEST PUSH0 PUSH1 0x1 PUSH0 DUP5 DUP2 MSTORE PUSH1 0x20 ADD SWAP1 DUP2 MSTORE PUSH1 0x20 ADD PUSH0 KECCAK256 PUSH0 ADD PUSH0 DUP4 PUSH20 0xFFFFFFFFFFFFFFFFFFFFFFFFFFFFFFFFFFFFFFFF AND PUSH20 0xFFFFFFFFFFFFFFFFFFFFFFFFFFFFFFFFFFFFFFFF AND DUP2 MSTORE PUSH1 0x20 ADD SWAP1 DUP2 MSTORE PUSH1 0x20 ADD PUSH0 KECCAK256 PUSH0 SWAP1 SLOAD SWAP1 PUSH2 0x100 EXP SWAP1 DIV PUSH1 0xFF AND SWAP1 POP SWAP3 SWAP2 POP POP JUMP JUMPDEST PUSH0 CALLER SWAP1 POP SWAP1 JUMP JUMPDEST PUSH0 PUSH0 REVERT JUMPDEST PUSH0 PUSH20 0xFFFFFFFFFFFFFFFFFFFFFFFFFFFFFFFFFFFFFFFF DUP3 AND SWAP1 POP SWAP2 SWAP1 POP JUMP JUMPDEST PUSH0 PUSH2 0x4A0 DUP3 PUSH2 0x477 JUMP JUMPDEST SWAP1 POP SWAP2 SWAP1 POP JUMP JUMPDEST PUSH2 0x4B0 DUP2 PUSH2 0x496 JUMP JUMPDEST DUP2 EQ PUSH2 0x4BA JUMPI PUSH0 PUSH0 REVERT JUMPDEST POP JUMP JUMPDEST PUSH0 DUP2 MLOAD SWAP1 POP PUSH2 0x4CB DUP2 PUSH2 0x4A7 JUMP JUMPDEST SWAP3 SWAP2 POP POP JUMP JUMPDEST PUSH0 PUSH8 0xFFFFFFFFFFFFFFFF DUP3 AND SWAP1 POP SWAP2 SWAP1 POP JUMP JUMPDEST PUSH2 0x4ED DUP2 PUSH2 0x4D1 JUMP JUMPDEST DUP2 EQ PUSH2 0x4F7 JUMPI PUSH0 PUSH0 REVERT JUMPDEST POP JUMP JUMPDEST PUSH0 DUP2 MLOAD SWAP1 POP PUSH2 0x508 DUP2 PUSH2 0x4E4 JUMP JUMPDEST SWAP3 SWAP2 POP POP JUMP JUMPDEST PUSH0 DUP2 SWAP1 POP SWAP2 SWAP1 POP JUMP JUMPDEST PUSH2 0x520 DUP2 PUSH2 0x50E JUMP JUMPDEST DUP2 EQ PUSH2 0x52A JUMPI PUSH0 PUSH0 REVERT JUMPDEST POP JUMP JUMPDEST PUSH0 DUP2 MLOAD SWAP1 POP PUSH2 0x53B DUP2 PUSH2 0x517 JUMP JUMPDEST SWAP3 SWAP2 POP POP JUMP JUMPDEST PUSH0 PUSH0 PUSH0 PUSH0 PUSH0 PUSH0 PUSH1 0xC0 DUP8 DUP10 SUB SLT ISZERO PUSH2 0x55B JUMPI PUSH2 0x55A PUSH2 0x473 JUMP JUMPDEST JUMPDEST PUSH0 PUSH2 0x568 DUP10 DUP3 DUP11 ADD PUSH2 0x4BD JUMP JUMPDEST SWAP7 POP POP PUSH1 0x20 PUSH2 0x579 DUP10 DUP3 DUP11 ADD PUSH2 0x4BD JUMP JUMPDEST SWAP6 POP POP PUSH1 0x40 PUSH2 0x58A DUP10 DUP3 DUP11 ADD PUSH2 0x4BD JUMP JUMPDEST SWAP5 POP POP PUSH1 0x60 PUSH2 0x59B DUP10 DUP3 DUP11 ADD PUSH2 0x4BD JUMP JUMPDEST SWAP4 POP POP PUSH1 0x80 PUSH2 0x5AC DUP10 DUP3 DUP11 ADD PUSH2 0x4FA JUMP JUMPDEST SWAP3 POP POP PUSH1 0xA0 PUSH2 0x5BD DUP10 DUP3 DUP11 ADD PUSH2 0x52D JUMP JUMPDEST SWAP2 POP POP SWAP3 SWAP6 POP SWAP3 SWAP6 POP SWAP3 SWAP6 JUMP JUMPDEST PUSH0 PUSH1 0xFF DUP3 AND SWAP1 POP SWAP2 SWAP1 POP JUMP JUMPDEST PUSH2 0x5DF DUP2 PUSH2 0x5CA JUMP JUMPDEST DUP2 EQ PUSH2 0x5E9 JUMPI PUSH0 PUSH0 REVERT JUMPDEST POP JUMP JUMPDEST PUSH0 DUP2 MLOAD SWAP1 POP PUSH2 0x5FA DUP2 PUSH2 0x5D6 JUMP JUMPDEST SWAP3 SWAP2 POP POP JUMP JUMPDEST PUSH0 PUSH1 0x20 DUP3 DUP5 SUB SLT ISZERO PUSH2 0x615 JUMPI PUSH2 0x614 PUSH2 0x473 JUMP JUMPDEST JUMPDEST PUSH0 PUSH2 0x622 DUP5 DUP3 DUP6 ADD PUSH2 0x5EC JUMP JUMPDEST SWAP2 POP POP SWAP3 SWAP2 POP POP JUMP JUMPDEST PUSH1 0x80 MLOAD PUSH2 0x384E PUSH2 0x64A PUSH0 CODECOPY PUSH0 DUP2 DUP2 PUSH2 0x749 ADD MSTORE PUSH2 0x79D ADD MSTORE PUSH2 0x384E PUSH0 RETURN INVALID PUSH1 0x80 PUSH1 0x40 MSTORE CALLVALUE DUP1 ISZERO PUSH2 0xF JUMPI PUSH0 PUSH0 REVERT JUMPDEST POP PUSH1 0x4 CALLDATASIZE LT PUSH2 0x204 JUMPI PUSH0 CALLDATALOAD PUSH1 0xE0 SHR DUP1 PUSH4 0x741BEF1A GT PUSH2 0x118 JUMPI DUP1 PUSH4 0xC1CBBCA7 GT PUSH2 0xAB JUMPI DUP1 PUSH4 0xE507A8A4 GT PUSH2 0x7A JUMPI DUP1 PUSH4 0xE507A8A4 EQ PUSH2 0x5D7 JUMPI DUP1 PUSH4 0xE611D691 EQ PUSH2 0x5E1 JUMPI DUP1 PUSH4 0xE68B7757 EQ PUSH2 0x5FD JUMPI DUP1 PUSH4 0xE9CBD822 EQ PUSH2 0x619 JUMPI DUP1 PUSH4 0xEB03924D EQ PUSH2 0x637 JUMPI PUSH2 0x204 JUMP JUMPDEST DUP1 PUSH4 0xC1CBBCA7 EQ PUSH2 0x54B JUMPI DUP1 PUSH4 0xD4BE74BA EQ PUSH2 0x567 JUMPI DUP1 PUSH4 0xD547741F EQ PUSH2 0x585 JUMPI DUP1 PUSH4 0xD83ADC35 EQ PUSH2 0x5A1 JUMPI PUSH2 0x204 JUMP JUMPDEST DUP1 PUSH4 0x937E09B1 GT PUSH2 0xE7 JUMPI DUP1 PUSH4 0x937E09B1 EQ PUSH2 0x4D5 JUMPI DUP1 PUSH4 0xA217FDDF EQ PUSH2 0x4F3 JUMPI DUP1 PUSH4 0xB0FB162F EQ PUSH2 0x511 JUMPI DUP1 PUSH4 0xB197DF54 EQ PUSH2 0x52F JUMPI PUSH2 0x204 JUMP JUMPDEST DUP1 PUSH4 0x741BEF1A EQ PUSH2 0x44B JUMPI DUP1 PUSH4 0x75B238FC EQ PUSH2 0x469 JUMPI DUP1 PUSH4 0x7CCFD7FC EQ PUSH2 0x487 JUMPI DUP1 PUSH4 0x91D14854 EQ PUSH2 0x4A5 JUMPI PUSH2 0x204 JUMP JUMPDEST DUP1 PUSH4 0x24F74697 GT PUSH2 0x19B JUMPI DUP1 PUSH4 0x3B97E856 GT PUSH2 0x16A JUMPI DUP1 PUSH4 0x3B97E856 EQ PUSH2 0x3A0 JUMPI DUP1 PUSH4 0x5312EA8E EQ PUSH2 0x3BE JUMPI DUP1 PUSH4 0x5F39E7F0 EQ PUSH2 0x3DA JUMPI DUP1 PUSH4 0x61728F39 EQ PUSH2 0x411 JUMPI DUP1 PUSH4 0x658E28A4 EQ PUSH2 0x42F JUMPI PUSH2 0x204 JUMP JUMPDEST DUP1 PUSH4 0x24F74697 EQ PUSH2 0x32C JUMPI DUP1 PUSH4 0x2F2FF15D EQ PUSH2 0x34A JUMPI DUP1 PUSH4 0x36568ABE EQ PUSH2 0x366 JUMPI DUP1 PUSH4 0x3B2BCBF1 EQ PUSH2 0x382 JUMPI PUSH2 0x204 JUMP JUMPDEST DUP1 PUSH4 0x163C67C2 GT PUSH2 0x1D7 JUMPI DUP1 PUSH4 0x163C67C2 EQ PUSH2 0x292 JUMPI DUP1 PUSH4 0x1A1D9252 EQ PUSH2 0x2B0 JUMPI DUP1 PUSH4 0x1FE543E3 EQ PUSH2 0x2E0 JUMPI DUP1 PUSH4 0x248A9CA3 EQ PUSH2 0x2FC JUMPI PUSH2 0x204 JUMP JUMPDEST DUP1 PUSH4 0x1FFC9A7 EQ PUSH2 0x208 JUMPI DUP1 PUSH4 0x34F4083 EQ PUSH2 0x238 JUMPI DUP1 PUSH4 0x9C1BA2E EQ PUSH2 0x256 JUMPI DUP1 PUSH4 0x13F14FEE EQ PUSH2 0x274 JUMPI JUMPDEST PUSH0 PUSH0 REVERT JUMPDEST PUSH2 0x222 PUSH1 0x4 DUP1 CALLDATASIZE SUB DUP2 ADD SWAP1 PUSH2 0x21D SWAP2 SWAP1 PUSH2 0x2559 JUMP JUMPDEST PUSH2 0x653 JUMP JUMPDEST PUSH1 0x40 MLOAD PUSH2 0x22F SWAP2 SWAP1 PUSH2 0x259E JUMP JUMPDEST PUSH1 0x40 MLOAD DUP1 SWAP2 SUB SWAP1 RETURN JUMPDEST PUSH2 0x240 PUSH2 0x6CC JUMP JUMPDEST PUSH1 0x40 MLOAD PUSH2 0x24D SWAP2 SWAP1 PUSH2 0x25CF JUMP JUMPDEST PUSH1 0x40 MLOAD DUP1 SWAP2 SUB SWAP1 RETURN JUMPDEST PUSH2 0x25E PUSH2 0x6D2 JUMP JUMPDEST PUSH1 0x40 MLOAD PUSH2 0x26B SWAP2 SWAP1 PUSH2 0x260A JUMP JUMPDEST PUSH1 0x40 MLOAD DUP1 SWAP2 SUB SWAP1 RETURN JUMPDEST PUSH2 0x27C PUSH2 0x6EC JUMP JUMPDEST PUSH1 0x40 MLOAD PUSH2 0x289 SWAP2 SWAP1 PUSH2 0x269D JUMP JUMPDEST PUSH1 0x40 MLOAD DUP1 SWAP2 SUB SWAP1 RETURN JUMPDEST PUSH2 0x29A PUSH2 0x711 JUMP JUMPDEST PUSH1 0x40 MLOAD PUSH2 0x2A7 SWAP2 SWAP1 PUSH2 0x25CF JUMP JUMPDEST PUSH1 0x40 MLOAD DUP1 SWAP2 SUB SWAP1 RETURN JUMPDEST PUSH2 0x2CA PUSH1 0x4 DUP1 CALLDATASIZE SUB DUP2 ADD SWAP1 PUSH2 0x2C5 SWAP2 SWAP1 PUSH2 0x26E0 JUMP JUMPDEST PUSH2 0x717 JUMP JUMPDEST PUSH1 0x40 MLOAD PUSH2 0x2D7 SWAP2 SWAP1 PUSH2 0x272B JUMP JUMPDEST PUSH1 0x40 MLOAD DUP1 SWAP2 SUB SWAP1 RETURN JUMPDEST PUSH2 0x2FA PUSH1 0x4 DUP1 CALLDATASIZE SUB DUP2 ADD SWAP1 PUSH2 0x2F5 SWAP2 SWAP1 PUSH2 0x2894 JUMP JUMPDEST PUSH2 0x747 JUMP JUMPDEST STOP JUMPDEST PUSH2 0x316 PUSH1 0x4 DUP1 CALLDATASIZE SUB DUP2 ADD SWAP1 PUSH2 0x311 SWAP2 SWAP1 PUSH2 0x2921 JUMP JUMPDEST PUSH2 0x807 JUMP JUMPDEST PUSH1 0x40 MLOAD PUSH2 0x323 SWAP2 SWAP1 PUSH2 0x295B JUMP JUMPDEST PUSH1 0x40 MLOAD DUP1 SWAP2 SUB SWAP1 RETURN JUMPDEST PUSH2 0x334 PUSH2 0x824 JUMP JUMPDEST PUSH1 0x40 MLOAD PUSH2 0x341 SWAP2 SWAP1 PUSH2 0x2992 JUMP JUMPDEST PUSH1 0x40 MLOAD DUP1 SWAP2 SUB SWAP1 RETURN JUMPDEST PUSH2 0x364 PUSH1 0x4 DUP1 CALLDATASIZE SUB DUP2 ADD SWAP1 PUSH2 0x35F SWAP2 SWAP1 PUSH2 0x29D5 JUMP JUMPDEST PUSH2 0x839 JUMP JUMPDEST STOP JUMPDEST PUSH2 0x380 PUSH1 0x4 DUP1 CALLDATASIZE SUB DUP2 ADD SWAP1 PUSH2 0x37B SWAP2 SWAP1 PUSH2 0x29D5 JUMP JUMPDEST PUSH2 0x85B JUMP JUMPDEST STOP JUMPDEST PUSH2 0x38A PUSH2 0x8D6 JUMP JUMPDEST PUSH1 0x40 MLOAD PUSH2 0x397 SWAP2 SWAP1 PUSH2 0x2A33 JUMP JUMPDEST PUSH1 0x40 MLOAD DUP1 SWAP2 SUB SWAP1 RETURN JUMPDEST PUSH2 0x3A8 PUSH2 0x8FB JUMP JUMPDEST PUSH1 0x40 MLOAD PUSH2 0x3B5 SWAP2 SWAP1 PUSH2 0x2A67 JUMP JUMPDEST PUSH1 0x40 MLOAD DUP1 SWAP2 SUB SWAP1 RETURN JUMPDEST PUSH2 0x3D8 PUSH1 0x4 DUP1 CALLDATASIZE SUB DUP2 ADD SWAP1 PUSH2 0x3D3 SWAP2 SWAP1 PUSH2 0x26E0 JUMP JUMPDEST PUSH2 0x90E JUMP JUMPDEST STOP JUMPDEST PUSH2 0x3F4 PUSH1 0x4 DUP1 CALLDATASIZE SUB DUP2 ADD SWAP1 PUSH2 0x3EF SWAP2 SWAP1 PUSH2 0x2A80 JUMP JUMPDEST PUSH2 0x9CA JUMP JUMPDEST PUSH1 0x40 MLOAD PUSH2 0x408 SWAP9 SWAP8 SWAP7 SWAP6 SWAP5 SWAP4 SWAP3 SWAP2 SWAP1 PUSH2 0x2AAB JUMP JUMPDEST PUSH1 0x40 MLOAD DUP1 SWAP2 SUB SWAP1 RETURN JUMPDEST PUSH2 0x419 PUSH2 0xA1A JUMP JUMPDEST PUSH1 0x40 MLOAD PUSH2 0x426 SWAP2 SWAP1 PUSH2 0x295B JUMP JUMPDEST PUSH1 0x40 MLOAD DUP1 SWAP2 SUB SWAP1 RETURN JUMPDEST PUSH2 0x449 PUSH1 0x4 DUP1 CALLDATASIZE SUB DUP2 ADD SWAP1 PUSH2 0x444 SWAP2 SWAP1 PUSH2 0x26E0 JUMP JUMPDEST PUSH2 0xA20 JUMP JUMPDEST STOP JUMPDEST PUSH2 0x453 PUSH2 0xC4E JUMP JUMPDEST PUSH1 0x40 MLOAD PUSH2 0x460 SWAP2 SWAP1 PUSH2 0x2B47 JUMP JUMPDEST PUSH1 0x40 MLOAD DUP1 SWAP2 SUB SWAP1 RETURN JUMPDEST PUSH2 0x471 PUSH2 0xC73 JUMP JUMPDEST PUSH1 0x40 MLOAD PUSH2 0x47E SWAP2 SWAP1 PUSH2 0x295B JUMP JUMPDEST PUSH1 0x40 MLOAD DUP1 SWAP2 SUB SWAP1 RETURN JUMPDEST PUSH2 0x48F PUSH2 0xC97 JUMP JUMPDEST PUSH1 0x40 MLOAD PUSH2 0x49C SWAP2 SWAP1 PUSH2 0x2992 JUMP JUMPDEST PUSH1 0x40 MLOAD DUP1 SWAP2 SUB SWAP1 RETURN JUMPDEST PUSH2 0x4BF PUSH1 0x4 DUP1 CALLDATASIZE SUB DUP2 ADD SWAP1 PUSH2 0x4BA SWAP2 SWAP1 PUSH2 0x29D5 JUMP JUMPDEST PUSH2 0xCAD JUMP JUMPDEST PUSH1 0x40 MLOAD PUSH2 0x4CC SWAP2 SWAP1 PUSH2 0x259E JUMP JUMPDEST PUSH1 0x40 MLOAD DUP1 SWAP2 SUB SWAP1 RETURN JUMPDEST PUSH2 0x4DD PUSH2 0xD11 JUMP JUMPDEST PUSH1 0x40 MLOAD PUSH2 0x4EA SWAP2 SWAP1 PUSH2 0x25CF JUMP JUMPDEST PUSH1 0x40 MLOAD DUP1 SWAP2 SUB SWAP1 RETURN JUMPDEST PUSH2 0x4FB PUSH2 0xD17 JUMP JUMPDEST PUSH1 0x40 MLOAD PUSH2 0x508 SWAP2 SWAP1 PUSH2 0x295B JUMP JUMPDEST PUSH1 0x40 MLOAD DUP1 SWAP2 SUB SWAP1 RETURN JUMPDEST PUSH2 0x519 PUSH2 0xD1D JUMP JUMPDEST PUSH1 0x40 MLOAD PUSH2 0x526 SWAP2 SWAP1 PUSH2 0x2B7C JUMP JUMPDEST PUSH1 0x40 MLOAD DUP1 SWAP2 SUB SWAP1 RETURN JUMPDEST PUSH2 0x549 PUSH1 0x4 DUP1 CALLDATASIZE SUB DUP2 ADD SWAP1 PUSH2 0x544 SWAP2 SWAP1 PUSH2 0x2B95 JUMP JUMPDEST PUSH2 0xD31 JUMP JUMPDEST STOP JUMPDEST PUSH2 0x565 PUSH1 0x4 DUP1 CALLDATASIZE SUB DUP2 ADD SWAP1 PUSH2 0x560 SWAP2 SWAP1 PUSH2 0x26E0 JUMP JUMPDEST PUSH2 0xF6D JUMP JUMPDEST STOP JUMPDEST PUSH2 0x56F PUSH2 0x1386 JUMP JUMPDEST PUSH1 0x40 MLOAD PUSH2 0x57C SWAP2 SWAP1 PUSH2 0x25CF JUMP JUMPDEST PUSH1 0x40 MLOAD DUP1 SWAP2 SUB SWAP1 RETURN JUMPDEST PUSH2 0x59F PUSH1 0x4 DUP1 CALLDATASIZE SUB DUP2 ADD SWAP1 PUSH2 0x59A SWAP2 SWAP1 PUSH2 0x29D5 JUMP JUMPDEST PUSH2 0x138C JUMP JUMPDEST STOP JUMPDEST PUSH2 0x5BB PUSH1 0x4 DUP1 CALLDATASIZE SUB DUP2 ADD SWAP1 PUSH2 0x5B6 SWAP2 SWAP1 PUSH2 0x2A80 JUMP JUMPDEST PUSH2 0x13AE JUMP JUMPDEST PUSH1 0x40 MLOAD PUSH2 0x5CE SWAP8 SWAP7 SWAP6 SWAP5 SWAP4 SWAP3 SWAP2 SWAP1 PUSH2 0x2BD3 JUMP JUMPDEST PUSH1 0x40 MLOAD DUP1 SWAP2 SUB SWAP1 RETURN JUMPDEST PUSH2 0x5DF PUSH2 0x15A0 JUMP JUMPDEST STOP JUMPDEST PUSH2 0x5FB PUSH1 0x4 DUP1 CALLDATASIZE SUB DUP2 ADD SWAP1 PUSH2 0x5F6 SWAP2 SWAP1 PUSH2 0x2CBE JUMP JUMPDEST PUSH2 0x1947 JUMP JUMPDEST STOP JUMPDEST PUSH2 0x617 PUSH1 0x4 DUP1 CALLDATASIZE SUB DUP2 ADD SWAP1 PUSH2 0x612 SWAP2 SWAP1 PUSH2 0x2A80 JUMP JUMPDEST PUSH2 0x19E5 JUMP JUMPDEST STOP JUMPDEST PUSH2 0x621 PUSH2 0x1A53 JUMP JUMPDEST PUSH1 0x40 MLOAD PUSH2 0x62E SWAP2 SWAP1 PUSH2 0x2D42 JUMP JUMPDEST PUSH1 0x40 MLOAD DUP1 SWAP2 SUB SWAP1 RETURN JUMPDEST PUSH2 0x651 PUSH1 0x4 DUP1 CALLDATASIZE SUB DUP2 ADD SWAP1 PUSH2 0x64C SWAP2 SWAP1 PUSH2 0x2D5B JUMP JUMPDEST PUSH2 0x1A78 JUMP JUMPDEST STOP JUMPDEST PUSH0 PUSH32 0x7965DB0B00000000000000000000000000000000000000000000000000000000 PUSH28 0xFFFFFFFFFFFFFFFFFFFFFFFFFFFFFFFFFFFFFFFFFFFFFFFFFFFFFFFF NOT AND DUP3 PUSH28 0xFFFFFFFFFFFFFFFFFFFFFFFFFFFFFFFFFFFFFFFFFFFFFFFFFFFFFFFF NOT AND EQ DUP1 PUSH2 0x6C5 JUMPI POP PUSH2 0x6C4 DUP3 PUSH2 0x1B94 JUMP JUMPDEST JUMPDEST SWAP1 POP SWAP2 SWAP1 POP JUMP JUMPDEST PUSH1 0x9 SLOAD DUP2 JUMP JUMPDEST PUSH1 0x5 PUSH1 0x14 SWAP1 SLOAD SWAP1 PUSH2 0x100 EXP SWAP1 DIV PUSH8 0xFFFFFFFFFFFFFFFF AND DUP2 JUMP JUMPDEST PUSH1 0x4 PUSH0 SWAP1 SLOAD SWAP1 PUSH2 0x100 EXP SWAP1 DIV PUSH20 0xFFFFFFFFFFFFFFFFFFFFFFFFFFFFFFFFFFFFFFFF AND DUP2 JUMP JUMPDEST PUSH1 0xB SLOAD DUP2 JUMP JUMPDEST PUSH1 0xD PUSH1 0x20 MSTORE DUP1 PUSH0 MSTORE PUSH1 0x40 PUSH0 KECCAK256 PUSH0 SWAP2 POP SLOAD SWAP1 PUSH2 0x100 EXP SWAP1 DIV PUSH20 0xFFFFFFFFFFFFFFFFFFFFFFFFFFFFFFFFFFFFFFFF AND DUP2 JUMP JUMPDEST PUSH32 0x0 PUSH20 0xFFFFFFFFFFFFFFFFFFFFFFFFFFFFFFFFFFFFFFFF AND CALLER PUSH20 0xFFFFFFFFFFFFFFFFFFFFFFFFFFFFFFFFFFFFFFFF AND EQ PUSH2 0x7F9 JUMPI CALLER PUSH32 0x0 PUSH1 0x40 MLOAD PUSH32 0x1CF993F400000000000000000000000000000000000000000000000000000000 DUP2 MSTORE PUSH1 0x4 ADD PUSH2 0x7F0 SWAP3 SWAP2 SWAP1 PUSH2 0x2DBF JUMP JUMPDEST PUSH1 0x40 MLOAD DUP1 SWAP2 SUB SWAP1 REVERT JUMPDEST PUSH2 0x803 DUP3 DUP3 PUSH2 0x1BFD JUMP JUMPDEST POP POP JUMP JUMPDEST PUSH0 PUSH1 0x1 PUSH0 DUP4 DUP2 MSTORE PUSH1 0x20 ADD SWAP1 DUP2 MSTORE PUSH1 0x20 ADD PUSH0 KECCAK256 PUSH1 0x1 ADD SLOAD SWAP1 POP SWAP2 SWAP1 POP JUMP JUMPDEST PUSH1 0x7 PUSH0 SWAP1 SLOAD SWAP1 PUSH2 0x100 EXP SWAP1 DIV PUSH4 0xFFFFFFFF AND DUP2 JUMP JUMPDEST PUSH2 0x842 DUP3 PUSH2 0x807 JUMP JUMPDEST PUSH2 0x84B DUP2 PUSH2 0x1EDB JUMP JUMPDEST PUSH2 0x855 DUP4 DUP4 PUSH2 0x1EEF JUMP JUMPDEST POP POP POP POP JUMP JUMPDEST PUSH2 0x863 PUSH2 0x1FD8 JUMP JUMPDEST PUSH20 0xFFFFFFFFFFFFFFFFFFFFFFFFFFFFFFFFFFFFFFFF AND DUP2 PUSH20 0xFFFFFFFFFFFFFFFFFFFFFFFFFFFFFFFFFFFFFFFF AND EQ PUSH2 0x8C7 JUMPI PUSH1 0x40 MLOAD PUSH32 0x6697B23200000000000000000000000000000000000000000000000000000000 DUP2 MSTORE PUSH1 0x4 ADD PUSH1 0x40 MLOAD DUP1 SWAP2 SUB SWAP1 REVERT JUMPDEST PUSH2 0x8D1 DUP3 DUP3 PUSH2 0x1FDF JUMP JUMPDEST POP POP POP JUMP JUMPDEST PUSH1 0x5 PUSH0 SWAP1 SLOAD SWAP1 PUSH2 0x100 EXP SWAP1 DIV PUSH20 0xFFFFFFFFFFFFFFFFFFFFFFFFFFFFFFFFFFFFFFFF AND DUP2 JUMP JUMPDEST PUSH1 0x4 PUSH1 0x14 SWAP1 SLOAD SWAP1 PUSH2 0x100 EXP SWAP1 DIV PUSH1 0xFF AND DUP2 JUMP JUMPDEST PUSH32 0xA49807205CE4D355092EF5A8A18F56E8913CF4A201FBE287825B095693C21775 PUSH2 0x938 DUP2 PUSH2 0x1EDB JUMP JUMPDEST PUSH0 DUP3 GT PUSH2 0x97A JUMPI PUSH1 0x40 MLOAD PUSH32 0x8C379A000000000000000000000000000000000000000000000000000000000 DUP2 MSTORE PUSH1 0x4 ADD PUSH2 0x971 SWAP1 PUSH2 0x2E40 JUMP JUMPDEST PUSH1 0x40 MLOAD DUP1 SWAP2 SUB SWAP1 REVERT JUMPDEST PUSH2 0x9C6 CALLER DUP4 PUSH1 0x2 PUSH0 SWAP1 SLOAD SWAP1 PUSH2 0x100 EXP SWAP1 DIV PUSH20 0xFFFFFFFFFFFFFFFFFFFFFFFFFFFFFFFFFFFFFFFF AND PUSH20 0xFFFFFFFFFFFFFFFFFFFFFFFFFFFFFFFFFFFFFFFF AND PUSH2 0x20C9 SWAP1 SWAP3 SWAP2 SWAP1 PUSH4 0xFFFFFFFF AND JUMP JUMPDEST POP POP JUMP JUMPDEST PUSH1 0xC PUSH1 0x20 MSTORE DUP1 PUSH0 MSTORE PUSH1 0x40 PUSH0 KECCAK256 PUSH0 SWAP2 POP SWAP1 POP DUP1 PUSH0 ADD SLOAD SWAP1 DUP1 PUSH1 0x1 ADD SLOAD SWAP1 DUP1 PUSH1 0x2 ADD SLOAD SWAP1 DUP1 PUSH1 0x3 ADD SLOAD SWAP1 DUP1 PUSH1 0x4 ADD SLOAD SWAP1 DUP1 PUSH1 0x5 ADD SLOAD SWAP1 DUP1 PUSH1 0x6 ADD PUSH0 SWAP1 SLOAD SWAP1 PUSH2 0x100 EXP SWAP1 DIV PUSH1 0xFF AND SWAP1 DUP1 PUSH1 0x7 ADD SLOAD SWAP1 POP DUP9 JUMP JUMPDEST PUSH1 0x6 SLOAD DUP2 JUMP JUMPDEST PUSH2 0xA28 PUSH2 0x2148 JUMP JUMPDEST PUSH0 PUSH1 0xC PUSH0 CALLER PUSH20 0xFFFFFFFFFFFFFFFFFFFFFFFFFFFFFFFFFFFFFFFF AND PUSH20 0xFFFFFFFFFFFFFFFFFFFFFFFFFFFFFFFFFFFFFFFF AND DUP2 MSTORE PUSH1 0x20 ADD SWAP1 DUP2 MSTORE PUSH1 0x20 ADD PUSH0 KECCAK256 SWAP1 POP DUP1 PUSH1 0x6 ADD PUSH0 SWAP1 SLOAD SWAP1 PUSH2 0x100 EXP SWAP1 DIV PUSH1 0xFF AND PUSH2 0xAB8 JUMPI PUSH1 0x40 MLOAD PUSH32 0x8C379A000000000000000000000000000000000000000000000000000000000 DUP2 MSTORE PUSH1 0x4 ADD PUSH2 0xAAF SWAP1 PUSH2 0x2EA8 JUMP JUMPDEST PUSH1 0x40 MLOAD DUP1 SWAP2 SUB SWAP1 REVERT JUMPDEST PUSH0 DUP3 GT PUSH2 0xAFA JUMPI PUSH1 0x40 MLOAD PUSH32 0x8C379A000000000000000000000000000000000000000000000000000000000 DUP2 MSTORE PUSH1 0x4 ADD PUSH2 0xAF1 SWAP1 PUSH2 0x2E40 JUMP JUMPDEST PUSH1 0x40 MLOAD DUP1 SWAP2 SUB SWAP1 REVERT JUMPDEST DUP1 PUSH1 0x4 ADD SLOAD DUP3 GT ISZERO PUSH2 0xB41 JUMPI PUSH1 0x40 MLOAD PUSH32 0x8C379A000000000000000000000000000000000000000000000000000000000 DUP2 MSTORE PUSH1 0x4 ADD PUSH2 0xB38 SWAP1 PUSH2 0x2F36 JUMP JUMPDEST PUSH1 0x40 MLOAD DUP1 SWAP2 SUB SWAP1 REVERT JUMPDEST PUSH1 0x4 PUSH0 SWAP1 SLOAD SWAP1 PUSH2 0x100 EXP SWAP1 DIV PUSH20 0xFFFFFFFFFFFFFFFFFFFFFFFFFFFFFFFFFFFFFFFF AND PUSH20 0xFFFFFFFFFFFFFFFFFFFFFFFFFFFFFFFFFFFFFFFF AND PUSH4 0x2E1A7D4D DUP4 PUSH1 0x40 MLOAD DUP3 PUSH4 0xFFFFFFFF AND PUSH1 0xE0 SHL DUP2 MSTORE PUSH1 0x4 ADD PUSH2 0xB9B SWAP2 SWAP1 PUSH2 0x25CF JUMP JUMPDEST PUSH1 0x20 PUSH1 0x40 MLOAD DUP1 DUP4 SUB DUP2 PUSH0 DUP8 GAS CALL ISZERO DUP1 ISZERO PUSH2 0xBB7 JUMPI RETURNDATASIZE PUSH0 PUSH0 RETURNDATACOPY RETURNDATASIZE PUSH0 REVERT JUMPDEST POP POP POP POP PUSH1 0x40 MLOAD RETURNDATASIZE PUSH1 0x1F NOT PUSH1 0x1F DUP3 ADD AND DUP3 ADD DUP1 PUSH1 0x40 MSTORE POP DUP2 ADD SWAP1 PUSH2 0xBDB SWAP2 SWAP1 PUSH2 0x2F68 JUMP JUMPDEST POP DUP2 DUP2 PUSH1 0x4 ADD PUSH0 DUP3 DUP3 SLOAD PUSH2 0xBEF SWAP2 SWAP1 PUSH2 0x2FC0 JUMP JUMPDEST SWAP3 POP POP DUP2 SWAP1 SSTORE POP PUSH2 0xC42 CALLER DUP4 PUSH1 0x2 PUSH0 SWAP1 SLOAD SWAP1 PUSH2 0x100 EXP SWAP1 DIV PUSH20 0xFFFFFFFFFFFFFFFFFFFFFFFFFFFFFFFFFFFFFFFF AND PUSH20 0xFFFFFFFFFFFFFFFFFFFFFFFFFFFFFFFFFFFFFFFF AND PUSH2 0x20C9 SWAP1 SWAP3 SWAP2 SWAP1 PUSH4 0xFFFFFFFF AND JUMP JUMPDEST POP PUSH2 0xC4B PUSH2 0x2195 JUMP JUMPDEST POP JUMP JUMPDEST PUSH1 0x3 PUSH0 SWAP1 SLOAD SWAP1 PUSH2 0x100 EXP SWAP1 DIV PUSH20 0xFFFFFFFFFFFFFFFFFFFFFFFFFFFFFFFFFFFFFFFF AND DUP2 JUMP JUMPDEST PUSH32 0xA49807205CE4D355092EF5A8A18F56E8913CF4A201FBE287825B095693C21775 DUP2 JUMP JUMPDEST PUSH1 0x7 PUSH1 0x6 SWAP1 SLOAD SWAP1 PUSH2 0x100 EXP SWAP1 DIV PUSH4 0xFFFFFFFF AND DUP2 JUMP JUMPDEST PUSH0 PUSH1 0x1 PUSH0 DUP5 DUP2 MSTORE PUSH1 0x20 ADD SWAP1 DUP2 MSTORE PUSH1 0x20 ADD PUSH0 KECCAK256 PUSH0 ADD PUSH0 DUP4 PUSH20 0xFFFFFFFFFFFFFFFFFFFFFFFFFFFFFFFFFFFFFFFF AND PUSH20 0xFFFFFFFFFFFFFFFFFFFFFFFFFFFFFFFFFFFFFFFF AND DUP2 MSTORE PUSH1 0x20 ADD SWAP1 DUP2 MSTORE PUSH1 0x20 ADD PUSH0 KECCAK256 PUSH0 SWAP1 SLOAD SWAP1 PUSH2 0x100 EXP SWAP1 DIV PUSH1 0xFF AND SWAP1 POP SWAP3 SWAP2 POP POP JUMP JUMPDEST PUSH1 0x8 SLOAD DUP2 JUMP JUMPDEST PUSH0 PUSH0 SHL DUP2 JUMP JUMPDEST PUSH1 0x7 PUSH1 0x4 SWAP1 SLOAD SWAP1 PUSH2 0x100 EXP SWAP1 DIV PUSH2 0xFFFF AND DUP2 JUMP JUMPDEST PUSH0 DUP3 GT PUSH2 0xD73 JUMPI PUSH1 0x40 MLOAD PUSH32 0x8C379A000000000000000000000000000000000000000000000000000000000 DUP2 MSTORE PUSH1 0x4 ADD PUSH2 0xD6A SWAP1 PUSH2 0x3063 JUMP JUMPDEST PUSH1 0x40 MLOAD DUP1 SWAP2 SUB SWAP1 REVERT JUMPDEST PUSH1 0x8 SLOAD DUP2 LT ISZERO PUSH2 0xDB8 JUMPI PUSH1 0x40 MLOAD PUSH32 0x8C379A000000000000000000000000000000000000000000000000000000000 DUP2 MSTORE PUSH1 0x4 ADD PUSH2 0xDAF SWAP1 PUSH2 0x30CB JUMP JUMPDEST PUSH1 0x40 MLOAD DUP1 SWAP2 SUB SWAP1 REVERT JUMPDEST PUSH0 PUSH1 0xC PUSH0 CALLER PUSH20 0xFFFFFFFFFFFFFFFFFFFFFFFFFFFFFFFFFFFFFFFF AND PUSH20 0xFFFFFFFFFFFFFFFFFFFFFFFFFFFFFFFFFFFFFFFF AND DUP2 MSTORE PUSH1 0x20 ADD SWAP1 DUP2 MSTORE PUSH1 0x20 ADD PUSH0 KECCAK256 PUSH1 0x2 ADD SLOAD EQ PUSH2 0xE3A JUMPI PUSH1 0x40 MLOAD PUSH32 0x8C379A000000000000000000000000000000000000000000000000000000000 DUP2 MSTORE PUSH1 0x4 ADD PUSH2 0xE31 SWAP1 PUSH2 0x3133 JUMP JUMPDEST PUSH1 0x40 MLOAD DUP1 SWAP2 SUB SWAP1 REVERT JUMPDEST PUSH1 0x40 MLOAD DUP1 PUSH2 0x100 ADD PUSH1 0x40 MSTORE DUP1 DUP4 DUP2 MSTORE PUSH1 0x20 ADD DUP3 DUP2 MSTORE PUSH1 0x20 ADD TIMESTAMP DUP2 MSTORE PUSH1 0x20 ADD PUSH0 DUP2 MSTORE PUSH1 0x20 ADD PUSH0 DUP2 MSTORE PUSH1 0x20 ADD PUSH0 DUP2 MSTORE PUSH1 0x20 ADD PUSH0 ISZERO ISZERO DUP2 MSTORE PUSH1 0x20 ADD PUSH0 DUP2 MSTORE POP PUSH1 0xC PUSH0 CALLER PUSH20 0xFFFFFFFFFFFFFFFFFFFFFFFFFFFFFFFFFFFFFFFF AND PUSH20 0xFFFFFFFFFFFFFFFFFFFFFFFFFFFFFFFFFFFFFFFF AND DUP2 MSTORE PUSH1 0x20 ADD SWAP1 DUP2 MSTORE PUSH1 0x20 ADD PUSH0 KECCAK256 PUSH0 DUP3 ADD MLOAD DUP2 PUSH0 ADD SSTORE PUSH1 0x20 DUP3 ADD MLOAD DUP2 PUSH1 0x1 ADD SSTORE PUSH1 0x40 DUP3 ADD MLOAD DUP2 PUSH1 0x2 ADD SSTORE PUSH1 0x60 DUP3 ADD MLOAD DUP2 PUSH1 0x3 ADD SSTORE PUSH1 0x80 DUP3 ADD MLOAD DUP2 PUSH1 0x4 ADD SSTORE PUSH1 0xA0 DUP3 ADD MLOAD DUP2 PUSH1 0x5 ADD SSTORE PUSH1 0xC0 DUP3 ADD MLOAD DUP2 PUSH1 0x6 ADD PUSH0 PUSH2 0x100 EXP DUP2 SLOAD DUP2 PUSH1 0xFF MUL NOT AND SWAP1 DUP4 ISZERO ISZERO MUL OR SWAP1 SSTORE POP PUSH1 0xE0 DUP3 ADD MLOAD DUP2 PUSH1 0x7 ADD SSTORE SWAP1 POP POP CALLER PUSH20 0xFFFFFFFFFFFFFFFFFFFFFFFFFFFFFFFFFFFFFFFF AND PUSH32 0x89D3F1CDFAD4E5C26535AC23DC61CF9E975667801747518F01B1B653545D736A DUP4 DUP4 PUSH1 0x40 MLOAD PUSH2 0xF61 SWAP3 SWAP2 SWAP1 PUSH2 0x3151 JUMP JUMPDEST PUSH1 0x40 MLOAD DUP1 SWAP2 SUB SWAP1 LOG2 POP POP JUMP JUMPDEST PUSH2 0xF75 PUSH2 0x2148 JUMP JUMPDEST PUSH0 PUSH1 0xC PUSH0 CALLER PUSH20 0xFFFFFFFFFFFFFFFFFFFFFFFFFFFFFFFFFFFFFFFF AND PUSH20 0xFFFFFFFFFFFFFFFFFFFFFFFFFFFFFFFFFFFFFFFF AND DUP2 MSTORE PUSH1 0x20 ADD SWAP1 DUP2 MSTORE PUSH1 0x20 ADD PUSH0 KECCAK256 SWAP1 POP PUSH0 DUP2 PUSH1 0x2 ADD SLOAD GT PUSH2 0xFFB JUMPI PUSH1 0x40 MLOAD PUSH32 0x8C379A000000000000000000000000000000000000000000000000000000000 DUP2 MSTORE PUSH1 0x4 ADD PUSH2 0xFF2 SWAP1 PUSH2 0x31C2 JUMP JUMPDEST PUSH1 0x40 MLOAD DUP1 SWAP2 SUB SWAP1 REVERT JUMPDEST DUP1 PUSH1 0x6 ADD PUSH0 SWAP1 SLOAD SWAP1 PUSH2 0x100 EXP SWAP1 DIV PUSH1 0xFF AND ISZERO PUSH2 0x104C JUMPI PUSH1 0x40 MLOAD PUSH32 0x8C379A000000000000000000000000000000000000000000000000000000000 DUP2 MSTORE PUSH1 0x4 ADD PUSH2 0x1043 SWAP1 PUSH2 0x322A JUMP JUMPDEST PUSH1 0x40 MLOAD DUP1 SWAP2 SUB SWAP1 REVERT JUMPDEST PUSH1 0x8 SLOAD DUP3 LT ISZERO PUSH2 0x1091 JUMPI PUSH1 0x40 MLOAD PUSH32 0x8C379A000000000000000000000000000000000000000000000000000000000 DUP2 MSTORE PUSH1 0x4 ADD PUSH2 0x1088 SWAP1 PUSH2 0x30CB JUMP JUMPDEST PUSH1 0x40 MLOAD DUP1 SWAP2 SUB SWAP1 REVERT JUMPDEST PUSH2 0x10DF CALLER ADDRESS DUP5 PUSH1 0x2 PUSH0 SWAP1 SLOAD SWAP1 PUSH2 0x100 EXP SWAP1 DIV PUSH20 0xFFFFFFFFFFFFFFFFFFFFFFFFFFFFFFFFFFFFFFFF AND PUSH20 0xFFFFFFFFFFFFFFFFFFFFFFFFFFFFFFFFFFFFFFFF AND PUSH2 0x219E SWAP1 SWAP4 SWAP3 SWAP2 SWAP1 PUSH4 0xFFFFFFFF AND JUMP JUMPDEST PUSH1 0x2 PUSH0 SWAP1 SLOAD SWAP1 PUSH2 0x100 EXP SWAP1 DIV PUSH20 0xFFFFFFFFFFFFFFFFFFFFFFFFFFFFFFFFFFFFFFFF AND PUSH20 0xFFFFFFFFFFFFFFFFFFFFFFFFFFFFFFFFFFFFFFFF AND PUSH4 0x95EA7B3 PUSH1 0x4 PUSH0 SWAP1 SLOAD SWAP1 PUSH2 0x100 EXP SWAP1 DIV PUSH20 0xFFFFFFFFFFFFFFFFFFFFFFFFFFFFFFFFFFFFFFFF AND DUP5 PUSH1 0x40 MLOAD DUP4 PUSH4 0xFFFFFFFF AND PUSH1 0xE0 SHL DUP2 MSTORE PUSH1 0x4 ADD PUSH2 0x115C SWAP3 SWAP2 SWAP1 PUSH2 0x3248 JUMP JUMPDEST PUSH1 0x20 PUSH1 0x40 MLOAD DUP1 DUP4 SUB DUP2 PUSH0 DUP8 GAS CALL ISZERO DUP1 ISZERO PUSH2 0x1178 JUMPI RETURNDATASIZE PUSH0 PUSH0 RETURNDATACOPY RETURNDATASIZE PUSH0 REVERT JUMPDEST POP POP POP POP PUSH1 0x40 MLOAD RETURNDATASIZE PUSH1 0x1F NOT PUSH1 0x1F DUP3 ADD AND DUP3 ADD DUP1 PUSH1 0x40 MSTORE POP DUP2 ADD SWAP1 PUSH2 0x119C SWAP2 SWAP1 PUSH2 0x3299 JUMP JUMPDEST POP PUSH1 0x4 PUSH0 SWAP1 SLOAD SWAP1 PUSH2 0x100 EXP SWAP1 DIV PUSH20 0xFFFFFFFFFFFFFFFFFFFFFFFFFFFFFFFFFFFFFFFF AND PUSH20 0xFFFFFFFFFFFFFFFFFFFFFFFFFFFFFFFFFFFFFFFF AND PUSH4 0xB6B55F25 DUP4 PUSH1 0x40 MLOAD DUP3 PUSH4 0xFFFFFFFF AND PUSH1 0xE0 SHL DUP2 MSTORE PUSH1 0x4 ADD PUSH2 0x11F7 SWAP2 SWAP1 PUSH2 0x25CF JUMP JUMPDEST PUSH1 0x20 PUSH1 0x40 MLOAD DUP1 DUP4 SUB DUP2 PUSH0 DUP8 GAS CALL ISZERO DUP1 ISZERO PUSH2 0x1213 JUMPI RETURNDATASIZE PUSH0 PUSH0 RETURNDATACOPY RETURNDATASIZE PUSH0 REVERT JUMPDEST POP POP POP POP PUSH1 0x40 MLOAD RETURNDATASIZE PUSH1 0x1F NOT PUSH1 0x1F DUP3 ADD AND DUP3 ADD DUP1 PUSH1 0x40 MSTORE POP DUP2 ADD SWAP1 PUSH2 0x1237 SWAP2 SWAP1 PUSH2 0x3299 JUMP JUMPDEST POP DUP2 DUP2 PUSH1 0x4 ADD PUSH0 DUP3 DUP3 SLOAD PUSH2 0x124B SWAP2 SWAP1 PUSH2 0x32C4 JUMP JUMPDEST SWAP3 POP POP DUP2 SWAP1 SSTORE POP PUSH0 DUP2 PUSH1 0x3 ADD SLOAD EQ DUP1 PUSH2 0x1277 JUMPI POP PUSH2 0x126C DUP2 PUSH1 0x3 ADD SLOAD PUSH2 0x2220 JUMP JUMPDEST PUSH2 0x1275 TIMESTAMP PUSH2 0x2220 JUMP JUMPDEST GT JUMPDEST ISZERO PUSH2 0x1298 JUMPI PUSH1 0x1 DUP2 PUSH1 0x5 ADD PUSH0 DUP3 DUP3 SLOAD PUSH2 0x1290 SWAP2 SWAP1 PUSH2 0x32C4 JUMP JUMPDEST SWAP3 POP POP DUP2 SWAP1 SSTORE POP JUMPDEST TIMESTAMP DUP2 PUSH1 0x3 ADD DUP2 SWAP1 SSTORE POP CALLER PUSH20 0xFFFFFFFFFFFFFFFFFFFFFFFFFFFFFFFFFFFFFFFF AND PUSH32 0x6770260EA820D2F539364E7617E021543AAF6D192F2FD2A47C20DB6BD99A4EB9 DUP4 PUSH1 0x40 MLOAD PUSH2 0x12E7 SWAP2 SWAP1 PUSH2 0x25CF JUMP JUMPDEST PUSH1 0x40 MLOAD DUP1 SWAP2 SUB SWAP1 LOG2 PUSH1 0xA SLOAD PUSH2 0x12FD PUSH2 0x2710 PUSH2 0x2237 JUMP JUMPDEST LT ISZERO PUSH2 0x130C JUMPI PUSH2 0x130B PUSH2 0x2277 JUMP JUMPDEST JUMPDEST DUP1 PUSH0 ADD SLOAD DUP2 PUSH1 0x5 ADD SLOAD LT PUSH2 0x137A JUMPI PUSH1 0x1 DUP2 PUSH1 0x6 ADD PUSH0 PUSH2 0x100 EXP DUP2 SLOAD DUP2 PUSH1 0xFF MUL NOT AND SWAP1 DUP4 ISZERO ISZERO MUL OR SWAP1 SSTORE POP CALLER PUSH20 0xFFFFFFFFFFFFFFFFFFFFFFFFFFFFFFFFFFFFFFFF AND PUSH32 0xF686C0F42FAC659A335D049E2831F235A2EC4FB12ACA60D576F0296E7848868B PUSH1 0x40 MLOAD PUSH1 0x40 MLOAD DUP1 SWAP2 SUB SWAP1 LOG2 JUMPDEST POP PUSH2 0x1383 PUSH2 0x2195 JUMP JUMPDEST POP JUMP JUMPDEST PUSH1 0xA SLOAD DUP2 JUMP JUMPDEST PUSH2 0x1395 DUP3 PUSH2 0x807 JUMP JUMPDEST PUSH2 0x139E DUP2 PUSH2 0x1EDB JUMP JUMPDEST PUSH2 0x13A8 DUP4 DUP4 PUSH2 0x1FDF JUMP JUMPDEST POP POP POP POP JUMP JUMPDEST PUSH0 PUSH0 PUSH0 PUSH0 PUSH0 PUSH0 PUSH0 PUSH0 PUSH1 0xC PUSH0 DUP11 PUSH20 0xFFFFFFFFFFFFFFFFFFFFFFFFFFFFFFFFFFFFFFFF AND PUSH20 0xFFFFFFFFFFFFFFFFFFFFFFFFFFFFFFFFFFFFFFFF AND DUP2 MSTORE PUSH1 0x20 ADD SWAP1 DUP2 MSTORE PUSH1 0x20 ADD PUSH0 KECCAK256 SWAP1 POP DUP1 PUSH0 ADD SLOAD SWAP8 POP DUP1 PUSH1 0x1 ADD SLOAD SWAP7 POP DUP1 PUSH1 0x5 ADD SLOAD SWAP6 POP DUP1 PUSH1 0x4 ADD SLOAD SWAP5 POP DUP1 PUSH1 0x6 ADD PUSH0 SWAP1 SLOAD SWAP1 PUSH2 0x100 EXP SWAP1 DIV PUSH1 0xFF AND SWAP4 POP PUSH1 0x4 PUSH0 SWAP1 SLOAD SWAP1 PUSH2 0x100 EXP SWAP1 DIV PUSH20 0xFFFFFFFFFFFFFFFFFFFFFFFFFFFFFFFFFFFFFFFF AND PUSH20 0xFFFFFFFFFFFFFFFFFFFFFFFFFFFFFFFFFFFFFFFF AND PUSH4 0x64C33977 DUP11 PUSH1 0x40 MLOAD DUP3 PUSH4 0xFFFFFFFF AND PUSH1 0xE0 SHL DUP2 MSTORE PUSH1 0x4 ADD PUSH2 0x147D SWAP2 SWAP1 PUSH2 0x272B JUMP JUMPDEST PUSH1 0x20 PUSH1 0x40 MLOAD DUP1 DUP4 SUB DUP2 DUP7 GAS STATICCALL ISZERO DUP1 ISZERO PUSH2 0x1498 JUMPI RETURNDATASIZE PUSH0 PUSH0 RETURNDATACOPY RETURNDATASIZE PUSH0 REVERT JUMPDEST POP POP POP POP PUSH1 0x40 MLOAD RETURNDATASIZE PUSH1 0x1F NOT PUSH1 0x1F DUP3 ADD AND DUP3 ADD DUP1 PUSH1 0x40 MSTORE POP DUP2 ADD SWAP1 PUSH2 0x14BC SWAP2 SWAP1 PUSH2 0x2F68 JUMP JUMPDEST SWAP3 POP PUSH0 PUSH1 0x4 PUSH0 SWAP1 SLOAD SWAP1 PUSH2 0x100 EXP SWAP1 DIV PUSH20 0xFFFFFFFFFFFFFFFFFFFFFFFFFFFFFFFFFFFFFFFF AND PUSH20 0xFFFFFFFFFFFFFFFFFFFFFFFFFFFFFFFFFFFFFFFF AND PUSH4 0x962CA496 PUSH1 0x40 MLOAD DUP2 PUSH4 0xFFFFFFFF AND PUSH1 0xE0 SHL DUP2 MSTORE PUSH1 0x4 ADD PUSH1 0x20 PUSH1 0x40 MLOAD DUP1 DUP4 SUB DUP2 DUP7 GAS STATICCALL ISZERO DUP1 ISZERO PUSH2 0x1529 JUMPI RETURNDATASIZE PUSH0 PUSH0 RETURNDATACOPY RETURNDATASIZE PUSH0 REVERT JUMPDEST POP POP POP POP PUSH1 0x40 MLOAD RETURNDATASIZE PUSH1 0x1F NOT PUSH1 0x1F DUP3 ADD AND DUP3 ADD DUP1 PUSH1 0x40 MSTORE POP DUP2 ADD SWAP1 PUSH2 0x154D SWAP2 SWAP1 PUSH2 0x2F68 JUMP JUMPDEST SWAP1 POP PUSH3 0x1D4C0 DUP2 DUP8 PUSH2 0x155F SWAP2 SWAP1 PUSH2 0x32F7 JUMP JUMPDEST PUSH2 0x1569 SWAP2 SWAP1 PUSH2 0x3365 JUMP JUMPDEST SWAP3 POP PUSH2 0x2710 PUSH1 0x9 SLOAD DUP5 PUSH2 0x157C SWAP2 SWAP1 PUSH2 0x32F7 JUMP JUMPDEST PUSH2 0x1586 SWAP2 SWAP1 PUSH2 0x3365 JUMP JUMPDEST DUP4 PUSH2 0x1591 SWAP2 SWAP1 PUSH2 0x2FC0 JUMP JUMPDEST SWAP3 POP POP POP SWAP2 SWAP4 SWAP6 SWAP8 SWAP1 SWAP3 SWAP5 SWAP7 POP JUMP JUMPDEST PUSH2 0x15A8 PUSH2 0x2148 JUMP JUMPDEST PUSH0 PUSH1 0xC PUSH0 CALLER PUSH20 0xFFFFFFFFFFFFFFFFFFFFFFFFFFFFFFFFFFFFFFFF AND PUSH20 0xFFFFFFFFFFFFFFFFFFFFFFFFFFFFFFFFFFFFFFFF AND DUP2 MSTORE PUSH1 0x20 ADD SWAP1 DUP2 MSTORE PUSH1 0x20 ADD PUSH0 KECCAK256 SWAP1 POP DUP1 PUSH1 0x6 ADD PUSH0 SWAP1 SLOAD SWAP1 PUSH2 0x100 EXP SWAP1 DIV PUSH1 0xFF AND PUSH2 0x1638 JUMPI PUSH1 0x40 MLOAD PUSH32 0x8C379A000000000000000000000000000000000000000000000000000000000 DUP2 MSTORE PUSH1 0x4 ADD PUSH2 0x162F SWAP1 PUSH2 0x2EA8 JUMP JUMPDEST PUSH1 0x40 MLOAD DUP1 SWAP2 SUB SWAP1 REVERT JUMPDEST PUSH0 DUP2 PUSH1 0x7 ADD SLOAD EQ DUP1 PUSH2 0x165C JUMPI POP PUSH3 0x278D00 DUP2 PUSH1 0x7 ADD SLOAD PUSH2 0x1658 SWAP2 SWAP1 PUSH2 0x32C4 JUMP JUMPDEST TIMESTAMP LT ISZERO JUMPDEST PUSH2 0x169B JUMPI PUSH1 0x40 MLOAD PUSH32 0x8C379A000000000000000000000000000000000000000000000000000000000 DUP2 MSTORE PUSH1 0x4 ADD PUSH2 0x1692 SWAP1 PUSH2 0x33DF JUMP JUMPDEST PUSH1 0x40 MLOAD DUP1 SWAP2 SUB SWAP1 REVERT JUMPDEST PUSH0 PUSH1 0x4 PUSH0 SWAP1 SLOAD SWAP1 PUSH2 0x100 EXP SWAP1 DIV PUSH20 0xFFFFFFFFFFFFFFFFFFFFFFFFFFFFFFFFFFFFFFFF AND PUSH20 0xFFFFFFFFFFFFFFFFFFFFFFFFFFFFFFFFFFFFFFFF AND PUSH4 0x64C33977 CALLER PUSH1 0x40 MLOAD DUP3 PUSH4 0xFFFFFFFF AND PUSH1 0xE0 SHL DUP2 MSTORE PUSH1 0x4 ADD PUSH2 0x16F6 SWAP2 SWAP1 PUSH2 0x272B JUMP JUMPDEST PUSH1 0x20 PUSH1 0x40 MLOAD DUP1 DUP4 SUB DUP2 DUP7 GAS STATICCALL ISZERO DUP1 ISZERO PUSH2 0x1711 JUMPI RETURNDATASIZE PUSH0 PUSH0 RETURNDATACOPY RETURNDATASIZE PUSH0 REVERT JUMPDEST POP POP POP POP PUSH1 0x40 MLOAD RETURNDATASIZE PUSH1 0x1F NOT PUSH1 0x1F DUP3 ADD AND DUP3 ADD DUP1 PUSH1 0x40 MSTORE POP DUP2 ADD SWAP1 PUSH2 0x1735 SWAP2 SWAP1 PUSH2 0x2F68 JUMP JUMPDEST SWAP1 POP PUSH0 DUP2 GT PUSH2 0x1779 JUMPI PUSH1 0x40 MLOAD PUSH32 0x8C379A000000000000000000000000000000000000000000000000000000000 DUP2 MSTORE PUSH1 0x4 ADD PUSH2 0x1770 SWAP1 PUSH2 0x3447 JUMP JUMPDEST PUSH1 0x40 MLOAD DUP1 SWAP2 SUB SWAP1 REVERT JUMPDEST PUSH0 PUSH2 0x2710 PUSH1 0x9 SLOAD DUP4 PUSH2 0x178B SWAP2 SWAP1 PUSH2 0x32F7 JUMP JUMPDEST PUSH2 0x1795 SWAP2 SWAP1 PUSH2 0x3365 JUMP JUMPDEST SWAP1 POP PUSH0 DUP2 DUP4 PUSH2 0x17A4 SWAP2 SWAP1 PUSH2 0x2FC0 JUMP JUMPDEST SWAP1 POP PUSH1 0x4 PUSH0 SWAP1 SLOAD SWAP1 PUSH2 0x100 EXP SWAP1 DIV PUSH20 0xFFFFFFFFFFFFFFFFFFFFFFFFFFFFFFFFFFFFFFFF AND PUSH20 0xFFFFFFFFFFFFFFFFFFFFFFFFFFFFFFFFFFFFFFFF AND PUSH4 0x2E1A7D4D DUP5 PUSH1 0x40 MLOAD DUP3 PUSH4 0xFFFFFFFF AND PUSH1 0xE0 SHL DUP2 MSTORE PUSH1 0x4 ADD PUSH2 0x1800 SWAP2 SWAP1 PUSH2 0x25CF JUMP JUMPDEST PUSH1 0x20 PUSH1 0x40 MLOAD DUP1 DUP4 SUB DUP2 PUSH0 DUP8 GAS CALL ISZERO DUP1 ISZERO PUSH2 0x181C JUMPI RETURNDATASIZE PUSH0 PUSH0 RETURNDATACOPY RETURNDATASIZE PUSH0 REVERT JUMPDEST POP POP POP POP PUSH1 0x40 MLOAD RETURNDATASIZE PUSH1 0x1F NOT PUSH1 0x1F DUP3 ADD AND DUP3 ADD DUP1 PUSH1 0x40 MSTORE POP DUP2 ADD SWAP1 PUSH2 0x1840 SWAP2 SWAP1 PUSH2 0x2F68 JUMP JUMPDEST POP PUSH2 0x188D CALLER DUP3 PUSH1 0x2 PUSH0 SWAP1 SLOAD SWAP1 PUSH2 0x100 EXP SWAP1 DIV PUSH20 0xFFFFFFFFFFFFFFFFFFFFFFFFFFFFFFFFFFFFFFFF AND PUSH20 0xFFFFFFFFFFFFFFFFFFFFFFFFFFFFFFFFFFFFFFFF AND PUSH2 0x20C9 SWAP1 SWAP3 SWAP2 SWAP1 PUSH4 0xFFFFFFFF AND JUMP JUMPDEST PUSH0 DUP3 GT ISZERO PUSH2 0x18E2 JUMPI PUSH2 0x18E1 ADDRESS DUP4 PUSH1 0x2 PUSH0 SWAP1 SLOAD SWAP1 PUSH2 0x100 EXP SWAP1 DIV PUSH20 0xFFFFFFFFFFFFFFFFFFFFFFFFFFFFFFFFFFFFFFFF AND PUSH20 0xFFFFFFFFFFFFFFFFFFFFFFFFFFFFFFFFFFFFFFFF AND PUSH2 0x20C9 SWAP1 SWAP3 SWAP2 SWAP1 PUSH4 0xFFFFFFFF AND JUMP JUMPDEST JUMPDEST TIMESTAMP DUP5 PUSH1 0x7 ADD DUP2 SWAP1 SSTORE POP CALLER PUSH20 0xFFFFFFFFFFFFFFFFFFFFFFFFFFFFFFFFFFFFFFFF AND PUSH32 0xAED495D70193DD915B96156DC90595C95AA5CC4F6985A2CD79286232D96AE8E2 DUP3 PUSH1 0x40 MLOAD PUSH2 0x1931 SWAP2 SWAP1 PUSH2 0x25CF JUMP JUMPDEST PUSH1 0x40 MLOAD DUP1 SWAP2 SUB SWAP1 LOG2 POP POP POP POP PUSH2 0x1945 PUSH2 0x2195 JUMP JUMPDEST JUMP JUMPDEST PUSH32 0xA49807205CE4D355092EF5A8A18F56E8913CF4A201FBE287825B095693C21775 PUSH2 0x1971 DUP2 PUSH2 0x1EDB JUMP JUMPDEST DUP5 PUSH1 0x5 PUSH1 0x14 PUSH2 0x100 EXP DUP2 SLOAD DUP2 PUSH8 0xFFFFFFFFFFFFFFFF MUL NOT AND SWAP1 DUP4 PUSH8 0xFFFFFFFFFFFFFFFF AND MUL OR SWAP1 SSTORE POP DUP4 PUSH1 0x6 DUP2 SWAP1 SSTORE POP DUP3 PUSH1 0x7 PUSH0 PUSH2 0x100 EXP DUP2 SLOAD DUP2 PUSH4 0xFFFFFFFF MUL NOT AND SWAP1 DUP4 PUSH4 0xFFFFFFFF AND MUL OR SWAP1 SSTORE POP DUP2 PUSH1 0x7 PUSH1 0x4 PUSH2 0x100 EXP DUP2 SLOAD DUP2 PUSH2 0xFFFF MUL NOT AND SWAP1 DUP4 PUSH2 0xFFFF AND MUL OR SWAP1 SSTORE POP POP POP POP POP POP JUMP JUMPDEST PUSH32 0xA49807205CE4D355092EF5A8A18F56E8913CF4A201FBE287825B095693C21775 PUSH2 0x1A0F DUP2 PUSH2 0x1EDB JUMP JUMPDEST DUP2 PUSH1 0x4 PUSH0 PUSH2 0x100 EXP DUP2 SLOAD DUP2 PUSH20 0xFFFFFFFFFFFFFFFFFFFFFFFFFFFFFFFFFFFFFFFF MUL NOT AND SWAP1 DUP4 PUSH20 0xFFFFFFFFFFFFFFFFFFFFFFFFFFFFFFFFFFFFFFFF AND MUL OR SWAP1 SSTORE POP POP POP JUMP JUMPDEST PUSH1 0x2 PUSH0 SWAP1 SLOAD SWAP1 PUSH2 0x100 EXP SWAP1 DIV PUSH20 0xFFFFFFFFFFFFFFFFFFFFFFFFFFFFFFFFFFFFFFFF AND DUP2 JUMP JUMPDEST PUSH32 0xA49807205CE4D355092EF5A8A18F56E8913CF4A201FBE287825B095693C21775 PUSH2 0x1AA2 DUP2 PUSH2 0x1EDB JUMP JUMPDEST PUSH2 0x7D0 DUP5 GT ISZERO PUSH2 0x1AE7 JUMPI PUSH1 0x40 MLOAD PUSH32 0x8C379A000000000000000000000000000000000000000000000000000000000 DUP2 MSTORE PUSH1 0x4 ADD PUSH2 0x1ADE SWAP1 PUSH2 0x34AF JUMP JUMPDEST PUSH1 0x40 MLOAD DUP1 SWAP2 SUB SWAP1 REVERT JUMPDEST PUSH2 0x1388 DUP4 GT ISZERO PUSH2 0x1B2C JUMPI PUSH1 0x40 MLOAD PUSH32 0x8C379A000000000000000000000000000000000000000000000000000000000 DUP2 MSTORE PUSH1 0x4 ADD PUSH2 0x1B23 SWAP1 PUSH2 0x3517 JUMP JUMPDEST PUSH1 0x40 MLOAD DUP1 SWAP2 SUB SWAP1 REVERT JUMPDEST PUSH2 0x1388 DUP3 GT ISZERO PUSH2 0x1B71 JUMPI PUSH1 0x40 MLOAD PUSH32 0x8C379A000000000000000000000000000000000000000000000000000000000 DUP2 MSTORE PUSH1 0x4 ADD PUSH2 0x1B68 SWAP1 PUSH2 0x357F JUMP JUMPDEST PUSH1 0x40 MLOAD DUP1 SWAP2 SUB SWAP1 REVERT JUMPDEST DUP5 PUSH1 0x8 DUP2 SWAP1 SSTORE POP DUP4 PUSH1 0x9 DUP2 SWAP1 SSTORE POP DUP3 PUSH1 0xA DUP2 SWAP1 SSTORE POP DUP2 PUSH1 0xB DUP2 SWAP1 SSTORE POP POP POP POP POP POP JUMP JUMPDEST PUSH0 PUSH32 0x1FFC9A700000000000000000000000000000000000000000000000000000000 PUSH28 0xFFFFFFFFFFFFFFFFFFFFFFFFFFFFFFFFFFFFFFFFFFFFFFFFFFFFFFFF NOT AND DUP3 PUSH28 0xFFFFFFFFFFFFFFFFFFFFFFFFFFFFFFFFFFFFFFFFFFFFFFFFFFFFFFFF NOT AND EQ SWAP1 POP SWAP2 SWAP1 POP JUMP JUMPDEST PUSH0 PUSH1 0xD PUSH0 DUP5 DUP2 MSTORE PUSH1 0x20 ADD SWAP1 DUP2 MSTORE PUSH1 0x20 ADD PUSH0 KECCAK256 PUSH0 SWAP1 SLOAD SWAP1 PUSH2 0x100 EXP SWAP1 DIV PUSH20 0xFFFFFFFFFFFFFFFFFFFFFFFFFFFFFFFFFFFFFFFF AND SWAP1 POP PUSH0 PUSH20 0xFFFFFFFFFFFFFFFFFFFFFFFFFFFFFFFFFFFFFFFF AND DUP2 PUSH20 0xFFFFFFFFFFFFFFFFFFFFFFFFFFFFFFFFFFFFFFFF AND SUB PUSH2 0x1C9F JUMPI PUSH1 0x40 MLOAD PUSH32 0x8C379A000000000000000000000000000000000000000000000000000000000 DUP2 MSTORE PUSH1 0x4 ADD PUSH2 0x1C96 SWAP1 PUSH2 0x35E7 JUMP JUMPDEST PUSH1 0x40 MLOAD DUP1 SWAP2 SUB SWAP1 REVERT JUMPDEST PUSH1 0x14 PUSH1 0x64 DUP4 PUSH0 DUP2 MLOAD DUP2 LT PUSH2 0x1CB6 JUMPI PUSH2 0x1CB5 PUSH2 0x3605 JUMP JUMPDEST JUMPDEST PUSH1 0x20 MUL PUSH1 0x20 ADD ADD MLOAD PUSH2 0x1CC8 SWAP2 SWAP1 PUSH2 0x3632 JUMP JUMPDEST LT ISZERO PUSH2 0x1EA3 JUMPI PUSH0 PUSH1 0xC PUSH0 DUP4 PUSH20 0xFFFFFFFFFFFFFFFFFFFFFFFFFFFFFFFFFFFFFFFF AND PUSH20 0xFFFFFFFFFFFFFFFFFFFFFFFFFFFFFFFFFFFFFFFF AND DUP2 MSTORE PUSH1 0x20 ADD SWAP1 DUP2 MSTORE PUSH1 0x20 ADD PUSH0 KECCAK256 SWAP1 POP PUSH0 PUSH2 0x2710 PUSH1 0xB SLOAD DUP4 PUSH1 0x1 ADD SLOAD PUSH2 0x1D24 SWAP2 SWAP1 PUSH2 0x32F7 JUMP JUMPDEST PUSH2 0x1D2E SWAP2 SWAP1 PUSH2 0x3365 JUMP JUMPDEST SWAP1 POP PUSH2 0x1D9D PUSH1 0x4 PUSH0 SWAP1 SLOAD SWAP1 PUSH2 0x100 EXP SWAP1 DIV PUSH20 0xFFFFFFFFFFFFFFFFFFFFFFFFFFFFFFFFFFFFFFFF AND DUP3 PUSH1 0x2 PUSH0 SWAP1 SLOAD SWAP1 PUSH2 0x100 EXP SWAP1 DIV PUSH20 0xFFFFFFFFFFFFFFFFFFFFFFFFFFFFFFFFFFFFFFFF AND PUSH20 0xFFFFFFFFFFFFFFFFFFFFFFFFFFFFFFFFFFFFFFFF AND PUSH2 0x20C9 SWAP1 SWAP3 SWAP2 SWAP1 PUSH4 0xFFFFFFFF AND JUMP JUMPDEST PUSH1 0x4 PUSH0 SWAP1 SLOAD SWAP1 PUSH2 0x100 EXP SWAP1 DIV PUSH20 0xFFFFFFFFFFFFFFFFFFFFFFFFFFFFFFFFFFFFFFFF AND PUSH20 0xFFFFFFFFFFFFFFFFFFFFFFFFFFFFFFFFFFFFFFFF AND PUSH4 0xB6B55F25 DUP3 PUSH1 0x40 MLOAD DUP3 PUSH4 0xFFFFFFFF AND PUSH1 0xE0 SHL DUP2 MSTORE PUSH1 0x4 ADD PUSH2 0x1DF7 SWAP2 SWAP1 PUSH2 0x25CF JUMP JUMPDEST PUSH1 0x20 PUSH1 0x40 MLOAD DUP1 DUP4 SUB DUP2 PUSH0 DUP8 GAS CALL ISZERO DUP1 ISZERO PUSH2 0x1E13 JUMPI RETURNDATASIZE PUSH0 PUSH0 RETURNDATACOPY RETURNDATASIZE PUSH0 REVERT JUMPDEST POP POP POP POP PUSH1 0x40 MLOAD RETURNDATASIZE PUSH1 0x1F NOT PUSH1 0x1F DUP3 ADD AND DUP3 ADD DUP1 PUSH1 0x40 MSTORE POP DUP2 ADD SWAP1 PUSH2 0x1E37 SWAP2 SWAP1 PUSH2 0x3299 JUMP JUMPDEST POP DUP1 DUP3 PUSH1 0x4 ADD PUSH0 DUP3 DUP3 SLOAD PUSH2 0x1E4B SWAP2 SWAP1 PUSH2 0x32C4 JUMP JUMPDEST SWAP3 POP POP DUP2 SWAP1 SSTORE POP DUP3 PUSH20 0xFFFFFFFFFFFFFFFFFFFFFFFFFFFFFFFFFFFFFFFF AND PUSH32 0x2E798DD4337E515C79B64C40E1A93BAA1AEFBD9180AC7905E02508EDD7971E50 DUP3 PUSH1 0x40 MLOAD PUSH2 0x1E98 SWAP2 SWAP1 PUSH2 0x25CF JUMP JUMPDEST PUSH1 0x40 MLOAD DUP1 SWAP2 SUB SWAP1 LOG2 POP POP JUMPDEST PUSH1 0xD PUSH0 DUP5 DUP2 MSTORE PUSH1 0x20 ADD SWAP1 DUP2 MSTORE PUSH1 0x20 ADD PUSH0 KECCAK256 PUSH0 PUSH2 0x100 EXP DUP2 SLOAD SWAP1 PUSH20 0xFFFFFFFFFFFFFFFFFFFFFFFFFFFFFFFFFFFFFFFF MUL NOT AND SWAP1 SSTORE POP POP POP JUMP JUMPDEST PUSH2 0x1EEC DUP2 PUSH2 0x1EE7 PUSH2 0x1FD8 JUMP JUMPDEST PUSH2 0x2407 JUMP JUMPDEST POP JUMP JUMPDEST PUSH0 PUSH2 0x1EFA DUP4 DUP4 PUSH2 0xCAD JUMP JUMPDEST PUSH2 0x1FCE JUMPI PUSH1 0x1 DUP1 PUSH0 DUP6 DUP2 MSTORE PUSH1 0x20 ADD SWAP1 DUP2 MSTORE PUSH1 0x20 ADD PUSH0 KECCAK256 PUSH0 ADD PUSH0 DUP5 PUSH20 0xFFFFFFFFFFFFFFFFFFFFFFFFFFFFFFFFFFFFFFFF AND PUSH20 0xFFFFFFFFFFFFFFFFFFFFFFFFFFFFFFFFFFFFFFFF AND DUP2 MSTORE PUSH1 0x20 ADD SWAP1 DUP2 MSTORE PUSH1 0x20 ADD PUSH0 KECCAK256 PUSH0 PUSH2 0x100 EXP DUP2 SLOAD DUP2 PUSH1 0xFF MUL NOT AND SWAP1 DUP4 ISZERO ISZERO MUL OR SWAP1 SSTORE POP PUSH2 0x1F6B PUSH2 0x1FD8 JUMP JUMPDEST PUSH20 0xFFFFFFFFFFFFFFFFFFFFFFFFFFFFFFFFFFFFFFFF AND DUP3 PUSH20 0xFFFFFFFFFFFFFFFFFFFFFFFFFFFFFFFFFFFFFFFF AND DUP5 PUSH32 0x2F8788117E7EFF1D82E926EC794901D17C78024A50270940304540A733656F0D PUSH1 0x40 MLOAD PUSH1 0x40 MLOAD DUP1 SWAP2 SUB SWAP1 LOG4 PUSH1 0x1 SWAP1 POP PUSH2 0x1FD2 JUMP JUMPDEST PUSH0 SWAP1 POP JUMPDEST SWAP3 SWAP2 POP POP JUMP JUMPDEST PUSH0 CALLER SWAP1 POP SWAP1 JUMP JUMPDEST PUSH0 PUSH2 0x1FEA DUP4 DUP4 PUSH2 0xCAD JUMP JUMPDEST ISZERO PUSH2 0x20BF JUMPI PUSH0 PUSH1 0x1 PUSH0 DUP6 DUP2 MSTORE PUSH1 0x20 ADD SWAP1 DUP2 MSTORE PUSH1 0x20 ADD PUSH0 KECCAK256 PUSH0 ADD PUSH0 DUP5 PUSH20 0xFFFFFFFFFFFFFFFFFFFFFFFFFFFFFFFFFFFFFFFF AND PUSH20 0xFFFFFFFFFFFFFFFFFFFFFFFFFFFFFFFFFFFFFFFF AND DUP2 MSTORE PUSH1 0x20 ADD SWAP1 DUP2 MSTORE PUSH1 0x20 ADD PUSH0 KECCAK256 PUSH0 PUSH2 0x100 EXP DUP2 SLOAD DUP2 PUSH1 0xFF MUL NOT AND SWAP1 DUP4 ISZERO ISZERO MUL OR SWAP1 SSTORE POP PUSH2 0x205C PUSH2 0x1FD8 JUMP JUMPDEST PUSH20 0xFFFFFFFFFFFFFFFFFFFFFFFFFFFFFFFFFFFFFFFF AND DUP3 PUSH20 0xFFFFFFFFFFFFFFFFFFFFFFFFFFFFFFFFFFFFFFFF AND DUP5 PUSH32 0xF6391F5C32D9C69D2A47EA670B442974B53935D1EDC7FD64EB21E047A839171B PUSH1 0x40 MLOAD PUSH1 0x40 MLOAD DUP1 SWAP2 SUB SWAP1 LOG4 PUSH1 0x1 SWAP1 POP PUSH2 0x20C3 JUMP JUMPDEST PUSH0 SWAP1 POP JUMPDEST SWAP3 SWAP2 POP POP JUMP JUMPDEST PUSH2 0x2143 DUP4 DUP5 PUSH20 0xFFFFFFFFFFFFFFFFFFFFFFFFFFFFFFFFFFFFFFFF AND PUSH4 0xA9059CBB DUP6 DUP6 PUSH1 0x40 MLOAD PUSH1 0x24 ADD PUSH2 0x20FC SWAP3 SWAP2 SWAP1 PUSH2 0x3248 JUMP JUMPDEST PUSH1 0x40 MLOAD PUSH1 0x20 DUP2 DUP4 SUB SUB DUP2 MSTORE SWAP1 PUSH1 0x40 MSTORE SWAP2 POP PUSH1 0xE0 SHL PUSH1 0x20 DUP3 ADD DUP1 MLOAD PUSH28 0xFFFFFFFFFFFFFFFFFFFFFFFFFFFFFFFFFFFFFFFFFFFFFFFFFFFFFFFF DUP4 DUP2 DUP4 AND OR DUP4 MSTORE POP POP POP POP PUSH2 0x2458 JUMP JUMPDEST POP POP POP JUMP JUMPDEST PUSH1 0x2 PUSH0 SLOAD SUB PUSH2 0x218C JUMPI PUSH1 0x40 MLOAD PUSH32 0x8C379A000000000000000000000000000000000000000000000000000000000 DUP2 MSTORE PUSH1 0x4 ADD PUSH2 0x2183 SWAP1 PUSH2 0x36AC JUMP JUMPDEST PUSH1 0x40 MLOAD DUP1 SWAP2 SUB SWAP1 REVERT JUMPDEST PUSH1 0x2 PUSH0 DUP2 SWAP1 SSTORE POP JUMP JUMPDEST PUSH1 0x1 PUSH0 DUP2 SWAP1 SSTORE POP JUMP JUMPDEST PUSH2 0x221A DUP5 DUP6 PUSH20 0xFFFFFFFFFFFFFFFFFFFFFFFFFFFFFFFFFFFFFFFF AND PUSH4 0x23B872DD DUP7 DUP7 DUP7 PUSH1 0x40 MLOAD PUSH1 0x24 ADD PUSH2 0x21D3 SWAP4 SWAP3 SWAP2 SWAP1 PUSH2 0x36CA JUMP JUMPDEST PUSH1 0x40 MLOAD PUSH1 0x20 DUP2 DUP4 SUB SUB DUP2 MSTORE SWAP1 PUSH1 0x40 MSTORE SWAP2 POP PUSH1 0xE0 SHL PUSH1 0x20 DUP3 ADD DUP1 MLOAD PUSH28 0xFFFFFFFFFFFFFFFFFFFFFFFFFFFFFFFFFFFFFFFFFFFFFFFFFFFFFFFF DUP4 DUP2 DUP4 AND OR DUP4 MSTORE POP POP POP POP PUSH2 0x2458 JUMP JUMPDEST POP POP POP POP JUMP JUMPDEST PUSH0 PUSH3 0x278D00 DUP3 PUSH2 0x2230 SWAP2 SWAP1 PUSH2 0x3365 JUMP JUMPDEST SWAP1 POP SWAP2 SWAP1 POP JUMP JUMPDEST PUSH0 DUP2 TIMESTAMP PREVRANDAO CALLER PUSH1 0x40 MLOAD PUSH1 0x20 ADD PUSH2 0x224E SWAP4 SWAP3 SWAP2 SWAP1 PUSH2 0x3764 JUMP JUMPDEST PUSH1 0x40 MLOAD PUSH1 0x20 DUP2 DUP4 SUB SUB DUP2 MSTORE SWAP1 PUSH1 0x40 MSTORE DUP1 MLOAD SWAP1 PUSH1 0x20 ADD KECCAK256 PUSH0 SHR PUSH2 0x2270 SWAP2 SWAP1 PUSH2 0x3632 JUMP JUMPDEST SWAP1 POP SWAP2 SWAP1 POP JUMP JUMPDEST PUSH0 PUSH1 0x5 PUSH0 SWAP1 SLOAD SWAP1 PUSH2 0x100 EXP SWAP1 DIV PUSH20 0xFFFFFFFFFFFFFFFFFFFFFFFFFFFFFFFFFFFFFFFF AND PUSH20 0xFFFFFFFFFFFFFFFFFFFFFFFFFFFFFFFFFFFFFFFF AND PUSH4 0x5D3B1D30 PUSH1 0x6 SLOAD PUSH1 0x5 PUSH1 0x14 SWAP1 SLOAD SWAP1 PUSH2 0x100 EXP SWAP1 DIV PUSH8 0xFFFFFFFFFFFFFFFF AND PUSH1 0x7 PUSH1 0x4 SWAP1 SLOAD SWAP1 PUSH2 0x100 EXP SWAP1 DIV PUSH2 0xFFFF AND PUSH1 0x7 PUSH0 SWAP1 SLOAD SWAP1 PUSH2 0x100 EXP SWAP1 DIV PUSH4 0xFFFFFFFF AND PUSH1 0x7 PUSH1 0x6 SWAP1 SLOAD SWAP1 PUSH2 0x100 EXP SWAP1 DIV PUSH4 0xFFFFFFFF AND PUSH1 0x40 MLOAD DUP7 PUSH4 0xFFFFFFFF AND PUSH1 0xE0 SHL DUP2 MSTORE PUSH1 0x4 ADD PUSH2 0x2325 SWAP6 SWAP5 SWAP4 SWAP3 SWAP2 SWAP1 PUSH2 0x37A0 JUMP JUMPDEST PUSH1 0x20 PUSH1 0x40 MLOAD DUP1 DUP4 SUB DUP2 PUSH0 DUP8 GAS CALL ISZERO DUP1 ISZERO PUSH2 0x2341 JUMPI RETURNDATASIZE PUSH0 PUSH0 RETURNDATACOPY RETURNDATASIZE PUSH0 REVERT JUMPDEST POP POP POP POP PUSH1 0x40 MLOAD RETURNDATASIZE PUSH1 0x1F NOT PUSH1 0x1F DUP3 ADD AND DUP3 ADD DUP1 PUSH1 0x40 MSTORE POP DUP2 ADD SWAP1 PUSH2 0x2365 SWAP2 SWAP1 PUSH2 0x2F68 JUMP JUMPDEST SWAP1 POP CALLER PUSH1 0xD PUSH0 DUP4 DUP2 MSTORE PUSH1 0x20 ADD SWAP1 DUP2 MSTORE PUSH1 0x20 ADD PUSH0 KECCAK256 PUSH0 PUSH2 0x100 EXP DUP2 SLOAD DUP2 PUSH20 0xFFFFFFFFFFFFFFFFFFFFFFFFFFFFFFFFFFFFFFFF MUL NOT AND SWAP1 DUP4 PUSH20 0xFFFFFFFFFFFFFFFFFFFFFFFFFFFFFFFFFFFFFFFF AND MUL OR SWAP1 SSTORE POP CALLER PUSH20 0xFFFFFFFFFFFFFFFFFFFFFFFFFFFFFFFFFFFFFFFF AND PUSH32 0xEC5728C504463DDFD82A13C3A3525FEC41178A9E98AC507B599B20EFB2D961DA DUP3 PUSH1 0x40 MLOAD PUSH2 0x23FC SWAP2 SWAP1 PUSH2 0x25CF JUMP JUMPDEST PUSH1 0x40 MLOAD DUP1 SWAP2 SUB SWAP1 LOG2 POP JUMP JUMPDEST PUSH2 0x2411 DUP3 DUP3 PUSH2 0xCAD JUMP JUMPDEST PUSH2 0x2454 JUMPI DUP1 DUP3 PUSH1 0x40 MLOAD PUSH32 0xE2517D3F00000000000000000000000000000000000000000000000000000000 DUP2 MSTORE PUSH1 0x4 ADD PUSH2 0x244B SWAP3 SWAP2 SWAP1 PUSH2 0x37F1 JUMP JUMPDEST PUSH1 0x40 MLOAD DUP1 SWAP2 SUB SWAP1 REVERT JUMPDEST POP POP JUMP JUMPDEST PUSH0 PUSH0 PUSH1 0x20 PUSH0 DUP5 MLOAD PUSH1 0x20 DUP7 ADD PUSH0 DUP9 GAS CALL DUP1 PUSH2 0x2477 JUMPI PUSH1 0x40 MLOAD RETURNDATASIZE PUSH0 DUP3 RETURNDATACOPY RETURNDATASIZE DUP2 REVERT JUMPDEST RETURNDATASIZE SWAP3 POP PUSH0 MLOAD SWAP2 POP POP PUSH0 DUP3 EQ PUSH2 0x2490 JUMPI PUSH1 0x1 DUP2 EQ ISZERO PUSH2 0x24AB JUMP JUMPDEST PUSH0 DUP5 PUSH20 0xFFFFFFFFFFFFFFFFFFFFFFFFFFFFFFFFFFFFFFFF AND EXTCODESIZE EQ JUMPDEST ISZERO PUSH2 0x24ED JUMPI DUP4 PUSH1 0x40 MLOAD PUSH32 0x5274AFE700000000000000000000000000000000000000000000000000000000 DUP2 MSTORE PUSH1 0x4 ADD PUSH2 0x24E4 SWAP2 SWAP1 PUSH2 0x272B JUMP JUMPDEST PUSH1 0x40 MLOAD DUP1 SWAP2 SUB SWAP1 REVERT JUMPDEST POP POP POP POP JUMP JUMPDEST PUSH0 PUSH1 0x40 MLOAD SWAP1 POP SWAP1 JUMP JUMPDEST PUSH0 PUSH0 REVERT JUMPDEST PUSH0 PUSH0 REVERT JUMPDEST PUSH0 PUSH32 0xFFFFFFFF00000000000000000000000000000000000000000000000000000000 DUP3 AND SWAP1 POP SWAP2 SWAP1 POP JUMP JUMPDEST PUSH2 0x2538 DUP2 PUSH2 0x2504 JUMP JUMPDEST DUP2 EQ PUSH2 0x2542 JUMPI PUSH0 PUSH0 REVERT JUMPDEST POP JUMP JUMPDEST PUSH0 DUP2 CALLDATALOAD SWAP1 POP PUSH2 0x2553 DUP2 PUSH2 0x252F JUMP JUMPDEST SWAP3 SWAP2 POP POP JUMP JUMPDEST PUSH0 PUSH1 0x20 DUP3 DUP5 SUB SLT ISZERO PUSH2 0x256E JUMPI PUSH2 0x256D PUSH2 0x24FC JUMP JUMPDEST JUMPDEST PUSH0 PUSH2 0x257B DUP5 DUP3 DUP6 ADD PUSH2 0x2545 JUMP JUMPDEST SWAP2 POP POP SWAP3 SWAP2 POP POP JUMP JUMPDEST PUSH0 DUP2 ISZERO ISZERO SWAP1 POP SWAP2 SWAP1 POP JUMP JUMPDEST PUSH2 0x2598 DUP2 PUSH2 0x2584 JUMP JUMPDEST DUP3 MSTORE POP POP JUMP JUMPDEST PUSH0 PUSH1 0x20 DUP3 ADD SWAP1 POP PUSH2 0x25B1 PUSH0 DUP4 ADD DUP5 PUSH2 0x258F JUMP JUMPDEST SWAP3 SWAP2 POP POP JUMP JUMPDEST PUSH0 DUP2 SWAP1 POP SWAP2 SWAP1 POP JUMP JUMPDEST PUSH2 0x25C9 DUP2 PUSH2 0x25B7 JUMP JUMPDEST DUP3 MSTORE POP POP JUMP JUMPDEST PUSH0 PUSH1 0x20 DUP3 ADD SWAP1 POP PUSH2 0x25E2 PUSH0 DUP4 ADD DUP5 PUSH2 0x25C0 JUMP JUMPDEST SWAP3 SWAP2 POP POP JUMP JUMPDEST PUSH0 PUSH8 0xFFFFFFFFFFFFFFFF DUP3 AND SWAP1 POP SWAP2 SWAP1 POP JUMP JUMPDEST PUSH2 0x2604 DUP2 PUSH2 0x25E8 JUMP JUMPDEST DUP3 MSTORE POP POP JUMP JUMPDEST PUSH0 PUSH1 0x20 DUP3 ADD SWAP1 POP PUSH2 0x261D PUSH0 DUP4 ADD DUP5 PUSH2 0x25FB JUMP JUMPDEST SWAP3 SWAP2 POP POP JUMP JUMPDEST PUSH0 PUSH20 0xFFFFFFFFFFFFFFFFFFFFFFFFFFFFFFFFFFFFFFFF DUP3 AND SWAP1 POP SWAP2 SWAP1 POP JUMP JUMPDEST PUSH0 DUP2 SWAP1 POP SWAP2 SWAP1 POP JUMP JUMPDEST PUSH0 PUSH2 0x2665 PUSH2 0x2660 PUSH2 0x265B DUP5 PUSH2 0x2623 JUMP JUMPDEST PUSH2 0x2642 JUMP JUMPDEST PUSH2 0x2623 JUMP JUMPDEST SWAP1 POP SWAP2 SWAP1 POP JUMP JUMPDEST PUSH0 PUSH2 0x2676 DUP3 PUSH2 0x264B JUMP JUMPDEST SWAP1 POP SWAP2 SWAP1 POP JUMP JUMPDEST PUSH0 PUSH2 0x2687 DUP3 PUSH2 0x266C JUMP JUMPDEST SWAP1 POP SWAP2 SWAP1 POP JUMP JUMPDEST PUSH2 0x2697 DUP2 PUSH2 0x267D JUMP JUMPDEST DUP3 MSTORE POP POP JUMP JUMPDEST PUSH0 PUSH1 0x20 DUP3 ADD SWAP1 POP PUSH2 0x26B0 PUSH0 DUP4 ADD DUP5 PUSH2 0x268E JUMP JUMPDEST SWAP3 SWAP2 POP POP JUMP JUMPDEST PUSH2 0x26BF DUP2 PUSH2 0x25B7 JUMP JUMPDEST DUP2 EQ PUSH2 0x26C9 JUMPI PUSH0 PUSH0 REVERT JUMPDEST POP JUMP JUMPDEST PUSH0 DUP2 CALLDATALOAD SWAP1 POP PUSH2 0x26DA DUP2 PUSH2 0x26B6 JUMP JUMPDEST SWAP3 SWAP2 POP POP JUMP JUMPDEST PUSH0 PUSH1 0x20 DUP3 DUP5 SUB SLT ISZERO PUSH2 0x26F5 JUMPI PUSH2 0x26F4 PUSH2 0x24FC JUMP JUMPDEST JUMPDEST PUSH0 PUSH2 0x2702 DUP5 DUP3 DUP6 ADD PUSH2 0x26CC JUMP JUMPDEST SWAP2 POP POP SWAP3 SWAP2 POP POP JUMP JUMPDEST PUSH0 PUSH2 0x2715 DUP3 PUSH2 0x2623 JUMP JUMPDEST SWAP1 POP SWAP2 SWAP1 POP JUMP JUMPDEST PUSH2 0x2725 DUP2 PUSH2 0x270B JUMP JUMPDEST DUP3 MSTORE POP POP JUMP JUMPDEST PUSH0 PUSH1 0x20 DUP3 ADD SWAP1 POP PUSH2 0x273E PUSH0 DUP4 ADD DUP5 PUSH2 0x271C JUMP JUMPDEST SWAP3 SWAP2 POP POP JUMP JUMPDEST PUSH0 PUSH0 REVERT JUMPDEST PUSH0 PUSH1 0x1F NOT PUSH1 0x1F DUP4 ADD AND SWAP1 POP SWAP2 SWAP1 POP JUMP JUMPDEST PUSH32 0x4E487B7100000000000000000000000000000000000000000000000000000000 PUSH0 MSTORE PUSH1 0x41 PUSH1 0x4 MSTORE PUSH1 0x24 PUSH0 REVERT JUMPDEST PUSH2 0x278E DUP3 PUSH2 0x2748 JUMP JUMPDEST DUP2 ADD DUP2 DUP2 LT PUSH8 0xFFFFFFFFFFFFFFFF DUP3 GT OR ISZERO PUSH2 0x27AD JUMPI PUSH2 0x27AC PUSH2 0x2758 JUMP JUMPDEST JUMPDEST DUP1 PUSH1 0x40 MSTORE POP POP POP JUMP JUMPDEST PUSH0 PUSH2 0x27BF PUSH2 0x24F3 JUMP JUMPDEST SWAP1 POP PUSH2 0x27CB DUP3 DUP3 PUSH2 0x2785 JUMP JUMPDEST SWAP2 SWAP1 POP JUMP JUMPDEST PUSH0 PUSH8 0xFFFFFFFFFFFFFFFF DUP3 GT ISZERO PUSH2 0x27EA JUMPI PUSH2 0x27E9 PUSH2 0x2758 JUMP JUMPDEST JUMPDEST PUSH1 0x20 DUP3 MUL SWAP1 POP PUSH1 0x20 DUP2 ADD SWAP1 POP SWAP2 SWAP1 POP JUMP JUMPDEST PUSH0 PUSH0 REVERT JUMPDEST PUSH0 PUSH2 0x2811 PUSH2 0x280C DUP5 PUSH2 0x27D0 JUMP JUMPDEST PUSH2 0x27B6 JUMP JUMPDEST SWAP1 POP DUP1 DUP4 DUP3 MSTORE PUSH1 0x20 DUP3 ADD SWAP1 POP PUSH1 0x20 DUP5 MUL DUP4 ADD DUP6 DUP2 GT ISZERO PUSH2 0x2834 JUMPI PUSH2 0x2833 PUSH2 0x27FB JUMP JUMPDEST JUMPDEST DUP4 JUMPDEST DUP2 DUP2 LT ISZERO PUSH2 0x285D JUMPI DUP1 PUSH2 0x2849 DUP9 DUP3 PUSH2 0x26CC JUMP JUMPDEST DUP5 MSTORE PUSH1 0x20 DUP5 ADD SWAP4 POP POP PUSH1 0x20 DUP2 ADD SWAP1 POP PUSH2 0x2836 JUMP JUMPDEST POP POP POP SWAP4 SWAP3 POP POP POP JUMP JUMPDEST PUSH0 DUP3 PUSH1 0x1F DUP4 ADD SLT PUSH2 0x287B JUMPI PUSH2 0x287A PUSH2 0x2744 JUMP JUMPDEST JUMPDEST DUP2 CALLDATALOAD PUSH2 0x288B DUP5 DUP3 PUSH1 0x20 DUP7 ADD PUSH2 0x27FF JUMP JUMPDEST SWAP2 POP POP SWAP3 SWAP2 POP POP JUMP JUMPDEST PUSH0 PUSH0 PUSH1 0x40 DUP4 DUP6 SUB SLT ISZERO PUSH2 0x28AA JUMPI PUSH2 0x28A9 PUSH2 0x24FC JUMP JUMPDEST JUMPDEST PUSH0 PUSH2 0x28B7 DUP6 DUP3 DUP7 ADD PUSH2 0x26CC JUMP JUMPDEST SWAP3 POP POP PUSH1 0x20 DUP4 ADD CALLDATALOAD PUSH8 0xFFFFFFFFFFFFFFFF DUP2 GT ISZERO PUSH2 0x28D8 JUMPI PUSH2 0x28D7 PUSH2 0x2500 JUMP JUMPDEST JUMPDEST PUSH2 0x28E4 DUP6 DUP3 DUP7 ADD PUSH2 0x2867 JUMP JUMPDEST SWAP2 POP POP SWAP3 POP SWAP3 SWAP1 POP JUMP JUMPDEST PUSH0 DUP2 SWAP1 POP SWAP2 SWAP1 POP JUMP JUMPDEST PUSH2 0x2900 DUP2 PUSH2 0x28EE JUMP JUMPDEST DUP2 EQ PUSH2 0x290A JUMPI PUSH0 PUSH0 REVERT JUMPDEST POP JUMP JUMPDEST PUSH0 DUP2 CALLDATALOAD SWAP1 POP PUSH2 0x291B DUP2 PUSH2 0x28F7 JUMP JUMPDEST SWAP3 SWAP2 POP POP JUMP JUMPDEST PUSH0 PUSH1 0x20 DUP3 DUP5 SUB SLT ISZERO PUSH2 0x2936 JUMPI PUSH2 0x2935 PUSH2 0x24FC JUMP JUMPDEST JUMPDEST PUSH0 PUSH2 0x2943 DUP5 DUP3 DUP6 ADD PUSH2 0x290D JUMP JUMPDEST SWAP2 POP POP SWAP3 SWAP2 POP POP JUMP JUMPDEST PUSH2 0x2955 DUP2 PUSH2 0x28EE JUMP JUMPDEST DUP3 MSTORE POP POP JUMP JUMPDEST PUSH0 PUSH1 0x20 DUP3 ADD SWAP1 POP PUSH2 0x296E PUSH0 DUP4 ADD DUP5 PUSH2 0x294C JUMP JUMPDEST SWAP3 SWAP2 POP POP JUMP JUMPDEST PUSH0 PUSH4 0xFFFFFFFF DUP3 AND SWAP1 POP SWAP2 SWAP1 POP JUMP JUMPDEST PUSH2 0x298C DUP2 PUSH2 0x2974 JUMP JUMPDEST DUP3 MSTORE POP POP JUMP JUMPDEST PUSH0 PUSH1 0x20 DUP3 ADD SWAP1 POP PUSH2 0x29A5 PUSH0 DUP4 ADD DUP5 PUSH2 0x2983 JUMP JUMPDEST SWAP3 SWAP2 POP POP JUMP JUMPDEST PUSH2 0x29B4 DUP2 PUSH2 0x270B JUMP JUMPDEST DUP2 EQ PUSH2 0x29BE JUMPI PUSH0 PUSH0 REVERT JUMPDEST POP JUMP JUMPDEST PUSH0 DUP2 CALLDATALOAD SWAP1 POP PUSH2 0x29CF DUP2 PUSH2 0x29AB JUMP JUMPDEST SWAP3 SWAP2 POP POP JUMP JUMPDEST PUSH0 PUSH0 PUSH1 0x40 DUP4 DUP6 SUB SLT ISZERO PUSH2 0x29EB JUMPI PUSH2 0x29EA PUSH2 0x24FC JUMP JUMPDEST JUMPDEST PUSH0 PUSH2 0x29F8 DUP6 DUP3 DUP7 ADD PUSH2 0x290D JUMP JUMPDEST SWAP3 POP POP PUSH1 0x20 PUSH2 0x2A09 DUP6 DUP3 DUP7 ADD PUSH2 0x29C1 JUMP JUMPDEST SWAP2 POP POP SWAP3 POP SWAP3 SWAP1 POP JUMP JUMPDEST PUSH0 PUSH2 0x2A1D DUP3 PUSH2 0x266C JUMP JUMPDEST SWAP1 POP SWAP2 SWAP1 POP JUMP JUMPDEST PUSH2 0x2A2D DUP2 PUSH2 0x2A13 JUMP JUMPDEST DUP3 MSTORE POP POP JUMP JUMPDEST PUSH0 PUSH1 0x20 DUP3 ADD SWAP1 POP PUSH2 0x2A46 PUSH0 DUP4 ADD DUP5 PUSH2 0x2A24 JUMP JUMPDEST SWAP3 SWAP2 POP POP JUMP JUMPDEST PUSH0 PUSH1 0xFF DUP3 AND SWAP1 POP SWAP2 SWAP1 POP JUMP JUMPDEST PUSH2 0x2A61 DUP2 PUSH2 0x2A4C JUMP JUMPDEST DUP3 MSTORE POP POP JUMP JUMPDEST PUSH0 PUSH1 0x20 DUP3 ADD SWAP1 POP PUSH2 0x2A7A PUSH0 DUP4 ADD DUP5 PUSH2 0x2A58 JUMP JUMPDEST SWAP3 SWAP2 POP POP JUMP JUMPDEST PUSH0 PUSH1 0x20 DUP3 DUP5 SUB SLT ISZERO PUSH2 0x2A95 JUMPI PUSH2 0x2A94 PUSH2 0x24FC JUMP JUMPDEST JUMPDEST PUSH0 PUSH2 0x2AA2 DUP5 DUP3 DUP6 ADD PUSH2 0x29C1 JUMP JUMPDEST SWAP2 POP POP SWAP3 SWAP2 POP POP JUMP JUMPDEST PUSH0 PUSH2 0x100 DUP3 ADD SWAP1 POP PUSH2 0x2ABF PUSH0 DUP4 ADD DUP12 PUSH2 0x25C0 JUMP JUMPDEST PUSH2 0x2ACC PUSH1 0x20 DUP4 ADD DUP11 PUSH2 0x25C0 JUMP JUMPDEST PUSH2 0x2AD9 PUSH1 0x40 DUP4 ADD DUP10 PUSH2 0x25C0 JUMP JUMPDEST PUSH2 0x2AE6 PUSH1 0x60 DUP4 ADD DUP9 PUSH2 0x25C0 JUMP JUMPDEST PUSH2 0x2AF3 PUSH1 0x80 DUP4 ADD DUP8 PUSH2 0x25C0 JUMP JUMPDEST PUSH2 0x2B00 PUSH1 0xA0 DUP4 ADD DUP7 PUSH2 0x25C0 JUMP JUMPDEST PUSH2 0x2B0D PUSH1 0xC0 DUP4 ADD DUP6 PUSH2 0x258F JUMP JUMPDEST PUSH2 0x2B1A PUSH1 0xE0 DUP4 ADD DUP5 PUSH2 0x25C0 JUMP JUMPDEST SWAP10 SWAP9 POP POP POP POP POP POP POP POP POP JUMP JUMPDEST PUSH0 PUSH2 0x2B31 DUP3 PUSH2 0x266C JUMP JUMPDEST SWAP1 POP SWAP2 SWAP1 POP JUMP JUMPDEST PUSH2 0x2B41 DUP2 PUSH2 0x2B27 JUMP JUMPDEST DUP3 MSTORE POP POP JUMP JUMPDEST PUSH0 PUSH1 0x20 DUP3 ADD SWAP1 POP PUSH2 0x2B5A PUSH0 DUP4 ADD DUP5 PUSH2 0x2B38 JUMP JUMPDEST SWAP3 SWAP2 POP POP JUMP JUMPDEST PUSH0 PUSH2 0xFFFF DUP3 AND SWAP1 POP SWAP2 SWAP1 POP JUMP JUMPDEST PUSH2 0x2B76 DUP2 PUSH2 0x2B60 JUMP JUMPDEST DUP3 MSTORE POP POP JUMP JUMPDEST PUSH0 PUSH1 0x20 DUP3 ADD SWAP1 POP PUSH2 0x2B8F PUSH0 DUP4 ADD DUP5 PUSH2 0x2B6D JUMP JUMPDEST SWAP3 SWAP2 POP POP JUMP JUMPDEST PUSH0 PUSH0 PUSH1 0x40 DUP4 DUP6 SUB SLT ISZERO PUSH2 0x2BAB JUMPI PUSH2 0x2BAA PUSH2 0x24FC JUMP JUMPDEST JUMPDEST PUSH0 PUSH2 0x2BB8 DUP6 DUP3 DUP7 ADD PUSH2 0x26CC JUMP JUMPDEST SWAP3 POP POP PUSH1 0x20 PUSH2 0x2BC9 DUP6 DUP3 DUP7 ADD PUSH2 0x26CC JUMP JUMPDEST SWAP2 POP POP SWAP3 POP SWAP3 SWAP1 POP JUMP JUMPDEST PUSH0 PUSH1 0xE0 DUP3 ADD SWAP1 POP PUSH2 0x2BE6 PUSH0 DUP4 ADD DUP11 PUSH2 0x25C0 JUMP JUMPDEST PUSH2 0x2BF3 PUSH1 0x20 DUP4 ADD DUP10 PUSH2 0x25C0 JUMP JUMPDEST PUSH2 0x2C00 PUSH1 0x40 DUP4 ADD DUP9 PUSH2 0x25C0 JUMP JUMPDEST PUSH2 0x2C0D PUSH1 0x60 DUP4 ADD DUP8 PUSH2 0x25C0 JUMP JUMPDEST PUSH2 0x2C1A PUSH1 0x80 DUP4 ADD DUP7 PUSH2 0x258F JUMP JUMPDEST PUSH2 0x2C27 PUSH1 0xA0 DUP4 ADD DUP6 PUSH2 0x25C0 JUMP JUMPDEST PUSH2 0x2C34 PUSH1 0xC0 DUP4 ADD DUP5 PUSH2 0x25C0 JUMP JUMPDEST SWAP9 SWAP8 POP POP POP POP POP POP POP POP JUMP JUMPDEST PUSH2 0x2C49 DUP2 PUSH2 0x25E8 JUMP JUMPDEST DUP2 EQ PUSH2 0x2C53 JUMPI PUSH0 PUSH0 REVERT JUMPDEST POP JUMP JUMPDEST PUSH0 DUP2 CALLDATALOAD SWAP1 POP PUSH2 0x2C64 DUP2 PUSH2 0x2C40 JUMP JUMPDEST SWAP3 SWAP2 POP POP JUMP JUMPDEST PUSH2 0x2C73 DUP2 PUSH2 0x2974 JUMP JUMPDEST DUP2 EQ PUSH2 0x2C7D JUMPI PUSH0 PUSH0 REVERT JUMPDEST POP JUMP JUMPDEST PUSH0 DUP2 CALLDATALOAD SWAP1 POP PUSH2 0x2C8E DUP2 PUSH2 0x2C6A JUMP JUMPDEST SWAP3 SWAP2 POP POP JUMP JUMPDEST PUSH2 0x2C9D DUP2 PUSH2 0x2B60 JUMP JUMPDEST DUP2 EQ PUSH2 0x2CA7 JUMPI PUSH0 PUSH0 REVERT JUMPDEST POP JUMP JUMPDEST PUSH0 DUP2 CALLDATALOAD SWAP1 POP PUSH2 0x2CB8 DUP2 PUSH2 0x2C94 JUMP JUMPDEST SWAP3 SWAP2 POP POP JUMP JUMPDEST PUSH0 PUSH0 PUSH0 PUSH0 PUSH1 0x80 DUP6 DUP8 SUB SLT ISZERO PUSH2 0x2CD6 JUMPI PUSH2 0x2CD5 PUSH2 0x24FC JUMP JUMPDEST JUMPDEST PUSH0 PUSH2 0x2CE3 DUP8 DUP3 DUP9 ADD PUSH2 0x2C56 JUMP JUMPDEST SWAP5 POP POP PUSH1 0x20 PUSH2 0x2CF4 DUP8 DUP3 DUP9 ADD PUSH2 0x290D JUMP JUMPDEST SWAP4 POP POP PUSH1 0x40 PUSH2 0x2D05 DUP8 DUP3 DUP9 ADD PUSH2 0x2C80 JUMP JUMPDEST SWAP3 POP POP PUSH1 0x60 PUSH2 0x2D16 DUP8 DUP3 DUP9 ADD PUSH2 0x2CAA JUMP JUMPDEST SWAP2 POP POP SWAP3 SWAP6 SWAP2 SWAP5 POP SWAP3 POP JUMP JUMPDEST PUSH0 PUSH2 0x2D2C DUP3 PUSH2 0x266C JUMP JUMPDEST SWAP1 POP SWAP2 SWAP1 POP JUMP JUMPDEST PUSH2 0x2D3C DUP2 PUSH2 0x2D22 JUMP JUMPDEST DUP3 MSTORE POP POP JUMP JUMPDEST PUSH0 PUSH1 0x20 DUP3 ADD SWAP1 POP PUSH2 0x2D55 PUSH0 DUP4 ADD DUP5 PUSH2 0x2D33 JUMP JUMPDEST SWAP3 SWAP2 POP POP JUMP JUMPDEST PUSH0 PUSH0 PUSH0 PUSH0 PUSH1 0x80 DUP6 DUP8 SUB SLT ISZERO PUSH2 0x2D73 JUMPI PUSH2 0x2D72 PUSH2 0x24FC JUMP JUMPDEST JUMPDEST PUSH0 PUSH2 0x2D80 DUP8 DUP3 DUP9 ADD PUSH2 0x26CC JUMP JUMPDEST SWAP5 POP POP PUSH1 0x20 PUSH2 0x2D91 DUP8 DUP3 DUP9 ADD PUSH2 0x26CC JUMP JUMPDEST SWAP4 POP POP PUSH1 0x40 PUSH2 0x2DA2 DUP8 DUP3 DUP9 ADD PUSH2 0x26CC JUMP JUMPDEST SWAP3 POP POP PUSH1 0x60 PUSH2 0x2DB3 DUP8 DUP3 DUP9 ADD PUSH2 0x26CC JUMP JUMPDEST SWAP2 POP POP SWAP3 SWAP6 SWAP2 SWAP5 POP SWAP3 POP JUMP JUMPDEST PUSH0 PUSH1 0x40 DUP3 ADD SWAP1 POP PUSH2 0x2DD2 PUSH0 DUP4 ADD DUP6 PUSH2 0x271C JUMP JUMPDEST PUSH2 0x2DDF PUSH1 0x20 DUP4 ADD DUP5 PUSH2 0x271C JUMP JUMPDEST SWAP4 SWAP3 POP POP POP JUMP JUMPDEST PUSH0 DUP3 DUP3 MSTORE PUSH1 0x20 DUP3 ADD SWAP1 POP SWAP3 SWAP2 POP POP JUMP JUMPDEST PUSH32 0x416D6F756E74206D7573742062652067726561746572207468616E2030000000 PUSH0 DUP3 ADD MSTORE POP JUMP JUMPDEST PUSH0 PUSH2 0x2E2A PUSH1 0x1D DUP4 PUSH2 0x2DE6 JUMP JUMPDEST SWAP2 POP PUSH2 0x2E35 DUP3 PUSH2 0x2DF6 JUMP JUMPDEST PUSH1 0x20 DUP3 ADD SWAP1 POP SWAP2 SWAP1 POP JUMP JUMPDEST PUSH0 PUSH1 0x20 DUP3 ADD SWAP1 POP DUP2 DUP2 SUB PUSH0 DUP4 ADD MSTORE PUSH2 0x2E57 DUP2 PUSH2 0x2E1E JUMP JUMPDEST SWAP1 POP SWAP2 SWAP1 POP JUMP JUMPDEST PUSH32 0x4E6F7420696E207265746972656D656E74207068617365000000000000000000 PUSH0 DUP3 ADD MSTORE POP JUMP JUMPDEST PUSH0 PUSH2 0x2E92 PUSH1 0x17 DUP4 PUSH2 0x2DE6 JUMP JUMPDEST SWAP2 POP PUSH2 0x2E9D DUP3 PUSH2 0x2E5E JUMP JUMPDEST PUSH1 0x20 DUP3 ADD SWAP1 POP SWAP2 SWAP1 POP JUMP JUMPDEST PUSH0 PUSH1 0x20 DUP3 ADD SWAP1 POP DUP2 DUP2 SUB PUSH0 DUP4 ADD MSTORE PUSH2 0x2EBF DUP2 PUSH2 0x2E86 JUMP JUMPDEST SWAP1 POP SWAP2 SWAP1 POP JUMP JUMPDEST PUSH32 0x416D6F756E74206578636565647320746F74616C20636F6E747269627574696F PUSH0 DUP3 ADD MSTORE PUSH32 0x6E00000000000000000000000000000000000000000000000000000000000000 PUSH1 0x20 DUP3 ADD MSTORE POP JUMP JUMPDEST PUSH0 PUSH2 0x2F20 PUSH1 0x21 DUP4 PUSH2 0x2DE6 JUMP JUMPDEST SWAP2 POP PUSH2 0x2F2B DUP3 PUSH2 0x2EC6 JUMP JUMPDEST PUSH1 0x40 DUP3 ADD SWAP1 POP SWAP2 SWAP1 POP JUMP JUMPDEST PUSH0 PUSH1 0x20 DUP3 ADD SWAP1 POP DUP2 DUP2 SUB PUSH0 DUP4 ADD MSTORE PUSH2 0x2F4D DUP2 PUSH2 0x2F14 JUMP JUMPDEST SWAP1 POP SWAP2 SWAP1 POP JUMP JUMPDEST PUSH0 DUP2 MLOAD SWAP1 POP PUSH2 0x2F62 DUP2 PUSH2 0x26B6 JUMP JUMPDEST SWAP3 SWAP2 POP POP JUMP JUMPDEST PUSH0 PUSH1 0x20 DUP3 DUP5 SUB SLT ISZERO PUSH2 0x2F7D JUMPI PUSH2 0x2F7C PUSH2 0x24FC JUMP JUMPDEST JUMPDEST PUSH0 PUSH2 0x2F8A DUP5 DUP3 DUP6 ADD PUSH2 0x2F54 JUMP JUMPDEST SWAP2 POP POP SWAP3 SWAP2 POP POP JUMP JUMPDEST PUSH32 0x4E487B7100000000000000000000000000000000000000000000000000000000 PUSH0 MSTORE PUSH1 0x11 PUSH1 0x4 MSTORE PUSH1 0x24 PUSH0 REVERT JUMPDEST PUSH0 PUSH2 0x2FCA DUP3 PUSH2 0x25B7 JUMP JUMPDEST SWAP2 POP PUSH2 0x2FD5 DUP4 PUSH2 0x25B7 JUMP JUMPDEST SWAP3 POP DUP3 DUP3 SUB SWAP1 POP DUP2 DUP2 GT ISZERO PUSH2 0x2FED JUMPI PUSH2 0x2FEC PUSH2 0x2F93 JUMP JUMPDEST JUMPDEST SWAP3 SWAP2 POP POP JUMP JUMPDEST PUSH32 0x546172676574206D6F6E746873206D7573742062652067726561746572207468 PUSH0 DUP3 ADD MSTORE PUSH32 0x616E203000000000000000000000000000000000000000000000000000000000 PUSH1 0x20 DUP3 ADD MSTORE POP JUMP JUMPDEST PUSH0 PUSH2 0x304D PUSH1 0x24 DUP4 PUSH2 0x2DE6 JUMP JUMPDEST SWAP2 POP PUSH2 0x3058 DUP3 PUSH2 0x2FF3 JUMP JUMPDEST PUSH1 0x40 DUP3 ADD SWAP1 POP SWAP2 SWAP1 POP JUMP JUMPDEST PUSH0 PUSH1 0x20 DUP3 ADD SWAP1 POP DUP2 DUP2 SUB PUSH0 DUP4 ADD MSTORE PUSH2 0x307A DUP2 PUSH2 0x3041 JUMP JUMPDEST SWAP1 POP SWAP2 SWAP1 POP JUMP JUMPDEST PUSH32 0x436F6E747269627574696F6E2062656C6F77206D696E696D756D000000000000 PUSH0 DUP3 ADD MSTORE POP JUMP JUMPDEST PUSH0 PUSH2 0x30B5 PUSH1 0x1A DUP4 PUSH2 0x2DE6 JUMP JUMPDEST SWAP2 POP PUSH2 0x30C0 DUP3 PUSH2 0x3081 JUMP JUMPDEST PUSH1 0x20 DUP3 ADD SWAP1 POP SWAP2 SWAP1 POP JUMP JUMPDEST PUSH0 PUSH1 0x20 DUP3 ADD SWAP1 POP DUP2 DUP2 SUB PUSH0 DUP4 ADD MSTORE PUSH2 0x30E2 DUP2 PUSH2 0x30A9 JUMP JUMPDEST SWAP1 POP SWAP2 SWAP1 POP JUMP JUMPDEST PUSH32 0x506C616E20616C72656164792065786973747300000000000000000000000000 PUSH0 DUP3 ADD MSTORE POP JUMP JUMPDEST PUSH0 PUSH2 0x311D PUSH1 0x13 DUP4 PUSH2 0x2DE6 JUMP JUMPDEST SWAP2 POP PUSH2 0x3128 DUP3 PUSH2 0x30E9 JUMP JUMPDEST PUSH1 0x20 DUP3 ADD SWAP1 POP SWAP2 SWAP1 POP JUMP JUMPDEST PUSH0 PUSH1 0x20 DUP3 ADD SWAP1 POP DUP2 DUP2 SUB PUSH0 DUP4 ADD MSTORE PUSH2 0x314A DUP2 PUSH2 0x3111 JUMP JUMPDEST SWAP1 POP SWAP2 SWAP1 POP JUMP JUMPDEST PUSH0 PUSH1 0x40 DUP3 ADD SWAP1 POP PUSH2 0x3164 PUSH0 DUP4 ADD DUP6 PUSH2 0x25C0 JUMP JUMPDEST PUSH2 0x3171 PUSH1 0x20 DUP4 ADD DUP5 PUSH2 0x25C0 JUMP JUMPDEST SWAP4 SWAP3 POP POP POP JUMP JUMPDEST PUSH32 0x4E6F20706C616E20657869737473000000000000000000000000000000000000 PUSH0 DUP3 ADD MSTORE POP JUMP JUMPDEST PUSH0 PUSH2 0x31AC PUSH1 0xE DUP4 PUSH2 0x2DE6 JUMP JUMPDEST SWAP2 POP PUSH2 0x31B7 DUP3 PUSH2 0x3178 JUMP JUMPDEST PUSH1 0x20 DUP3 ADD SWAP1 POP SWAP2 SWAP1 POP JUMP JUMPDEST PUSH0 PUSH1 0x20 DUP3 ADD SWAP1 POP DUP2 DUP2 SUB PUSH0 DUP4 ADD MSTORE PUSH2 0x31D9 DUP2 PUSH2 0x31A0 JUMP JUMPDEST SWAP1 POP SWAP2 SWAP1 POP JUMP JUMPDEST PUSH32 0x416C726561647920696E207265746972656D656E742070686173650000000000 PUSH0 DUP3 ADD MSTORE POP JUMP JUMPDEST PUSH0 PUSH2 0x3214 PUSH1 0x1B DUP4 PUSH2 0x2DE6 JUMP JUMPDEST SWAP2 POP PUSH2 0x321F DUP3 PUSH2 0x31E0 JUMP JUMPDEST PUSH1 0x20 DUP3 ADD SWAP1 POP SWAP2 SWAP1 POP JUMP JUMPDEST PUSH0 PUSH1 0x20 DUP3 ADD SWAP1 POP DUP2 DUP2 SUB PUSH0 DUP4 ADD MSTORE PUSH2 0x3241 DUP2 PUSH2 0x3208 JUMP JUMPDEST SWAP1 POP SWAP2 SWAP1 POP JUMP JUMPDEST PUSH0 PUSH1 0x40 DUP3 ADD SWAP1 POP PUSH2 0x325B PUSH0 DUP4 ADD DUP6 PUSH2 0x271C JUMP JUMPDEST PUSH2 0x3268 PUSH1 0x20 DUP4 ADD DUP5 PUSH2 0x25C0 JUMP JUMPDEST SWAP4 SWAP3 POP POP POP JUMP JUMPDEST PUSH2 0x3278 DUP2 PUSH2 0x2584 JUMP JUMPDEST DUP2 EQ PUSH2 0x3282 JUMPI PUSH0 PUSH0 REVERT JUMPDEST POP JUMP JUMPDEST PUSH0 DUP2 MLOAD SWAP1 POP PUSH2 0x3293 DUP2 PUSH2 0x326F JUMP JUMPDEST SWAP3 SWAP2 POP POP JUMP JUMPDEST PUSH0 PUSH1 0x20 DUP3 DUP5 SUB SLT ISZERO PUSH2 0x32AE JUMPI PUSH2 0x32AD PUSH2 0x24FC JUMP JUMPDEST JUMPDEST PUSH0 PUSH2 0x32BB DUP5 DUP3 DUP6 ADD PUSH2 0x3285 JUMP JUMPDEST SWAP2 POP POP SWAP3 SWAP2 POP POP JUMP JUMPDEST PUSH0 PUSH2 0x32CE DUP3 PUSH2 0x25B7 JUMP JUMPDEST SWAP2 POP PUSH2 0x32D9 DUP4 PUSH2 0x25B7 JUMP JUMPDEST SWAP3 POP DUP3 DUP3 ADD SWAP1 POP DUP1 DUP3 GT ISZERO PUSH2 0x32F1 JUMPI PUSH2 0x32F0 PUSH2 0x2F93 JUMP JUMPDEST JUMPDEST SWAP3 SWAP2 POP POP JUMP JUMPDEST PUSH0 PUSH2 0x3301 DUP3 PUSH2 0x25B7 JUMP JUMPDEST SWAP2 POP PUSH2 0x330C DUP4 PUSH2 0x25B7 JUMP JUMPDEST SWAP3 POP DUP3 DUP3 MUL PUSH2 0x331A DUP2 PUSH2 0x25B7 JUMP JUMPDEST SWAP2 POP DUP3 DUP3 DIV DUP5 EQ DUP4 ISZERO OR PUSH2 0x3331 JUMPI PUSH2 0x3330 PUSH2 0x2F93 JUMP JUMPDEST JUMPDEST POP SWAP3 SWAP2 POP POP JUMP JUMPDEST PUSH32 0x4E487B7100000000000000000000000000000000000000000000000000000000 PUSH0 MSTORE PUSH1 0x12 PUSH1 0x4 MSTORE PUSH1 0x24 PUSH0 REVERT JUMPDEST PUSH0 PUSH2 0x336F DUP3 PUSH2 0x25B7 JUMP JUMPDEST SWAP2 POP PUSH2 0x337A DUP4 PUSH2 0x25B7 JUMP JUMPDEST SWAP3 POP DUP3 PUSH2 0x338A JUMPI PUSH2 0x3389 PUSH2 0x3338 JUMP JUMPDEST JUMPDEST DUP3 DUP3 DIV SWAP1 POP SWAP3 SWAP2 POP POP JUMP JUMPDEST PUSH32 0x43616E206F6E6C79207769746864726177206F6E636520706572206D6F6E7468 PUSH0 DUP3 ADD MSTORE POP JUMP JUMPDEST PUSH0 PUSH2 0x33C9 PUSH1 0x20 DUP4 PUSH2 0x2DE6 JUMP JUMPDEST SWAP2 POP PUSH2 0x33D4 DUP3 PUSH2 0x3395 JUMP JUMPDEST PUSH1 0x20 DUP3 ADD SWAP1 POP SWAP2 SWAP1 POP JUMP JUMPDEST PUSH0 PUSH1 0x20 DUP3 ADD SWAP1 POP DUP2 DUP2 SUB PUSH0 DUP4 ADD MSTORE PUSH2 0x33F6 DUP2 PUSH2 0x33BD JUMP JUMPDEST SWAP1 POP SWAP2 SWAP1 POP JUMP JUMPDEST PUSH32 0x4E6F207969656C6420617661696C61626C650000000000000000000000000000 PUSH0 DUP3 ADD MSTORE POP JUMP JUMPDEST PUSH0 PUSH2 0x3431 PUSH1 0x12 DUP4 PUSH2 0x2DE6 JUMP JUMPDEST SWAP2 POP PUSH2 0x343C DUP3 PUSH2 0x33FD JUMP JUMPDEST PUSH1 0x20 DUP3 ADD SWAP1 POP SWAP2 SWAP1 POP JUMP JUMPDEST PUSH0 PUSH1 0x20 DUP3 ADD SWAP1 POP DUP2 DUP2 SUB PUSH0 DUP4 ADD MSTORE PUSH2 0x345E DUP2 PUSH2 0x3425 JUMP JUMPDEST SWAP1 POP SWAP2 SWAP1 POP JUMP JUMPDEST PUSH32 0x46656520746F6F20686967680000000000000000000000000000000000000000 PUSH0 DUP3 ADD MSTORE POP JUMP JUMPDEST PUSH0 PUSH2 0x3499 PUSH1 0xC DUP4 PUSH2 0x2DE6 JUMP JUMPDEST SWAP2 POP PUSH2 0x34A4 DUP3 PUSH2 0x3465 JUMP JUMPDEST PUSH1 0x20 DUP3 ADD SWAP1 POP SWAP2 SWAP1 POP JUMP JUMPDEST PUSH0 PUSH1 0x20 DUP3 ADD SWAP1 POP DUP2 DUP2 SUB PUSH0 DUP4 ADD MSTORE PUSH2 0x34C6 DUP2 PUSH2 0x348D JUMP JUMPDEST SWAP1 POP SWAP2 SWAP1 POP JUMP JUMPDEST PUSH32 0x50726F626162696C69747920746F6F2068696768000000000000000000000000 PUSH0 DUP3 ADD MSTORE POP JUMP JUMPDEST PUSH0 PUSH2 0x3501 PUSH1 0x14 DUP4 PUSH2 0x2DE6 JUMP JUMPDEST SWAP2 POP PUSH2 0x350C DUP3 PUSH2 0x34CD JUMP JUMPDEST PUSH1 0x20 DUP3 ADD SWAP1 POP SWAP2 SWAP1 POP JUMP JUMPDEST PUSH0 PUSH1 0x20 DUP3 ADD SWAP1 POP DUP2 DUP2 SUB PUSH0 DUP4 ADD MSTORE PUSH2 0x352E DUP2 PUSH2 0x34F5 JUMP JUMPDEST SWAP1 POP SWAP2 SWAP1 POP JUMP JUMPDEST PUSH32 0x426F6E757320746F6F2068696768000000000000000000000000000000000000 PUSH0 DUP3 ADD MSTORE POP JUMP JUMPDEST PUSH0 PUSH2 0x3569 PUSH1 0xE DUP4 PUSH2 0x2DE6 JUMP JUMPDEST SWAP2 POP PUSH2 0x3574 DUP3 PUSH2 0x3535 JUMP JUMPDEST PUSH1 0x20 DUP3 ADD SWAP1 POP SWAP2 SWAP1 POP JUMP JUMPDEST PUSH0 PUSH1 0x20 DUP3 ADD SWAP1 POP DUP2 DUP2 SUB PUSH0 DUP4 ADD MSTORE PUSH2 0x3596 DUP2 PUSH2 0x355D JUMP JUMPDEST SWAP1 POP SWAP2 SWAP1 POP JUMP JUMPDEST PUSH32 0x556E6B6E6F776E20726571756573742049440000000000000000000000000000 PUSH0 DUP3 ADD MSTORE POP JUMP JUMPDEST PUSH0 PUSH2 0x35D1 PUSH1 0x12 DUP4 PUSH2 0x2DE6 JUMP JUMPDEST SWAP2 POP PUSH2 0x35DC DUP3 PUSH2 0x359D JUMP JUMPDEST PUSH1 0x20 DUP3 ADD SWAP1 POP SWAP2 SWAP1 POP JUMP JUMPDEST PUSH0 PUSH1 0x20 DUP3 ADD SWAP1 POP DUP2 DUP2 SUB PUSH0 DUP4 ADD MSTORE PUSH2 0x35FE DUP2 PUSH2 0x35C5 JUMP JUMPDEST SWAP1 POP SWAP2 SWAP1 POP JUMP JUMPDEST PUSH32 0x4E487B7100000000000000000000000000000000000000000000000000000000 PUSH0 MSTORE PUSH1 0x32 PUSH1 0x4 MSTORE PUSH1 0x24 PUSH0 REVERT JUMPDEST PUSH0 PUSH2 0x363C DUP3 PUSH2 0x25B7 JUMP JUMPDEST SWAP2 POP PUSH2 0x3647 DUP4 PUSH2 0x25B7 JUMP JUMPDEST SWAP3 POP DUP3 PUSH2 0x3657 JUMPI PUSH2 0x3656 PUSH2 0x3338 JUMP JUMPDEST JUMPDEST DUP3 DUP3 MOD SWAP1 POP SWAP3 SWAP2 POP POP JUMP JUMPDEST PUSH32 0x5265656E7472616E637947756172643A207265656E7472616E742063616C6C00 PUSH0 DUP3 ADD MSTORE POP JUMP JUMPDEST PUSH0 PUSH2 0x3696 PUSH1 0x1F DUP4 PUSH2 0x2DE6 JUMP JUMPDEST SWAP2 POP PUSH2 0x36A1 DUP3 PUSH2 0x3662 JUMP JUMPDEST PUSH1 0x20 DUP3 ADD SWAP1 POP SWAP2 SWAP1 POP JUMP JUMPDEST PUSH0 PUSH1 0x20 DUP3 ADD SWAP1 POP DUP2 DUP2 SUB PUSH0 DUP4 ADD MSTORE PUSH2 0x36C3 DUP2 PUSH2 0x368A JUMP JUMPDEST SWAP1 POP SWAP2 SWAP1 POP JUMP JUMPDEST PUSH0 PUSH1 0x60 DUP3 ADD SWAP1 POP PUSH2 0x36DD PUSH0 DUP4 ADD DUP7 PUSH2 0x271C JUMP JUMPDEST PUSH2 0x36EA PUSH1 0x20 DUP4 ADD DUP6 PUSH2 0x271C JUMP JUMPDEST PUSH2 0x36F7 PUSH1 0x40 DUP4 ADD DUP5 PUSH2 0x25C0 JUMP JUMPDEST SWAP5 SWAP4 POP POP POP POP JUMP JUMPDEST PUSH0 DUP2 SWAP1 POP SWAP2 SWAP1 POP JUMP JUMPDEST PUSH2 0x3719 PUSH2 0x3714 DUP3 PUSH2 0x25B7 JUMP JUMPDEST PUSH2 0x36FF JUMP JUMPDEST DUP3 MSTORE POP POP JUMP JUMPDEST PUSH0 DUP2 PUSH1 0x60 SHL SWAP1 POP SWAP2 SWAP1 POP JUMP JUMPDEST PUSH0 PUSH2 0x3735 DUP3 PUSH2 0x371F JUMP JUMPDEST SWAP1 POP SWAP2 SWAP1 POP JUMP JUMPDEST PUSH0 PUSH2 0x3746 DUP3 PUSH2 0x372B JUMP JUMPDEST SWAP1 POP SWAP2 SWAP1 POP JUMP JUMPDEST PUSH2 0x375E PUSH2 0x3759 DUP3 PUSH2 0x270B JUMP JUMPDEST PUSH2 0x373C JUMP JUMPDEST DUP3 MSTORE POP POP JUMP JUMPDEST PUSH0 PUSH2 0x376F DUP3 DUP7 PUSH2 0x3708 JUMP JUMPDEST PUSH1 0x20 DUP3 ADD SWAP2 POP PUSH2 0x377F DUP3 DUP6 PUSH2 0x3708 JUMP JUMPDEST PUSH1 0x20 DUP3 ADD SWAP2 POP PUSH2 0x378F DUP3 DUP5 PUSH2 0x374D JUMP JUMPDEST PUSH1 0x14 DUP3 ADD SWAP2 POP DUP2 SWAP1 POP SWAP5 SWAP4 POP POP POP POP JUMP JUMPDEST PUSH0 PUSH1 0xA0 DUP3 ADD SWAP1 POP PUSH2 0x37B3 PUSH0 DUP4 ADD DUP9 PUSH2 0x294C JUMP JUMPDEST PUSH2 0x37C0 PUSH1 0x20 DUP4 ADD DUP8 PUSH2 0x25FB JUMP JUMPDEST PUSH2 0x37CD PUSH1 0x40 DUP4 ADD DUP7 PUSH2 0x2B6D JUMP JUMPDEST PUSH2 0x37DA PUSH1 0x60 DUP4 ADD DUP6 PUSH2 0x2983 JUMP JUMPDEST PUSH2 0x37E7 PUSH1 0x80 DUP4 ADD DUP5 PUSH2 0x2983 JUMP JUMPDEST SWAP7 SWAP6 POP POP POP POP POP POP JUMP JUMPDEST PUSH0 PUSH1 0x40 DUP3 ADD SWAP1 POP PUSH2 0x3804 PUSH0 DUP4 ADD DUP6 PUSH2 0x271C JUMP JUMPDEST PUSH2 0x3811 PUSH1 0x20 DUP4 ADD DUP5 PUSH2 0x294C JUMP JUMPDEST SWAP4 SWAP3 POP POP POP JUMP INVALID LOG2 PUSH5 0x6970667358 0x22 SLT KECCAK256 0xBB RETURNDATACOPY 0xCA 0xC2 0xBC CREATE2 PUSH19 0x4EC0434D843DA10EAC2C204AFAE2FB1FFCADA8 RETURNCONTRACT 0xE7 CALLDATACOPY ORIGIN 0xC7 CHAINID PUSH5 0x736F6C6343 STOP ADDMOD 0x1E STOP CALLER "
				},
				"gasEstimates": {
					"creation": {
						"codeDepositCost": "2882800",
						"executionCost": "infinite",
						"totalCost": "infinite"
					},
					"external": {
						"ADMIN_ROLE()": "393",
						"COORDINATOR()": "infinite",
						"DEFAULT_ADMIN_ROLE()": "396",
						"callbackGasLimit()": "2512",
						"contribute(uint256)": "infinite",
						"createPlan(uint256,uint256)": "infinite",
						"emergencyWithdraw(uint256)": "infinite",
						"getPlanStatus(address)": "infinite",
						"getRoleAdmin(bytes32)": "infinite",
						"grantRole(bytes32,address)": "infinite",
						"hasRole(bytes32,address)": "3233",
						"keyHash()": "2536",
						"lotteryBonus()": "2471",
						"lotteryProbability()": "2492",
						"minimumContribution()": "2470",
						"numWords()": "2607",
						"priceFeed()": "infinite",
						"rawFulfillRandomWords(uint256,uint256[])": "infinite",
						"renounceRole(bytes32,address)": "infinite",
						"requestConfirmations()": "2606",
						"retirementPlans(address)": "infinite",
						"revokeRole(bytes32,address)": "infinite",
						"stablecoin()": "infinite",
						"subscriptionId()": "2608",
						"supportsInterface(bytes4)": "764",
						"tokenDecimals()": "2562",
						"updateSystemParameters(uint256,uint256,uint256,uint256)": "infinite",
						"updateVRFParameters(uint64,bytes32,uint32,uint16)": "infinite",
						"updateYieldStrategy(address)": "infinite",
						"vrfRequests(uint256)": "2895",
						"withdrawPrincipal(uint256)": "infinite",
						"withdrawYield()": "infinite",
						"yieldFee()": "2494",
						"yieldStrategy()": "infinite"
					},
					"internal": {
						"_getMonthId(uint256)": "infinite",
						"_random(uint256)": "infinite",
						"_requestRandomness()": "infinite",
						"fulfillRandomWords(uint256,uint256[] memory)": "infinite"
					}
				},
				"methodIdentifiers": {
					"ADMIN_ROLE()": "75b238fc",
					"COORDINATOR()": "3b2bcbf1",
					"DEFAULT_ADMIN_ROLE()": "a217fddf",
					"callbackGasLimit()": "24f74697",
					"contribute(uint256)": "c1cbbca7",
					"createPlan(uint256,uint256)": "b197df54",
					"emergencyWithdraw(uint256)": "5312ea8e",
					"getPlanStatus(address)": "d83adc35",
					"getRoleAdmin(bytes32)": "248a9ca3",
					"grantRole(bytes32,address)": "2f2ff15d",
					"hasRole(bytes32,address)": "91d14854",
					"keyHash()": "61728f39",
					"lotteryBonus()": "163c67c2",
					"lotteryProbability()": "d4be74ba",
					"minimumContribution()": "937e09b1",
					"numWords()": "7ccfd7fc",
					"priceFeed()": "741bef1a",
					"rawFulfillRandomWords(uint256,uint256[])": "1fe543e3",
					"renounceRole(bytes32,address)": "36568abe",
					"requestConfirmations()": "b0fb162f",
					"retirementPlans(address)": "5f39e7f0",
					"revokeRole(bytes32,address)": "d547741f",
					"stablecoin()": "e9cbd822",
					"subscriptionId()": "09c1ba2e",
					"supportsInterface(bytes4)": "01ffc9a7",
					"tokenDecimals()": "3b97e856",
					"updateSystemParameters(uint256,uint256,uint256,uint256)": "eb03924d",
					"updateVRFParameters(uint64,bytes32,uint32,uint16)": "e611d691",
					"updateYieldStrategy(address)": "e68b7757",
					"vrfRequests(uint256)": "1a1d9252",
					"withdrawPrincipal(uint256)": "658e28a4",
					"withdrawYield()": "e507a8a4",
					"yieldFee()": "034f4083",
					"yieldStrategy()": "13f14fee"
				}
			},
			"storageLayout": {
				"storage": [
					{
						"astId": 679,
						"contract": "contracts/Unisurance.sol:Unisurance",
						"label": "_status",
						"offset": 0,
						"slot": "0",
						"type": "t_uint256"
					},
					{
						"astId": 226,
						"contract": "contracts/Unisurance.sol:Unisurance",
						"label": "_roles",
						"offset": 0,
						"slot": "1",
						"type": "t_mapping(t_bytes32,t_struct(RoleData)221_storage)"
					},
					{
						"astId": 1314,
						"contract": "contracts/Unisurance.sol:Unisurance",
						"label": "stablecoin",
						"offset": 0,
						"slot": "2",
						"type": "t_contract(IERC20)811"
					},
					{
						"astId": 1317,
						"contract": "contracts/Unisurance.sol:Unisurance",
						"label": "priceFeed",
						"offset": 0,
						"slot": "3",
						"type": "t_contract(AggregatorV3Interface)103"
					},
					{
						"astId": 1320,
						"contract": "contracts/Unisurance.sol:Unisurance",
						"label": "yieldStrategy",
						"offset": 0,
						"slot": "4",
						"type": "t_contract(IYieldStrategy)2269"
					},
					{
						"astId": 1322,
						"contract": "contracts/Unisurance.sol:Unisurance",
						"label": "tokenDecimals",
						"offset": 20,
						"slot": "4",
						"type": "t_uint8"
					},
					{
						"astId": 1325,
						"contract": "contracts/Unisurance.sol:Unisurance",
						"label": "COORDINATOR",
						"offset": 0,
						"slot": "5",
						"type": "t_contract(VRFCoordinatorV2Interface)199"
					},
					{
						"astId": 1327,
						"contract": "contracts/Unisurance.sol:Unisurance",
						"label": "subscriptionId",
						"offset": 20,
						"slot": "5",
						"type": "t_uint64"
					},
					{
						"astId": 1329,
						"contract": "contracts/Unisurance.sol:Unisurance",
						"label": "keyHash",
						"offset": 0,
						"slot": "6",
						"type": "t_bytes32"
					},
					{
						"astId": 1332,
						"contract": "contracts/Unisurance.sol:Unisurance",
						"label": "callbackGasLimit",
						"offset": 0,
						"slot": "7",
						"type": "t_uint32"
					},
					{
						"astId": 1335,
						"contract": "contracts/Unisurance.sol:Unisurance",
						"label": "requestConfirmations",
						"offset": 4,
						"slot": "7",
						"type": "t_uint16"
					},
					{
						"astId": 1338,
						"contract": "contracts/Unisurance.sol:Unisurance",
						"label": "numWords",
						"offset": 6,
						"slot": "7",
						"type": "t_uint32"
					},
					{
						"astId": 1345,
						"contract": "contracts/Unisurance.sol:Unisurance",
						"label": "minimumContribution",
						"offset": 0,
						"slot": "8",
						"type": "t_uint256"
					},
					{
						"astId": 1348,
						"contract": "contracts/Unisurance.sol:Unisurance",
						"label": "yieldFee",
						"offset": 0,
						"slot": "9",
						"type": "t_uint256"
					},
					{
						"astId": 1351,
						"contract": "contracts/Unisurance.sol:Unisurance",
						"label": "lotteryProbability",
						"offset": 0,
						"slot": "10",
						"type": "t_uint256"
					},
					{
						"astId": 1354,
						"contract": "contracts/Unisurance.sol:Unisurance",
						"label": "lotteryBonus",
						"offset": 0,
						"slot": "11",
						"type": "t_uint256"
					},
					{
						"astId": 1376,
						"contract": "contracts/Unisurance.sol:Unisurance",
						"label": "retirementPlans",
						"offset": 0,
						"slot": "12",
						"type": "t_mapping(t_address,t_struct(RetirementPlan)1371_storage)"
					},
					{
						"astId": 1380,
						"contract": "contracts/Unisurance.sol:Unisurance",
						"label": "vrfRequests",
						"offset": 0,
						"slot": "13",
						"type": "t_mapping(t_uint256,t_address)"
					}
				],
				"types": {
					"t_address": {
						"encoding": "inplace",
						"label": "address",
						"numberOfBytes": "20"
					},
					"t_bool": {
						"encoding": "inplace",
						"label": "bool",
						"numberOfBytes": "1"
					},
					"t_bytes32": {
						"encoding": "inplace",
						"label": "bytes32",
						"numberOfBytes": "32"
					},
					"t_contract(AggregatorV3Interface)103": {
						"encoding": "inplace",
						"label": "contract AggregatorV3Interface",
						"numberOfBytes": "20"
					},
					"t_contract(IERC20)811": {
						"encoding": "inplace",
						"label": "contract IERC20",
						"numberOfBytes": "20"
					},
					"t_contract(IYieldStrategy)2269": {
						"encoding": "inplace",
						"label": "contract IYieldStrategy",
						"numberOfBytes": "20"
					},
					"t_contract(VRFCoordinatorV2Interface)199": {
						"encoding": "inplace",
						"label": "contract VRFCoordinatorV2Interface",
						"numberOfBytes": "20"
					},
					"t_mapping(t_address,t_bool)": {
						"encoding": "mapping",
						"key": "t_address",
						"label": "mapping(address => bool)",
						"numberOfBytes": "32",
						"value": "t_bool"
					},
					"t_mapping(t_address,t_struct(RetirementPlan)1371_storage)": {
						"encoding": "mapping",
						"key": "t_address",
						"label": "mapping(address => struct Unisurance.RetirementPlan)",
						"numberOfBytes": "32",
						"value": "t_struct(RetirementPlan)1371_storage"
					},
					"t_mapping(t_bytes32,t_struct(RoleData)221_storage)": {
						"encoding": "mapping",
						"key": "t_bytes32",
						"label": "mapping(bytes32 => struct AccessControl.RoleData)",
						"numberOfBytes": "32",
						"value": "t_struct(RoleData)221_storage"
					},
					"t_mapping(t_uint256,t_address)": {
						"encoding": "mapping",
						"key": "t_uint256",
						"label": "mapping(uint256 => address)",
						"numberOfBytes": "32",
						"value": "t_address"
					},
					"t_struct(RetirementPlan)1371_storage": {
						"encoding": "inplace",
						"label": "struct Unisurance.RetirementPlan",
						"members": [
							{
								"astId": 1356,
								"contract": "contracts/Unisurance.sol:Unisurance",
								"label": "targetMonths",
								"offset": 0,
								"slot": "0",
								"type": "t_uint256"
							},
							{
								"astId": 1358,
								"contract": "contracts/Unisurance.sol:Unisurance",
								"label": "monthlyContribution",
								"offset": 0,
								"slot": "1",
								"type": "t_uint256"
							},
							{
								"astId": 1360,
								"contract": "contracts/Unisurance.sol:Unisurance",
								"label": "startTime",
								"offset": 0,
								"slot": "2",
								"type": "t_uint256"
							},
							{
								"astId": 1362,
								"contract": "contracts/Unisurance.sol:Unisurance",
								"label": "lastContributionTime",
								"offset": 0,
								"slot": "3",
								"type": "t_uint256"
							},
							{
								"astId": 1364,
								"contract": "contracts/Unisurance.sol:Unisurance",
								"label": "totalContributed",
								"offset": 0,
								"slot": "4",
								"type": "t_uint256"
							},
							{
								"astId": 1366,
								"contract": "contracts/Unisurance.sol:Unisurance",
								"label": "monthsContributed",
								"offset": 0,
								"slot": "5",
								"type": "t_uint256"
							},
							{
								"astId": 1368,
								"contract": "contracts/Unisurance.sol:Unisurance",
								"label": "inRetirementPhase",
								"offset": 0,
								"slot": "6",
								"type": "t_bool"
							},
							{
								"astId": 1370,
								"contract": "contracts/Unisurance.sol:Unisurance",
								"label": "lastWithdrawalTime",
								"offset": 0,
								"slot": "7",
								"type": "t_uint256"
							}
						],
						"numberOfBytes": "256"
					},
					"t_struct(RoleData)221_storage": {
						"encoding": "inplace",
						"label": "struct AccessControl.RoleData",
						"members": [
							{
								"astId": 218,
								"contract": "contracts/Unisurance.sol:Unisurance",
								"label": "hasRole",
								"offset": 0,
								"slot": "0",
								"type": "t_mapping(t_address,t_bool)"
							},
							{
								"astId": 220,
								"contract": "contracts/Unisurance.sol:Unisurance",
								"label": "adminRole",
								"offset": 0,
								"slot": "1",
								"type": "t_bytes32"
							}
						],
						"numberOfBytes": "64"
					},
					"t_uint16": {
						"encoding": "inplace",
						"label": "uint16",
						"numberOfBytes": "2"
					},
					"t_uint256": {
						"encoding": "inplace",
						"label": "uint256",
						"numberOfBytes": "32"
					},
					"t_uint32": {
						"encoding": "inplace",
						"label": "uint32",
						"numberOfBytes": "4"
					},
					"t_uint64": {
						"encoding": "inplace",
						"label": "uint64",
						"numberOfBytes": "8"
					},
					"t_uint8": {
						"encoding": "inplace",
						"label": "uint8",
						"numberOfBytes": "1"
					}
				}
			},
			"userdoc": {
				"kind": "user",
				"methods": {},
				"version": 1
			}
		}
	}
}