{
	"contracts/mocks/MockYieldStrategy.sol": {
		"MockYieldStrategy": {
			"abi": [
				{
					"inputs": [
						{
							"internalType": "address",
							"name": "_token",
							"type": "address"
						}
					],
					"stateMutability": "nonpayable",
					"type": "constructor"
				},
				{
					"inputs": [
						{
							"internalType": "address",
							"name": "token",
							"type": "address"
						}
					],
					"name": "SafeERC20FailedOperation",
					"type": "error"
				},
				{
					"inputs": [],
					"name": "apy",
					"outputs": [
						{
							"internalType": "uint256",
							"name": "",
							"type": "uint256"
						}
					],
					"stateMutability": "view",
					"type": "function"
				},
				{
					"inputs": [
						{
							"internalType": "uint256",
							"name": "amount",
							"type": "uint256"
						}
					],
					"name": "deposit",
					"outputs": [
						{
							"internalType": "bool",
							"name": "",
							"type": "bool"
						}
					],
					"stateMutability": "nonpayable",
					"type": "function"
				},
				{
					"inputs": [
						{
							"internalType": "address",
							"name": "",
							"type": "address"
						}
					],
					"name": "depositTime",
					"outputs": [
						{
							"internalType": "uint256",
							"name": "",
							"type": "uint256"
						}
					],
					"stateMutability": "view",
					"type": "function"
				},
				{
					"inputs": [
						{
							"internalType": "address",
							"name": "",
							"type": "address"
						}
					],
					"name": "deposits",
					"outputs": [
						{
							"internalType": "uint256",
							"name": "",
							"type": "uint256"
						}
					],
					"stateMutability": "view",
					"type": "function"
				},
				{
					"inputs": [],
					"name": "getCurrentAPY",
					"outputs": [
						{
							"internalType": "uint256",
							"name": "",
							"type": "uint256"
						}
					],
					"stateMutability": "view",
					"type": "function"
				},
				{
					"inputs": [
						{
							"internalType": "address",
							"name": "user",
							"type": "address"
						}
					],
					"name": "getYield",
					"outputs": [
						{
							"internalType": "uint256",
							"name": "",
							"type": "uint256"
						}
					],
					"stateMutability": "view",
					"type": "function"
				},
				{
					"inputs": [
						{
							"internalType": "uint256",
							"name": "_apy",
							"type": "uint256"
						}
					],
					"name": "setAPY",
					"outputs": [],
					"stateMutability": "nonpayable",
					"type": "function"
				},
				{
					"inputs": [],
					"name": "token",
					"outputs": [
						{
							"internalType": "contract IERC20",
							"name": "",
							"type": "address"
						}
					],
					"stateMutability": "view",
					"type": "function"
				},
				{
					"inputs": [
						{
							"internalType": "uint256",
							"name": "amount",
							"type": "uint256"
						}
					],
					"name": "withdraw",
					"outputs": [
						{
							"internalType": "uint256",
							"name": "",
							"type": "uint256"
						}
					],
					"stateMutability": "nonpayable",
					"type": "function"
				}
			],
			"devdoc": {
				"errors": {
					"SafeERC20FailedOperation(address)": [
						{
							"details": "An operation with an ERC-20 token failed."
						}
					]
				},
				"kind": "dev",
				"methods": {},
				"version": 1
			},
			"evm": {
				"assembly": "    /* \"contracts/mocks/MockYieldStrategy.sol\":224:1791  contract MockYieldStrategy is IYieldStrategy {... */\n  mstore(0x40, 0xa0)\n    /* \"contracts/mocks/MockYieldStrategy.sol\":368:371  500 */\n  0x01f4\n    /* \"contracts/mocks/MockYieldStrategy.sol\":347:371  uint256 public apy = 500 */\n  0x00\n  sstore\n    /* \"contracts/mocks/MockYieldStrategy.sol\":511:578  constructor(address _token) {... */\n  callvalue\n  dup1\n  iszero\n  tag_1\n  jumpi\n  revert(0x00, 0x00)\ntag_1:\n  pop\n  mload(0x40)\n  sub(codesize, bytecodeSize)\n  dup1\n  bytecodeSize\n  dup4\n  codecopy\n  dup2\n  dup2\n  add\n  0x40\n  mstore\n  dup2\n  add\n  swap1\n  tag_2\n  swap2\n  swap1\n  tag_3\n  jump\t// in\ntag_2:\n    /* \"contracts/mocks/MockYieldStrategy.sol\":564:570  _token */\n  dup1\n    /* \"contracts/mocks/MockYieldStrategy.sol\":549:571  token = IERC20(_token) */\n  0xffffffffffffffffffffffffffffffffffffffff\n  and\n  0x80\n  dup2\n  0xffffffffffffffffffffffffffffffffffffffff\n  and\n  dup2\n  mstore\n  pop\n  pop\n    /* \"contracts/mocks/MockYieldStrategy.sol\":511:578  constructor(address _token) {... */\n  pop\n    /* \"contracts/mocks/MockYieldStrategy.sol\":224:1791  contract MockYieldStrategy is IYieldStrategy {... */\n  jump(tag_6)\n    /* \"#utility.yul\":88:205   */\ntag_8:\n    /* \"#utility.yul\":197:198   */\n  0x00\n    /* \"#utility.yul\":194:195   */\n  0x00\n    /* \"#utility.yul\":187:199   */\n  revert\n    /* \"#utility.yul\":334:460   */\ntag_10:\n    /* \"#utility.yul\":371:378   */\n  0x00\n    /* \"#utility.yul\":411:453   */\n  0xffffffffffffffffffffffffffffffffffffffff\n    /* \"#utility.yul\":404:409   */\n  dup3\n    /* \"#utility.yul\":400:454   */\n  and\n    /* \"#utility.yul\":389:454   */\n  swap1\n  pop\n    /* \"#utility.yul\":334:460   */\n  swap2\n  swap1\n  pop\n  jump\t// out\n    /* \"#utility.yul\":466:562   */\ntag_11:\n    /* \"#utility.yul\":503:510   */\n  0x00\n    /* \"#utility.yul\":532:556   */\n  tag_20\n    /* \"#utility.yul\":550:555   */\n  dup3\n    /* \"#utility.yul\":532:556   */\n  tag_10\n  jump\t// in\ntag_20:\n    /* \"#utility.yul\":521:556   */\n  swap1\n  pop\n    /* \"#utility.yul\":466:562   */\n  swap2\n  swap1\n  pop\n  jump\t// out\n    /* \"#utility.yul\":568:690   */\ntag_12:\n    /* \"#utility.yul\":641:665   */\n  tag_22\n    /* \"#utility.yul\":659:664   */\n  dup2\n    /* \"#utility.yul\":641:665   */\n  tag_11\n  jump\t// in\ntag_22:\n    /* \"#utility.yul\":634:639   */\n  dup2\n    /* \"#utility.yul\":631:666   */\n  eq\n    /* \"#utility.yul\":621:684   */\n  tag_23\n  jumpi\n    /* \"#utility.yul\":680:681   */\n  0x00\n    /* \"#utility.yul\":677:678   */\n  0x00\n    /* \"#utility.yul\":670:682   */\n  revert\n    /* \"#utility.yul\":621:684   */\ntag_23:\n    /* \"#utility.yul\":568:690   */\n  pop\n  jump\t// out\n    /* \"#utility.yul\":696:839   */\ntag_13:\n    /* \"#utility.yul\":753:758   */\n  0x00\n    /* \"#utility.yul\":784:790   */\n  dup2\n    /* \"#utility.yul\":778:791   */\n  mload\n    /* \"#utility.yul\":769:791   */\n  swap1\n  pop\n    /* \"#utility.yul\":800:833   */\n  tag_25\n    /* \"#utility.yul\":827:832   */\n  dup2\n    /* \"#utility.yul\":800:833   */\n  tag_12\n  jump\t// in\ntag_25:\n    /* \"#utility.yul\":696:839   */\n  swap3\n  swap2\n  pop\n  pop\n  jump\t// out\n    /* \"#utility.yul\":845:1196   */\ntag_3:\n    /* \"#utility.yul\":915:921   */\n  0x00\n    /* \"#utility.yul\":964:966   */\n  0x20\n    /* \"#utility.yul\":952:961   */\n  dup3\n    /* \"#utility.yul\":943:950   */\n  dup5\n    /* \"#utility.yul\":939:962   */\n  sub\n    /* \"#utility.yul\":935:967   */\n  slt\n    /* \"#utility.yul\":932:1051   */\n  iszero\n  tag_27\n  jumpi\n    /* \"#utility.yul\":970:1049   */\n  tag_28\n  tag_8\n  jump\t// in\ntag_28:\n    /* \"#utility.yul\":932:1051   */\ntag_27:\n    /* \"#utility.yul\":1090:1091   */\n  0x00\n    /* \"#utility.yul\":1115:1179   */\n  tag_29\n    /* \"#utility.yul\":1171:1178   */\n  dup5\n    /* \"#utility.yul\":1162:1168   */\n  dup3\n    /* \"#utility.yul\":1151:1160   */\n  dup6\n    /* \"#utility.yul\":1147:1169   */\n  add\n    /* \"#utility.yul\":1115:1179   */\n  tag_13\n  jump\t// in\ntag_29:\n    /* \"#utility.yul\":1105:1179   */\n  swap2\n  pop\n    /* \"#utility.yul\":1061:1189   */\n  pop\n    /* \"#utility.yul\":845:1196   */\n  swap3\n  swap2\n  pop\n  pop\n  jump\t// out\n    /* \"contracts/mocks/MockYieldStrategy.sol\":224:1791  contract MockYieldStrategy is IYieldStrategy {... */\ntag_6:\n  mload(0x80)\n  codecopy(0x00, dataOffset(sub_0), dataSize(sub_0))\n  0x00\n  assignImmutable(\"0x7e11962f85eb7ceb5b38e296d507e5039b360e5ad6815220a68768366dc10fdd\")\n  return(0x00, dataSize(sub_0))\nstop\n\nsub_0: assembly {\n        /* \"contracts/mocks/MockYieldStrategy.sol\":224:1791  contract MockYieldStrategy is IYieldStrategy {... */\n      mstore(0x40, 0x80)\n      callvalue\n      dup1\n      iszero\n      tag_1\n      jumpi\n      revert(0x00, 0x00)\n    tag_1:\n      pop\n      jumpi(tag_2, lt(calldatasize, 0x04))\n      shr(0xe0, calldataload(0x00))\n      dup1\n      0x64c33977\n      gt\n      tag_12\n      jumpi\n      dup1\n      0x64c33977\n      eq\n      tag_7\n      jumpi\n      dup1\n      0x962ca496\n      eq\n      tag_8\n      jumpi\n      dup1\n      0xb6b55f25\n      eq\n      tag_9\n      jumpi\n      dup1\n      0xfc0c546a\n      eq\n      tag_10\n      jumpi\n      dup1\n      0xfc7e286d\n      eq\n      tag_11\n      jumpi\n      jump(tag_2)\n    tag_12:\n      dup1\n      0x24f45e67\n      eq\n      tag_3\n      jumpi\n      dup1\n      0x2e1a7d4d\n      eq\n      tag_4\n      jumpi\n      dup1\n      0x3bcfc4b8\n      eq\n      tag_5\n      jumpi\n      dup1\n      0x46c64873\n      eq\n      tag_6\n      jumpi\n    tag_2:\n      revert(0x00, 0x00)\n        /* \"contracts/mocks/MockYieldStrategy.sol\":1723:1789  function setAPY(uint256 _apy) external {... */\n    tag_3:\n      tag_13\n      0x04\n      dup1\n      calldatasize\n      sub\n      dup2\n      add\n      swap1\n      tag_14\n      swap2\n      swap1\n      tag_15\n      jump\t// in\n    tag_14:\n      tag_16\n      jump\t// in\n    tag_13:\n      stop\n        /* \"contracts/mocks/MockYieldStrategy.sol\":908:1169  function withdraw(uint256 amount) external override returns (uint256) {... */\n    tag_4:\n      tag_17\n      0x04\n      dup1\n      calldatasize\n      sub\n      dup2\n      add\n      swap1\n      tag_18\n      swap2\n      swap1\n      tag_15\n      jump\t// in\n    tag_18:\n      tag_19\n      jump\t// in\n    tag_17:\n      mload(0x40)\n      tag_20\n      swap2\n      swap1\n      tag_21\n      jump\t// in\n    tag_20:\n      mload(0x40)\n      dup1\n      swap2\n      sub\n      swap1\n      return\n        /* \"contracts/mocks/MockYieldStrategy.sol\":347:371  uint256 public apy = 500 */\n    tag_5:\n      tag_22\n      tag_23\n      jump\t// in\n    tag_22:\n      mload(0x40)\n      tag_24\n      swap2\n      swap1\n      tag_21\n      jump\t// in\n    tag_24:\n      mload(0x40)\n      dup1\n      swap2\n      sub\n      swap1\n      return\n        /* \"contracts/mocks/MockYieldStrategy.sol\":454:500  mapping(address => uint256) public depositTime */\n    tag_6:\n      tag_25\n      0x04\n      dup1\n      calldatasize\n      sub\n      dup2\n      add\n      swap1\n      tag_26\n      swap2\n      swap1\n      tag_27\n      jump\t// in\n    tag_26:\n      tag_28\n      jump\t// in\n    tag_25:\n      mload(0x40)\n      tag_29\n      swap2\n      swap1\n      tag_21\n      jump\t// in\n    tag_29:\n      mload(0x40)\n      dup1\n      swap2\n      sub\n      swap1\n      return\n        /* \"contracts/mocks/MockYieldStrategy.sol\":1179:1563  function getYield(address user) external view override returns (uint256) {... */\n    tag_7:\n      tag_30\n      0x04\n      dup1\n      calldatasize\n      sub\n      dup2\n      add\n      swap1\n      tag_31\n      swap2\n      swap1\n      tag_27\n      jump\t// in\n    tag_31:\n      tag_32\n      jump\t// in\n    tag_30:\n      mload(0x40)\n      tag_33\n      swap2\n      swap1\n      tag_21\n      jump\t// in\n    tag_33:\n      mload(0x40)\n      dup1\n      swap2\n      sub\n      swap1\n      return\n        /* \"contracts/mocks/MockYieldStrategy.sol\":1573:1666  function getCurrentAPY() external view override returns (uint256) {... */\n    tag_8:\n      tag_34\n      tag_35\n      jump\t// in\n    tag_34:\n      mload(0x40)\n      tag_36\n      swap2\n      swap1\n      tag_21\n      jump\t// in\n    tag_36:\n      mload(0x40)\n      dup1\n      swap2\n      sub\n      swap1\n      return\n        /* \"contracts/mocks/MockYieldStrategy.sol\":588:898  function deposit(uint256 amount) external override returns (bool) {... */\n    tag_9:\n      tag_37\n      0x04\n      dup1\n      calldatasize\n      sub\n      dup2\n      add\n      swap1\n      tag_38\n      swap2\n      swap1\n      tag_15\n      jump\t// in\n    tag_38:\n      tag_39\n      jump\t// in\n    tag_37:\n      mload(0x40)\n      tag_40\n      swap2\n      swap1\n      tag_41\n      jump\t// in\n    tag_40:\n      mload(0x40)\n      dup1\n      swap2\n      sub\n      swap1\n      return\n        /* \"contracts/mocks/MockYieldStrategy.sol\":312:341  IERC20 public immutable token */\n    tag_10:\n      tag_42\n      tag_43\n      jump\t// in\n    tag_42:\n      mload(0x40)\n      tag_44\n      swap2\n      swap1\n      tag_45\n      jump\t// in\n    tag_44:\n      mload(0x40)\n      dup1\n      swap2\n      sub\n      swap1\n      return\n        /* \"contracts/mocks/MockYieldStrategy.sol\":405:448  mapping(address => uint256) public deposits */\n    tag_11:\n      tag_46\n      0x04\n      dup1\n      calldatasize\n      sub\n      dup2\n      add\n      swap1\n      tag_47\n      swap2\n      swap1\n      tag_27\n      jump\t// in\n    tag_47:\n      tag_48\n      jump\t// in\n    tag_46:\n      mload(0x40)\n      tag_49\n      swap2\n      swap1\n      tag_21\n      jump\t// in\n    tag_49:\n      mload(0x40)\n      dup1\n      swap2\n      sub\n      swap1\n      return\n        /* \"contracts/mocks/MockYieldStrategy.sol\":1723:1789  function setAPY(uint256 _apy) external {... */\n    tag_16:\n        /* \"contracts/mocks/MockYieldStrategy.sol\":1778:1782  _apy */\n      dup1\n        /* \"contracts/mocks/MockYieldStrategy.sol\":1772:1775  apy */\n      0x00\n        /* \"contracts/mocks/MockYieldStrategy.sol\":1772:1782  apy = _apy */\n      dup2\n      swap1\n      sstore\n      pop\n        /* \"contracts/mocks/MockYieldStrategy.sol\":1723:1789  function setAPY(uint256 _apy) external {... */\n      pop\n      jump\t// out\n        /* \"contracts/mocks/MockYieldStrategy.sol\":908:1169  function withdraw(uint256 amount) external override returns (uint256) {... */\n    tag_19:\n        /* \"contracts/mocks/MockYieldStrategy.sol\":969:976  uint256 */\n      0x00\n        /* \"contracts/mocks/MockYieldStrategy.sol\":1020:1026  amount */\n      dup2\n        /* \"contracts/mocks/MockYieldStrategy.sol\":996:1004  deposits */\n      0x01\n        /* \"contracts/mocks/MockYieldStrategy.sol\":996:1016  deposits[msg.sender] */\n      0x00\n        /* \"contracts/mocks/MockYieldStrategy.sol\":1005:1015  msg.sender */\n      caller\n        /* \"contracts/mocks/MockYieldStrategy.sol\":996:1016  deposits[msg.sender] */\n      0xffffffffffffffffffffffffffffffffffffffff\n      and\n      0xffffffffffffffffffffffffffffffffffffffff\n      and\n      dup2\n      mstore\n      0x20\n      add\n      swap1\n      dup2\n      mstore\n      0x20\n      add\n      0x00\n      keccak256\n      sload\n        /* \"contracts/mocks/MockYieldStrategy.sol\":996:1026  deposits[msg.sender] >= amount */\n      lt\n      iszero\n        /* \"contracts/mocks/MockYieldStrategy.sol\":988:1051  require(deposits[msg.sender] >= amount, \"Insufficient balance\") */\n      tag_52\n      jumpi\n      mload(0x40)\n      0x08c379a000000000000000000000000000000000000000000000000000000000\n      dup2\n      mstore\n      0x04\n      add\n      tag_53\n      swap1\n      tag_54\n      jump\t// in\n    tag_53:\n      mload(0x40)\n      dup1\n      swap2\n      sub\n      swap1\n      revert\n    tag_52:\n        /* \"contracts/mocks/MockYieldStrategy.sol\":1085:1091  amount */\n      dup2\n        /* \"contracts/mocks/MockYieldStrategy.sol\":1061:1069  deposits */\n      0x01\n        /* \"contracts/mocks/MockYieldStrategy.sol\":1061:1081  deposits[msg.sender] */\n      0x00\n        /* \"contracts/mocks/MockYieldStrategy.sol\":1070:1080  msg.sender */\n      caller\n        /* \"contracts/mocks/MockYieldStrategy.sol\":1061:1081  deposits[msg.sender] */\n      0xffffffffffffffffffffffffffffffffffffffff\n      and\n      0xffffffffffffffffffffffffffffffffffffffff\n      and\n      dup2\n      mstore\n      0x20\n      add\n      swap1\n      dup2\n      mstore\n      0x20\n      add\n      0x00\n      keccak256\n      0x00\n        /* \"contracts/mocks/MockYieldStrategy.sol\":1061:1091  deposits[msg.sender] -= amount */\n      dup3\n      dup3\n      sload\n      tag_55\n      swap2\n      swap1\n      tag_56\n      jump\t// in\n    tag_55:\n      swap3\n      pop\n      pop\n      dup2\n      swap1\n      sstore\n      pop\n        /* \"contracts/mocks/MockYieldStrategy.sol\":1101:1139  token.safeTransfer(msg.sender, amount) */\n      tag_57\n        /* \"contracts/mocks/MockYieldStrategy.sol\":1120:1130  msg.sender */\n      caller\n        /* \"contracts/mocks/MockYieldStrategy.sol\":1132:1138  amount */\n      dup4\n        /* \"contracts/mocks/MockYieldStrategy.sol\":1101:1106  token */\n      immutable(\"0x7e11962f85eb7ceb5b38e296d507e5039b360e5ad6815220a68768366dc10fdd\")\n        /* \"contracts/mocks/MockYieldStrategy.sol\":1101:1119  token.safeTransfer */\n      0xffffffffffffffffffffffffffffffffffffffff\n      and\n      tag_58\n      swap1\n        /* \"contracts/mocks/MockYieldStrategy.sol\":1101:1139  token.safeTransfer(msg.sender, amount) */\n      swap3\n      swap2\n      swap1\n      0xffffffff\n      and\n      jump\t// in\n    tag_57:\n        /* \"contracts/mocks/MockYieldStrategy.sol\":1156:1162  amount */\n      dup2\n        /* \"contracts/mocks/MockYieldStrategy.sol\":1149:1162  return amount */\n      swap1\n      pop\n        /* \"contracts/mocks/MockYieldStrategy.sol\":908:1169  function withdraw(uint256 amount) external override returns (uint256) {... */\n      swap2\n      swap1\n      pop\n      jump\t// out\n        /* \"contracts/mocks/MockYieldStrategy.sol\":347:371  uint256 public apy = 500 */\n    tag_23:\n      sload(0x00)\n      dup2\n      jump\t// out\n        /* \"contracts/mocks/MockYieldStrategy.sol\":454:500  mapping(address => uint256) public depositTime */\n    tag_28:\n      mstore(0x20, 0x02)\n      dup1\n      0x00\n      mstore\n      keccak256(0x00, 0x40)\n      0x00\n      swap2\n      pop\n      swap1\n      pop\n      sload\n      dup2\n      jump\t// out\n        /* \"contracts/mocks/MockYieldStrategy.sol\":1179:1563  function getYield(address user) external view override returns (uint256) {... */\n    tag_32:\n        /* \"contracts/mocks/MockYieldStrategy.sol\":1243:1250  uint256 */\n      0x00\n        /* \"contracts/mocks/MockYieldStrategy.sol\":1287:1288  0 */\n      0x00\n        /* \"contracts/mocks/MockYieldStrategy.sol\":1266:1277  depositTime */\n      0x02\n        /* \"contracts/mocks/MockYieldStrategy.sol\":1266:1283  depositTime[user] */\n      0x00\n        /* \"contracts/mocks/MockYieldStrategy.sol\":1278:1282  user */\n      dup5\n        /* \"contracts/mocks/MockYieldStrategy.sol\":1266:1283  depositTime[user] */\n      0xffffffffffffffffffffffffffffffffffffffff\n      and\n      0xffffffffffffffffffffffffffffffffffffffff\n      and\n      dup2\n      mstore\n      0x20\n      add\n      swap1\n      dup2\n      mstore\n      0x20\n      add\n      0x00\n      keccak256\n      sload\n        /* \"contracts/mocks/MockYieldStrategy.sol\":1266:1288  depositTime[user] == 0 */\n      sub\n        /* \"contracts/mocks/MockYieldStrategy.sol\":1262:1298  if (depositTime[user] == 0) return 0 */\n      tag_60\n      jumpi\n        /* \"contracts/mocks/MockYieldStrategy.sol\":1297:1298  0 */\n      0x00\n        /* \"contracts/mocks/MockYieldStrategy.sol\":1290:1298  return 0 */\n      swap1\n      pop\n      jump(tag_59)\n        /* \"contracts/mocks/MockYieldStrategy.sol\":1262:1298  if (depositTime[user] == 0) return 0 */\n    tag_60:\n        /* \"contracts/mocks/MockYieldStrategy.sol\":1317:1336  uint256 timeElapsed */\n      0x00\n        /* \"contracts/mocks/MockYieldStrategy.sol\":1357:1368  depositTime */\n      0x02\n        /* \"contracts/mocks/MockYieldStrategy.sol\":1357:1374  depositTime[user] */\n      0x00\n        /* \"contracts/mocks/MockYieldStrategy.sol\":1369:1373  user */\n      dup5\n        /* \"contracts/mocks/MockYieldStrategy.sol\":1357:1374  depositTime[user] */\n      0xffffffffffffffffffffffffffffffffffffffff\n      and\n      0xffffffffffffffffffffffffffffffffffffffff\n      and\n      dup2\n      mstore\n      0x20\n      add\n      swap1\n      dup2\n      mstore\n      0x20\n      add\n      0x00\n      keccak256\n      sload\n        /* \"contracts/mocks/MockYieldStrategy.sol\":1339:1354  block.timestamp */\n      timestamp\n        /* \"contracts/mocks/MockYieldStrategy.sol\":1339:1374  block.timestamp - depositTime[user] */\n      tag_61\n      swap2\n      swap1\n      tag_56\n      jump\t// in\n    tag_61:\n        /* \"contracts/mocks/MockYieldStrategy.sol\":1317:1374  uint256 timeElapsed = block.timestamp - depositTime[user] */\n      swap1\n      pop\n        /* \"contracts/mocks/MockYieldStrategy.sol\":1384:1405  uint256 secondsInYear */\n      0x00\n        /* \"contracts/mocks/MockYieldStrategy.sol\":1408:1416  365 days */\n      0x01e13380\n        /* \"contracts/mocks/MockYieldStrategy.sol\":1384:1416  uint256 secondsInYear = 365 days */\n      swap1\n      pop\n        /* \"contracts/mocks/MockYieldStrategy.sol\":1550:1555  10000 */\n      0x2710\n        /* \"contracts/mocks/MockYieldStrategy.sol\":1534:1547  secondsInYear */\n      dup2\n        /* \"contracts/mocks/MockYieldStrategy.sol\":1534:1555  secondsInYear * 10000 */\n      tag_62\n      swap2\n      swap1\n      tag_63\n      jump\t// in\n    tag_62:\n        /* \"contracts/mocks/MockYieldStrategy.sol\":1518:1529  timeElapsed */\n      dup3\n        /* \"contracts/mocks/MockYieldStrategy.sol\":1512:1515  apy */\n      sload(0x00)\n        /* \"contracts/mocks/MockYieldStrategy.sol\":1495:1503  deposits */\n      0x01\n        /* \"contracts/mocks/MockYieldStrategy.sol\":1495:1509  deposits[user] */\n      0x00\n        /* \"contracts/mocks/MockYieldStrategy.sol\":1504:1508  user */\n      dup9\n        /* \"contracts/mocks/MockYieldStrategy.sol\":1495:1509  deposits[user] */\n      0xffffffffffffffffffffffffffffffffffffffff\n      and\n      0xffffffffffffffffffffffffffffffffffffffff\n      and\n      dup2\n      mstore\n      0x20\n      add\n      swap1\n      dup2\n      mstore\n      0x20\n      add\n      0x00\n      keccak256\n      sload\n        /* \"contracts/mocks/MockYieldStrategy.sol\":1495:1515  deposits[user] * apy */\n      tag_64\n      swap2\n      swap1\n      tag_63\n      jump\t// in\n    tag_64:\n        /* \"contracts/mocks/MockYieldStrategy.sol\":1495:1529  deposits[user] * apy * timeElapsed */\n      tag_65\n      swap2\n      swap1\n      tag_63\n      jump\t// in\n    tag_65:\n        /* \"contracts/mocks/MockYieldStrategy.sol\":1494:1556  (deposits[user] * apy * timeElapsed) / (secondsInYear * 10000) */\n      tag_66\n      swap2\n      swap1\n      tag_67\n      jump\t// in\n    tag_66:\n        /* \"contracts/mocks/MockYieldStrategy.sol\":1487:1556  return (deposits[user] * apy * timeElapsed) / (secondsInYear * 10000) */\n      swap3\n      pop\n      pop\n      pop\n        /* \"contracts/mocks/MockYieldStrategy.sol\":1179:1563  function getYield(address user) external view override returns (uint256) {... */\n    tag_59:\n      swap2\n      swap1\n      pop\n      jump\t// out\n        /* \"contracts/mocks/MockYieldStrategy.sol\":1573:1666  function getCurrentAPY() external view override returns (uint256) {... */\n    tag_35:\n        /* \"contracts/mocks/MockYieldStrategy.sol\":1630:1637  uint256 */\n      0x00\n        /* \"contracts/mocks/MockYieldStrategy.sol\":1656:1659  apy */\n      sload(0x00)\n        /* \"contracts/mocks/MockYieldStrategy.sol\":1649:1659  return apy */\n      swap1\n      pop\n        /* \"contracts/mocks/MockYieldStrategy.sol\":1573:1666  function getCurrentAPY() external view override returns (uint256) {... */\n      swap1\n      jump\t// out\n        /* \"contracts/mocks/MockYieldStrategy.sol\":588:898  function deposit(uint256 amount) external override returns (bool) {... */\n    tag_39:\n        /* \"contracts/mocks/MockYieldStrategy.sol\":648:652  bool */\n      0x00\n        /* \"contracts/mocks/MockYieldStrategy.sol\":664:721  token.safeTransferFrom(msg.sender, address(this), amount) */\n      tag_70\n        /* \"contracts/mocks/MockYieldStrategy.sol\":687:697  msg.sender */\n      caller\n        /* \"contracts/mocks/MockYieldStrategy.sol\":707:711  this */\n      address\n        /* \"contracts/mocks/MockYieldStrategy.sol\":714:720  amount */\n      dup5\n        /* \"contracts/mocks/MockYieldStrategy.sol\":664:669  token */\n      immutable(\"0x7e11962f85eb7ceb5b38e296d507e5039b360e5ad6815220a68768366dc10fdd\")\n        /* \"contracts/mocks/MockYieldStrategy.sol\":664:686  token.safeTransferFrom */\n      0xffffffffffffffffffffffffffffffffffffffff\n      and\n      tag_71\n      swap1\n        /* \"contracts/mocks/MockYieldStrategy.sol\":664:721  token.safeTransferFrom(msg.sender, address(this), amount) */\n      swap4\n      swap3\n      swap2\n      swap1\n      0xffffffff\n      and\n      jump\t// in\n    tag_70:\n        /* \"contracts/mocks/MockYieldStrategy.sol\":755:761  amount */\n      dup2\n        /* \"contracts/mocks/MockYieldStrategy.sol\":731:739  deposits */\n      0x01\n        /* \"contracts/mocks/MockYieldStrategy.sol\":731:751  deposits[msg.sender] */\n      0x00\n        /* \"contracts/mocks/MockYieldStrategy.sol\":740:750  msg.sender */\n      caller\n        /* \"contracts/mocks/MockYieldStrategy.sol\":731:751  deposits[msg.sender] */\n      0xffffffffffffffffffffffffffffffffffffffff\n      and\n      0xffffffffffffffffffffffffffffffffffffffff\n      and\n      dup2\n      mstore\n      0x20\n      add\n      swap1\n      dup2\n      mstore\n      0x20\n      add\n      0x00\n      keccak256\n      0x00\n        /* \"contracts/mocks/MockYieldStrategy.sol\":731:761  deposits[msg.sender] += amount */\n      dup3\n      dup3\n      sload\n      tag_72\n      swap2\n      swap1\n      tag_73\n      jump\t// in\n    tag_72:\n      swap3\n      pop\n      pop\n      dup2\n      swap1\n      sstore\n      pop\n        /* \"contracts/mocks/MockYieldStrategy.sol\":802:803  0 */\n      0x00\n        /* \"contracts/mocks/MockYieldStrategy.sol\":775:786  depositTime */\n      0x02\n        /* \"contracts/mocks/MockYieldStrategy.sol\":775:798  depositTime[msg.sender] */\n      0x00\n        /* \"contracts/mocks/MockYieldStrategy.sol\":787:797  msg.sender */\n      caller\n        /* \"contracts/mocks/MockYieldStrategy.sol\":775:798  depositTime[msg.sender] */\n      0xffffffffffffffffffffffffffffffffffffffff\n      and\n      0xffffffffffffffffffffffffffffffffffffffff\n      and\n      dup2\n      mstore\n      0x20\n      add\n      swap1\n      dup2\n      mstore\n      0x20\n      add\n      0x00\n      keccak256\n      sload\n        /* \"contracts/mocks/MockYieldStrategy.sol\":775:803  depositTime[msg.sender] == 0 */\n      sub\n        /* \"contracts/mocks/MockYieldStrategy.sol\":771:871  if (depositTime[msg.sender] == 0) {... */\n      tag_74\n      jumpi\n        /* \"contracts/mocks/MockYieldStrategy.sol\":845:860  block.timestamp */\n      timestamp\n        /* \"contracts/mocks/MockYieldStrategy.sol\":819:830  depositTime */\n      0x02\n        /* \"contracts/mocks/MockYieldStrategy.sol\":819:842  depositTime[msg.sender] */\n      0x00\n        /* \"contracts/mocks/MockYieldStrategy.sol\":831:841  msg.sender */\n      caller\n        /* \"contracts/mocks/MockYieldStrategy.sol\":819:842  depositTime[msg.sender] */\n      0xffffffffffffffffffffffffffffffffffffffff\n      and\n      0xffffffffffffffffffffffffffffffffffffffff\n      and\n      dup2\n      mstore\n      0x20\n      add\n      swap1\n      dup2\n      mstore\n      0x20\n      add\n      0x00\n      keccak256\n        /* \"contracts/mocks/MockYieldStrategy.sol\":819:860  depositTime[msg.sender] = block.timestamp */\n      dup2\n      swap1\n      sstore\n      pop\n        /* \"contracts/mocks/MockYieldStrategy.sol\":771:871  if (depositTime[msg.sender] == 0) {... */\n    tag_74:\n        /* \"contracts/mocks/MockYieldStrategy.sol\":887:891  true */\n      0x01\n        /* \"contracts/mocks/MockYieldStrategy.sol\":880:891  return true */\n      swap1\n      pop\n        /* \"contracts/mocks/MockYieldStrategy.sol\":588:898  function deposit(uint256 amount) external override returns (bool) {... */\n      swap2\n      swap1\n      pop\n      jump\t// out\n        /* \"contracts/mocks/MockYieldStrategy.sol\":312:341  IERC20 public immutable token */\n    tag_43:\n      immutable(\"0x7e11962f85eb7ceb5b38e296d507e5039b360e5ad6815220a68768366dc10fdd\")\n      dup2\n      jump\t// out\n        /* \"contracts/mocks/MockYieldStrategy.sol\":405:448  mapping(address => uint256) public deposits */\n    tag_48:\n      mstore(0x20, 0x01)\n      dup1\n      0x00\n      mstore\n      keccak256(0x00, 0x40)\n      0x00\n      swap2\n      pop\n      swap1\n      pop\n      sload\n      dup2\n      jump\t// out\n        /* \"@openzeppelin/contracts/token/ERC20/utils/SafeERC20.sol\":1219:1379  function safeTransfer(IERC20 token, address to, uint256 value) internal {... */\n    tag_58:\n        /* \"@openzeppelin/contracts/token/ERC20/utils/SafeERC20.sol\":1301:1372  _callOptionalReturn(token, abi.encodeCall(token.transfer, (to, value))) */\n      tag_76\n        /* \"@openzeppelin/contracts/token/ERC20/utils/SafeERC20.sol\":1321:1326  token */\n      dup4\n        /* \"@openzeppelin/contracts/token/ERC20/utils/SafeERC20.sol\":1343:1348  token */\n      dup5\n        /* \"@openzeppelin/contracts/token/ERC20/utils/SafeERC20.sol\":1343:1357  token.transfer */\n      0xffffffffffffffffffffffffffffffffffffffff\n      and\n      0xa9059cbb\n        /* \"@openzeppelin/contracts/token/ERC20/utils/SafeERC20.sol\":1360:1362  to */\n      dup6\n        /* \"@openzeppelin/contracts/token/ERC20/utils/SafeERC20.sol\":1364:1369  value */\n      dup6\n        /* \"@openzeppelin/contracts/token/ERC20/utils/SafeERC20.sol\":1328:1371  abi.encodeCall(token.transfer, (to, value)) */\n      add(0x24, mload(0x40))\n      tag_77\n      swap3\n      swap2\n      swap1\n      tag_78\n      jump\t// in\n    tag_77:\n      mload(0x40)\n      0x20\n      dup2\n      dup4\n      sub\n      sub\n      dup2\n      mstore\n      swap1\n      0x40\n      mstore\n      swap2\n      pop\n      0xe0\n      shl\n      0x20\n      dup3\n      add\n      dup1\n      mload\n      0xffffffffffffffffffffffffffffffffffffffffffffffffffffffff\n      dup4\n      dup2\n      dup4\n      and\n      or\n      dup4\n      mstore\n      pop\n      pop\n      pop\n      pop\n        /* \"@openzeppelin/contracts/token/ERC20/utils/SafeERC20.sol\":1301:1320  _callOptionalReturn */\n      tag_79\n        /* \"@openzeppelin/contracts/token/ERC20/utils/SafeERC20.sol\":1301:1372  _callOptionalReturn(token, abi.encodeCall(token.transfer, (to, value))) */\n      jump\t// in\n    tag_76:\n        /* \"@openzeppelin/contracts/token/ERC20/utils/SafeERC20.sol\":1219:1379  function safeTransfer(IERC20 token, address to, uint256 value) internal {... */\n      pop\n      pop\n      pop\n      jump\t// out\n        /* \"@openzeppelin/contracts/token/ERC20/utils/SafeERC20.sol\":1618:1806  function safeTransferFrom(IERC20 token, address from, address to, uint256 value) internal {... */\n    tag_71:\n        /* \"@openzeppelin/contracts/token/ERC20/utils/SafeERC20.sol\":1718:1799  _callOptionalReturn(token, abi.encodeCall(token.transferFrom, (from, to, value))) */\n      tag_81\n        /* \"@openzeppelin/contracts/token/ERC20/utils/SafeERC20.sol\":1738:1743  token */\n      dup5\n        /* \"@openzeppelin/contracts/token/ERC20/utils/SafeERC20.sol\":1760:1765  token */\n      dup6\n        /* \"@openzeppelin/contracts/token/ERC20/utils/SafeERC20.sol\":1760:1778  token.transferFrom */\n      0xffffffffffffffffffffffffffffffffffffffff\n      and\n      0x23b872dd\n        /* \"@openzeppelin/contracts/token/ERC20/utils/SafeERC20.sol\":1781:1785  from */\n      dup7\n        /* \"@openzeppelin/contracts/token/ERC20/utils/SafeERC20.sol\":1787:1789  to */\n      dup7\n        /* \"@openzeppelin/contracts/token/ERC20/utils/SafeERC20.sol\":1791:1796  value */\n      dup7\n        /* \"@openzeppelin/contracts/token/ERC20/utils/SafeERC20.sol\":1745:1798  abi.encodeCall(token.transferFrom, (from, to, value)) */\n      add(0x24, mload(0x40))\n      tag_82\n      swap4\n      swap3\n      swap2\n      swap1\n      tag_83\n      jump\t// in\n    tag_82:\n      mload(0x40)\n      0x20\n      dup2\n      dup4\n      sub\n      sub\n      dup2\n      mstore\n      swap1\n      0x40\n      mstore\n      swap2\n      pop\n      0xe0\n      shl\n      0x20\n      dup3\n      add\n      dup1\n      mload\n      0xffffffffffffffffffffffffffffffffffffffffffffffffffffffff\n      dup4\n      dup2\n      dup4\n      and\n      or\n      dup4\n      mstore\n      pop\n      pop\n      pop\n      pop\n        /* \"@openzeppelin/contracts/token/ERC20/utils/SafeERC20.sol\":1718:1737  _callOptionalReturn */\n      tag_79\n        /* \"@openzeppelin/contracts/token/ERC20/utils/SafeERC20.sol\":1718:1799  _callOptionalReturn(token, abi.encodeCall(token.transferFrom, (from, to, value))) */\n      jump\t// in\n    tag_81:\n        /* \"@openzeppelin/contracts/token/ERC20/utils/SafeERC20.sol\":1618:1806  function safeTransferFrom(IERC20 token, address from, address to, uint256 value) internal {... */\n      pop\n      pop\n      pop\n      pop\n      jump\t// out\n        /* \"@openzeppelin/contracts/token/ERC20/utils/SafeERC20.sol\":7686:8406  function _callOptionalReturn(IERC20 token, bytes memory data) private {... */\n    tag_79:\n        /* \"@openzeppelin/contracts/token/ERC20/utils/SafeERC20.sol\":7766:7784  uint256 returnSize */\n      0x00\n        /* \"@openzeppelin/contracts/token/ERC20/utils/SafeERC20.sol\":7794:7813  uint256 returnValue */\n      0x00\n        /* \"@openzeppelin/contracts/token/ERC20/utils/SafeERC20.sol\":7932:7936  0x20 */\n      0x20\n        /* \"@openzeppelin/contracts/token/ERC20/utils/SafeERC20.sol\":7929:7930  0 */\n      0x00\n        /* \"@openzeppelin/contracts/token/ERC20/utils/SafeERC20.sol\":7922:7926  data */\n      dup5\n        /* \"@openzeppelin/contracts/token/ERC20/utils/SafeERC20.sol\":7916:7927  mload(data) */\n      mload\n        /* \"@openzeppelin/contracts/token/ERC20/utils/SafeERC20.sol\":7909:7913  0x20 */\n      0x20\n        /* \"@openzeppelin/contracts/token/ERC20/utils/SafeERC20.sol\":7903:7907  data */\n      dup7\n        /* \"@openzeppelin/contracts/token/ERC20/utils/SafeERC20.sol\":7899:7914  add(data, 0x20) */\n      add\n        /* \"@openzeppelin/contracts/token/ERC20/utils/SafeERC20.sol\":7896:7897  0 */\n      0x00\n        /* \"@openzeppelin/contracts/token/ERC20/utils/SafeERC20.sol\":7889:7894  token */\n      dup9\n        /* \"@openzeppelin/contracts/token/ERC20/utils/SafeERC20.sol\":7882:7887  gas() */\n      gas\n        /* \"@openzeppelin/contracts/token/ERC20/utils/SafeERC20.sol\":7877:7937  call(gas(), token, 0, add(data, 0x20), mload(data), 0, 0x20) */\n      call\n        /* \"@openzeppelin/contracts/token/ERC20/utils/SafeERC20.sol\":7989:7996  success */\n      dup1\n        /* \"@openzeppelin/contracts/token/ERC20/utils/SafeERC20.sol\":7979:8155  if iszero(success) {... */\n      tag_85\n      jumpi\n        /* \"@openzeppelin/contracts/token/ERC20/utils/SafeERC20.sol\":8033:8037  0x40 */\n      0x40\n        /* \"@openzeppelin/contracts/token/ERC20/utils/SafeERC20.sol\":8027:8038  mload(0x40) */\n      mload\n        /* \"@openzeppelin/contracts/token/ERC20/utils/SafeERC20.sol\":8078:8094  returndatasize() */\n      returndatasize\n        /* \"@openzeppelin/contracts/token/ERC20/utils/SafeERC20.sol\":8075:8076  0 */\n      0x00\n        /* \"@openzeppelin/contracts/token/ERC20/utils/SafeERC20.sol\":8070:8073  ptr */\n      dup3\n        /* \"@openzeppelin/contracts/token/ERC20/utils/SafeERC20.sol\":8055:8095  returndatacopy(ptr, 0, returndatasize()) */\n      returndatacopy\n        /* \"@openzeppelin/contracts/token/ERC20/utils/SafeERC20.sol\":8124:8140  returndatasize() */\n      returndatasize\n        /* \"@openzeppelin/contracts/token/ERC20/utils/SafeERC20.sol\":8119:8122  ptr */\n      dup2\n        /* \"@openzeppelin/contracts/token/ERC20/utils/SafeERC20.sol\":8112:8141  revert(ptr, returndatasize()) */\n      revert\n        /* \"@openzeppelin/contracts/token/ERC20/utils/SafeERC20.sol\":7979:8155  if iszero(success) {... */\n    tag_85:\n        /* \"@openzeppelin/contracts/token/ERC20/utils/SafeERC20.sol\":8182:8198  returndatasize() */\n      returndatasize\n        /* \"@openzeppelin/contracts/token/ERC20/utils/SafeERC20.sol\":8168:8198  returnSize := returndatasize() */\n      swap3\n      pop\n        /* \"@openzeppelin/contracts/token/ERC20/utils/SafeERC20.sol\":8232:8233  0 */\n      0x00\n        /* \"@openzeppelin/contracts/token/ERC20/utils/SafeERC20.sol\":8226:8234  mload(0) */\n      mload\n        /* \"@openzeppelin/contracts/token/ERC20/utils/SafeERC20.sol\":8211:8234  returnValue := mload(0) */\n      swap2\n      pop\n        /* \"@openzeppelin/contracts/token/ERC20/utils/SafeERC20.sol\":7848:8244  {... */\n      pop\n        /* \"@openzeppelin/contracts/token/ERC20/utils/SafeERC20.sol\":8272:8273  0 */\n      0x00\n        /* \"@openzeppelin/contracts/token/ERC20/utils/SafeERC20.sol\":8258:8268  returnSize */\n      dup3\n        /* \"@openzeppelin/contracts/token/ERC20/utils/SafeERC20.sol\":8258:8273  returnSize == 0 */\n      eq\n        /* \"@openzeppelin/contracts/token/ERC20/utils/SafeERC20.sol\":8258:8326  returnSize == 0 ? address(token).code.length == 0 : returnValue != 1 */\n      tag_86\n      jumpi\n        /* \"@openzeppelin/contracts/token/ERC20/utils/SafeERC20.sol\":8325:8326  1 */\n      0x01\n        /* \"@openzeppelin/contracts/token/ERC20/utils/SafeERC20.sol\":8310:8321  returnValue */\n      dup2\n        /* \"@openzeppelin/contracts/token/ERC20/utils/SafeERC20.sol\":8310:8326  returnValue != 1 */\n      eq\n      iszero\n        /* \"@openzeppelin/contracts/token/ERC20/utils/SafeERC20.sol\":8258:8326  returnSize == 0 ? address(token).code.length == 0 : returnValue != 1 */\n      jump(tag_87)\n    tag_86:\n        /* \"@openzeppelin/contracts/token/ERC20/utils/SafeERC20.sol\":8306:8307  0 */\n      0x00\n        /* \"@openzeppelin/contracts/token/ERC20/utils/SafeERC20.sol\":8284:8289  token */\n      dup5\n        /* \"@openzeppelin/contracts/token/ERC20/utils/SafeERC20.sol\":8276:8302  address(token).code.length */\n      0xffffffffffffffffffffffffffffffffffffffff\n      and\n      extcodesize\n        /* \"@openzeppelin/contracts/token/ERC20/utils/SafeERC20.sol\":8276:8307  address(token).code.length == 0 */\n      eq\n        /* \"@openzeppelin/contracts/token/ERC20/utils/SafeERC20.sol\":8258:8326  returnSize == 0 ? address(token).code.length == 0 : returnValue != 1 */\n    tag_87:\n        /* \"@openzeppelin/contracts/token/ERC20/utils/SafeERC20.sol\":8254:8400  if (returnSize == 0 ? address(token).code.length == 0 : returnValue != 1) {... */\n      iszero\n      tag_88\n      jumpi\n        /* \"@openzeppelin/contracts/token/ERC20/utils/SafeERC20.sol\":8382:8387  token */\n      dup4\n        /* \"@openzeppelin/contracts/token/ERC20/utils/SafeERC20.sol\":8349:8389  SafeERC20FailedOperation(address(token)) */\n      mload(0x40)\n      0x5274afe700000000000000000000000000000000000000000000000000000000\n      dup2\n      mstore\n      0x04\n      add\n      tag_89\n      swap2\n      swap1\n      tag_90\n      jump\t// in\n    tag_89:\n      mload(0x40)\n      dup1\n      swap2\n      sub\n      swap1\n      revert\n        /* \"@openzeppelin/contracts/token/ERC20/utils/SafeERC20.sol\":8254:8400  if (returnSize == 0 ? address(token).code.length == 0 : returnValue != 1) {... */\n    tag_88:\n        /* \"@openzeppelin/contracts/token/ERC20/utils/SafeERC20.sol\":7756:8406  {... */\n      pop\n      pop\n        /* \"@openzeppelin/contracts/token/ERC20/utils/SafeERC20.sol\":7686:8406  function _callOptionalReturn(IERC20 token, bytes memory data) private {... */\n      pop\n      pop\n      jump\t// out\n        /* \"#utility.yul\":88:205   */\n    tag_92:\n        /* \"#utility.yul\":197:198   */\n      0x00\n        /* \"#utility.yul\":194:195   */\n      0x00\n        /* \"#utility.yul\":187:199   */\n      revert\n        /* \"#utility.yul\":334:411   */\n    tag_94:\n        /* \"#utility.yul\":371:378   */\n      0x00\n        /* \"#utility.yul\":400:405   */\n      dup2\n        /* \"#utility.yul\":389:405   */\n      swap1\n      pop\n        /* \"#utility.yul\":334:411   */\n      swap2\n      swap1\n      pop\n      jump\t// out\n        /* \"#utility.yul\":417:539   */\n    tag_95:\n        /* \"#utility.yul\":490:514   */\n      tag_121\n        /* \"#utility.yul\":508:513   */\n      dup2\n        /* \"#utility.yul\":490:514   */\n      tag_94\n      jump\t// in\n    tag_121:\n        /* \"#utility.yul\":483:488   */\n      dup2\n        /* \"#utility.yul\":480:515   */\n      eq\n        /* \"#utility.yul\":470:533   */\n      tag_122\n      jumpi\n        /* \"#utility.yul\":529:530   */\n      0x00\n        /* \"#utility.yul\":526:527   */\n      0x00\n        /* \"#utility.yul\":519:531   */\n      revert\n        /* \"#utility.yul\":470:533   */\n    tag_122:\n        /* \"#utility.yul\":417:539   */\n      pop\n      jump\t// out\n        /* \"#utility.yul\":545:684   */\n    tag_96:\n        /* \"#utility.yul\":591:596   */\n      0x00\n        /* \"#utility.yul\":629:635   */\n      dup2\n        /* \"#utility.yul\":616:636   */\n      calldataload\n        /* \"#utility.yul\":607:636   */\n      swap1\n      pop\n        /* \"#utility.yul\":645:678   */\n      tag_124\n        /* \"#utility.yul\":672:677   */\n      dup2\n        /* \"#utility.yul\":645:678   */\n      tag_95\n      jump\t// in\n    tag_124:\n        /* \"#utility.yul\":545:684   */\n      swap3\n      swap2\n      pop\n      pop\n      jump\t// out\n        /* \"#utility.yul\":690:1019   */\n    tag_15:\n        /* \"#utility.yul\":749:755   */\n      0x00\n        /* \"#utility.yul\":798:800   */\n      0x20\n        /* \"#utility.yul\":786:795   */\n      dup3\n        /* \"#utility.yul\":777:784   */\n      dup5\n        /* \"#utility.yul\":773:796   */\n      sub\n        /* \"#utility.yul\":769:801   */\n      slt\n        /* \"#utility.yul\":766:885   */\n      iszero\n      tag_126\n      jumpi\n        /* \"#utility.yul\":804:883   */\n      tag_127\n      tag_92\n      jump\t// in\n    tag_127:\n        /* \"#utility.yul\":766:885   */\n    tag_126:\n        /* \"#utility.yul\":924:925   */\n      0x00\n        /* \"#utility.yul\":949:1002   */\n      tag_128\n        /* \"#utility.yul\":994:1001   */\n      dup5\n        /* \"#utility.yul\":985:991   */\n      dup3\n        /* \"#utility.yul\":974:983   */\n      dup6\n        /* \"#utility.yul\":970:992   */\n      add\n        /* \"#utility.yul\":949:1002   */\n      tag_96\n      jump\t// in\n    tag_128:\n        /* \"#utility.yul\":939:1002   */\n      swap2\n      pop\n        /* \"#utility.yul\":895:1012   */\n      pop\n        /* \"#utility.yul\":690:1019   */\n      swap3\n      swap2\n      pop\n      pop\n      jump\t// out\n        /* \"#utility.yul\":1025:1143   */\n    tag_97:\n        /* \"#utility.yul\":1112:1136   */\n      tag_130\n        /* \"#utility.yul\":1130:1135   */\n      dup2\n        /* \"#utility.yul\":1112:1136   */\n      tag_94\n      jump\t// in\n    tag_130:\n        /* \"#utility.yul\":1107:1110   */\n      dup3\n        /* \"#utility.yul\":1100:1137   */\n      mstore\n        /* \"#utility.yul\":1025:1143   */\n      pop\n      pop\n      jump\t// out\n        /* \"#utility.yul\":1149:1371   */\n    tag_21:\n        /* \"#utility.yul\":1242:1246   */\n      0x00\n        /* \"#utility.yul\":1280:1282   */\n      0x20\n        /* \"#utility.yul\":1269:1278   */\n      dup3\n        /* \"#utility.yul\":1265:1283   */\n      add\n        /* \"#utility.yul\":1257:1283   */\n      swap1\n      pop\n        /* \"#utility.yul\":1293:1364   */\n      tag_132\n        /* \"#utility.yul\":1361:1362   */\n      0x00\n        /* \"#utility.yul\":1350:1359   */\n      dup4\n        /* \"#utility.yul\":1346:1363   */\n      add\n        /* \"#utility.yul\":1337:1343   */\n      dup5\n        /* \"#utility.yul\":1293:1364   */\n      tag_97\n      jump\t// in\n    tag_132:\n        /* \"#utility.yul\":1149:1371   */\n      swap3\n      swap2\n      pop\n      pop\n      jump\t// out\n        /* \"#utility.yul\":1377:1503   */\n    tag_98:\n        /* \"#utility.yul\":1414:1421   */\n      0x00\n        /* \"#utility.yul\":1454:1496   */\n      0xffffffffffffffffffffffffffffffffffffffff\n        /* \"#utility.yul\":1447:1452   */\n      dup3\n        /* \"#utility.yul\":1443:1497   */\n      and\n        /* \"#utility.yul\":1432:1497   */\n      swap1\n      pop\n        /* \"#utility.yul\":1377:1503   */\n      swap2\n      swap1\n      pop\n      jump\t// out\n        /* \"#utility.yul\":1509:1605   */\n    tag_99:\n        /* \"#utility.yul\":1546:1553   */\n      0x00\n        /* \"#utility.yul\":1575:1599   */\n      tag_135\n        /* \"#utility.yul\":1593:1598   */\n      dup3\n        /* \"#utility.yul\":1575:1599   */\n      tag_98\n      jump\t// in\n    tag_135:\n        /* \"#utility.yul\":1564:1599   */\n      swap1\n      pop\n        /* \"#utility.yul\":1509:1605   */\n      swap2\n      swap1\n      pop\n      jump\t// out\n        /* \"#utility.yul\":1611:1733   */\n    tag_100:\n        /* \"#utility.yul\":1684:1708   */\n      tag_137\n        /* \"#utility.yul\":1702:1707   */\n      dup2\n        /* \"#utility.yul\":1684:1708   */\n      tag_99\n      jump\t// in\n    tag_137:\n        /* \"#utility.yul\":1677:1682   */\n      dup2\n        /* \"#utility.yul\":1674:1709   */\n      eq\n        /* \"#utility.yul\":1664:1727   */\n      tag_138\n      jumpi\n        /* \"#utility.yul\":1723:1724   */\n      0x00\n        /* \"#utility.yul\":1720:1721   */\n      0x00\n        /* \"#utility.yul\":1713:1725   */\n      revert\n        /* \"#utility.yul\":1664:1727   */\n    tag_138:\n        /* \"#utility.yul\":1611:1733   */\n      pop\n      jump\t// out\n        /* \"#utility.yul\":1739:1878   */\n    tag_101:\n        /* \"#utility.yul\":1785:1790   */\n      0x00\n        /* \"#utility.yul\":1823:1829   */\n      dup2\n        /* \"#utility.yul\":1810:1830   */\n      calldataload\n        /* \"#utility.yul\":1801:1830   */\n      swap1\n      pop\n        /* \"#utility.yul\":1839:1872   */\n      tag_140\n        /* \"#utility.yul\":1866:1871   */\n      dup2\n        /* \"#utility.yul\":1839:1872   */\n      tag_100\n      jump\t// in\n    tag_140:\n        /* \"#utility.yul\":1739:1878   */\n      swap3\n      swap2\n      pop\n      pop\n      jump\t// out\n        /* \"#utility.yul\":1884:2213   */\n    tag_27:\n        /* \"#utility.yul\":1943:1949   */\n      0x00\n        /* \"#utility.yul\":1992:1994   */\n      0x20\n        /* \"#utility.yul\":1980:1989   */\n      dup3\n        /* \"#utility.yul\":1971:1978   */\n      dup5\n        /* \"#utility.yul\":1967:1990   */\n      sub\n        /* \"#utility.yul\":1963:1995   */\n      slt\n        /* \"#utility.yul\":1960:2079   */\n      iszero\n      tag_142\n      jumpi\n        /* \"#utility.yul\":1998:2077   */\n      tag_143\n      tag_92\n      jump\t// in\n    tag_143:\n        /* \"#utility.yul\":1960:2079   */\n    tag_142:\n        /* \"#utility.yul\":2118:2119   */\n      0x00\n        /* \"#utility.yul\":2143:2196   */\n      tag_144\n        /* \"#utility.yul\":2188:2195   */\n      dup5\n        /* \"#utility.yul\":2179:2185   */\n      dup3\n        /* \"#utility.yul\":2168:2177   */\n      dup6\n        /* \"#utility.yul\":2164:2186   */\n      add\n        /* \"#utility.yul\":2143:2196   */\n      tag_101\n      jump\t// in\n    tag_144:\n        /* \"#utility.yul\":2133:2196   */\n      swap2\n      pop\n        /* \"#utility.yul\":2089:2206   */\n      pop\n        /* \"#utility.yul\":1884:2213   */\n      swap3\n      swap2\n      pop\n      pop\n      jump\t// out\n        /* \"#utility.yul\":2219:2309   */\n    tag_102:\n        /* \"#utility.yul\":2253:2260   */\n      0x00\n        /* \"#utility.yul\":2296:2301   */\n      dup2\n        /* \"#utility.yul\":2289:2302   */\n      iszero\n        /* \"#utility.yul\":2282:2303   */\n      iszero\n        /* \"#utility.yul\":2271:2303   */\n      swap1\n      pop\n        /* \"#utility.yul\":2219:2309   */\n      swap2\n      swap1\n      pop\n      jump\t// out\n        /* \"#utility.yul\":2315:2424   */\n    tag_103:\n        /* \"#utility.yul\":2396:2417   */\n      tag_147\n        /* \"#utility.yul\":2411:2416   */\n      dup2\n        /* \"#utility.yul\":2396:2417   */\n      tag_102\n      jump\t// in\n    tag_147:\n        /* \"#utility.yul\":2391:2394   */\n      dup3\n        /* \"#utility.yul\":2384:2418   */\n      mstore\n        /* \"#utility.yul\":2315:2424   */\n      pop\n      pop\n      jump\t// out\n        /* \"#utility.yul\":2430:2640   */\n    tag_41:\n        /* \"#utility.yul\":2517:2521   */\n      0x00\n        /* \"#utility.yul\":2555:2557   */\n      0x20\n        /* \"#utility.yul\":2544:2553   */\n      dup3\n        /* \"#utility.yul\":2540:2558   */\n      add\n        /* \"#utility.yul\":2532:2558   */\n      swap1\n      pop\n        /* \"#utility.yul\":2568:2633   */\n      tag_149\n        /* \"#utility.yul\":2630:2631   */\n      0x00\n        /* \"#utility.yul\":2619:2628   */\n      dup4\n        /* \"#utility.yul\":2615:2632   */\n      add\n        /* \"#utility.yul\":2606:2612   */\n      dup5\n        /* \"#utility.yul\":2568:2633   */\n      tag_103\n      jump\t// in\n    tag_149:\n        /* \"#utility.yul\":2430:2640   */\n      swap3\n      swap2\n      pop\n      pop\n      jump\t// out\n        /* \"#utility.yul\":2646:2706   */\n    tag_104:\n        /* \"#utility.yul\":2674:2677   */\n      0x00\n        /* \"#utility.yul\":2695:2700   */\n      dup2\n        /* \"#utility.yul\":2688:2700   */\n      swap1\n      pop\n        /* \"#utility.yul\":2646:2706   */\n      swap2\n      swap1\n      pop\n      jump\t// out\n        /* \"#utility.yul\":2712:2854   */\n    tag_105:\n        /* \"#utility.yul\":2762:2771   */\n      0x00\n        /* \"#utility.yul\":2795:2848   */\n      tag_152\n        /* \"#utility.yul\":2813:2847   */\n      tag_153\n        /* \"#utility.yul\":2822:2846   */\n      tag_154\n        /* \"#utility.yul\":2840:2845   */\n      dup5\n        /* \"#utility.yul\":2822:2846   */\n      tag_98\n      jump\t// in\n    tag_154:\n        /* \"#utility.yul\":2813:2847   */\n      tag_104\n      jump\t// in\n    tag_153:\n        /* \"#utility.yul\":2795:2848   */\n      tag_98\n      jump\t// in\n    tag_152:\n        /* \"#utility.yul\":2782:2848   */\n      swap1\n      pop\n        /* \"#utility.yul\":2712:2854   */\n      swap2\n      swap1\n      pop\n      jump\t// out\n        /* \"#utility.yul\":2860:2986   */\n    tag_106:\n        /* \"#utility.yul\":2910:2919   */\n      0x00\n        /* \"#utility.yul\":2943:2980   */\n      tag_156\n        /* \"#utility.yul\":2974:2979   */\n      dup3\n        /* \"#utility.yul\":2943:2980   */\n      tag_105\n      jump\t// in\n    tag_156:\n        /* \"#utility.yul\":2930:2980   */\n      swap1\n      pop\n        /* \"#utility.yul\":2860:2986   */\n      swap2\n      swap1\n      pop\n      jump\t// out\n        /* \"#utility.yul\":2992:3132   */\n    tag_107:\n        /* \"#utility.yul\":3056:3065   */\n      0x00\n        /* \"#utility.yul\":3089:3126   */\n      tag_158\n        /* \"#utility.yul\":3120:3125   */\n      dup3\n        /* \"#utility.yul\":3089:3126   */\n      tag_106\n      jump\t// in\n    tag_158:\n        /* \"#utility.yul\":3076:3126   */\n      swap1\n      pop\n        /* \"#utility.yul\":2992:3132   */\n      swap2\n      swap1\n      pop\n      jump\t// out\n        /* \"#utility.yul\":3138:3297   */\n    tag_108:\n        /* \"#utility.yul\":3239:3290   */\n      tag_160\n        /* \"#utility.yul\":3284:3289   */\n      dup2\n        /* \"#utility.yul\":3239:3290   */\n      tag_107\n      jump\t// in\n    tag_160:\n        /* \"#utility.yul\":3234:3237   */\n      dup3\n        /* \"#utility.yul\":3227:3291   */\n      mstore\n        /* \"#utility.yul\":3138:3297   */\n      pop\n      pop\n      jump\t// out\n        /* \"#utility.yul\":3303:3553   */\n    tag_45:\n        /* \"#utility.yul\":3410:3414   */\n      0x00\n        /* \"#utility.yul\":3448:3450   */\n      0x20\n        /* \"#utility.yul\":3437:3446   */\n      dup3\n        /* \"#utility.yul\":3433:3451   */\n      add\n        /* \"#utility.yul\":3425:3451   */\n      swap1\n      pop\n        /* \"#utility.yul\":3461:3546   */\n      tag_162\n        /* \"#utility.yul\":3543:3544   */\n      0x00\n        /* \"#utility.yul\":3532:3541   */\n      dup4\n        /* \"#utility.yul\":3528:3545   */\n      add\n        /* \"#utility.yul\":3519:3525   */\n      dup5\n        /* \"#utility.yul\":3461:3546   */\n      tag_108\n      jump\t// in\n    tag_162:\n        /* \"#utility.yul\":3303:3553   */\n      swap3\n      swap2\n      pop\n      pop\n      jump\t// out\n        /* \"#utility.yul\":3559:3728   */\n    tag_109:\n        /* \"#utility.yul\":3643:3654   */\n      0x00\n        /* \"#utility.yul\":3677:3683   */\n      dup3\n        /* \"#utility.yul\":3672:3675   */\n      dup3\n        /* \"#utility.yul\":3665:3684   */\n      mstore\n        /* \"#utility.yul\":3717:3721   */\n      0x20\n        /* \"#utility.yul\":3712:3715   */\n      dup3\n        /* \"#utility.yul\":3708:3722   */\n      add\n        /* \"#utility.yul\":3693:3722   */\n      swap1\n      pop\n        /* \"#utility.yul\":3559:3728   */\n      swap3\n      swap2\n      pop\n      pop\n      jump\t// out\n        /* \"#utility.yul\":3734:3904   */\n    tag_110:\n        /* \"#utility.yul\":3874:3896   */\n      0x496e73756666696369656e742062616c616e6365000000000000000000000000\n        /* \"#utility.yul\":3870:3871   */\n      0x00\n        /* \"#utility.yul\":3862:3868   */\n      dup3\n        /* \"#utility.yul\":3858:3872   */\n      add\n        /* \"#utility.yul\":3851:3897   */\n      mstore\n        /* \"#utility.yul\":3734:3904   */\n      pop\n      jump\t// out\n        /* \"#utility.yul\":3910:4276   */\n    tag_111:\n        /* \"#utility.yul\":4052:4055   */\n      0x00\n        /* \"#utility.yul\":4073:4140   */\n      tag_166\n        /* \"#utility.yul\":4137:4139   */\n      0x14\n        /* \"#utility.yul\":4132:4135   */\n      dup4\n        /* \"#utility.yul\":4073:4140   */\n      tag_109\n      jump\t// in\n    tag_166:\n        /* \"#utility.yul\":4066:4140   */\n      swap2\n      pop\n        /* \"#utility.yul\":4149:4242   */\n      tag_167\n        /* \"#utility.yul\":4238:4241   */\n      dup3\n        /* \"#utility.yul\":4149:4242   */\n      tag_110\n      jump\t// in\n    tag_167:\n        /* \"#utility.yul\":4267:4269   */\n      0x20\n        /* \"#utility.yul\":4262:4265   */\n      dup3\n        /* \"#utility.yul\":4258:4270   */\n      add\n        /* \"#utility.yul\":4251:4270   */\n      swap1\n      pop\n        /* \"#utility.yul\":3910:4276   */\n      swap2\n      swap1\n      pop\n      jump\t// out\n        /* \"#utility.yul\":4282:4701   */\n    tag_54:\n        /* \"#utility.yul\":4448:4452   */\n      0x00\n        /* \"#utility.yul\":4486:4488   */\n      0x20\n        /* \"#utility.yul\":4475:4484   */\n      dup3\n        /* \"#utility.yul\":4471:4489   */\n      add\n        /* \"#utility.yul\":4463:4489   */\n      swap1\n      pop\n        /* \"#utility.yul\":4535:4544   */\n      dup2\n        /* \"#utility.yul\":4529:4533   */\n      dup2\n        /* \"#utility.yul\":4525:4545   */\n      sub\n        /* \"#utility.yul\":4521:4522   */\n      0x00\n        /* \"#utility.yul\":4510:4519   */\n      dup4\n        /* \"#utility.yul\":4506:4523   */\n      add\n        /* \"#utility.yul\":4499:4546   */\n      mstore\n        /* \"#utility.yul\":4563:4694   */\n      tag_169\n        /* \"#utility.yul\":4689:4693   */\n      dup2\n        /* \"#utility.yul\":4563:4694   */\n      tag_111\n      jump\t// in\n    tag_169:\n        /* \"#utility.yul\":4555:4694   */\n      swap1\n      pop\n        /* \"#utility.yul\":4282:4701   */\n      swap2\n      swap1\n      pop\n      jump\t// out\n        /* \"#utility.yul\":4707:4887   */\n    tag_112:\n        /* \"#utility.yul\":4755:4832   */\n      0x4e487b7100000000000000000000000000000000000000000000000000000000\n        /* \"#utility.yul\":4752:4753   */\n      0x00\n        /* \"#utility.yul\":4745:4833   */\n      mstore\n        /* \"#utility.yul\":4852:4856   */\n      0x11\n        /* \"#utility.yul\":4849:4850   */\n      0x04\n        /* \"#utility.yul\":4842:4857   */\n      mstore\n        /* \"#utility.yul\":4876:4880   */\n      0x24\n        /* \"#utility.yul\":4873:4874   */\n      0x00\n        /* \"#utility.yul\":4866:4881   */\n      revert\n        /* \"#utility.yul\":4893:5087   */\n    tag_56:\n        /* \"#utility.yul\":4933:4937   */\n      0x00\n        /* \"#utility.yul\":4953:4973   */\n      tag_172\n        /* \"#utility.yul\":4971:4972   */\n      dup3\n        /* \"#utility.yul\":4953:4973   */\n      tag_94\n      jump\t// in\n    tag_172:\n        /* \"#utility.yul\":4948:4973   */\n      swap2\n      pop\n        /* \"#utility.yul\":4987:5007   */\n      tag_173\n        /* \"#utility.yul\":5005:5006   */\n      dup4\n        /* \"#utility.yul\":4987:5007   */\n      tag_94\n      jump\t// in\n    tag_173:\n        /* \"#utility.yul\":4982:5007   */\n      swap3\n      pop\n        /* \"#utility.yul\":5031:5032   */\n      dup3\n        /* \"#utility.yul\":5028:5029   */\n      dup3\n        /* \"#utility.yul\":5024:5033   */\n      sub\n        /* \"#utility.yul\":5016:5033   */\n      swap1\n      pop\n        /* \"#utility.yul\":5055:5056   */\n      dup2\n        /* \"#utility.yul\":5049:5053   */\n      dup2\n        /* \"#utility.yul\":5046:5057   */\n      gt\n        /* \"#utility.yul\":5043:5080   */\n      iszero\n      tag_174\n      jumpi\n        /* \"#utility.yul\":5060:5078   */\n      tag_175\n      tag_112\n      jump\t// in\n    tag_175:\n        /* \"#utility.yul\":5043:5080   */\n    tag_174:\n        /* \"#utility.yul\":4893:5087   */\n      swap3\n      swap2\n      pop\n      pop\n      jump\t// out\n        /* \"#utility.yul\":5093:5503   */\n    tag_63:\n        /* \"#utility.yul\":5133:5140   */\n      0x00\n        /* \"#utility.yul\":5156:5176   */\n      tag_177\n        /* \"#utility.yul\":5174:5175   */\n      dup3\n        /* \"#utility.yul\":5156:5176   */\n      tag_94\n      jump\t// in\n    tag_177:\n        /* \"#utility.yul\":5151:5176   */\n      swap2\n      pop\n        /* \"#utility.yul\":5190:5210   */\n      tag_178\n        /* \"#utility.yul\":5208:5209   */\n      dup4\n        /* \"#utility.yul\":5190:5210   */\n      tag_94\n      jump\t// in\n    tag_178:\n        /* \"#utility.yul\":5185:5210   */\n      swap3\n      pop\n        /* \"#utility.yul\":5245:5246   */\n      dup3\n        /* \"#utility.yul\":5242:5243   */\n      dup3\n        /* \"#utility.yul\":5238:5247   */\n      mul\n        /* \"#utility.yul\":5267:5297   */\n      tag_179\n        /* \"#utility.yul\":5285:5296   */\n      dup2\n        /* \"#utility.yul\":5267:5297   */\n      tag_94\n      jump\t// in\n    tag_179:\n        /* \"#utility.yul\":5256:5297   */\n      swap2\n      pop\n        /* \"#utility.yul\":5446:5447   */\n      dup3\n        /* \"#utility.yul\":5437:5444   */\n      dup3\n        /* \"#utility.yul\":5433:5448   */\n      div\n        /* \"#utility.yul\":5430:5431   */\n      dup5\n        /* \"#utility.yul\":5427:5449   */\n      eq\n        /* \"#utility.yul\":5407:5408   */\n      dup4\n        /* \"#utility.yul\":5400:5409   */\n      iszero\n        /* \"#utility.yul\":5380:5463   */\n      or\n        /* \"#utility.yul\":5357:5496   */\n      tag_180\n      jumpi\n        /* \"#utility.yul\":5476:5494   */\n      tag_181\n      tag_112\n      jump\t// in\n    tag_181:\n        /* \"#utility.yul\":5357:5496   */\n    tag_180:\n        /* \"#utility.yul\":5141:5503   */\n      pop\n        /* \"#utility.yul\":5093:5503   */\n      swap3\n      swap2\n      pop\n      pop\n      jump\t// out\n        /* \"#utility.yul\":5509:5689   */\n    tag_113:\n        /* \"#utility.yul\":5557:5634   */\n      0x4e487b7100000000000000000000000000000000000000000000000000000000\n        /* \"#utility.yul\":5554:5555   */\n      0x00\n        /* \"#utility.yul\":5547:5635   */\n      mstore\n        /* \"#utility.yul\":5654:5658   */\n      0x12\n        /* \"#utility.yul\":5651:5652   */\n      0x04\n        /* \"#utility.yul\":5644:5659   */\n      mstore\n        /* \"#utility.yul\":5678:5682   */\n      0x24\n        /* \"#utility.yul\":5675:5676   */\n      0x00\n        /* \"#utility.yul\":5668:5683   */\n      revert\n        /* \"#utility.yul\":5695:5880   */\n    tag_67:\n        /* \"#utility.yul\":5735:5736   */\n      0x00\n        /* \"#utility.yul\":5752:5772   */\n      tag_184\n        /* \"#utility.yul\":5770:5771   */\n      dup3\n        /* \"#utility.yul\":5752:5772   */\n      tag_94\n      jump\t// in\n    tag_184:\n        /* \"#utility.yul\":5747:5772   */\n      swap2\n      pop\n        /* \"#utility.yul\":5786:5806   */\n      tag_185\n        /* \"#utility.yul\":5804:5805   */\n      dup4\n        /* \"#utility.yul\":5786:5806   */\n      tag_94\n      jump\t// in\n    tag_185:\n        /* \"#utility.yul\":5781:5806   */\n      swap3\n      pop\n        /* \"#utility.yul\":5825:5826   */\n      dup3\n        /* \"#utility.yul\":5815:5850   */\n      tag_186\n      jumpi\n        /* \"#utility.yul\":5830:5848   */\n      tag_187\n      tag_113\n      jump\t// in\n    tag_187:\n        /* \"#utility.yul\":5815:5850   */\n    tag_186:\n        /* \"#utility.yul\":5872:5873   */\n      dup3\n        /* \"#utility.yul\":5869:5870   */\n      dup3\n        /* \"#utility.yul\":5865:5874   */\n      div\n        /* \"#utility.yul\":5860:5874   */\n      swap1\n      pop\n        /* \"#utility.yul\":5695:5880   */\n      swap3\n      swap2\n      pop\n      pop\n      jump\t// out\n        /* \"#utility.yul\":5886:6077   */\n    tag_73:\n        /* \"#utility.yul\":5926:5929   */\n      0x00\n        /* \"#utility.yul\":5945:5965   */\n      tag_189\n        /* \"#utility.yul\":5963:5964   */\n      dup3\n        /* \"#utility.yul\":5945:5965   */\n      tag_94\n      jump\t// in\n    tag_189:\n        /* \"#utility.yul\":5940:5965   */\n      swap2\n      pop\n        /* \"#utility.yul\":5979:5999   */\n      tag_190\n        /* \"#utility.yul\":5997:5998   */\n      dup4\n        /* \"#utility.yul\":5979:5999   */\n      tag_94\n      jump\t// in\n    tag_190:\n        /* \"#utility.yul\":5974:5999   */\n      swap3\n      pop\n        /* \"#utility.yul\":6022:6023   */\n      dup3\n        /* \"#utility.yul\":6019:6020   */\n      dup3\n        /* \"#utility.yul\":6015:6024   */\n      add\n        /* \"#utility.yul\":6008:6024   */\n      swap1\n      pop\n        /* \"#utility.yul\":6043:6046   */\n      dup1\n        /* \"#utility.yul\":6040:6041   */\n      dup3\n        /* \"#utility.yul\":6037:6047   */\n      gt\n        /* \"#utility.yul\":6034:6070   */\n      iszero\n      tag_191\n      jumpi\n        /* \"#utility.yul\":6050:6068   */\n      tag_192\n      tag_112\n      jump\t// in\n    tag_192:\n        /* \"#utility.yul\":6034:6070   */\n    tag_191:\n        /* \"#utility.yul\":5886:6077   */\n      swap3\n      swap2\n      pop\n      pop\n      jump\t// out\n        /* \"#utility.yul\":6083:6201   */\n    tag_114:\n        /* \"#utility.yul\":6170:6194   */\n      tag_194\n        /* \"#utility.yul\":6188:6193   */\n      dup2\n        /* \"#utility.yul\":6170:6194   */\n      tag_99\n      jump\t// in\n    tag_194:\n        /* \"#utility.yul\":6165:6168   */\n      dup3\n        /* \"#utility.yul\":6158:6195   */\n      mstore\n        /* \"#utility.yul\":6083:6201   */\n      pop\n      pop\n      jump\t// out\n        /* \"#utility.yul\":6207:6539   */\n    tag_78:\n        /* \"#utility.yul\":6328:6332   */\n      0x00\n        /* \"#utility.yul\":6366:6368   */\n      0x40\n        /* \"#utility.yul\":6355:6364   */\n      dup3\n        /* \"#utility.yul\":6351:6369   */\n      add\n        /* \"#utility.yul\":6343:6369   */\n      swap1\n      pop\n        /* \"#utility.yul\":6379:6450   */\n      tag_196\n        /* \"#utility.yul\":6447:6448   */\n      0x00\n        /* \"#utility.yul\":6436:6445   */\n      dup4\n        /* \"#utility.yul\":6432:6449   */\n      add\n        /* \"#utility.yul\":6423:6429   */\n      dup6\n        /* \"#utility.yul\":6379:6450   */\n      tag_114\n      jump\t// in\n    tag_196:\n        /* \"#utility.yul\":6460:6532   */\n      tag_197\n        /* \"#utility.yul\":6528:6530   */\n      0x20\n        /* \"#utility.yul\":6517:6526   */\n      dup4\n        /* \"#utility.yul\":6513:6531   */\n      add\n        /* \"#utility.yul\":6504:6510   */\n      dup5\n        /* \"#utility.yul\":6460:6532   */\n      tag_97\n      jump\t// in\n    tag_197:\n        /* \"#utility.yul\":6207:6539   */\n      swap4\n      swap3\n      pop\n      pop\n      pop\n      jump\t// out\n        /* \"#utility.yul\":6545:6987   */\n    tag_83:\n        /* \"#utility.yul\":6694:6698   */\n      0x00\n        /* \"#utility.yul\":6732:6734   */\n      0x60\n        /* \"#utility.yul\":6721:6730   */\n      dup3\n        /* \"#utility.yul\":6717:6735   */\n      add\n        /* \"#utility.yul\":6709:6735   */\n      swap1\n      pop\n        /* \"#utility.yul\":6745:6816   */\n      tag_199\n        /* \"#utility.yul\":6813:6814   */\n      0x00\n        /* \"#utility.yul\":6802:6811   */\n      dup4\n        /* \"#utility.yul\":6798:6815   */\n      add\n        /* \"#utility.yul\":6789:6795   */\n      dup7\n        /* \"#utility.yul\":6745:6816   */\n      tag_114\n      jump\t// in\n    tag_199:\n        /* \"#utility.yul\":6826:6898   */\n      tag_200\n        /* \"#utility.yul\":6894:6896   */\n      0x20\n        /* \"#utility.yul\":6883:6892   */\n      dup4\n        /* \"#utility.yul\":6879:6897   */\n      add\n        /* \"#utility.yul\":6870:6876   */\n      dup6\n        /* \"#utility.yul\":6826:6898   */\n      tag_114\n      jump\t// in\n    tag_200:\n        /* \"#utility.yul\":6908:6980   */\n      tag_201\n        /* \"#utility.yul\":6976:6978   */\n      0x40\n        /* \"#utility.yul\":6965:6974   */\n      dup4\n        /* \"#utility.yul\":6961:6979   */\n      add\n        /* \"#utility.yul\":6952:6958   */\n      dup5\n        /* \"#utility.yul\":6908:6980   */\n      tag_97\n      jump\t// in\n    tag_201:\n        /* \"#utility.yul\":6545:6987   */\n      swap5\n      swap4\n      pop\n      pop\n      pop\n      pop\n      jump\t// out\n        /* \"#utility.yul\":6993:7215   */\n    tag_90:\n        /* \"#utility.yul\":7086:7090   */\n      0x00\n        /* \"#utility.yul\":7124:7126   */\n      0x20\n        /* \"#utility.yul\":7113:7122   */\n      dup3\n        /* \"#utility.yul\":7109:7127   */\n      add\n        /* \"#utility.yul\":7101:7127   */\n      swap1\n      pop\n        /* \"#utility.yul\":7137:7208   */\n      tag_203\n        /* \"#utility.yul\":7205:7206   */\n      0x00\n        /* \"#utility.yul\":7194:7203   */\n      dup4\n        /* \"#utility.yul\":7190:7207   */\n      add\n        /* \"#utility.yul\":7181:7187   */\n      dup5\n        /* \"#utility.yul\":7137:7208   */\n      tag_114\n      jump\t// in\n    tag_203:\n        /* \"#utility.yul\":6993:7215   */\n      swap3\n      swap2\n      pop\n      pop\n      jump\t// out\n\n    auxdata: 0xa26469706673582212204e5dc372e85e7c300e3d93efcfa58938a08c86e677759c6d1d9d7d14edaa42df64736f6c634300081e0033\n}\n",
				"bytecode": {
					"linkReferences": {},
					"object": "60a06040526101f45f55348015610014575f5ffd5b50604051610ca3380380610ca3833981810160405281019061003691906100ce565b8073ffffffffffffffffffffffffffffffffffffffff1660808173ffffffffffffffffffffffffffffffffffffffff1681525050506100f9565b5f5ffd5b5f73ffffffffffffffffffffffffffffffffffffffff82169050919050565b5f61009d82610074565b9050919050565b6100ad81610093565b81146100b7575f5ffd5b50565b5f815190506100c8816100a4565b92915050565b5f602082840312156100e3576100e2610070565b5b5f6100f0848285016100ba565b91505092915050565b608051610b8461011f5f395f81816102df0152818161046e01526105980152610b845ff3fe608060405234801561000f575f5ffd5b5060043610610091575f3560e01c806364c339771161006457806364c339771461012f578063962ca4961461015f578063b6b55f251461017d578063fc0c546a146101ad578063fc7e286d146101cb57610091565b806324f45e67146100955780632e1a7d4d146100b15780633bcfc4b8146100e157806346c64873146100ff575b5f5ffd5b6100af60048036038101906100aa91906107a2565b6101fb565b005b6100cb60048036038101906100c691906107a2565b610204565b6040516100d891906107dc565b60405180910390f35b6100e961032b565b6040516100f691906107dc565b60405180910390f35b6101196004803603810190610114919061084f565b610330565b60405161012691906107dc565b60405180910390f35b6101496004803603810190610144919061084f565b610345565b60405161015691906107dc565b60405180910390f35b61016761045d565b60405161017491906107dc565b60405180910390f35b610197600480360381019061019291906107a2565b610465565b6040516101a49190610894565b60405180910390f35b6101b5610596565b6040516101c29190610908565b60405180910390f35b6101e560048036038101906101e0919061084f565b6105ba565b6040516101f291906107dc565b60405180910390f35b805f8190555050565b5f8160015f3373ffffffffffffffffffffffffffffffffffffffff1673ffffffffffffffffffffffffffffffffffffffff1681526020019081526020015f20541015610285576040517f08c379a000000000000000000000000000000000000000000000000000000000815260040161027c9061097b565b60405180910390fd5b8160015f3373ffffffffffffffffffffffffffffffffffffffff1673ffffffffffffffffffffffffffffffffffffffff1681526020019081526020015f205f8282546102d191906109c6565b9250508190555061032333837f000000000000000000000000000000000000000000000000000000000000000073ffffffffffffffffffffffffffffffffffffffff166105cf9092919063ffffffff16565b819050919050565b5f5481565b6002602052805f5260405f205f915090505481565b5f5f60025f8473ffffffffffffffffffffffffffffffffffffffff1673ffffffffffffffffffffffffffffffffffffffff1681526020019081526020015f205403610392575f9050610458565b5f60025f8473ffffffffffffffffffffffffffffffffffffffff1673ffffffffffffffffffffffffffffffffffffffff1681526020019081526020015f2054426103dc91906109c6565b90505f6301e133809050612710816103f491906109f9565b825f5460015f8873ffffffffffffffffffffffffffffffffffffffff1673ffffffffffffffffffffffffffffffffffffffff1681526020019081526020015f205461043f91906109f9565b61044991906109f9565b6104539190610a67565b925050505b919050565b5f5f54905090565b5f6104b33330847f000000000000000000000000000000000000000000000000000000000000000073ffffffffffffffffffffffffffffffffffffffff1661064e909392919063ffffffff16565b8160015f3373ffffffffffffffffffffffffffffffffffffffff1673ffffffffffffffffffffffffffffffffffffffff1681526020019081526020015f205f8282546104ff9190610a97565b925050819055505f60025f3373ffffffffffffffffffffffffffffffffffffffff1673ffffffffffffffffffffffffffffffffffffffff1681526020019081526020015f20540361058d574260025f3373ffffffffffffffffffffffffffffffffffffffff1673ffffffffffffffffffffffffffffffffffffffff1681526020019081526020015f20819055505b60019050919050565b7f000000000000000000000000000000000000000000000000000000000000000081565b6001602052805f5260405f205f915090505481565b610649838473ffffffffffffffffffffffffffffffffffffffff1663a9059cbb8585604051602401610602929190610ad9565b604051602081830303815290604052915060e01b6020820180517bffffffffffffffffffffffffffffffffffffffffffffffffffffffff83818316178352505050506106d0565b505050565b6106ca848573ffffffffffffffffffffffffffffffffffffffff166323b872dd86868660405160240161068393929190610b00565b604051602081830303815290604052915060e01b6020820180517bffffffffffffffffffffffffffffffffffffffffffffffffffffffff83818316178352505050506106d0565b50505050565b5f5f60205f8451602086015f885af1806106ef576040513d5f823e3d81fd5b3d92505f519150505f8214610708576001811415610723565b5f8473ffffffffffffffffffffffffffffffffffffffff163b145b1561076557836040517f5274afe700000000000000000000000000000000000000000000000000000000815260040161075c9190610b35565b60405180910390fd5b50505050565b5f5ffd5b5f819050919050565b6107818161076f565b811461078b575f5ffd5b50565b5f8135905061079c81610778565b92915050565b5f602082840312156107b7576107b661076b565b5b5f6107c48482850161078e565b91505092915050565b6107d68161076f565b82525050565b5f6020820190506107ef5f8301846107cd565b92915050565b5f73ffffffffffffffffffffffffffffffffffffffff82169050919050565b5f61081e826107f5565b9050919050565b61082e81610814565b8114610838575f5ffd5b50565b5f8135905061084981610825565b92915050565b5f602082840312156108645761086361076b565b5b5f6108718482850161083b565b91505092915050565b5f8115159050919050565b61088e8161087a565b82525050565b5f6020820190506108a75f830184610885565b92915050565b5f819050919050565b5f6108d06108cb6108c6846107f5565b6108ad565b6107f5565b9050919050565b5f6108e1826108b6565b9050919050565b5f6108f2826108d7565b9050919050565b610902816108e8565b82525050565b5f60208201905061091b5f8301846108f9565b92915050565b5f82825260208201905092915050565b7f496e73756666696369656e742062616c616e63650000000000000000000000005f82015250565b5f610965601483610921565b915061097082610931565b602082019050919050565b5f6020820190508181035f83015261099281610959565b9050919050565b7f4e487b71000000000000000000000000000000000000000000000000000000005f52601160045260245ffd5b5f6109d08261076f565b91506109db8361076f565b92508282039050818111156109f3576109f2610999565b5b92915050565b5f610a038261076f565b9150610a0e8361076f565b9250828202610a1c8161076f565b91508282048414831517610a3357610a32610999565b5b5092915050565b7f4e487b71000000000000000000000000000000000000000000000000000000005f52601260045260245ffd5b5f610a718261076f565b9150610a7c8361076f565b925082610a8c57610a8b610a3a565b5b828204905092915050565b5f610aa18261076f565b9150610aac8361076f565b9250828201905080821115610ac457610ac3610999565b5b92915050565b610ad381610814565b82525050565b5f604082019050610aec5f830185610aca565b610af960208301846107cd565b9392505050565b5f606082019050610b135f830186610aca565b610b206020830185610aca565b610b2d60408301846107cd565b949350505050565b5f602082019050610b485f830184610aca565b9291505056fea26469706673582212204e5dc372e85e7c300e3d93efcfa58938a08c86e677759c6d1d9d7d14edaa42df64736f6c634300081e0033",
					"opcodes": "PUSH1 0xA0 PUSH1 0x40 MSTORE PUSH2 0x1F4 PUSH0 SSTORE CALLVALUE DUP1 ISZERO PUSH2 0x14 JUMPI PUSH0 PUSH0 REVERT JUMPDEST POP PUSH1 0x40 MLOAD PUSH2 0xCA3 CODESIZE SUB DUP1 PUSH2 0xCA3 DUP4 CODECOPY DUP2 DUP2 ADD PUSH1 0x40 MSTORE DUP2 ADD SWAP1 PUSH2 0x36 SWAP2 SWAP1 PUSH2 0xCE JUMP JUMPDEST DUP1 PUSH20 0xFFFFFFFFFFFFFFFFFFFFFFFFFFFFFFFFFFFFFFFF AND PUSH1 0x80 DUP2 PUSH20 0xFFFFFFFFFFFFFFFFFFFFFFFFFFFFFFFFFFFFFFFF AND DUP2 MSTORE POP POP POP PUSH2 0xF9 JUMP JUMPDEST PUSH0 PUSH0 REVERT JUMPDEST PUSH0 PUSH20 0xFFFFFFFFFFFFFFFFFFFFFFFFFFFFFFFFFFFFFFFF DUP3 AND SWAP1 POP SWAP2 SWAP1 POP JUMP JUMPDEST PUSH0 PUSH2 0x9D DUP3 PUSH2 0x74 JUMP JUMPDEST SWAP1 POP SWAP2 SWAP1 POP JUMP JUMPDEST PUSH2 0xAD DUP2 PUSH2 0x93 JUMP JUMPDEST DUP2 EQ PUSH2 0xB7 JUMPI PUSH0 PUSH0 REVERT JUMPDEST POP JUMP JUMPDEST PUSH0 DUP2 MLOAD SWAP1 POP PUSH2 0xC8 DUP2 PUSH2 0xA4 JUMP JUMPDEST SWAP3 SWAP2 POP POP JUMP JUMPDEST PUSH0 PUSH1 0x20 DUP3 DUP5 SUB SLT ISZERO PUSH2 0xE3 JUMPI PUSH2 0xE2 PUSH2 0x70 JUMP JUMPDEST JUMPDEST PUSH0 PUSH2 0xF0 DUP5 DUP3 DUP6 ADD PUSH2 0xBA JUMP JUMPDEST SWAP2 POP POP SWAP3 SWAP2 POP POP JUMP JUMPDEST PUSH1 0x80 MLOAD PUSH2 0xB84 PUSH2 0x11F PUSH0 CODECOPY PUSH0 DUP2 DUP2 PUSH2 0x2DF ADD MSTORE DUP2 DUP2 PUSH2 0x46E ADD MSTORE PUSH2 0x598 ADD MSTORE PUSH2 0xB84 PUSH0 RETURN INVALID PUSH1 0x80 PUSH1 0x40 MSTORE CALLVALUE DUP1 ISZERO PUSH2 0xF JUMPI PUSH0 PUSH0 REVERT JUMPDEST POP PUSH1 0x4 CALLDATASIZE LT PUSH2 0x91 JUMPI PUSH0 CALLDATALOAD PUSH1 0xE0 SHR DUP1 PUSH4 0x64C33977 GT PUSH2 0x64 JUMPI DUP1 PUSH4 0x64C33977 EQ PUSH2 0x12F JUMPI DUP1 PUSH4 0x962CA496 EQ PUSH2 0x15F JUMPI DUP1 PUSH4 0xB6B55F25 EQ PUSH2 0x17D JUMPI DUP1 PUSH4 0xFC0C546A EQ PUSH2 0x1AD JUMPI DUP1 PUSH4 0xFC7E286D EQ PUSH2 0x1CB JUMPI PUSH2 0x91 JUMP JUMPDEST DUP1 PUSH4 0x24F45E67 EQ PUSH2 0x95 JUMPI DUP1 PUSH4 0x2E1A7D4D EQ PUSH2 0xB1 JUMPI DUP1 PUSH4 0x3BCFC4B8 EQ PUSH2 0xE1 JUMPI DUP1 PUSH4 0x46C64873 EQ PUSH2 0xFF JUMPI JUMPDEST PUSH0 PUSH0 REVERT JUMPDEST PUSH2 0xAF PUSH1 0x4 DUP1 CALLDATASIZE SUB DUP2 ADD SWAP1 PUSH2 0xAA SWAP2 SWAP1 PUSH2 0x7A2 JUMP JUMPDEST PUSH2 0x1FB JUMP JUMPDEST STOP JUMPDEST PUSH2 0xCB PUSH1 0x4 DUP1 CALLDATASIZE SUB DUP2 ADD SWAP1 PUSH2 0xC6 SWAP2 SWAP1 PUSH2 0x7A2 JUMP JUMPDEST PUSH2 0x204 JUMP JUMPDEST PUSH1 0x40 MLOAD PUSH2 0xD8 SWAP2 SWAP1 PUSH2 0x7DC JUMP JUMPDEST PUSH1 0x40 MLOAD DUP1 SWAP2 SUB SWAP1 RETURN JUMPDEST PUSH2 0xE9 PUSH2 0x32B JUMP JUMPDEST PUSH1 0x40 MLOAD PUSH2 0xF6 SWAP2 SWAP1 PUSH2 0x7DC JUMP JUMPDEST PUSH1 0x40 MLOAD DUP1 SWAP2 SUB SWAP1 RETURN JUMPDEST PUSH2 0x119 PUSH1 0x4 DUP1 CALLDATASIZE SUB DUP2 ADD SWAP1 PUSH2 0x114 SWAP2 SWAP1 PUSH2 0x84F JUMP JUMPDEST PUSH2 0x330 JUMP JUMPDEST PUSH1 0x40 MLOAD PUSH2 0x126 SWAP2 SWAP1 PUSH2 0x7DC JUMP JUMPDEST PUSH1 0x40 MLOAD DUP1 SWAP2 SUB SWAP1 RETURN JUMPDEST PUSH2 0x149 PUSH1 0x4 DUP1 CALLDATASIZE SUB DUP2 ADD SWAP1 PUSH2 0x144 SWAP2 SWAP1 PUSH2 0x84F JUMP JUMPDEST PUSH2 0x345 JUMP JUMPDEST PUSH1 0x40 MLOAD PUSH2 0x156 SWAP2 SWAP1 PUSH2 0x7DC JUMP JUMPDEST PUSH1 0x40 MLOAD DUP1 SWAP2 SUB SWAP1 RETURN JUMPDEST PUSH2 0x167 PUSH2 0x45D JUMP JUMPDEST PUSH1 0x40 MLOAD PUSH2 0x174 SWAP2 SWAP1 PUSH2 0x7DC JUMP JUMPDEST PUSH1 0x40 MLOAD DUP1 SWAP2 SUB SWAP1 RETURN JUMPDEST PUSH2 0x197 PUSH1 0x4 DUP1 CALLDATASIZE SUB DUP2 ADD SWAP1 PUSH2 0x192 SWAP2 SWAP1 PUSH2 0x7A2 JUMP JUMPDEST PUSH2 0x465 JUMP JUMPDEST PUSH1 0x40 MLOAD PUSH2 0x1A4 SWAP2 SWAP1 PUSH2 0x894 JUMP JUMPDEST PUSH1 0x40 MLOAD DUP1 SWAP2 SUB SWAP1 RETURN JUMPDEST PUSH2 0x1B5 PUSH2 0x596 JUMP JUMPDEST PUSH1 0x40 MLOAD PUSH2 0x1C2 SWAP2 SWAP1 PUSH2 0x908 JUMP JUMPDEST PUSH1 0x40 MLOAD DUP1 SWAP2 SUB SWAP1 RETURN JUMPDEST PUSH2 0x1E5 PUSH1 0x4 DUP1 CALLDATASIZE SUB DUP2 ADD SWAP1 PUSH2 0x1E0 SWAP2 SWAP1 PUSH2 0x84F JUMP JUMPDEST PUSH2 0x5BA JUMP JUMPDEST PUSH1 0x40 MLOAD PUSH2 0x1F2 SWAP2 SWAP1 PUSH2 0x7DC JUMP JUMPDEST PUSH1 0x40 MLOAD DUP1 SWAP2 SUB SWAP1 RETURN JUMPDEST DUP1 PUSH0 DUP2 SWAP1 SSTORE POP POP JUMP JUMPDEST PUSH0 DUP2 PUSH1 0x1 PUSH0 CALLER PUSH20 0xFFFFFFFFFFFFFFFFFFFFFFFFFFFFFFFFFFFFFFFF AND PUSH20 0xFFFFFFFFFFFFFFFFFFFFFFFFFFFFFFFFFFFFFFFF AND DUP2 MSTORE PUSH1 0x20 ADD SWAP1 DUP2 MSTORE PUSH1 0x20 ADD PUSH0 KECCAK256 SLOAD LT ISZERO PUSH2 0x285 JUMPI PUSH1 0x40 MLOAD PUSH32 0x8C379A000000000000000000000000000000000000000000000000000000000 DUP2 MSTORE PUSH1 0x4 ADD PUSH2 0x27C SWAP1 PUSH2 0x97B JUMP JUMPDEST PUSH1 0x40 MLOAD DUP1 SWAP2 SUB SWAP1 REVERT JUMPDEST DUP2 PUSH1 0x1 PUSH0 CALLER PUSH20 0xFFFFFFFFFFFFFFFFFFFFFFFFFFFFFFFFFFFFFFFF AND PUSH20 0xFFFFFFFFFFFFFFFFFFFFFFFFFFFFFFFFFFFFFFFF AND DUP2 MSTORE PUSH1 0x20 ADD SWAP1 DUP2 MSTORE PUSH1 0x20 ADD PUSH0 KECCAK256 PUSH0 DUP3 DUP3 SLOAD PUSH2 0x2D1 SWAP2 SWAP1 PUSH2 0x9C6 JUMP JUMPDEST SWAP3 POP POP DUP2 SWAP1 SSTORE POP PUSH2 0x323 CALLER DUP4 PUSH32 0x0 PUSH20 0xFFFFFFFFFFFFFFFFFFFFFFFFFFFFFFFFFFFFFFFF AND PUSH2 0x5CF SWAP1 SWAP3 SWAP2 SWAP1 PUSH4 0xFFFFFFFF AND JUMP JUMPDEST DUP2 SWAP1 POP SWAP2 SWAP1 POP JUMP JUMPDEST PUSH0 SLOAD DUP2 JUMP JUMPDEST PUSH1 0x2 PUSH1 0x20 MSTORE DUP1 PUSH0 MSTORE PUSH1 0x40 PUSH0 KECCAK256 PUSH0 SWAP2 POP SWAP1 POP SLOAD DUP2 JUMP JUMPDEST PUSH0 PUSH0 PUSH1 0x2 PUSH0 DUP5 PUSH20 0xFFFFFFFFFFFFFFFFFFFFFFFFFFFFFFFFFFFFFFFF AND PUSH20 0xFFFFFFFFFFFFFFFFFFFFFFFFFFFFFFFFFFFFFFFF AND DUP2 MSTORE PUSH1 0x20 ADD SWAP1 DUP2 MSTORE PUSH1 0x20 ADD PUSH0 KECCAK256 SLOAD SUB PUSH2 0x392 JUMPI PUSH0 SWAP1 POP PUSH2 0x458 JUMP JUMPDEST PUSH0 PUSH1 0x2 PUSH0 DUP5 PUSH20 0xFFFFFFFFFFFFFFFFFFFFFFFFFFFFFFFFFFFFFFFF AND PUSH20 0xFFFFFFFFFFFFFFFFFFFFFFFFFFFFFFFFFFFFFFFF AND DUP2 MSTORE PUSH1 0x20 ADD SWAP1 DUP2 MSTORE PUSH1 0x20 ADD PUSH0 KECCAK256 SLOAD TIMESTAMP PUSH2 0x3DC SWAP2 SWAP1 PUSH2 0x9C6 JUMP JUMPDEST SWAP1 POP PUSH0 PUSH4 0x1E13380 SWAP1 POP PUSH2 0x2710 DUP2 PUSH2 0x3F4 SWAP2 SWAP1 PUSH2 0x9F9 JUMP JUMPDEST DUP3 PUSH0 SLOAD PUSH1 0x1 PUSH0 DUP9 PUSH20 0xFFFFFFFFFFFFFFFFFFFFFFFFFFFFFFFFFFFFFFFF AND PUSH20 0xFFFFFFFFFFFFFFFFFFFFFFFFFFFFFFFFFFFFFFFF AND DUP2 MSTORE PUSH1 0x20 ADD SWAP1 DUP2 MSTORE PUSH1 0x20 ADD PUSH0 KECCAK256 SLOAD PUSH2 0x43F SWAP2 SWAP1 PUSH2 0x9F9 JUMP JUMPDEST PUSH2 0x449 SWAP2 SWAP1 PUSH2 0x9F9 JUMP JUMPDEST PUSH2 0x453 SWAP2 SWAP1 PUSH2 0xA67 JUMP JUMPDEST SWAP3 POP POP POP JUMPDEST SWAP2 SWAP1 POP JUMP JUMPDEST PUSH0 PUSH0 SLOAD SWAP1 POP SWAP1 JUMP JUMPDEST PUSH0 PUSH2 0x4B3 CALLER ADDRESS DUP5 PUSH32 0x0 PUSH20 0xFFFFFFFFFFFFFFFFFFFFFFFFFFFFFFFFFFFFFFFF AND PUSH2 0x64E SWAP1 SWAP4 SWAP3 SWAP2 SWAP1 PUSH4 0xFFFFFFFF AND JUMP JUMPDEST DUP2 PUSH1 0x1 PUSH0 CALLER PUSH20 0xFFFFFFFFFFFFFFFFFFFFFFFFFFFFFFFFFFFFFFFF AND PUSH20 0xFFFFFFFFFFFFFFFFFFFFFFFFFFFFFFFFFFFFFFFF AND DUP2 MSTORE PUSH1 0x20 ADD SWAP1 DUP2 MSTORE PUSH1 0x20 ADD PUSH0 KECCAK256 PUSH0 DUP3 DUP3 SLOAD PUSH2 0x4FF SWAP2 SWAP1 PUSH2 0xA97 JUMP JUMPDEST SWAP3 POP POP DUP2 SWAP1 SSTORE POP PUSH0 PUSH1 0x2 PUSH0 CALLER PUSH20 0xFFFFFFFFFFFFFFFFFFFFFFFFFFFFFFFFFFFFFFFF AND PUSH20 0xFFFFFFFFFFFFFFFFFFFFFFFFFFFFFFFFFFFFFFFF AND DUP2 MSTORE PUSH1 0x20 ADD SWAP1 DUP2 MSTORE PUSH1 0x20 ADD PUSH0 KECCAK256 SLOAD SUB PUSH2 0x58D JUMPI TIMESTAMP PUSH1 0x2 PUSH0 CALLER PUSH20 0xFFFFFFFFFFFFFFFFFFFFFFFFFFFFFFFFFFFFFFFF AND PUSH20 0xFFFFFFFFFFFFFFFFFFFFFFFFFFFFFFFFFFFFFFFF AND DUP2 MSTORE PUSH1 0x20 ADD SWAP1 DUP2 MSTORE PUSH1 0x20 ADD PUSH0 KECCAK256 DUP2 SWAP1 SSTORE POP JUMPDEST PUSH1 0x1 SWAP1 POP SWAP2 SWAP1 POP JUMP JUMPDEST PUSH32 0x0 DUP2 JUMP JUMPDEST PUSH1 0x1 PUSH1 0x20 MSTORE DUP1 PUSH0 MSTORE PUSH1 0x40 PUSH0 KECCAK256 PUSH0 SWAP2 POP SWAP1 POP SLOAD DUP2 JUMP JUMPDEST PUSH2 0x649 DUP4 DUP5 PUSH20 0xFFFFFFFFFFFFFFFFFFFFFFFFFFFFFFFFFFFFFFFF AND PUSH4 0xA9059CBB DUP6 DUP6 PUSH1 0x40 MLOAD PUSH1 0x24 ADD PUSH2 0x602 SWAP3 SWAP2 SWAP1 PUSH2 0xAD9 JUMP JUMPDEST PUSH1 0x40 MLOAD PUSH1 0x20 DUP2 DUP4 SUB SUB DUP2 MSTORE SWAP1 PUSH1 0x40 MSTORE SWAP2 POP PUSH1 0xE0 SHL PUSH1 0x20 DUP3 ADD DUP1 MLOAD PUSH28 0xFFFFFFFFFFFFFFFFFFFFFFFFFFFFFFFFFFFFFFFFFFFFFFFFFFFFFFFF DUP4 DUP2 DUP4 AND OR DUP4 MSTORE POP POP POP POP PUSH2 0x6D0 JUMP JUMPDEST POP POP POP JUMP JUMPDEST PUSH2 0x6CA DUP5 DUP6 PUSH20 0xFFFFFFFFFFFFFFFFFFFFFFFFFFFFFFFFFFFFFFFF AND PUSH4 0x23B872DD DUP7 DUP7 DUP7 PUSH1 0x40 MLOAD PUSH1 0x24 ADD PUSH2 0x683 SWAP4 SWAP3 SWAP2 SWAP1 PUSH2 0xB00 JUMP JUMPDEST PUSH1 0x40 MLOAD PUSH1 0x20 DUP2 DUP4 SUB SUB DUP2 MSTORE SWAP1 PUSH1 0x40 MSTORE SWAP2 POP PUSH1 0xE0 SHL PUSH1 0x20 DUP3 ADD DUP1 MLOAD PUSH28 0xFFFFFFFFFFFFFFFFFFFFFFFFFFFFFFFFFFFFFFFFFFFFFFFFFFFFFFFF DUP4 DUP2 DUP4 AND OR DUP4 MSTORE POP POP POP POP PUSH2 0x6D0 JUMP JUMPDEST POP POP POP POP JUMP JUMPDEST PUSH0 PUSH0 PUSH1 0x20 PUSH0 DUP5 MLOAD PUSH1 0x20 DUP7 ADD PUSH0 DUP9 GAS CALL DUP1 PUSH2 0x6EF JUMPI PUSH1 0x40 MLOAD RETURNDATASIZE PUSH0 DUP3 RETURNDATACOPY RETURNDATASIZE DUP2 REVERT JUMPDEST RETURNDATASIZE SWAP3 POP PUSH0 MLOAD SWAP2 POP POP PUSH0 DUP3 EQ PUSH2 0x708 JUMPI PUSH1 0x1 DUP2 EQ ISZERO PUSH2 0x723 JUMP JUMPDEST PUSH0 DUP5 PUSH20 0xFFFFFFFFFFFFFFFFFFFFFFFFFFFFFFFFFFFFFFFF AND EXTCODESIZE EQ JUMPDEST ISZERO PUSH2 0x765 JUMPI DUP4 PUSH1 0x40 MLOAD PUSH32 0x5274AFE700000000000000000000000000000000000000000000000000000000 DUP2 MSTORE PUSH1 0x4 ADD PUSH2 0x75C SWAP2 SWAP1 PUSH2 0xB35 JUMP JUMPDEST PUSH1 0x40 MLOAD DUP1 SWAP2 SUB SWAP1 REVERT JUMPDEST POP POP POP POP JUMP JUMPDEST PUSH0 PUSH0 REVERT JUMPDEST PUSH0 DUP2 SWAP1 POP SWAP2 SWAP1 POP JUMP JUMPDEST PUSH2 0x781 DUP2 PUSH2 0x76F JUMP JUMPDEST DUP2 EQ PUSH2 0x78B JUMPI PUSH0 PUSH0 REVERT JUMPDEST POP JUMP JUMPDEST PUSH0 DUP2 CALLDATALOAD SWAP1 POP PUSH2 0x79C DUP2 PUSH2 0x778 JUMP JUMPDEST SWAP3 SWAP2 POP POP JUMP JUMPDEST PUSH0 PUSH1 0x20 DUP3 DUP5 SUB SLT ISZERO PUSH2 0x7B7 JUMPI PUSH2 0x7B6 PUSH2 0x76B JUMP JUMPDEST JUMPDEST PUSH0 PUSH2 0x7C4 DUP5 DUP3 DUP6 ADD PUSH2 0x78E JUMP JUMPDEST SWAP2 POP POP SWAP3 SWAP2 POP POP JUMP JUMPDEST PUSH2 0x7D6 DUP2 PUSH2 0x76F JUMP JUMPDEST DUP3 MSTORE POP POP JUMP JUMPDEST PUSH0 PUSH1 0x20 DUP3 ADD SWAP1 POP PUSH2 0x7EF PUSH0 DUP4 ADD DUP5 PUSH2 0x7CD JUMP JUMPDEST SWAP3 SWAP2 POP POP JUMP JUMPDEST PUSH0 PUSH20 0xFFFFFFFFFFFFFFFFFFFFFFFFFFFFFFFFFFFFFFFF DUP3 AND SWAP1 POP SWAP2 SWAP1 POP JUMP JUMPDEST PUSH0 PUSH2 0x81E DUP3 PUSH2 0x7F5 JUMP JUMPDEST SWAP1 POP SWAP2 SWAP1 POP JUMP JUMPDEST PUSH2 0x82E DUP2 PUSH2 0x814 JUMP JUMPDEST DUP2 EQ PUSH2 0x838 JUMPI PUSH0 PUSH0 REVERT JUMPDEST POP JUMP JUMPDEST PUSH0 DUP2 CALLDATALOAD SWAP1 POP PUSH2 0x849 DUP2 PUSH2 0x825 JUMP JUMPDEST SWAP3 SWAP2 POP POP JUMP JUMPDEST PUSH0 PUSH1 0x20 DUP3 DUP5 SUB SLT ISZERO PUSH2 0x864 JUMPI PUSH2 0x863 PUSH2 0x76B JUMP JUMPDEST JUMPDEST PUSH0 PUSH2 0x871 DUP5 DUP3 DUP6 ADD PUSH2 0x83B JUMP JUMPDEST SWAP2 POP POP SWAP3 SWAP2 POP POP JUMP JUMPDEST PUSH0 DUP2 ISZERO ISZERO SWAP1 POP SWAP2 SWAP1 POP JUMP JUMPDEST PUSH2 0x88E DUP2 PUSH2 0x87A JUMP JUMPDEST DUP3 MSTORE POP POP JUMP JUMPDEST PUSH0 PUSH1 0x20 DUP3 ADD SWAP1 POP PUSH2 0x8A7 PUSH0 DUP4 ADD DUP5 PUSH2 0x885 JUMP JUMPDEST SWAP3 SWAP2 POP POP JUMP JUMPDEST PUSH0 DUP2 SWAP1 POP SWAP2 SWAP1 POP JUMP JUMPDEST PUSH0 PUSH2 0x8D0 PUSH2 0x8CB PUSH2 0x8C6 DUP5 PUSH2 0x7F5 JUMP JUMPDEST PUSH2 0x8AD JUMP JUMPDEST PUSH2 0x7F5 JUMP JUMPDEST SWAP1 POP SWAP2 SWAP1 POP JUMP JUMPDEST PUSH0 PUSH2 0x8E1 DUP3 PUSH2 0x8B6 JUMP JUMPDEST SWAP1 POP SWAP2 SWAP1 POP JUMP JUMPDEST PUSH0 PUSH2 0x8F2 DUP3 PUSH2 0x8D7 JUMP JUMPDEST SWAP1 POP SWAP2 SWAP1 POP JUMP JUMPDEST PUSH2 0x902 DUP2 PUSH2 0x8E8 JUMP JUMPDEST DUP3 MSTORE POP POP JUMP JUMPDEST PUSH0 PUSH1 0x20 DUP3 ADD SWAP1 POP PUSH2 0x91B PUSH0 DUP4 ADD DUP5 PUSH2 0x8F9 JUMP JUMPDEST SWAP3 SWAP2 POP POP JUMP JUMPDEST PUSH0 DUP3 DUP3 MSTORE PUSH1 0x20 DUP3 ADD SWAP1 POP SWAP3 SWAP2 POP POP JUMP JUMPDEST PUSH32 0x496E73756666696369656E742062616C616E6365000000000000000000000000 PUSH0 DUP3 ADD MSTORE POP JUMP JUMPDEST PUSH0 PUSH2 0x965 PUSH1 0x14 DUP4 PUSH2 0x921 JUMP JUMPDEST SWAP2 POP PUSH2 0x970 DUP3 PUSH2 0x931 JUMP JUMPDEST PUSH1 0x20 DUP3 ADD SWAP1 POP SWAP2 SWAP1 POP JUMP JUMPDEST PUSH0 PUSH1 0x20 DUP3 ADD SWAP1 POP DUP2 DUP2 SUB PUSH0 DUP4 ADD MSTORE PUSH2 0x992 DUP2 PUSH2 0x959 JUMP JUMPDEST SWAP1 POP SWAP2 SWAP1 POP JUMP JUMPDEST PUSH32 0x4E487B7100000000000000000000000000000000000000000000000000000000 PUSH0 MSTORE PUSH1 0x11 PUSH1 0x4 MSTORE PUSH1 0x24 PUSH0 REVERT JUMPDEST PUSH0 PUSH2 0x9D0 DUP3 PUSH2 0x76F JUMP JUMPDEST SWAP2 POP PUSH2 0x9DB DUP4 PUSH2 0x76F JUMP JUMPDEST SWAP3 POP DUP3 DUP3 SUB SWAP1 POP DUP2 DUP2 GT ISZERO PUSH2 0x9F3 JUMPI PUSH2 0x9F2 PUSH2 0x999 JUMP JUMPDEST JUMPDEST SWAP3 SWAP2 POP POP JUMP JUMPDEST PUSH0 PUSH2 0xA03 DUP3 PUSH2 0x76F JUMP JUMPDEST SWAP2 POP PUSH2 0xA0E DUP4 PUSH2 0x76F JUMP JUMPDEST SWAP3 POP DUP3 DUP3 MUL PUSH2 0xA1C DUP2 PUSH2 0x76F JUMP JUMPDEST SWAP2 POP DUP3 DUP3 DIV DUP5 EQ DUP4 ISZERO OR PUSH2 0xA33 JUMPI PUSH2 0xA32 PUSH2 0x999 JUMP JUMPDEST JUMPDEST POP SWAP3 SWAP2 POP POP JUMP JUMPDEST PUSH32 0x4E487B7100000000000000000000000000000000000000000000000000000000 PUSH0 MSTORE PUSH1 0x12 PUSH1 0x4 MSTORE PUSH1 0x24 PUSH0 REVERT JUMPDEST PUSH0 PUSH2 0xA71 DUP3 PUSH2 0x76F JUMP JUMPDEST SWAP2 POP PUSH2 0xA7C DUP4 PUSH2 0x76F JUMP JUMPDEST SWAP3 POP DUP3 PUSH2 0xA8C JUMPI PUSH2 0xA8B PUSH2 0xA3A JUMP JUMPDEST JUMPDEST DUP3 DUP3 DIV SWAP1 POP SWAP3 SWAP2 POP POP JUMP JUMPDEST PUSH0 PUSH2 0xAA1 DUP3 PUSH2 0x76F JUMP JUMPDEST SWAP2 POP PUSH2 0xAAC DUP4 PUSH2 0x76F JUMP JUMPDEST SWAP3 POP DUP3 DUP3 ADD SWAP1 POP DUP1 DUP3 GT ISZERO PUSH2 0xAC4 JUMPI PUSH2 0xAC3 PUSH2 0x999 JUMP JUMPDEST JUMPDEST SWAP3 SWAP2 POP POP JUMP JUMPDEST PUSH2 0xAD3 DUP2 PUSH2 0x814 JUMP JUMPDEST DUP3 MSTORE POP POP JUMP JUMPDEST PUSH0 PUSH1 0x40 DUP3 ADD SWAP1 POP PUSH2 0xAEC PUSH0 DUP4 ADD DUP6 PUSH2 0xACA JUMP JUMPDEST PUSH2 0xAF9 PUSH1 0x20 DUP4 ADD DUP5 PUSH2 0x7CD JUMP JUMPDEST SWAP4 SWAP3 POP POP POP JUMP JUMPDEST PUSH0 PUSH1 0x60 DUP3 ADD SWAP1 POP PUSH2 0xB13 PUSH0 DUP4 ADD DUP7 PUSH2 0xACA JUMP JUMPDEST PUSH2 0xB20 PUSH1 0x20 DUP4 ADD DUP6 PUSH2 0xACA JUMP JUMPDEST PUSH2 0xB2D PUSH1 0x40 DUP4 ADD DUP5 PUSH2 0x7CD JUMP JUMPDEST SWAP5 SWAP4 POP POP POP POP JUMP JUMPDEST PUSH0 PUSH1 0x20 DUP3 ADD SWAP1 POP PUSH2 0xB48 PUSH0 DUP4 ADD DUP5 PUSH2 0xACA JUMP JUMPDEST SWAP3 SWAP2 POP POP JUMP INVALID LOG2 PUSH5 0x6970667358 0x22 SLT KECCAK256 0x4E TSTORE 0xC3 PUSH19 0xE85E7C300E3D93EFCFA58938A08C86E677759C PUSH14 0x1D9D7D14EDAA42DF64736F6C6343 STOP ADDMOD 0x1E STOP CALLER "
				},
				"gasEstimates": {
					"creation": {
						"codeDepositCost": "589600",
						"executionCost": "infinite",
						"totalCost": "infinite"
					},
					"external": {
						"apy()": "2469",
						"deposit(uint256)": "infinite",
						"depositTime(address)": "2869",
						"deposits(address)": "2890",
						"getCurrentAPY()": "2453",
						"getYield(address)": "infinite",
						"setAPY(uint256)": "22515",
						"token()": "infinite",
						"withdraw(uint256)": "infinite"
					}
				},
				"methodIdentifiers": {
					"apy()": "3bcfc4b8",
					"deposit(uint256)": "b6b55f25",
					"depositTime(address)": "46c64873",
					"deposits(address)": "fc7e286d",
					"getCurrentAPY()": "962ca496",
					"getYield(address)": "64c33977",
					"setAPY(uint256)": "24f45e67",
					"token()": "fc0c546a",
					"withdraw(uint256)": "2e1a7d4d"
				}
			},
			"storageLayout": {
				"storage": [
					{
						"astId": 634,
						"contract": "contracts/mocks/MockYieldStrategy.sol:MockYieldStrategy",
						"label": "apy",
						"offset": 0,
						"slot": "0",
						"type": "t_uint256"
					},
					{
						"astId": 638,
						"contract": "contracts/mocks/MockYieldStrategy.sol:MockYieldStrategy",
						"label": "deposits",
						"offset": 0,
						"slot": "1",
						"type": "t_mapping(t_address,t_uint256)"
					},
					{
						"astId": 642,
						"contract": "contracts/mocks/MockYieldStrategy.sol:MockYieldStrategy",
						"label": "depositTime",
						"offset": 0,
						"slot": "2",
						"type": "t_mapping(t_address,t_uint256)"
					}
				],
				"types": {
					"t_address": {
						"encoding": "inplace",
						"label": "address",
						"numberOfBytes": "20"
					},
					"t_mapping(t_address,t_uint256)": {
						"encoding": "mapping",
						"key": "t_address",
						"label": "mapping(address => uint256)",
						"numberOfBytes": "32",
						"value": "t_uint256"
					},
					"t_uint256": {
						"encoding": "inplace",
						"label": "uint256",
						"numberOfBytes": "32"
					}
				}
			},
			"userdoc": {
				"kind": "user",
				"methods": {},
				"version": 1
			}
		}
	}
}