{
	"contracts/mocks/MockPriceFeed.sol": {
		"MockPriceFeed": {
			"abi": [
				{
					"inputs": [
						{
							"internalType": "int256",
							"name": "initialPrice",
							"type": "int256"
						},
						{
							"internalType": "uint8",
							"name": "decimals_",
							"type": "uint8"
						}
					],
					"stateMutability": "nonpayable",
					"type": "constructor"
				},
				{
					"inputs": [],
					"name": "decimals",
					"outputs": [
						{
							"internalType": "uint8",
							"name": "",
							"type": "uint8"
						}
					],
					"stateMutability": "view",
					"type": "function"
				},
				{
					"inputs": [],
					"name": "description",
					"outputs": [
						{
							"internalType": "string",
							"name": "",
							"type": "string"
						}
					],
					"stateMutability": "view",
					"type": "function"
				},
				{
					"inputs": [
						{
							"internalType": "uint80",
							"name": "_roundId",
							"type": "uint80"
						}
					],
					"name": "getRoundData",
					"outputs": [
						{
							"internalType": "uint80",
							"name": "roundId",
							"type": "uint80"
						},
						{
							"internalType": "int256",
							"name": "answer",
							"type": "int256"
						},
						{
							"internalType": "uint256",
							"name": "startedAt",
							"type": "uint256"
						},
						{
							"internalType": "uint256",
							"name": "updatedAt",
							"type": "uint256"
						},
						{
							"internalType": "uint80",
							"name": "answeredInRound",
							"type": "uint80"
						}
					],
					"stateMutability": "view",
					"type": "function"
				},
				{
					"inputs": [],
					"name": "latestRoundData",
					"outputs": [
						{
							"internalType": "uint80",
							"name": "roundId",
							"type": "uint80"
						},
						{
							"internalType": "int256",
							"name": "answer",
							"type": "int256"
						},
						{
							"internalType": "uint256",
							"name": "startedAt",
							"type": "uint256"
						},
						{
							"internalType": "uint256",
							"name": "updatedAt",
							"type": "uint256"
						},
						{
							"internalType": "uint80",
							"name": "answeredInRound",
							"type": "uint80"
						}
					],
					"stateMutability": "view",
					"type": "function"
				},
				{
					"inputs": [
						{
							"internalType": "int256",
							"name": "price",
							"type": "int256"
						}
					],
					"name": "setPrice",
					"outputs": [],
					"stateMutability": "nonpayable",
					"type": "function"
				},
				{
					"inputs": [],
					"name": "version",
					"outputs": [
						{
							"internalType": "uint256",
							"name": "",
							"type": "uint256"
						}
					],
					"stateMutability": "view",
					"type": "function"
				}
			],
			"devdoc": {
				"kind": "dev",
				"methods": {},
				"version": 1
			},
			"evm": {
				"assembly": "    /* \"contracts/mocks/MockPriceFeed.sol\":135:1535  contract MockPriceFeed is AggregatorV3Interface {... */\n  mstore(0x40, 0x80)\n    /* \"contracts/mocks/MockPriceFeed.sol\":313:496  constructor(int256 initialPrice, uint8 decimals_) {... */\n  callvalue\n  dup1\n  iszero\n  tag_1\n  jumpi\n  revert(0x00, 0x00)\ntag_1:\n  pop\n  mload(0x40)\n  sub(codesize, bytecodeSize)\n  dup1\n  bytecodeSize\n  dup4\n  codecopy\n  dup2\n  dup2\n  add\n  0x40\n  mstore\n  dup2\n  add\n  swap1\n  tag_2\n  swap2\n  swap1\n  tag_3\n  jump\t// in\ntag_2:\n    /* \"contracts/mocks/MockPriceFeed.sol\":382:394  initialPrice */\n  dup2\n    /* \"contracts/mocks/MockPriceFeed.sol\":373:379  _price */\n  0x00\n    /* \"contracts/mocks/MockPriceFeed.sol\":373:394  _price = initialPrice */\n  dup2\n  swap1\n  sstore\n  pop\n    /* \"contracts/mocks/MockPriceFeed.sol\":416:425  decimals_ */\n  dup1\n    /* \"contracts/mocks/MockPriceFeed.sol\":404:413  _decimals */\n  0x01\n  0x00\n    /* \"contracts/mocks/MockPriceFeed.sol\":404:425  _decimals = decimals_ */\n  0x0100\n  exp\n  dup2\n  sload\n  dup2\n  0xff\n  mul\n  not\n  and\n  swap1\n  dup4\n  0xff\n  and\n  mul\n  or\n  swap1\n  sstore\n  pop\n    /* \"contracts/mocks/MockPriceFeed.sol\":435:467  _description = \"Mock Price Feed\" */\n  mload(0x40)\n  dup1\n  0x40\n  add\n  0x40\n  mstore\n  dup1\n  0x0f\n  dup2\n  mstore\n  0x20\n  add\n  0x4d6f636b20507269636520466565640000000000000000000000000000000000\n  dup2\n  mstore\n  pop\n    /* \"contracts/mocks/MockPriceFeed.sol\":435:447  _description */\n  0x02\n    /* \"contracts/mocks/MockPriceFeed.sol\":435:467  _description = \"Mock Price Feed\" */\n  swap1\n  dup2\n  tag_6\n  swap2\n  swap1\n  tag_7\n  jump\t// in\ntag_6:\n  pop\n    /* \"contracts/mocks/MockPriceFeed.sol\":488:489  1 */\n  0x01\n    /* \"contracts/mocks/MockPriceFeed.sol\":477:485  _version */\n  0x03\n    /* \"contracts/mocks/MockPriceFeed.sol\":477:489  _version = 1 */\n  dup2\n  swap1\n  sstore\n  pop\n    /* \"contracts/mocks/MockPriceFeed.sol\":313:496  constructor(int256 initialPrice, uint8 decimals_) {... */\n  pop\n  pop\n    /* \"contracts/mocks/MockPriceFeed.sol\":135:1535  contract MockPriceFeed is AggregatorV3Interface {... */\n  jump(tag_8)\n    /* \"#utility.yul\":88:205   */\ntag_10:\n    /* \"#utility.yul\":197:198   */\n  0x00\n    /* \"#utility.yul\":194:195   */\n  0x00\n    /* \"#utility.yul\":187:199   */\n  revert\n    /* \"#utility.yul\":334:410   */\ntag_12:\n    /* \"#utility.yul\":370:377   */\n  0x00\n    /* \"#utility.yul\":399:404   */\n  dup2\n    /* \"#utility.yul\":388:404   */\n  swap1\n  pop\n    /* \"#utility.yul\":334:410   */\n  swap2\n  swap1\n  pop\n  jump\t// out\n    /* \"#utility.yul\":416:536   */\ntag_13:\n    /* \"#utility.yul\":488:511   */\n  tag_44\n    /* \"#utility.yul\":505:510   */\n  dup2\n    /* \"#utility.yul\":488:511   */\n  tag_12\n  jump\t// in\ntag_44:\n    /* \"#utility.yul\":481:486   */\n  dup2\n    /* \"#utility.yul\":478:512   */\n  eq\n    /* \"#utility.yul\":468:530   */\n  tag_45\n  jumpi\n    /* \"#utility.yul\":526:527   */\n  0x00\n    /* \"#utility.yul\":523:524   */\n  0x00\n    /* \"#utility.yul\":516:528   */\n  revert\n    /* \"#utility.yul\":468:530   */\ntag_45:\n    /* \"#utility.yul\":416:536   */\n  pop\n  jump\t// out\n    /* \"#utility.yul\":542:683   */\ntag_14:\n    /* \"#utility.yul\":598:603   */\n  0x00\n    /* \"#utility.yul\":629:635   */\n  dup2\n    /* \"#utility.yul\":623:636   */\n  mload\n    /* \"#utility.yul\":614:636   */\n  swap1\n  pop\n    /* \"#utility.yul\":645:677   */\n  tag_47\n    /* \"#utility.yul\":671:676   */\n  dup2\n    /* \"#utility.yul\":645:677   */\n  tag_13\n  jump\t// in\ntag_47:\n    /* \"#utility.yul\":542:683   */\n  swap3\n  swap2\n  pop\n  pop\n  jump\t// out\n    /* \"#utility.yul\":689:775   */\ntag_15:\n    /* \"#utility.yul\":724:731   */\n  0x00\n    /* \"#utility.yul\":764:768   */\n  0xff\n    /* \"#utility.yul\":757:762   */\n  dup3\n    /* \"#utility.yul\":753:769   */\n  and\n    /* \"#utility.yul\":742:769   */\n  swap1\n  pop\n    /* \"#utility.yul\":689:775   */\n  swap2\n  swap1\n  pop\n  jump\t// out\n    /* \"#utility.yul\":781:899   */\ntag_16:\n    /* \"#utility.yul\":852:874   */\n  tag_50\n    /* \"#utility.yul\":868:873   */\n  dup2\n    /* \"#utility.yul\":852:874   */\n  tag_15\n  jump\t// in\ntag_50:\n    /* \"#utility.yul\":845:850   */\n  dup2\n    /* \"#utility.yul\":842:875   */\n  eq\n    /* \"#utility.yul\":832:893   */\n  tag_51\n  jumpi\n    /* \"#utility.yul\":889:890   */\n  0x00\n    /* \"#utility.yul\":886:887   */\n  0x00\n    /* \"#utility.yul\":879:891   */\n  revert\n    /* \"#utility.yul\":832:893   */\ntag_51:\n    /* \"#utility.yul\":781:899   */\n  pop\n  jump\t// out\n    /* \"#utility.yul\":905:1044   */\ntag_17:\n    /* \"#utility.yul\":960:965   */\n  0x00\n    /* \"#utility.yul\":991:997   */\n  dup2\n    /* \"#utility.yul\":985:998   */\n  mload\n    /* \"#utility.yul\":976:998   */\n  swap1\n  pop\n    /* \"#utility.yul\":1007:1038   */\n  tag_53\n    /* \"#utility.yul\":1032:1037   */\n  dup2\n    /* \"#utility.yul\":1007:1038   */\n  tag_16\n  jump\t// in\ntag_53:\n    /* \"#utility.yul\":905:1044   */\n  swap3\n  swap2\n  pop\n  pop\n  jump\t// out\n    /* \"#utility.yul\":1050:1551   */\ntag_3:\n    /* \"#utility.yul\":1126:1132   */\n  0x00\n    /* \"#utility.yul\":1134:1140   */\n  0x00\n    /* \"#utility.yul\":1183:1185   */\n  0x40\n    /* \"#utility.yul\":1171:1180   */\n  dup4\n    /* \"#utility.yul\":1162:1169   */\n  dup6\n    /* \"#utility.yul\":1158:1181   */\n  sub\n    /* \"#utility.yul\":1154:1186   */\n  slt\n    /* \"#utility.yul\":1151:1270   */\n  iszero\n  tag_55\n  jumpi\n    /* \"#utility.yul\":1189:1268   */\n  tag_56\n  tag_10\n  jump\t// in\ntag_56:\n    /* \"#utility.yul\":1151:1270   */\ntag_55:\n    /* \"#utility.yul\":1309:1310   */\n  0x00\n    /* \"#utility.yul\":1334:1397   */\n  tag_57\n    /* \"#utility.yul\":1389:1396   */\n  dup6\n    /* \"#utility.yul\":1380:1386   */\n  dup3\n    /* \"#utility.yul\":1369:1378   */\n  dup7\n    /* \"#utility.yul\":1365:1387   */\n  add\n    /* \"#utility.yul\":1334:1397   */\n  tag_14\n  jump\t// in\ntag_57:\n    /* \"#utility.yul\":1324:1397   */\n  swap3\n  pop\n    /* \"#utility.yul\":1280:1407   */\n  pop\n    /* \"#utility.yul\":1446:1448   */\n  0x20\n    /* \"#utility.yul\":1472:1534   */\n  tag_58\n    /* \"#utility.yul\":1526:1533   */\n  dup6\n    /* \"#utility.yul\":1517:1523   */\n  dup3\n    /* \"#utility.yul\":1506:1515   */\n  dup7\n    /* \"#utility.yul\":1502:1524   */\n  add\n    /* \"#utility.yul\":1472:1534   */\n  tag_17\n  jump\t// in\ntag_58:\n    /* \"#utility.yul\":1462:1534   */\n  swap2\n  pop\n    /* \"#utility.yul\":1417:1544   */\n  pop\n    /* \"#utility.yul\":1050:1551   */\n  swap3\n  pop\n  swap3\n  swap1\n  pop\n  jump\t// out\n    /* \"#utility.yul\":1557:1656   */\ntag_18:\n    /* \"#utility.yul\":1609:1615   */\n  0x00\n    /* \"#utility.yul\":1643:1648   */\n  dup2\n    /* \"#utility.yul\":1637:1649   */\n  mload\n    /* \"#utility.yul\":1627:1649   */\n  swap1\n  pop\n    /* \"#utility.yul\":1557:1656   */\n  swap2\n  swap1\n  pop\n  jump\t// out\n    /* \"#utility.yul\":1662:1842   */\ntag_19:\n    /* \"#utility.yul\":1710:1787   */\n  0x4e487b7100000000000000000000000000000000000000000000000000000000\n    /* \"#utility.yul\":1707:1708   */\n  0x00\n    /* \"#utility.yul\":1700:1788   */\n  mstore\n    /* \"#utility.yul\":1807:1811   */\n  0x41\n    /* \"#utility.yul\":1804:1805   */\n  0x04\n    /* \"#utility.yul\":1797:1812   */\n  mstore\n    /* \"#utility.yul\":1831:1835   */\n  0x24\n    /* \"#utility.yul\":1828:1829   */\n  0x00\n    /* \"#utility.yul\":1821:1836   */\n  revert\n    /* \"#utility.yul\":1848:2028   */\ntag_20:\n    /* \"#utility.yul\":1896:1973   */\n  0x4e487b7100000000000000000000000000000000000000000000000000000000\n    /* \"#utility.yul\":1893:1894   */\n  0x00\n    /* \"#utility.yul\":1886:1974   */\n  mstore\n    /* \"#utility.yul\":1993:1997   */\n  0x22\n    /* \"#utility.yul\":1990:1991   */\n  0x04\n    /* \"#utility.yul\":1983:1998   */\n  mstore\n    /* \"#utility.yul\":2017:2021   */\n  0x24\n    /* \"#utility.yul\":2014:2015   */\n  0x00\n    /* \"#utility.yul\":2007:2022   */\n  revert\n    /* \"#utility.yul\":2034:2354   */\ntag_21:\n    /* \"#utility.yul\":2078:2084   */\n  0x00\n    /* \"#utility.yul\":2115:2116   */\n  0x02\n    /* \"#utility.yul\":2109:2113   */\n  dup3\n    /* \"#utility.yul\":2105:2117   */\n  div\n    /* \"#utility.yul\":2095:2117   */\n  swap1\n  pop\n    /* \"#utility.yul\":2162:2163   */\n  0x01\n    /* \"#utility.yul\":2156:2160   */\n  dup3\n    /* \"#utility.yul\":2152:2164   */\n  and\n    /* \"#utility.yul\":2183:2201   */\n  dup1\n    /* \"#utility.yul\":2173:2254   */\n  tag_63\n  jumpi\n    /* \"#utility.yul\":2239:2243   */\n  0x7f\n    /* \"#utility.yul\":2231:2237   */\n  dup3\n    /* \"#utility.yul\":2227:2244   */\n  and\n    /* \"#utility.yul\":2217:2244   */\n  swap2\n  pop\n    /* \"#utility.yul\":2173:2254   */\ntag_63:\n    /* \"#utility.yul\":2301:2303   */\n  0x20\n    /* \"#utility.yul\":2293:2299   */\n  dup3\n    /* \"#utility.yul\":2290:2304   */\n  lt\n    /* \"#utility.yul\":2270:2288   */\n  dup2\n    /* \"#utility.yul\":2267:2305   */\n  sub\n    /* \"#utility.yul\":2264:2348   */\n  tag_64\n  jumpi\n    /* \"#utility.yul\":2320:2338   */\n  tag_65\n  tag_20\n  jump\t// in\ntag_65:\n    /* \"#utility.yul\":2264:2348   */\ntag_64:\n    /* \"#utility.yul\":2085:2354   */\n  pop\n    /* \"#utility.yul\":2034:2354   */\n  swap2\n  swap1\n  pop\n  jump\t// out\n    /* \"#utility.yul\":2360:2501   */\ntag_22:\n    /* \"#utility.yul\":2409:2413   */\n  0x00\n    /* \"#utility.yul\":2432:2435   */\n  dup2\n    /* \"#utility.yul\":2424:2435   */\n  swap1\n  pop\n    /* \"#utility.yul\":2455:2458   */\n  dup2\n    /* \"#utility.yul\":2452:2453   */\n  0x00\n    /* \"#utility.yul\":2445:2459   */\n  mstore\n    /* \"#utility.yul\":2489:2493   */\n  0x20\n    /* \"#utility.yul\":2486:2487   */\n  0x00\n    /* \"#utility.yul\":2476:2494   */\n  keccak256\n    /* \"#utility.yul\":2468:2494   */\n  swap1\n  pop\n    /* \"#utility.yul\":2360:2501   */\n  swap2\n  swap1\n  pop\n  jump\t// out\n    /* \"#utility.yul\":2507:2600   */\ntag_23:\n    /* \"#utility.yul\":2544:2550   */\n  0x00\n    /* \"#utility.yul\":2591:2593   */\n  0x20\n    /* \"#utility.yul\":2586:2588   */\n  0x1f\n    /* \"#utility.yul\":2579:2584   */\n  dup4\n    /* \"#utility.yul\":2575:2589   */\n  add\n    /* \"#utility.yul\":2571:2594   */\n  div\n    /* \"#utility.yul\":2561:2594   */\n  swap1\n  pop\n    /* \"#utility.yul\":2507:2600   */\n  swap2\n  swap1\n  pop\n  jump\t// out\n    /* \"#utility.yul\":2606:2713   */\ntag_24:\n    /* \"#utility.yul\":2650:2658   */\n  0x00\n    /* \"#utility.yul\":2700:2705   */\n  dup3\n    /* \"#utility.yul\":2694:2698   */\n  dup3\n    /* \"#utility.yul\":2690:2706   */\n  shl\n    /* \"#utility.yul\":2669:2706   */\n  swap1\n  pop\n    /* \"#utility.yul\":2606:2713   */\n  swap3\n  swap2\n  pop\n  pop\n  jump\t// out\n    /* \"#utility.yul\":2719:3112   */\ntag_25:\n    /* \"#utility.yul\":2788:2794   */\n  0x00\n    /* \"#utility.yul\":2838:2839   */\n  0x08\n    /* \"#utility.yul\":2826:2836   */\n  dup4\n    /* \"#utility.yul\":2822:2840   */\n  mul\n    /* \"#utility.yul\":2861:2958   */\n  tag_70\n    /* \"#utility.yul\":2891:2957   */\n  0xffffffffffffffffffffffffffffffffffffffffffffffffffffffffffffffff\n    /* \"#utility.yul\":2880:2889   */\n  dup3\n    /* \"#utility.yul\":2861:2958   */\n  tag_24\n  jump\t// in\ntag_70:\n    /* \"#utility.yul\":2979:3018   */\n  tag_71\n    /* \"#utility.yul\":3009:3017   */\n  dup7\n    /* \"#utility.yul\":2998:3007   */\n  dup4\n    /* \"#utility.yul\":2979:3018   */\n  tag_24\n  jump\t// in\ntag_71:\n    /* \"#utility.yul\":2967:3018   */\n  swap6\n  pop\n    /* \"#utility.yul\":3051:3055   */\n  dup1\n    /* \"#utility.yul\":3047:3056   */\n  not\n    /* \"#utility.yul\":3040:3045   */\n  dup5\n    /* \"#utility.yul\":3036:3057   */\n  and\n    /* \"#utility.yul\":3027:3057   */\n  swap4\n  pop\n    /* \"#utility.yul\":3100:3104   */\n  dup1\n    /* \"#utility.yul\":3090:3098   */\n  dup7\n    /* \"#utility.yul\":3086:3105   */\n  and\n    /* \"#utility.yul\":3079:3084   */\n  dup5\n    /* \"#utility.yul\":3076:3106   */\n  or\n    /* \"#utility.yul\":3066:3106   */\n  swap3\n  pop\n    /* \"#utility.yul\":2795:3112   */\n  pop\n  pop\n    /* \"#utility.yul\":2719:3112   */\n  swap4\n  swap3\n  pop\n  pop\n  pop\n  jump\t// out\n    /* \"#utility.yul\":3118:3195   */\ntag_26:\n    /* \"#utility.yul\":3155:3162   */\n  0x00\n    /* \"#utility.yul\":3184:3189   */\n  dup2\n    /* \"#utility.yul\":3173:3189   */\n  swap1\n  pop\n    /* \"#utility.yul\":3118:3195   */\n  swap2\n  swap1\n  pop\n  jump\t// out\n    /* \"#utility.yul\":3201:3261   */\ntag_27:\n    /* \"#utility.yul\":3229:3232   */\n  0x00\n    /* \"#utility.yul\":3250:3255   */\n  dup2\n    /* \"#utility.yul\":3243:3255   */\n  swap1\n  pop\n    /* \"#utility.yul\":3201:3261   */\n  swap2\n  swap1\n  pop\n  jump\t// out\n    /* \"#utility.yul\":3267:3409   */\ntag_28:\n    /* \"#utility.yul\":3317:3326   */\n  0x00\n    /* \"#utility.yul\":3350:3403   */\n  tag_75\n    /* \"#utility.yul\":3368:3402   */\n  tag_76\n    /* \"#utility.yul\":3377:3401   */\n  tag_77\n    /* \"#utility.yul\":3395:3400   */\n  dup5\n    /* \"#utility.yul\":3377:3401   */\n  tag_26\n  jump\t// in\ntag_77:\n    /* \"#utility.yul\":3368:3402   */\n  tag_27\n  jump\t// in\ntag_76:\n    /* \"#utility.yul\":3350:3403   */\n  tag_26\n  jump\t// in\ntag_75:\n    /* \"#utility.yul\":3337:3403   */\n  swap1\n  pop\n    /* \"#utility.yul\":3267:3409   */\n  swap2\n  swap1\n  pop\n  jump\t// out\n    /* \"#utility.yul\":3415:3490   */\ntag_29:\n    /* \"#utility.yul\":3458:3461   */\n  0x00\n    /* \"#utility.yul\":3479:3484   */\n  dup2\n    /* \"#utility.yul\":3472:3484   */\n  swap1\n  pop\n    /* \"#utility.yul\":3415:3490   */\n  swap2\n  swap1\n  pop\n  jump\t// out\n    /* \"#utility.yul\":3496:3765   */\ntag_30:\n    /* \"#utility.yul\":3606:3645   */\n  tag_80\n    /* \"#utility.yul\":3637:3644   */\n  dup4\n    /* \"#utility.yul\":3606:3645   */\n  tag_28\n  jump\t// in\ntag_80:\n    /* \"#utility.yul\":3667:3758   */\n  tag_81\n    /* \"#utility.yul\":3716:3757   */\n  tag_82\n    /* \"#utility.yul\":3740:3756   */\n  dup3\n    /* \"#utility.yul\":3716:3757   */\n  tag_29\n  jump\t// in\ntag_82:\n    /* \"#utility.yul\":3708:3714   */\n  dup5\n    /* \"#utility.yul\":3701:3705   */\n  dup5\n    /* \"#utility.yul\":3695:3706   */\n  sload\n    /* \"#utility.yul\":3667:3758   */\n  tag_25\n  jump\t// in\ntag_81:\n    /* \"#utility.yul\":3661:3665   */\n  dup3\n    /* \"#utility.yul\":3654:3759   */\n  sstore\n    /* \"#utility.yul\":3572:3765   */\n  pop\n    /* \"#utility.yul\":3496:3765   */\n  pop\n  pop\n  pop\n  jump\t// out\n    /* \"#utility.yul\":3771:3844   */\ntag_31:\n    /* \"#utility.yul\":3816:3819   */\n  0x00\n    /* \"#utility.yul\":3837:3838   */\n  0x00\n    /* \"#utility.yul\":3830:3838   */\n  swap1\n  pop\n    /* \"#utility.yul\":3771:3844   */\n  swap1\n  jump\t// out\n    /* \"#utility.yul\":3850:4039   */\ntag_32:\n    /* \"#utility.yul\":3927:3959   */\n  tag_85\n  tag_31\n  jump\t// in\ntag_85:\n    /* \"#utility.yul\":3968:4033   */\n  tag_86\n    /* \"#utility.yul\":4026:4032   */\n  dup2\n    /* \"#utility.yul\":4018:4024   */\n  dup5\n    /* \"#utility.yul\":4012:4016   */\n  dup5\n    /* \"#utility.yul\":3968:4033   */\n  tag_30\n  jump\t// in\ntag_86:\n    /* \"#utility.yul\":3903:4039   */\n  pop\n    /* \"#utility.yul\":3850:4039   */\n  pop\n  pop\n  jump\t// out\n    /* \"#utility.yul\":4045:4231   */\ntag_33:\n    /* \"#utility.yul\":4105:4225   */\ntag_88:\n    /* \"#utility.yul\":4122:4125   */\n  dup2\n    /* \"#utility.yul\":4115:4120   */\n  dup2\n    /* \"#utility.yul\":4112:4126   */\n  lt\n    /* \"#utility.yul\":4105:4225   */\n  iszero\n  tag_90\n  jumpi\n    /* \"#utility.yul\":4176:4215   */\n  tag_91\n    /* \"#utility.yul\":4213:4214   */\n  0x00\n    /* \"#utility.yul\":4206:4211   */\n  dup3\n    /* \"#utility.yul\":4176:4215   */\n  tag_32\n  jump\t// in\ntag_91:\n    /* \"#utility.yul\":4149:4150   */\n  0x01\n    /* \"#utility.yul\":4142:4147   */\n  dup2\n    /* \"#utility.yul\":4138:4151   */\n  add\n    /* \"#utility.yul\":4129:4151   */\n  swap1\n  pop\n    /* \"#utility.yul\":4105:4225   */\n  jump(tag_88)\ntag_90:\n    /* \"#utility.yul\":4045:4231   */\n  pop\n  pop\n  jump\t// out\n    /* \"#utility.yul\":4237:4780   */\ntag_34:\n    /* \"#utility.yul\":4338:4340   */\n  0x1f\n    /* \"#utility.yul\":4333:4336   */\n  dup3\n    /* \"#utility.yul\":4330:4341   */\n  gt\n    /* \"#utility.yul\":4327:4773   */\n  iszero\n  tag_93\n  jumpi\n    /* \"#utility.yul\":4372:4410   */\n  tag_94\n    /* \"#utility.yul\":4404:4409   */\n  dup2\n    /* \"#utility.yul\":4372:4410   */\n  tag_22\n  jump\t// in\ntag_94:\n    /* \"#utility.yul\":4456:4485   */\n  tag_95\n    /* \"#utility.yul\":4474:4484   */\n  dup5\n    /* \"#utility.yul\":4456:4485   */\n  tag_23\n  jump\t// in\ntag_95:\n    /* \"#utility.yul\":4446:4454   */\n  dup2\n    /* \"#utility.yul\":4442:4486   */\n  add\n    /* \"#utility.yul\":4639:4641   */\n  0x20\n    /* \"#utility.yul\":4627:4637   */\n  dup6\n    /* \"#utility.yul\":4624:4642   */\n  lt\n    /* \"#utility.yul\":4621:4670   */\n  iszero\n  tag_96\n  jumpi\n    /* \"#utility.yul\":4660:4668   */\n  dup2\n    /* \"#utility.yul\":4645:4668   */\n  swap1\n  pop\n    /* \"#utility.yul\":4621:4670   */\ntag_96:\n    /* \"#utility.yul\":4683:4763   */\n  tag_97\n    /* \"#utility.yul\":4739:4761   */\n  tag_98\n    /* \"#utility.yul\":4757:4760   */\n  dup6\n    /* \"#utility.yul\":4739:4761   */\n  tag_23\n  jump\t// in\ntag_98:\n    /* \"#utility.yul\":4729:4737   */\n  dup4\n    /* \"#utility.yul\":4725:4762   */\n  add\n    /* \"#utility.yul\":4712:4723   */\n  dup3\n    /* \"#utility.yul\":4683:4763   */\n  tag_33\n  jump\t// in\ntag_97:\n    /* \"#utility.yul\":4342:4773   */\n  pop\n  pop\n    /* \"#utility.yul\":4327:4773   */\ntag_93:\n    /* \"#utility.yul\":4237:4780   */\n  pop\n  pop\n  pop\n  jump\t// out\n    /* \"#utility.yul\":4786:4903   */\ntag_35:\n    /* \"#utility.yul\":4840:4848   */\n  0x00\n    /* \"#utility.yul\":4890:4895   */\n  dup3\n    /* \"#utility.yul\":4884:4888   */\n  dup3\n    /* \"#utility.yul\":4880:4896   */\n  shr\n    /* \"#utility.yul\":4859:4896   */\n  swap1\n  pop\n    /* \"#utility.yul\":4786:4903   */\n  swap3\n  swap2\n  pop\n  pop\n  jump\t// out\n    /* \"#utility.yul\":4909:5078   */\ntag_36:\n    /* \"#utility.yul\":4953:4959   */\n  0x00\n    /* \"#utility.yul\":4986:5037   */\n  tag_101\n    /* \"#utility.yul\":5034:5035   */\n  0x00\n    /* \"#utility.yul\":5030:5036   */\n  not\n    /* \"#utility.yul\":5022:5027   */\n  dup5\n    /* \"#utility.yul\":5019:5020   */\n  0x08\n    /* \"#utility.yul\":5015:5028   */\n  mul\n    /* \"#utility.yul\":4986:5037   */\n  tag_35\n  jump\t// in\ntag_101:\n    /* \"#utility.yul\":4982:5038   */\n  not\n    /* \"#utility.yul\":5067:5071   */\n  dup1\n    /* \"#utility.yul\":5061:5065   */\n  dup4\n    /* \"#utility.yul\":5057:5072   */\n  and\n    /* \"#utility.yul\":5047:5072   */\n  swap2\n  pop\n    /* \"#utility.yul\":4960:5078   */\n  pop\n    /* \"#utility.yul\":4909:5078   */\n  swap3\n  swap2\n  pop\n  pop\n  jump\t// out\n    /* \"#utility.yul\":5083:5378   */\ntag_37:\n    /* \"#utility.yul\":5159:5163   */\n  0x00\n    /* \"#utility.yul\":5305:5334   */\n  tag_103\n    /* \"#utility.yul\":5330:5333   */\n  dup4\n    /* \"#utility.yul\":5324:5328   */\n  dup4\n    /* \"#utility.yul\":5305:5334   */\n  tag_36\n  jump\t// in\ntag_103:\n    /* \"#utility.yul\":5297:5334   */\n  swap2\n  pop\n    /* \"#utility.yul\":5367:5370   */\n  dup3\n    /* \"#utility.yul\":5364:5365   */\n  0x02\n    /* \"#utility.yul\":5360:5371   */\n  mul\n    /* \"#utility.yul\":5354:5358   */\n  dup3\n    /* \"#utility.yul\":5351:5372   */\n  or\n    /* \"#utility.yul\":5343:5372   */\n  swap1\n  pop\n    /* \"#utility.yul\":5083:5378   */\n  swap3\n  swap2\n  pop\n  pop\n  jump\t// out\n    /* \"#utility.yul\":5383:6778   */\ntag_7:\n    /* \"#utility.yul\":5500:5537   */\n  tag_105\n    /* \"#utility.yul\":5533:5536   */\n  dup3\n    /* \"#utility.yul\":5500:5537   */\n  tag_18\n  jump\t// in\ntag_105:\n    /* \"#utility.yul\":5602:5620   */\n  0xffffffffffffffff\n    /* \"#utility.yul\":5594:5600   */\n  dup2\n    /* \"#utility.yul\":5591:5621   */\n  gt\n    /* \"#utility.yul\":5588:5644   */\n  iszero\n  tag_106\n  jumpi\n    /* \"#utility.yul\":5624:5642   */\n  tag_107\n  tag_19\n  jump\t// in\ntag_107:\n    /* \"#utility.yul\":5588:5644   */\ntag_106:\n    /* \"#utility.yul\":5668:5706   */\n  tag_108\n    /* \"#utility.yul\":5700:5704   */\n  dup3\n    /* \"#utility.yul\":5694:5705   */\n  sload\n    /* \"#utility.yul\":5668:5706   */\n  tag_21\n  jump\t// in\ntag_108:\n    /* \"#utility.yul\":5753:5820   */\n  tag_109\n    /* \"#utility.yul\":5813:5819   */\n  dup3\n    /* \"#utility.yul\":5805:5811   */\n  dup3\n    /* \"#utility.yul\":5799:5803   */\n  dup6\n    /* \"#utility.yul\":5753:5820   */\n  tag_34\n  jump\t// in\ntag_109:\n    /* \"#utility.yul\":5847:5848   */\n  0x00\n    /* \"#utility.yul\":5871:5875   */\n  0x20\n    /* \"#utility.yul\":5858:5875   */\n  swap1\n  pop\n    /* \"#utility.yul\":5903:5905   */\n  0x1f\n    /* \"#utility.yul\":5895:5901   */\n  dup4\n    /* \"#utility.yul\":5892:5906   */\n  gt\n    /* \"#utility.yul\":5920:5921   */\n  0x01\n    /* \"#utility.yul\":5915:6533   */\n  dup2\n  eq\n  tag_111\n  jumpi\n    /* \"#utility.yul\":6577:6578   */\n  0x00\n    /* \"#utility.yul\":6594:6600   */\n  dup5\n    /* \"#utility.yul\":6591:6668   */\n  iszero\n  tag_112\n  jumpi\n    /* \"#utility.yul\":6643:6652   */\n  dup3\n    /* \"#utility.yul\":6638:6641   */\n  dup8\n    /* \"#utility.yul\":6634:6653   */\n  add\n    /* \"#utility.yul\":6628:6654   */\n  mload\n    /* \"#utility.yul\":6619:6654   */\n  swap1\n  pop\n    /* \"#utility.yul\":6591:6668   */\ntag_112:\n    /* \"#utility.yul\":6694:6761   */\n  tag_113\n    /* \"#utility.yul\":6754:6760   */\n  dup6\n    /* \"#utility.yul\":6747:6752   */\n  dup3\n    /* \"#utility.yul\":6694:6761   */\n  tag_37\n  jump\t// in\ntag_113:\n    /* \"#utility.yul\":6688:6692   */\n  dup7\n    /* \"#utility.yul\":6681:6762   */\n  sstore\n    /* \"#utility.yul\":6550:6772   */\n  pop\n    /* \"#utility.yul\":5885:6772   */\n  jump(tag_110)\n    /* \"#utility.yul\":5915:6533   */\ntag_111:\n    /* \"#utility.yul\":5967:5971   */\n  0x1f\n    /* \"#utility.yul\":5963:5972   */\n  not\n    /* \"#utility.yul\":5955:5961   */\n  dup5\n    /* \"#utility.yul\":5951:5973   */\n  and\n    /* \"#utility.yul\":6001:6038   */\n  tag_114\n    /* \"#utility.yul\":6033:6037   */\n  dup7\n    /* \"#utility.yul\":6001:6038   */\n  tag_22\n  jump\t// in\ntag_114:\n    /* \"#utility.yul\":6060:6061   */\n  0x00\n    /* \"#utility.yul\":6074:6282   */\ntag_115:\n    /* \"#utility.yul\":6088:6095   */\n  dup3\n    /* \"#utility.yul\":6085:6086   */\n  dup2\n    /* \"#utility.yul\":6082:6096   */\n  lt\n    /* \"#utility.yul\":6074:6282   */\n  iszero\n  tag_117\n  jumpi\n    /* \"#utility.yul\":6167:6176   */\n  dup5\n    /* \"#utility.yul\":6162:6165   */\n  dup10\n    /* \"#utility.yul\":6158:6177   */\n  add\n    /* \"#utility.yul\":6152:6178   */\n  mload\n    /* \"#utility.yul\":6144:6150   */\n  dup3\n    /* \"#utility.yul\":6137:6179   */\n  sstore\n    /* \"#utility.yul\":6218:6219   */\n  0x01\n    /* \"#utility.yul\":6210:6216   */\n  dup3\n    /* \"#utility.yul\":6206:6220   */\n  add\n    /* \"#utility.yul\":6196:6220   */\n  swap2\n  pop\n    /* \"#utility.yul\":6265:6267   */\n  0x20\n    /* \"#utility.yul\":6254:6263   */\n  dup6\n    /* \"#utility.yul\":6250:6268   */\n  add\n    /* \"#utility.yul\":6237:6268   */\n  swap5\n  pop\n    /* \"#utility.yul\":6111:6115   */\n  0x20\n    /* \"#utility.yul\":6108:6109   */\n  dup2\n    /* \"#utility.yul\":6104:6116   */\n  add\n    /* \"#utility.yul\":6099:6116   */\n  swap1\n  pop\n    /* \"#utility.yul\":6074:6282   */\n  jump(tag_115)\ntag_117:\n    /* \"#utility.yul\":6310:6316   */\n  dup7\n    /* \"#utility.yul\":6301:6308   */\n  dup4\n    /* \"#utility.yul\":6298:6317   */\n  lt\n    /* \"#utility.yul\":6295:6474   */\n  iszero\n  tag_118\n  jumpi\n    /* \"#utility.yul\":6368:6377   */\n  dup5\n    /* \"#utility.yul\":6363:6366   */\n  dup10\n    /* \"#utility.yul\":6359:6378   */\n  add\n    /* \"#utility.yul\":6353:6379   */\n  mload\n    /* \"#utility.yul\":6411:6459   */\n  tag_119\n    /* \"#utility.yul\":6453:6457   */\n  0x1f\n    /* \"#utility.yul\":6445:6451   */\n  dup10\n    /* \"#utility.yul\":6441:6458   */\n  and\n    /* \"#utility.yul\":6430:6439   */\n  dup3\n    /* \"#utility.yul\":6411:6459   */\n  tag_36\n  jump\t// in\ntag_119:\n    /* \"#utility.yul\":6403:6409   */\n  dup4\n    /* \"#utility.yul\":6396:6460   */\n  sstore\n    /* \"#utility.yul\":6318:6474   */\n  pop\n    /* \"#utility.yul\":6295:6474   */\ntag_118:\n    /* \"#utility.yul\":6520:6521   */\n  0x01\n    /* \"#utility.yul\":6516:6517   */\n  0x02\n    /* \"#utility.yul\":6508:6514   */\n  dup9\n    /* \"#utility.yul\":6504:6518   */\n  mul\n    /* \"#utility.yul\":6500:6522   */\n  add\n    /* \"#utility.yul\":6494:6498   */\n  dup9\n    /* \"#utility.yul\":6487:6523   */\n  sstore\n    /* \"#utility.yul\":5922:6533   */\n  pop\n  pop\n  pop\n    /* \"#utility.yul\":5885:6772   */\ntag_110:\n  pop\n    /* \"#utility.yul\":5475:6778   */\n  pop\n  pop\n  pop\n    /* \"#utility.yul\":5383:6778   */\n  pop\n  pop\n  jump\t// out\n    /* \"contracts/mocks/MockPriceFeed.sol\":135:1535  contract MockPriceFeed is AggregatorV3Interface {... */\ntag_8:\n  dataSize(sub_0)\n  dup1\n  dataOffset(sub_0)\n  0x00\n  codecopy\n  0x00\n  return\nstop\n\nsub_0: assembly {\n        /* \"contracts/mocks/MockPriceFeed.sol\":135:1535  contract MockPriceFeed is AggregatorV3Interface {... */\n      mstore(0x40, 0x80)\n      callvalue\n      dup1\n      iszero\n      tag_1\n      jumpi\n      revert(0x00, 0x00)\n    tag_1:\n      pop\n      jumpi(tag_2, lt(calldatasize, 0x04))\n      shr(0xe0, calldataload(0x00))\n      dup1\n      0x313ce567\n      eq\n      tag_3\n      jumpi\n      dup1\n      0x54fd4d50\n      eq\n      tag_4\n      jumpi\n      dup1\n      0x7284e416\n      eq\n      tag_5\n      jumpi\n      dup1\n      0x9a6fc8f5\n      eq\n      tag_6\n      jumpi\n      dup1\n      0xf7a30806\n      eq\n      tag_7\n      jumpi\n      dup1\n      0xfeaf968c\n      eq\n      tag_8\n      jumpi\n    tag_2:\n      revert(0x00, 0x00)\n        /* \"contracts/mocks/MockPriceFeed.sol\":506:598  function decimals() external view override returns (uint8) {... */\n    tag_3:\n      tag_9\n      tag_10\n      jump\t// in\n    tag_9:\n      mload(0x40)\n      tag_11\n      swap2\n      swap1\n      tag_12\n      jump\t// in\n    tag_11:\n      mload(0x40)\n      dup1\n      swap2\n      sub\n      swap1\n      return\n        /* \"contracts/mocks/MockPriceFeed.sol\":724:816  function version() external view override returns (uint256) {... */\n    tag_4:\n      tag_13\n      tag_14\n      jump\t// in\n    tag_13:\n      mload(0x40)\n      tag_15\n      swap2\n      swap1\n      tag_16\n      jump\t// in\n    tag_15:\n      mload(0x40)\n      dup1\n      swap2\n      sub\n      swap1\n      return\n        /* \"contracts/mocks/MockPriceFeed.sol\":608:714  function description() external view override returns (string memory) {... */\n    tag_5:\n      tag_17\n      tag_18\n      jump\t// in\n    tag_17:\n      mload(0x40)\n      tag_19\n      swap2\n      swap1\n      tag_20\n      jump\t// in\n    tag_19:\n      mload(0x40)\n      dup1\n      swap2\n      sub\n      swap1\n      return\n        /* \"contracts/mocks/MockPriceFeed.sol\":826:1122  function getRoundData(uint80 _roundId) external view override returns (... */\n    tag_6:\n      tag_21\n      0x04\n      dup1\n      calldatasize\n      sub\n      dup2\n      add\n      swap1\n      tag_22\n      swap2\n      swap1\n      tag_23\n      jump\t// in\n    tag_22:\n      tag_24\n      jump\t// in\n    tag_21:\n      mload(0x40)\n      tag_25\n      swap6\n      swap5\n      swap4\n      swap3\n      swap2\n      swap1\n      tag_26\n      jump\t// in\n    tag_25:\n      mload(0x40)\n      dup1\n      swap2\n      sub\n      swap1\n      return\n        /* \"contracts/mocks/MockPriceFeed.sol\":1461:1533  function setPrice(int256 price) external {... */\n    tag_7:\n      tag_27\n      0x04\n      dup1\n      calldatasize\n      sub\n      dup2\n      add\n      swap1\n      tag_28\n      swap2\n      swap1\n      tag_29\n      jump\t// in\n    tag_28:\n      tag_30\n      jump\t// in\n    tag_27:\n      stop\n        /* \"contracts/mocks/MockPriceFeed.sol\":1132:1402  function latestRoundData() external view override returns (... */\n    tag_8:\n      tag_31\n      tag_32\n      jump\t// in\n    tag_31:\n      mload(0x40)\n      tag_33\n      swap6\n      swap5\n      swap4\n      swap3\n      swap2\n      swap1\n      tag_26\n      jump\t// in\n    tag_33:\n      mload(0x40)\n      dup1\n      swap2\n      sub\n      swap1\n      return\n        /* \"contracts/mocks/MockPriceFeed.sol\":506:598  function decimals() external view override returns (uint8) {... */\n    tag_10:\n        /* \"contracts/mocks/MockPriceFeed.sol\":558:563  uint8 */\n      0x00\n        /* \"contracts/mocks/MockPriceFeed.sol\":582:591  _decimals */\n      0x01\n      0x00\n      swap1\n      sload\n      swap1\n      0x0100\n      exp\n      swap1\n      div\n      0xff\n      and\n        /* \"contracts/mocks/MockPriceFeed.sol\":575:591  return _decimals */\n      swap1\n      pop\n        /* \"contracts/mocks/MockPriceFeed.sol\":506:598  function decimals() external view override returns (uint8) {... */\n      swap1\n      jump\t// out\n        /* \"contracts/mocks/MockPriceFeed.sol\":724:816  function version() external view override returns (uint256) {... */\n    tag_14:\n        /* \"contracts/mocks/MockPriceFeed.sol\":775:782  uint256 */\n      0x00\n        /* \"contracts/mocks/MockPriceFeed.sol\":801:809  _version */\n      sload(0x03)\n        /* \"contracts/mocks/MockPriceFeed.sol\":794:809  return _version */\n      swap1\n      pop\n        /* \"contracts/mocks/MockPriceFeed.sol\":724:816  function version() external view override returns (uint256) {... */\n      swap1\n      jump\t// out\n        /* \"contracts/mocks/MockPriceFeed.sol\":608:714  function description() external view override returns (string memory) {... */\n    tag_18:\n        /* \"contracts/mocks/MockPriceFeed.sol\":663:676  string memory */\n      0x60\n        /* \"contracts/mocks/MockPriceFeed.sol\":695:707  _description */\n      0x02\n        /* \"contracts/mocks/MockPriceFeed.sol\":688:707  return _description */\n      dup1\n      sload\n      tag_37\n      swap1\n      tag_38\n      jump\t// in\n    tag_37:\n      dup1\n      0x1f\n      add\n      0x20\n      dup1\n      swap2\n      div\n      mul\n      0x20\n      add\n      mload(0x40)\n      swap1\n      dup2\n      add\n      0x40\n      mstore\n      dup1\n      swap3\n      swap2\n      swap1\n      dup2\n      dup2\n      mstore\n      0x20\n      add\n      dup3\n      dup1\n      sload\n      tag_39\n      swap1\n      tag_38\n      jump\t// in\n    tag_39:\n      dup1\n      iszero\n      tag_40\n      jumpi\n      dup1\n      0x1f\n      lt\n      tag_41\n      jumpi\n      0x0100\n      dup1\n      dup4\n      sload\n      div\n      mul\n      dup4\n      mstore\n      swap2\n      0x20\n      add\n      swap2\n      jump(tag_40)\n    tag_41:\n      dup3\n      add\n      swap2\n      swap1\n      0x00\n      mstore\n      keccak256(0x00, 0x20)\n      swap1\n    tag_42:\n      dup2\n      sload\n      dup2\n      mstore\n      swap1\n      0x01\n      add\n      swap1\n      0x20\n      add\n      dup1\n      dup4\n      gt\n      tag_42\n      jumpi\n      dup3\n      swap1\n      sub\n      0x1f\n      and\n      dup3\n      add\n      swap2\n    tag_40:\n      pop\n      pop\n      pop\n      pop\n      pop\n      swap1\n      pop\n        /* \"contracts/mocks/MockPriceFeed.sol\":608:714  function description() external view override returns (string memory) {... */\n      swap1\n      jump\t// out\n        /* \"contracts/mocks/MockPriceFeed.sol\":826:1122  function getRoundData(uint80 _roundId) external view override returns (... */\n    tag_24:\n        /* \"contracts/mocks/MockPriceFeed.sol\":906:920  uint80 roundId */\n      0x00\n        /* \"contracts/mocks/MockPriceFeed.sol\":930:943  int256 answer */\n      0x00\n        /* \"contracts/mocks/MockPriceFeed.sol\":953:970  uint256 startedAt */\n      0x00\n        /* \"contracts/mocks/MockPriceFeed.sol\":980:997  uint256 updatedAt */\n      0x00\n        /* \"contracts/mocks/MockPriceFeed.sol\":1007:1029  uint80 answeredInRound */\n      0x00\n        /* \"contracts/mocks/MockPriceFeed.sol\":1054:1062  _roundId */\n      dup6\n        /* \"contracts/mocks/MockPriceFeed.sol\":1064:1070  _price */\n      sload(0x00)\n        /* \"contracts/mocks/MockPriceFeed.sol\":1072:1087  block.timestamp */\n      timestamp\n        /* \"contracts/mocks/MockPriceFeed.sol\":1089:1104  block.timestamp */\n      timestamp\n        /* \"contracts/mocks/MockPriceFeed.sol\":1106:1114  _roundId */\n      dup10\n        /* \"contracts/mocks/MockPriceFeed.sol\":1046:1115  return (_roundId, _price, block.timestamp, block.timestamp, _roundId) */\n      swap5\n      pop\n      swap5\n      pop\n      swap5\n      pop\n      swap5\n      pop\n      swap5\n      pop\n        /* \"contracts/mocks/MockPriceFeed.sol\":826:1122  function getRoundData(uint80 _roundId) external view override returns (... */\n      swap2\n      swap4\n      swap6\n      swap1\n      swap3\n      swap5\n      pop\n      jump\t// out\n        /* \"contracts/mocks/MockPriceFeed.sol\":1461:1533  function setPrice(int256 price) external {... */\n    tag_30:\n        /* \"contracts/mocks/MockPriceFeed.sol\":1521:1526  price */\n      dup1\n        /* \"contracts/mocks/MockPriceFeed.sol\":1512:1518  _price */\n      0x00\n        /* \"contracts/mocks/MockPriceFeed.sol\":1512:1526  _price = price */\n      dup2\n      swap1\n      sstore\n      pop\n        /* \"contracts/mocks/MockPriceFeed.sol\":1461:1533  function setPrice(int256 price) external {... */\n      pop\n      jump\t// out\n        /* \"contracts/mocks/MockPriceFeed.sol\":1132:1402  function latestRoundData() external view override returns (... */\n    tag_32:\n        /* \"contracts/mocks/MockPriceFeed.sol\":1200:1214  uint80 roundId */\n      0x00\n        /* \"contracts/mocks/MockPriceFeed.sol\":1224:1237  int256 answer */\n      0x00\n        /* \"contracts/mocks/MockPriceFeed.sol\":1247:1264  uint256 startedAt */\n      0x00\n        /* \"contracts/mocks/MockPriceFeed.sol\":1274:1291  uint256 updatedAt */\n      0x00\n        /* \"contracts/mocks/MockPriceFeed.sol\":1301:1323  uint80 answeredInRound */\n      0x00\n        /* \"contracts/mocks/MockPriceFeed.sol\":1348:1349  1 */\n      0x01\n        /* \"contracts/mocks/MockPriceFeed.sol\":1351:1357  _price */\n      sload(0x00)\n        /* \"contracts/mocks/MockPriceFeed.sol\":1359:1374  block.timestamp */\n      timestamp\n        /* \"contracts/mocks/MockPriceFeed.sol\":1376:1391  block.timestamp */\n      timestamp\n        /* \"contracts/mocks/MockPriceFeed.sol\":1393:1394  1 */\n      0x01\n        /* \"contracts/mocks/MockPriceFeed.sol\":1340:1395  return (1, _price, block.timestamp, block.timestamp, 1) */\n      swap5\n      pop\n      swap5\n      pop\n      swap5\n      pop\n      swap5\n      pop\n      swap5\n      pop\n        /* \"contracts/mocks/MockPriceFeed.sol\":1132:1402  function latestRoundData() external view override returns (... */\n      swap1\n      swap2\n      swap3\n      swap4\n      swap5\n      jump\t// out\n        /* \"#utility.yul\":7:93   */\n    tag_46:\n        /* \"#utility.yul\":42:49   */\n      0x00\n        /* \"#utility.yul\":82:86   */\n      0xff\n        /* \"#utility.yul\":75:80   */\n      dup3\n        /* \"#utility.yul\":71:87   */\n      and\n        /* \"#utility.yul\":60:87   */\n      swap1\n      pop\n        /* \"#utility.yul\":7:93   */\n      swap2\n      swap1\n      pop\n      jump\t// out\n        /* \"#utility.yul\":99:211   */\n    tag_47:\n        /* \"#utility.yul\":182:204   */\n      tag_70\n        /* \"#utility.yul\":198:203   */\n      dup2\n        /* \"#utility.yul\":182:204   */\n      tag_46\n      jump\t// in\n    tag_70:\n        /* \"#utility.yul\":177:180   */\n      dup3\n        /* \"#utility.yul\":170:205   */\n      mstore\n        /* \"#utility.yul\":99:211   */\n      pop\n      pop\n      jump\t// out\n        /* \"#utility.yul\":217:431   */\n    tag_12:\n        /* \"#utility.yul\":306:310   */\n      0x00\n        /* \"#utility.yul\":344:346   */\n      0x20\n        /* \"#utility.yul\":333:342   */\n      dup3\n        /* \"#utility.yul\":329:347   */\n      add\n        /* \"#utility.yul\":321:347   */\n      swap1\n      pop\n        /* \"#utility.yul\":357:424   */\n      tag_72\n        /* \"#utility.yul\":421:422   */\n      0x00\n        /* \"#utility.yul\":410:419   */\n      dup4\n        /* \"#utility.yul\":406:423   */\n      add\n        /* \"#utility.yul\":397:403   */\n      dup5\n        /* \"#utility.yul\":357:424   */\n      tag_47\n      jump\t// in\n    tag_72:\n        /* \"#utility.yul\":217:431   */\n      swap3\n      swap2\n      pop\n      pop\n      jump\t// out\n        /* \"#utility.yul\":437:514   */\n    tag_48:\n        /* \"#utility.yul\":474:481   */\n      0x00\n        /* \"#utility.yul\":503:508   */\n      dup2\n        /* \"#utility.yul\":492:508   */\n      swap1\n      pop\n        /* \"#utility.yul\":437:514   */\n      swap2\n      swap1\n      pop\n      jump\t// out\n        /* \"#utility.yul\":520:638   */\n    tag_49:\n        /* \"#utility.yul\":607:631   */\n      tag_75\n        /* \"#utility.yul\":625:630   */\n      dup2\n        /* \"#utility.yul\":607:631   */\n      tag_48\n      jump\t// in\n    tag_75:\n        /* \"#utility.yul\":602:605   */\n      dup3\n        /* \"#utility.yul\":595:632   */\n      mstore\n        /* \"#utility.yul\":520:638   */\n      pop\n      pop\n      jump\t// out\n        /* \"#utility.yul\":644:866   */\n    tag_16:\n        /* \"#utility.yul\":737:741   */\n      0x00\n        /* \"#utility.yul\":775:777   */\n      0x20\n        /* \"#utility.yul\":764:773   */\n      dup3\n        /* \"#utility.yul\":760:778   */\n      add\n        /* \"#utility.yul\":752:778   */\n      swap1\n      pop\n        /* \"#utility.yul\":788:859   */\n      tag_77\n        /* \"#utility.yul\":856:857   */\n      0x00\n        /* \"#utility.yul\":845:854   */\n      dup4\n        /* \"#utility.yul\":841:858   */\n      add\n        /* \"#utility.yul\":832:838   */\n      dup5\n        /* \"#utility.yul\":788:859   */\n      tag_49\n      jump\t// in\n    tag_77:\n        /* \"#utility.yul\":644:866   */\n      swap3\n      swap2\n      pop\n      pop\n      jump\t// out\n        /* \"#utility.yul\":872:971   */\n    tag_50:\n        /* \"#utility.yul\":924:930   */\n      0x00\n        /* \"#utility.yul\":958:963   */\n      dup2\n        /* \"#utility.yul\":952:964   */\n      mload\n        /* \"#utility.yul\":942:964   */\n      swap1\n      pop\n        /* \"#utility.yul\":872:971   */\n      swap2\n      swap1\n      pop\n      jump\t// out\n        /* \"#utility.yul\":977:1146   */\n    tag_51:\n        /* \"#utility.yul\":1061:1072   */\n      0x00\n        /* \"#utility.yul\":1095:1101   */\n      dup3\n        /* \"#utility.yul\":1090:1093   */\n      dup3\n        /* \"#utility.yul\":1083:1102   */\n      mstore\n        /* \"#utility.yul\":1135:1139   */\n      0x20\n        /* \"#utility.yul\":1130:1133   */\n      dup3\n        /* \"#utility.yul\":1126:1140   */\n      add\n        /* \"#utility.yul\":1111:1140   */\n      swap1\n      pop\n        /* \"#utility.yul\":977:1146   */\n      swap3\n      swap2\n      pop\n      pop\n      jump\t// out\n        /* \"#utility.yul\":1152:1291   */\n    tag_52:\n        /* \"#utility.yul\":1241:1247   */\n      dup3\n        /* \"#utility.yul\":1236:1239   */\n      dup2\n        /* \"#utility.yul\":1231:1234   */\n      dup4\n        /* \"#utility.yul\":1225:1248   */\n      mcopy\n        /* \"#utility.yul\":1282:1283   */\n      0x00\n        /* \"#utility.yul\":1273:1279   */\n      dup4\n        /* \"#utility.yul\":1268:1271   */\n      dup4\n        /* \"#utility.yul\":1264:1280   */\n      add\n        /* \"#utility.yul\":1257:1284   */\n      mstore\n        /* \"#utility.yul\":1152:1291   */\n      pop\n      pop\n      pop\n      jump\t// out\n        /* \"#utility.yul\":1297:1399   */\n    tag_53:\n        /* \"#utility.yul\":1338:1344   */\n      0x00\n        /* \"#utility.yul\":1389:1391   */\n      0x1f\n        /* \"#utility.yul\":1385:1392   */\n      not\n        /* \"#utility.yul\":1380:1382   */\n      0x1f\n        /* \"#utility.yul\":1373:1378   */\n      dup4\n        /* \"#utility.yul\":1369:1383   */\n      add\n        /* \"#utility.yul\":1365:1393   */\n      and\n        /* \"#utility.yul\":1355:1393   */\n      swap1\n      pop\n        /* \"#utility.yul\":1297:1399   */\n      swap2\n      swap1\n      pop\n      jump\t// out\n        /* \"#utility.yul\":1405:1782   */\n    tag_54:\n        /* \"#utility.yul\":1493:1496   */\n      0x00\n        /* \"#utility.yul\":1521:1560   */\n      tag_83\n        /* \"#utility.yul\":1554:1559   */\n      dup3\n        /* \"#utility.yul\":1521:1560   */\n      tag_50\n      jump\t// in\n    tag_83:\n        /* \"#utility.yul\":1576:1647   */\n      tag_84\n        /* \"#utility.yul\":1640:1646   */\n      dup2\n        /* \"#utility.yul\":1635:1638   */\n      dup6\n        /* \"#utility.yul\":1576:1647   */\n      tag_51\n      jump\t// in\n    tag_84:\n        /* \"#utility.yul\":1569:1647   */\n      swap4\n      pop\n        /* \"#utility.yul\":1656:1721   */\n      tag_85\n        /* \"#utility.yul\":1714:1720   */\n      dup2\n        /* \"#utility.yul\":1709:1712   */\n      dup6\n        /* \"#utility.yul\":1702:1706   */\n      0x20\n        /* \"#utility.yul\":1695:1700   */\n      dup7\n        /* \"#utility.yul\":1691:1707   */\n      add\n        /* \"#utility.yul\":1656:1721   */\n      tag_52\n      jump\t// in\n    tag_85:\n        /* \"#utility.yul\":1746:1775   */\n      tag_86\n        /* \"#utility.yul\":1768:1774   */\n      dup2\n        /* \"#utility.yul\":1746:1775   */\n      tag_53\n      jump\t// in\n    tag_86:\n        /* \"#utility.yul\":1741:1744   */\n      dup5\n        /* \"#utility.yul\":1737:1776   */\n      add\n        /* \"#utility.yul\":1730:1776   */\n      swap2\n      pop\n        /* \"#utility.yul\":1497:1782   */\n      pop\n        /* \"#utility.yul\":1405:1782   */\n      swap3\n      swap2\n      pop\n      pop\n      jump\t// out\n        /* \"#utility.yul\":1788:2101   */\n    tag_20:\n        /* \"#utility.yul\":1901:1905   */\n      0x00\n        /* \"#utility.yul\":1939:1941   */\n      0x20\n        /* \"#utility.yul\":1928:1937   */\n      dup3\n        /* \"#utility.yul\":1924:1942   */\n      add\n        /* \"#utility.yul\":1916:1942   */\n      swap1\n      pop\n        /* \"#utility.yul\":1988:1997   */\n      dup2\n        /* \"#utility.yul\":1982:1986   */\n      dup2\n        /* \"#utility.yul\":1978:1998   */\n      sub\n        /* \"#utility.yul\":1974:1975   */\n      0x00\n        /* \"#utility.yul\":1963:1972   */\n      dup4\n        /* \"#utility.yul\":1959:1976   */\n      add\n        /* \"#utility.yul\":1952:1999   */\n      mstore\n        /* \"#utility.yul\":2016:2094   */\n      tag_88\n        /* \"#utility.yul\":2089:2093   */\n      dup2\n        /* \"#utility.yul\":2080:2086   */\n      dup5\n        /* \"#utility.yul\":2016:2094   */\n      tag_54\n      jump\t// in\n    tag_88:\n        /* \"#utility.yul\":2008:2094   */\n      swap1\n      pop\n        /* \"#utility.yul\":1788:2101   */\n      swap3\n      swap2\n      pop\n      pop\n      jump\t// out\n        /* \"#utility.yul\":2188:2305   */\n    tag_56:\n        /* \"#utility.yul\":2297:2298   */\n      0x00\n        /* \"#utility.yul\":2294:2295   */\n      0x00\n        /* \"#utility.yul\":2287:2299   */\n      revert\n        /* \"#utility.yul\":2434:2539   */\n    tag_58:\n        /* \"#utility.yul\":2470:2477   */\n      0x00\n        /* \"#utility.yul\":2510:2532   */\n      0xffffffffffffffffffff\n        /* \"#utility.yul\":2503:2508   */\n      dup3\n        /* \"#utility.yul\":2499:2533   */\n      and\n        /* \"#utility.yul\":2488:2533   */\n      swap1\n      pop\n        /* \"#utility.yul\":2434:2539   */\n      swap2\n      swap1\n      pop\n      jump\t// out\n        /* \"#utility.yul\":2545:2665   */\n    tag_59:\n        /* \"#utility.yul\":2617:2640   */\n      tag_94\n        /* \"#utility.yul\":2634:2639   */\n      dup2\n        /* \"#utility.yul\":2617:2640   */\n      tag_58\n      jump\t// in\n    tag_94:\n        /* \"#utility.yul\":2610:2615   */\n      dup2\n        /* \"#utility.yul\":2607:2641   */\n      eq\n        /* \"#utility.yul\":2597:2659   */\n      tag_95\n      jumpi\n        /* \"#utility.yul\":2655:2656   */\n      0x00\n        /* \"#utility.yul\":2652:2653   */\n      0x00\n        /* \"#utility.yul\":2645:2657   */\n      revert\n        /* \"#utility.yul\":2597:2659   */\n    tag_95:\n        /* \"#utility.yul\":2545:2665   */\n      pop\n      jump\t// out\n        /* \"#utility.yul\":2671:2808   */\n    tag_60:\n        /* \"#utility.yul\":2716:2721   */\n      0x00\n        /* \"#utility.yul\":2754:2760   */\n      dup2\n        /* \"#utility.yul\":2741:2761   */\n      calldataload\n        /* \"#utility.yul\":2732:2761   */\n      swap1\n      pop\n        /* \"#utility.yul\":2770:2802   */\n      tag_97\n        /* \"#utility.yul\":2796:2801   */\n      dup2\n        /* \"#utility.yul\":2770:2802   */\n      tag_59\n      jump\t// in\n    tag_97:\n        /* \"#utility.yul\":2671:2808   */\n      swap3\n      swap2\n      pop\n      pop\n      jump\t// out\n        /* \"#utility.yul\":2814:3141   */\n    tag_23:\n        /* \"#utility.yul\":2872:2878   */\n      0x00\n        /* \"#utility.yul\":2921:2923   */\n      0x20\n        /* \"#utility.yul\":2909:2918   */\n      dup3\n        /* \"#utility.yul\":2900:2907   */\n      dup5\n        /* \"#utility.yul\":2896:2919   */\n      sub\n        /* \"#utility.yul\":2892:2924   */\n      slt\n        /* \"#utility.yul\":2889:3008   */\n      iszero\n      tag_99\n      jumpi\n        /* \"#utility.yul\":2927:3006   */\n      tag_100\n      tag_56\n      jump\t// in\n    tag_100:\n        /* \"#utility.yul\":2889:3008   */\n    tag_99:\n        /* \"#utility.yul\":3047:3048   */\n      0x00\n        /* \"#utility.yul\":3072:3124   */\n      tag_101\n        /* \"#utility.yul\":3116:3123   */\n      dup5\n        /* \"#utility.yul\":3107:3113   */\n      dup3\n        /* \"#utility.yul\":3096:3105   */\n      dup6\n        /* \"#utility.yul\":3092:3114   */\n      add\n        /* \"#utility.yul\":3072:3124   */\n      tag_60\n      jump\t// in\n    tag_101:\n        /* \"#utility.yul\":3062:3124   */\n      swap2\n      pop\n        /* \"#utility.yul\":3018:3134   */\n      pop\n        /* \"#utility.yul\":2814:3141   */\n      swap3\n      swap2\n      pop\n      pop\n      jump\t// out\n        /* \"#utility.yul\":3147:3262   */\n    tag_61:\n        /* \"#utility.yul\":3232:3255   */\n      tag_103\n        /* \"#utility.yul\":3249:3254   */\n      dup2\n        /* \"#utility.yul\":3232:3255   */\n      tag_58\n      jump\t// in\n    tag_103:\n        /* \"#utility.yul\":3227:3230   */\n      dup3\n        /* \"#utility.yul\":3220:3256   */\n      mstore\n        /* \"#utility.yul\":3147:3262   */\n      pop\n      pop\n      jump\t// out\n        /* \"#utility.yul\":3268:3344   */\n    tag_62:\n        /* \"#utility.yul\":3304:3311   */\n      0x00\n        /* \"#utility.yul\":3333:3338   */\n      dup2\n        /* \"#utility.yul\":3322:3338   */\n      swap1\n      pop\n        /* \"#utility.yul\":3268:3344   */\n      swap2\n      swap1\n      pop\n      jump\t// out\n        /* \"#utility.yul\":3350:3465   */\n    tag_63:\n        /* \"#utility.yul\":3435:3458   */\n      tag_106\n        /* \"#utility.yul\":3452:3457   */\n      dup2\n        /* \"#utility.yul\":3435:3458   */\n      tag_62\n      jump\t// in\n    tag_106:\n        /* \"#utility.yul\":3430:3433   */\n      dup3\n        /* \"#utility.yul\":3423:3459   */\n      mstore\n        /* \"#utility.yul\":3350:3465   */\n      pop\n      pop\n      jump\t// out\n        /* \"#utility.yul\":3471:4123   */\n    tag_26:\n        /* \"#utility.yul\":3670:3674   */\n      0x00\n        /* \"#utility.yul\":3708:3711   */\n      0xa0\n        /* \"#utility.yul\":3697:3706   */\n      dup3\n        /* \"#utility.yul\":3693:3712   */\n      add\n        /* \"#utility.yul\":3685:3712   */\n      swap1\n      pop\n        /* \"#utility.yul\":3722:3791   */\n      tag_108\n        /* \"#utility.yul\":3788:3789   */\n      0x00\n        /* \"#utility.yul\":3777:3786   */\n      dup4\n        /* \"#utility.yul\":3773:3790   */\n      add\n        /* \"#utility.yul\":3764:3770   */\n      dup9\n        /* \"#utility.yul\":3722:3791   */\n      tag_61\n      jump\t// in\n    tag_108:\n        /* \"#utility.yul\":3801:3871   */\n      tag_109\n        /* \"#utility.yul\":3867:3869   */\n      0x20\n        /* \"#utility.yul\":3856:3865   */\n      dup4\n        /* \"#utility.yul\":3852:3870   */\n      add\n        /* \"#utility.yul\":3843:3849   */\n      dup8\n        /* \"#utility.yul\":3801:3871   */\n      tag_63\n      jump\t// in\n    tag_109:\n        /* \"#utility.yul\":3881:3953   */\n      tag_110\n        /* \"#utility.yul\":3949:3951   */\n      0x40\n        /* \"#utility.yul\":3938:3947   */\n      dup4\n        /* \"#utility.yul\":3934:3952   */\n      add\n        /* \"#utility.yul\":3925:3931   */\n      dup7\n        /* \"#utility.yul\":3881:3953   */\n      tag_49\n      jump\t// in\n    tag_110:\n        /* \"#utility.yul\":3963:4035   */\n      tag_111\n        /* \"#utility.yul\":4031:4033   */\n      0x60\n        /* \"#utility.yul\":4020:4029   */\n      dup4\n        /* \"#utility.yul\":4016:4034   */\n      add\n        /* \"#utility.yul\":4007:4013   */\n      dup6\n        /* \"#utility.yul\":3963:4035   */\n      tag_49\n      jump\t// in\n    tag_111:\n        /* \"#utility.yul\":4045:4116   */\n      tag_112\n        /* \"#utility.yul\":4111:4114   */\n      0x80\n        /* \"#utility.yul\":4100:4109   */\n      dup4\n        /* \"#utility.yul\":4096:4115   */\n      add\n        /* \"#utility.yul\":4087:4093   */\n      dup5\n        /* \"#utility.yul\":4045:4116   */\n      tag_61\n      jump\t// in\n    tag_112:\n        /* \"#utility.yul\":3471:4123   */\n      swap7\n      swap6\n      pop\n      pop\n      pop\n      pop\n      pop\n      pop\n      jump\t// out\n        /* \"#utility.yul\":4129:4249   */\n    tag_64:\n        /* \"#utility.yul\":4201:4224   */\n      tag_114\n        /* \"#utility.yul\":4218:4223   */\n      dup2\n        /* \"#utility.yul\":4201:4224   */\n      tag_62\n      jump\t// in\n    tag_114:\n        /* \"#utility.yul\":4194:4199   */\n      dup2\n        /* \"#utility.yul\":4191:4225   */\n      eq\n        /* \"#utility.yul\":4181:4243   */\n      tag_115\n      jumpi\n        /* \"#utility.yul\":4239:4240   */\n      0x00\n        /* \"#utility.yul\":4236:4237   */\n      0x00\n        /* \"#utility.yul\":4229:4241   */\n      revert\n        /* \"#utility.yul\":4181:4243   */\n    tag_115:\n        /* \"#utility.yul\":4129:4249   */\n      pop\n      jump\t// out\n        /* \"#utility.yul\":4255:4392   */\n    tag_65:\n        /* \"#utility.yul\":4300:4305   */\n      0x00\n        /* \"#utility.yul\":4338:4344   */\n      dup2\n        /* \"#utility.yul\":4325:4345   */\n      calldataload\n        /* \"#utility.yul\":4316:4345   */\n      swap1\n      pop\n        /* \"#utility.yul\":4354:4386   */\n      tag_117\n        /* \"#utility.yul\":4380:4385   */\n      dup2\n        /* \"#utility.yul\":4354:4386   */\n      tag_64\n      jump\t// in\n    tag_117:\n        /* \"#utility.yul\":4255:4392   */\n      swap3\n      swap2\n      pop\n      pop\n      jump\t// out\n        /* \"#utility.yul\":4398:4725   */\n    tag_29:\n        /* \"#utility.yul\":4456:4462   */\n      0x00\n        /* \"#utility.yul\":4505:4507   */\n      0x20\n        /* \"#utility.yul\":4493:4502   */\n      dup3\n        /* \"#utility.yul\":4484:4491   */\n      dup5\n        /* \"#utility.yul\":4480:4503   */\n      sub\n        /* \"#utility.yul\":4476:4508   */\n      slt\n        /* \"#utility.yul\":4473:4592   */\n      iszero\n      tag_119\n      jumpi\n        /* \"#utility.yul\":4511:4590   */\n      tag_120\n      tag_56\n      jump\t// in\n    tag_120:\n        /* \"#utility.yul\":4473:4592   */\n    tag_119:\n        /* \"#utility.yul\":4631:4632   */\n      0x00\n        /* \"#utility.yul\":4656:4708   */\n      tag_121\n        /* \"#utility.yul\":4700:4707   */\n      dup5\n        /* \"#utility.yul\":4691:4697   */\n      dup3\n        /* \"#utility.yul\":4680:4689   */\n      dup6\n        /* \"#utility.yul\":4676:4698   */\n      add\n        /* \"#utility.yul\":4656:4708   */\n      tag_65\n      jump\t// in\n    tag_121:\n        /* \"#utility.yul\":4646:4708   */\n      swap2\n      pop\n        /* \"#utility.yul\":4602:4718   */\n      pop\n        /* \"#utility.yul\":4398:4725   */\n      swap3\n      swap2\n      pop\n      pop\n      jump\t// out\n        /* \"#utility.yul\":4731:4911   */\n    tag_66:\n        /* \"#utility.yul\":4779:4856   */\n      0x4e487b7100000000000000000000000000000000000000000000000000000000\n        /* \"#utility.yul\":4776:4777   */\n      0x00\n        /* \"#utility.yul\":4769:4857   */\n      mstore\n        /* \"#utility.yul\":4876:4880   */\n      0x22\n        /* \"#utility.yul\":4873:4874   */\n      0x04\n        /* \"#utility.yul\":4866:4881   */\n      mstore\n        /* \"#utility.yul\":4900:4904   */\n      0x24\n        /* \"#utility.yul\":4897:4898   */\n      0x00\n        /* \"#utility.yul\":4890:4905   */\n      revert\n        /* \"#utility.yul\":4917:5237   */\n    tag_38:\n        /* \"#utility.yul\":4961:4967   */\n      0x00\n        /* \"#utility.yul\":4998:4999   */\n      0x02\n        /* \"#utility.yul\":4992:4996   */\n      dup3\n        /* \"#utility.yul\":4988:5000   */\n      div\n        /* \"#utility.yul\":4978:5000   */\n      swap1\n      pop\n        /* \"#utility.yul\":5045:5046   */\n      0x01\n        /* \"#utility.yul\":5039:5043   */\n      dup3\n        /* \"#utility.yul\":5035:5047   */\n      and\n        /* \"#utility.yul\":5066:5084   */\n      dup1\n        /* \"#utility.yul\":5056:5137   */\n      tag_124\n      jumpi\n        /* \"#utility.yul\":5122:5126   */\n      0x7f\n        /* \"#utility.yul\":5114:5120   */\n      dup3\n        /* \"#utility.yul\":5110:5127   */\n      and\n        /* \"#utility.yul\":5100:5127   */\n      swap2\n      pop\n        /* \"#utility.yul\":5056:5137   */\n    tag_124:\n        /* \"#utility.yul\":5184:5186   */\n      0x20\n        /* \"#utility.yul\":5176:5182   */\n      dup3\n        /* \"#utility.yul\":5173:5187   */\n      lt\n        /* \"#utility.yul\":5153:5171   */\n      dup2\n        /* \"#utility.yul\":5150:5188   */\n      sub\n        /* \"#utility.yul\":5147:5231   */\n      tag_125\n      jumpi\n        /* \"#utility.yul\":5203:5221   */\n      tag_126\n      tag_66\n      jump\t// in\n    tag_126:\n        /* \"#utility.yul\":5147:5231   */\n    tag_125:\n        /* \"#utility.yul\":4968:5237   */\n      pop\n        /* \"#utility.yul\":4917:5237   */\n      swap2\n      swap1\n      pop\n      jump\t// out\n\n    auxdata: 0xa2646970667358221220197f5fb0118760e55f218e2b3ed51f68b792732648c49c76612f15ef1c50a65a64736f6c634300081e0033\n}\n",
				"bytecode": {
					"linkReferences": {},
					"object": "608060405234801561000f575f5ffd5b5060405161094f38038061094f83398181016040528101906100319190610112565b815f819055508060015f6101000a81548160ff021916908360ff1602179055506040518060400160405280600f81526020017f4d6f636b2050726963652046656564000000000000000000000000000000000081525060029081610095919061038d565b506001600381905550505061045c565b5f5ffd5b5f819050919050565b6100bb816100a9565b81146100c5575f5ffd5b50565b5f815190506100d6816100b2565b92915050565b5f60ff82169050919050565b6100f1816100dc565b81146100fb575f5ffd5b50565b5f8151905061010c816100e8565b92915050565b5f5f60408385031215610128576101276100a5565b5b5f610135858286016100c8565b9250506020610146858286016100fe565b9150509250929050565b5f81519050919050565b7f4e487b71000000000000000000000000000000000000000000000000000000005f52604160045260245ffd5b7f4e487b71000000000000000000000000000000000000000000000000000000005f52602260045260245ffd5b5f60028204905060018216806101cb57607f821691505b6020821081036101de576101dd610187565b5b50919050565b5f819050815f5260205f209050919050565b5f6020601f8301049050919050565b5f82821b905092915050565b5f600883026102407fffffffffffffffffffffffffffffffffffffffffffffffffffffffffffffffff82610205565b61024a8683610205565b95508019841693508086168417925050509392505050565b5f819050919050565b5f819050919050565b5f61028e61028961028484610262565b61026b565b610262565b9050919050565b5f819050919050565b6102a783610274565b6102bb6102b382610295565b848454610211565b825550505050565b5f5f905090565b6102d26102c3565b6102dd81848461029e565b505050565b5b81811015610300576102f55f826102ca565b6001810190506102e3565b5050565b601f82111561034557610316816101e4565b61031f846101f6565b8101602085101561032e578190505b61034261033a856101f6565b8301826102e2565b50505b505050565b5f82821c905092915050565b5f6103655f198460080261034a565b1980831691505092915050565b5f61037d8383610356565b9150826002028217905092915050565b61039682610150565b67ffffffffffffffff8111156103af576103ae61015a565b5b6103b982546101b4565b6103c4828285610304565b5f60209050601f8311600181146103f5575f84156103e3578287015190505b6103ed8582610372565b865550610454565b601f198416610403866101e4565b5f5b8281101561042a57848901518255600182019150602085019450602081019050610405565b868310156104475784890151610443601f891682610356565b8355505b6001600288020188555050505b505050505050565b6104e6806104695f395ff3fe608060405234801561000f575f5ffd5b5060043610610060575f3560e01c8063313ce5671461006457806354fd4d50146100825780637284e416146100a05780639a6fc8f5146100be578063f7a30806146100f2578063feaf968c1461010e575b5f5ffd5b61006c610130565b604051610079919061023e565b60405180910390f35b61008a610145565b604051610097919061026f565b60405180910390f35b6100a861014e565b6040516100b591906102f8565b60405180910390f35b6100d860048036038101906100d3919061035b565b6101de565b6040516100e99594939291906103ad565b60405180910390f35b61010c60048036038101906101079190610428565b6101fc565b005b610116610205565b6040516101279594939291906103ad565b60405180910390f35b5f60015f9054906101000a900460ff16905090565b5f600354905090565b60606002805461015d90610480565b80601f016020809104026020016040519081016040528092919081815260200182805461018990610480565b80156101d45780601f106101ab576101008083540402835291602001916101d4565b820191905f5260205f20905b8154815290600101906020018083116101b757829003601f168201915b5050505050905090565b5f5f5f5f5f855f544242899450945094509450945091939590929450565b805f8190555050565b5f5f5f5f5f60015f5442426001945094509450945094509091929394565b5f60ff82169050919050565b61023881610223565b82525050565b5f6020820190506102515f83018461022f565b92915050565b5f819050919050565b61026981610257565b82525050565b5f6020820190506102825f830184610260565b92915050565b5f81519050919050565b5f82825260208201905092915050565b8281835e5f83830152505050565b5f601f19601f8301169050919050565b5f6102ca82610288565b6102d48185610292565b93506102e48185602086016102a2565b6102ed816102b0565b840191505092915050565b5f6020820190508181035f83015261031081846102c0565b905092915050565b5f5ffd5b5f69ffffffffffffffffffff82169050919050565b61033a8161031c565b8114610344575f5ffd5b50565b5f8135905061035581610331565b92915050565b5f602082840312156103705761036f610318565b5b5f61037d84828501610347565b91505092915050565b61038f8161031c565b82525050565b5f819050919050565b6103a781610395565b82525050565b5f60a0820190506103c05f830188610386565b6103cd602083018761039e565b6103da6040830186610260565b6103e76060830185610260565b6103f46080830184610386565b9695505050505050565b61040781610395565b8114610411575f5ffd5b50565b5f81359050610422816103fe565b92915050565b5f6020828403121561043d5761043c610318565b5b5f61044a84828501610414565b91505092915050565b7f4e487b71000000000000000000000000000000000000000000000000000000005f52602260045260245ffd5b5f600282049050600182168061049757607f821691505b6020821081036104aa576104a9610453565b5b5091905056fea2646970667358221220197f5fb0118760e55f218e2b3ed51f68b792732648c49c76612f15ef1c50a65a64736f6c634300081e0033",
					"opcodes": "PUSH1 0x80 PUSH1 0x40 MSTORE CALLVALUE DUP1 ISZERO PUSH2 0xF JUMPI PUSH0 PUSH0 REVERT JUMPDEST POP PUSH1 0x40 MLOAD PUSH2 0x94F CODESIZE SUB DUP1 PUSH2 0x94F DUP4 CODECOPY DUP2 DUP2 ADD PUSH1 0x40 MSTORE DUP2 ADD SWAP1 PUSH2 0x31 SWAP2 SWAP1 PUSH2 0x112 JUMP JUMPDEST DUP2 PUSH0 DUP2 SWAP1 SSTORE POP DUP1 PUSH1 0x1 PUSH0 PUSH2 0x100 EXP DUP2 SLOAD DUP2 PUSH1 0xFF MUL NOT AND SWAP1 DUP4 PUSH1 0xFF AND MUL OR SWAP1 SSTORE POP PUSH1 0x40 MLOAD DUP1 PUSH1 0x40 ADD PUSH1 0x40 MSTORE DUP1 PUSH1 0xF DUP2 MSTORE PUSH1 0x20 ADD PUSH32 0x4D6F636B20507269636520466565640000000000000000000000000000000000 DUP2 MSTORE POP PUSH1 0x2 SWAP1 DUP2 PUSH2 0x95 SWAP2 SWAP1 PUSH2 0x38D JUMP JUMPDEST POP PUSH1 0x1 PUSH1 0x3 DUP2 SWAP1 SSTORE POP POP POP PUSH2 0x45C JUMP JUMPDEST PUSH0 PUSH0 REVERT JUMPDEST PUSH0 DUP2 SWAP1 POP SWAP2 SWAP1 POP JUMP JUMPDEST PUSH2 0xBB DUP2 PUSH2 0xA9 JUMP JUMPDEST DUP2 EQ PUSH2 0xC5 JUMPI PUSH0 PUSH0 REVERT JUMPDEST POP JUMP JUMPDEST PUSH0 DUP2 MLOAD SWAP1 POP PUSH2 0xD6 DUP2 PUSH2 0xB2 JUMP JUMPDEST SWAP3 SWAP2 POP POP JUMP JUMPDEST PUSH0 PUSH1 0xFF DUP3 AND SWAP1 POP SWAP2 SWAP1 POP JUMP JUMPDEST PUSH2 0xF1 DUP2 PUSH2 0xDC JUMP JUMPDEST DUP2 EQ PUSH2 0xFB JUMPI PUSH0 PUSH0 REVERT JUMPDEST POP JUMP JUMPDEST PUSH0 DUP2 MLOAD SWAP1 POP PUSH2 0x10C DUP2 PUSH2 0xE8 JUMP JUMPDEST SWAP3 SWAP2 POP POP JUMP JUMPDEST PUSH0 PUSH0 PUSH1 0x40 DUP4 DUP6 SUB SLT ISZERO PUSH2 0x128 JUMPI PUSH2 0x127 PUSH2 0xA5 JUMP JUMPDEST JUMPDEST PUSH0 PUSH2 0x135 DUP6 DUP3 DUP7 ADD PUSH2 0xC8 JUMP JUMPDEST SWAP3 POP POP PUSH1 0x20 PUSH2 0x146 DUP6 DUP3 DUP7 ADD PUSH2 0xFE JUMP JUMPDEST SWAP2 POP POP SWAP3 POP SWAP3 SWAP1 POP JUMP JUMPDEST PUSH0 DUP2 MLOAD SWAP1 POP SWAP2 SWAP1 POP JUMP JUMPDEST PUSH32 0x4E487B7100000000000000000000000000000000000000000000000000000000 PUSH0 MSTORE PUSH1 0x41 PUSH1 0x4 MSTORE PUSH1 0x24 PUSH0 REVERT JUMPDEST PUSH32 0x4E487B7100000000000000000000000000000000000000000000000000000000 PUSH0 MSTORE PUSH1 0x22 PUSH1 0x4 MSTORE PUSH1 0x24 PUSH0 REVERT JUMPDEST PUSH0 PUSH1 0x2 DUP3 DIV SWAP1 POP PUSH1 0x1 DUP3 AND DUP1 PUSH2 0x1CB JUMPI PUSH1 0x7F DUP3 AND SWAP2 POP JUMPDEST PUSH1 0x20 DUP3 LT DUP2 SUB PUSH2 0x1DE JUMPI PUSH2 0x1DD PUSH2 0x187 JUMP JUMPDEST JUMPDEST POP SWAP2 SWAP1 POP JUMP JUMPDEST PUSH0 DUP2 SWAP1 POP DUP2 PUSH0 MSTORE PUSH1 0x20 PUSH0 KECCAK256 SWAP1 POP SWAP2 SWAP1 POP JUMP JUMPDEST PUSH0 PUSH1 0x20 PUSH1 0x1F DUP4 ADD DIV SWAP1 POP SWAP2 SWAP1 POP JUMP JUMPDEST PUSH0 DUP3 DUP3 SHL SWAP1 POP SWAP3 SWAP2 POP POP JUMP JUMPDEST PUSH0 PUSH1 0x8 DUP4 MUL PUSH2 0x240 PUSH32 0xFFFFFFFFFFFFFFFFFFFFFFFFFFFFFFFFFFFFFFFFFFFFFFFFFFFFFFFFFFFFFFFF DUP3 PUSH2 0x205 JUMP JUMPDEST PUSH2 0x24A DUP7 DUP4 PUSH2 0x205 JUMP JUMPDEST SWAP6 POP DUP1 NOT DUP5 AND SWAP4 POP DUP1 DUP7 AND DUP5 OR SWAP3 POP POP POP SWAP4 SWAP3 POP POP POP JUMP JUMPDEST PUSH0 DUP2 SWAP1 POP SWAP2 SWAP1 POP JUMP JUMPDEST PUSH0 DUP2 SWAP1 POP SWAP2 SWAP1 POP JUMP JUMPDEST PUSH0 PUSH2 0x28E PUSH2 0x289 PUSH2 0x284 DUP5 PUSH2 0x262 JUMP JUMPDEST PUSH2 0x26B JUMP JUMPDEST PUSH2 0x262 JUMP JUMPDEST SWAP1 POP SWAP2 SWAP1 POP JUMP JUMPDEST PUSH0 DUP2 SWAP1 POP SWAP2 SWAP1 POP JUMP JUMPDEST PUSH2 0x2A7 DUP4 PUSH2 0x274 JUMP JUMPDEST PUSH2 0x2BB PUSH2 0x2B3 DUP3 PUSH2 0x295 JUMP JUMPDEST DUP5 DUP5 SLOAD PUSH2 0x211 JUMP JUMPDEST DUP3 SSTORE POP POP POP POP JUMP JUMPDEST PUSH0 PUSH0 SWAP1 POP SWAP1 JUMP JUMPDEST PUSH2 0x2D2 PUSH2 0x2C3 JUMP JUMPDEST PUSH2 0x2DD DUP2 DUP5 DUP5 PUSH2 0x29E JUMP JUMPDEST POP POP POP JUMP JUMPDEST JUMPDEST DUP2 DUP2 LT ISZERO PUSH2 0x300 JUMPI PUSH2 0x2F5 PUSH0 DUP3 PUSH2 0x2CA JUMP JUMPDEST PUSH1 0x1 DUP2 ADD SWAP1 POP PUSH2 0x2E3 JUMP JUMPDEST POP POP JUMP JUMPDEST PUSH1 0x1F DUP3 GT ISZERO PUSH2 0x345 JUMPI PUSH2 0x316 DUP2 PUSH2 0x1E4 JUMP JUMPDEST PUSH2 0x31F DUP5 PUSH2 0x1F6 JUMP JUMPDEST DUP2 ADD PUSH1 0x20 DUP6 LT ISZERO PUSH2 0x32E JUMPI DUP2 SWAP1 POP JUMPDEST PUSH2 0x342 PUSH2 0x33A DUP6 PUSH2 0x1F6 JUMP JUMPDEST DUP4 ADD DUP3 PUSH2 0x2E2 JUMP JUMPDEST POP POP JUMPDEST POP POP POP JUMP JUMPDEST PUSH0 DUP3 DUP3 SHR SWAP1 POP SWAP3 SWAP2 POP POP JUMP JUMPDEST PUSH0 PUSH2 0x365 PUSH0 NOT DUP5 PUSH1 0x8 MUL PUSH2 0x34A JUMP JUMPDEST NOT DUP1 DUP4 AND SWAP2 POP POP SWAP3 SWAP2 POP POP JUMP JUMPDEST PUSH0 PUSH2 0x37D DUP4 DUP4 PUSH2 0x356 JUMP JUMPDEST SWAP2 POP DUP3 PUSH1 0x2 MUL DUP3 OR SWAP1 POP SWAP3 SWAP2 POP POP JUMP JUMPDEST PUSH2 0x396 DUP3 PUSH2 0x150 JUMP JUMPDEST PUSH8 0xFFFFFFFFFFFFFFFF DUP2 GT ISZERO PUSH2 0x3AF JUMPI PUSH2 0x3AE PUSH2 0x15A JUMP JUMPDEST JUMPDEST PUSH2 0x3B9 DUP3 SLOAD PUSH2 0x1B4 JUMP JUMPDEST PUSH2 0x3C4 DUP3 DUP3 DUP6 PUSH2 0x304 JUMP JUMPDEST PUSH0 PUSH1 0x20 SWAP1 POP PUSH1 0x1F DUP4 GT PUSH1 0x1 DUP2 EQ PUSH2 0x3F5 JUMPI PUSH0 DUP5 ISZERO PUSH2 0x3E3 JUMPI DUP3 DUP8 ADD MLOAD SWAP1 POP JUMPDEST PUSH2 0x3ED DUP6 DUP3 PUSH2 0x372 JUMP JUMPDEST DUP7 SSTORE POP PUSH2 0x454 JUMP JUMPDEST PUSH1 0x1F NOT DUP5 AND PUSH2 0x403 DUP7 PUSH2 0x1E4 JUMP JUMPDEST PUSH0 JUMPDEST DUP3 DUP2 LT ISZERO PUSH2 0x42A JUMPI DUP5 DUP10 ADD MLOAD DUP3 SSTORE PUSH1 0x1 DUP3 ADD SWAP2 POP PUSH1 0x20 DUP6 ADD SWAP5 POP PUSH1 0x20 DUP2 ADD SWAP1 POP PUSH2 0x405 JUMP JUMPDEST DUP7 DUP4 LT ISZERO PUSH2 0x447 JUMPI DUP5 DUP10 ADD MLOAD PUSH2 0x443 PUSH1 0x1F DUP10 AND DUP3 PUSH2 0x356 JUMP JUMPDEST DUP4 SSTORE POP JUMPDEST PUSH1 0x1 PUSH1 0x2 DUP9 MUL ADD DUP9 SSTORE POP POP POP JUMPDEST POP POP POP POP POP POP JUMP JUMPDEST PUSH2 0x4E6 DUP1 PUSH2 0x469 PUSH0 CODECOPY PUSH0 RETURN INVALID PUSH1 0x80 PUSH1 0x40 MSTORE CALLVALUE DUP1 ISZERO PUSH2 0xF JUMPI PUSH0 PUSH0 REVERT JUMPDEST POP PUSH1 0x4 CALLDATASIZE LT PUSH2 0x60 JUMPI PUSH0 CALLDATALOAD PUSH1 0xE0 SHR DUP1 PUSH4 0x313CE567 EQ PUSH2 0x64 JUMPI DUP1 PUSH4 0x54FD4D50 EQ PUSH2 0x82 JUMPI DUP1 PUSH4 0x7284E416 EQ PUSH2 0xA0 JUMPI DUP1 PUSH4 0x9A6FC8F5 EQ PUSH2 0xBE JUMPI DUP1 PUSH4 0xF7A30806 EQ PUSH2 0xF2 JUMPI DUP1 PUSH4 0xFEAF968C EQ PUSH2 0x10E JUMPI JUMPDEST PUSH0 PUSH0 REVERT JUMPDEST PUSH2 0x6C PUSH2 0x130 JUMP JUMPDEST PUSH1 0x40 MLOAD PUSH2 0x79 SWAP2 SWAP1 PUSH2 0x23E JUMP JUMPDEST PUSH1 0x40 MLOAD DUP1 SWAP2 SUB SWAP1 RETURN JUMPDEST PUSH2 0x8A PUSH2 0x145 JUMP JUMPDEST PUSH1 0x40 MLOAD PUSH2 0x97 SWAP2 SWAP1 PUSH2 0x26F JUMP JUMPDEST PUSH1 0x40 MLOAD DUP1 SWAP2 SUB SWAP1 RETURN JUMPDEST PUSH2 0xA8 PUSH2 0x14E JUMP JUMPDEST PUSH1 0x40 MLOAD PUSH2 0xB5 SWAP2 SWAP1 PUSH2 0x2F8 JUMP JUMPDEST PUSH1 0x40 MLOAD DUP1 SWAP2 SUB SWAP1 RETURN JUMPDEST PUSH2 0xD8 PUSH1 0x4 DUP1 CALLDATASIZE SUB DUP2 ADD SWAP1 PUSH2 0xD3 SWAP2 SWAP1 PUSH2 0x35B JUMP JUMPDEST PUSH2 0x1DE JUMP JUMPDEST PUSH1 0x40 MLOAD PUSH2 0xE9 SWAP6 SWAP5 SWAP4 SWAP3 SWAP2 SWAP1 PUSH2 0x3AD JUMP JUMPDEST PUSH1 0x40 MLOAD DUP1 SWAP2 SUB SWAP1 RETURN JUMPDEST PUSH2 0x10C PUSH1 0x4 DUP1 CALLDATASIZE SUB DUP2 ADD SWAP1 PUSH2 0x107 SWAP2 SWAP1 PUSH2 0x428 JUMP JUMPDEST PUSH2 0x1FC JUMP JUMPDEST STOP JUMPDEST PUSH2 0x116 PUSH2 0x205 JUMP JUMPDEST PUSH1 0x40 MLOAD PUSH2 0x127 SWAP6 SWAP5 SWAP4 SWAP3 SWAP2 SWAP1 PUSH2 0x3AD JUMP JUMPDEST PUSH1 0x40 MLOAD DUP1 SWAP2 SUB SWAP1 RETURN JUMPDEST PUSH0 PUSH1 0x1 PUSH0 SWAP1 SLOAD SWAP1 PUSH2 0x100 EXP SWAP1 DIV PUSH1 0xFF AND SWAP1 POP SWAP1 JUMP JUMPDEST PUSH0 PUSH1 0x3 SLOAD SWAP1 POP SWAP1 JUMP JUMPDEST PUSH1 0x60 PUSH1 0x2 DUP1 SLOAD PUSH2 0x15D SWAP1 PUSH2 0x480 JUMP JUMPDEST DUP1 PUSH1 0x1F ADD PUSH1 0x20 DUP1 SWAP2 DIV MUL PUSH1 0x20 ADD PUSH1 0x40 MLOAD SWAP1 DUP2 ADD PUSH1 0x40 MSTORE DUP1 SWAP3 SWAP2 SWAP1 DUP2 DUP2 MSTORE PUSH1 0x20 ADD DUP3 DUP1 SLOAD PUSH2 0x189 SWAP1 PUSH2 0x480 JUMP JUMPDEST DUP1 ISZERO PUSH2 0x1D4 JUMPI DUP1 PUSH1 0x1F LT PUSH2 0x1AB JUMPI PUSH2 0x100 DUP1 DUP4 SLOAD DIV MUL DUP4 MSTORE SWAP2 PUSH1 0x20 ADD SWAP2 PUSH2 0x1D4 JUMP JUMPDEST DUP3 ADD SWAP2 SWAP1 PUSH0 MSTORE PUSH1 0x20 PUSH0 KECCAK256 SWAP1 JUMPDEST DUP2 SLOAD DUP2 MSTORE SWAP1 PUSH1 0x1 ADD SWAP1 PUSH1 0x20 ADD DUP1 DUP4 GT PUSH2 0x1B7 JUMPI DUP3 SWAP1 SUB PUSH1 0x1F AND DUP3 ADD SWAP2 JUMPDEST POP POP POP POP POP SWAP1 POP SWAP1 JUMP JUMPDEST PUSH0 PUSH0 PUSH0 PUSH0 PUSH0 DUP6 PUSH0 SLOAD TIMESTAMP TIMESTAMP DUP10 SWAP5 POP SWAP5 POP SWAP5 POP SWAP5 POP SWAP5 POP SWAP2 SWAP4 SWAP6 SWAP1 SWAP3 SWAP5 POP JUMP JUMPDEST DUP1 PUSH0 DUP2 SWAP1 SSTORE POP POP JUMP JUMPDEST PUSH0 PUSH0 PUSH0 PUSH0 PUSH0 PUSH1 0x1 PUSH0 SLOAD TIMESTAMP TIMESTAMP PUSH1 0x1 SWAP5 POP SWAP5 POP SWAP5 POP SWAP5 POP SWAP5 POP SWAP1 SWAP2 SWAP3 SWAP4 SWAP5 JUMP JUMPDEST PUSH0 PUSH1 0xFF DUP3 AND SWAP1 POP SWAP2 SWAP1 POP JUMP JUMPDEST PUSH2 0x238 DUP2 PUSH2 0x223 JUMP JUMPDEST DUP3 MSTORE POP POP JUMP JUMPDEST PUSH0 PUSH1 0x20 DUP3 ADD SWAP1 POP PUSH2 0x251 PUSH0 DUP4 ADD DUP5 PUSH2 0x22F JUMP JUMPDEST SWAP3 SWAP2 POP POP JUMP JUMPDEST PUSH0 DUP2 SWAP1 POP SWAP2 SWAP1 POP JUMP JUMPDEST PUSH2 0x269 DUP2 PUSH2 0x257 JUMP JUMPDEST DUP3 MSTORE POP POP JUMP JUMPDEST PUSH0 PUSH1 0x20 DUP3 ADD SWAP1 POP PUSH2 0x282 PUSH0 DUP4 ADD DUP5 PUSH2 0x260 JUMP JUMPDEST SWAP3 SWAP2 POP POP JUMP JUMPDEST PUSH0 DUP2 MLOAD SWAP1 POP SWAP2 SWAP1 POP JUMP JUMPDEST PUSH0 DUP3 DUP3 MSTORE PUSH1 0x20 DUP3 ADD SWAP1 POP SWAP3 SWAP2 POP POP JUMP JUMPDEST DUP3 DUP2 DUP4 MCOPY PUSH0 DUP4 DUP4 ADD MSTORE POP POP POP JUMP JUMPDEST PUSH0 PUSH1 0x1F NOT PUSH1 0x1F DUP4 ADD AND SWAP1 POP SWAP2 SWAP1 POP JUMP JUMPDEST PUSH0 PUSH2 0x2CA DUP3 PUSH2 0x288 JUMP JUMPDEST PUSH2 0x2D4 DUP2 DUP6 PUSH2 0x292 JUMP JUMPDEST SWAP4 POP PUSH2 0x2E4 DUP2 DUP6 PUSH1 0x20 DUP7 ADD PUSH2 0x2A2 JUMP JUMPDEST PUSH2 0x2ED DUP2 PUSH2 0x2B0 JUMP JUMPDEST DUP5 ADD SWAP2 POP POP SWAP3 SWAP2 POP POP JUMP JUMPDEST PUSH0 PUSH1 0x20 DUP3 ADD SWAP1 POP DUP2 DUP2 SUB PUSH0 DUP4 ADD MSTORE PUSH2 0x310 DUP2 DUP5 PUSH2 0x2C0 JUMP JUMPDEST SWAP1 POP SWAP3 SWAP2 POP POP JUMP JUMPDEST PUSH0 PUSH0 REVERT JUMPDEST PUSH0 PUSH10 0xFFFFFFFFFFFFFFFFFFFF DUP3 AND SWAP1 POP SWAP2 SWAP1 POP JUMP JUMPDEST PUSH2 0x33A DUP2 PUSH2 0x31C JUMP JUMPDEST DUP2 EQ PUSH2 0x344 JUMPI PUSH0 PUSH0 REVERT JUMPDEST POP JUMP JUMPDEST PUSH0 DUP2 CALLDATALOAD SWAP1 POP PUSH2 0x355 DUP2 PUSH2 0x331 JUMP JUMPDEST SWAP3 SWAP2 POP POP JUMP JUMPDEST PUSH0 PUSH1 0x20 DUP3 DUP5 SUB SLT ISZERO PUSH2 0x370 JUMPI PUSH2 0x36F PUSH2 0x318 JUMP JUMPDEST JUMPDEST PUSH0 PUSH2 0x37D DUP5 DUP3 DUP6 ADD PUSH2 0x347 JUMP JUMPDEST SWAP2 POP POP SWAP3 SWAP2 POP POP JUMP JUMPDEST PUSH2 0x38F DUP2 PUSH2 0x31C JUMP JUMPDEST DUP3 MSTORE POP POP JUMP JUMPDEST PUSH0 DUP2 SWAP1 POP SWAP2 SWAP1 POP JUMP JUMPDEST PUSH2 0x3A7 DUP2 PUSH2 0x395 JUMP JUMPDEST DUP3 MSTORE POP POP JUMP JUMPDEST PUSH0 PUSH1 0xA0 DUP3 ADD SWAP1 POP PUSH2 0x3C0 PUSH0 DUP4 ADD DUP9 PUSH2 0x386 JUMP JUMPDEST PUSH2 0x3CD PUSH1 0x20 DUP4 ADD DUP8 PUSH2 0x39E JUMP JUMPDEST PUSH2 0x3DA PUSH1 0x40 DUP4 ADD DUP7 PUSH2 0x260 JUMP JUMPDEST PUSH2 0x3E7 PUSH1 0x60 DUP4 ADD DUP6 PUSH2 0x260 JUMP JUMPDEST PUSH2 0x3F4 PUSH1 0x80 DUP4 ADD DUP5 PUSH2 0x386 JUMP JUMPDEST SWAP7 SWAP6 POP POP POP POP POP POP JUMP JUMPDEST PUSH2 0x407 DUP2 PUSH2 0x395 JUMP JUMPDEST DUP2 EQ PUSH2 0x411 JUMPI PUSH0 PUSH0 REVERT JUMPDEST POP JUMP JUMPDEST PUSH0 DUP2 CALLDATALOAD SWAP1 POP PUSH2 0x422 DUP2 PUSH2 0x3FE JUMP JUMPDEST SWAP3 SWAP2 POP POP JUMP JUMPDEST PUSH0 PUSH1 0x20 DUP3 DUP5 SUB SLT ISZERO PUSH2 0x43D JUMPI PUSH2 0x43C PUSH2 0x318 JUMP JUMPDEST JUMPDEST PUSH0 PUSH2 0x44A DUP5 DUP3 DUP6 ADD PUSH2 0x414 JUMP JUMPDEST SWAP2 POP POP SWAP3 SWAP2 POP POP JUMP JUMPDEST PUSH32 0x4E487B7100000000000000000000000000000000000000000000000000000000 PUSH0 MSTORE PUSH1 0x22 PUSH1 0x4 MSTORE PUSH1 0x24 PUSH0 REVERT JUMPDEST PUSH0 PUSH1 0x2 DUP3 DIV SWAP1 POP PUSH1 0x1 DUP3 AND DUP1 PUSH2 0x497 JUMPI PUSH1 0x7F DUP3 AND SWAP2 POP JUMPDEST PUSH1 0x20 DUP3 LT DUP2 SUB PUSH2 0x4AA JUMPI PUSH2 0x4A9 PUSH2 0x453 JUMP JUMPDEST JUMPDEST POP SWAP2 SWAP1 POP JUMP INVALID LOG2 PUSH5 0x6970667358 0x22 SLT KECCAK256 NOT PUSH32 0x5FB0118760E55F218E2B3ED51F68B792732648C49C76612F15EF1C50A65A6473 PUSH16 0x6C634300081E00330000000000000000 "
				},
				"gasEstimates": {
					"creation": {
						"codeDepositCost": "250800",
						"executionCost": "infinite",
						"totalCost": "infinite"
					},
					"external": {
						"decimals()": "2451",
						"description()": "infinite",
						"getRoundData(uint80)": "infinite",
						"latestRoundData()": "infinite",
						"setPrice(int256)": "22580",
						"version()": "2432"
					}
				},
				"methodIdentifiers": {
					"decimals()": "313ce567",
					"description()": "7284e416",
					"getRoundData(uint80)": "9a6fc8f5",
					"latestRoundData()": "feaf968c",
					"setPrice(int256)": "f7a30806",
					"version()": "54fd4d50"
				}
			},
			"storageLayout": {
				"storage": [
					{
						"astId": 52,
						"contract": "contracts/mocks/MockPriceFeed.sol:MockPriceFeed",
						"label": "_price",
						"offset": 0,
						"slot": "0",
						"type": "t_int256"
					},
					{
						"astId": 54,
						"contract": "contracts/mocks/MockPriceFeed.sol:MockPriceFeed",
						"label": "_decimals",
						"offset": 0,
						"slot": "1",
						"type": "t_uint8"
					},
					{
						"astId": 56,
						"contract": "contracts/mocks/MockPriceFeed.sol:MockPriceFeed",
						"label": "_description",
						"offset": 0,
						"slot": "2",
						"type": "t_string_storage"
					},
					{
						"astId": 58,
						"contract": "contracts/mocks/MockPriceFeed.sol:MockPriceFeed",
						"label": "_version",
						"offset": 0,
						"slot": "3",
						"type": "t_uint256"
					}
				],
				"types": {
					"t_int256": {
						"encoding": "inplace",
						"label": "int256",
						"numberOfBytes": "32"
					},
					"t_string_storage": {
						"encoding": "bytes",
						"label": "string",
						"numberOfBytes": "32"
					},
					"t_uint256": {
						"encoding": "inplace",
						"label": "uint256",
						"numberOfBytes": "32"
					},
					"t_uint8": {
						"encoding": "inplace",
						"label": "uint8",
						"numberOfBytes": "1"
					}
				}
			},
			"userdoc": {
				"kind": "user",
				"methods": {},
				"version": 1
			}
		}
	}
}